{
  "hex": "0100000001c7061e08e18bb92bd031916c5026b3dd537bb7758c6d1cfa250666ad403edb33010000006a4730440220290f80d61019a267d9ecb47668fc54a446a4ed18db4d99dcda4ad76d120aa4170220306af4f936da5299bb0225ce35fa16fb7ab4f92ec0e4ab99d7f9ebccec1afb9f012102492c358ea63726b787d77af1735916f8902f810e3cec470b14d9cb9fc2aaeb1fffffffff02208b3a060000000017a91407b5aa90abb52d660828e8f81770c2e6921d18e08788ade239010000001976a914598c699c6fb5c6b53ab29420b93ef95d4a183f4488ac00000000",
  "txid": "01ba6d355f1ac157b1a0c2354b577051d34eca6fa199140a294ddb2eff79c566",
  "hash": "01ba6d355f1ac157b1a0c2354b577051d34eca6fa199140a294ddb2eff79c566",
  "size": 223,
  "vsize": 223,
  "version": 1,
  "locktime": 0,
  "vin": [
    {
      "txid": "33db3e40ad660625fa1c6d8c75b77b53ddb326506c9131d02bb98be1081e06c7",
      "vout": 1,
      "scriptSig": {
        "asm": "30440220290f80d61019a267d9ecb47668fc54a446a4ed18db4d99dcda4ad76d120aa4170220306af4f936da5299bb0225ce35fa16fb7ab4f92ec0e4ab99d7f9ebccec1afb9f[ALL] 02492c358ea63726b787d77af1735916f8902f810e3cec470b14d9cb9fc2aaeb1f",
        "hex": "4730440220290f80d61019a267d9ecb47668fc54a446a4ed18db4d99dcda4ad76d120aa4170220306af4f936da5299bb0225ce35fa16fb7ab4f92ec0e4ab99d7f9ebccec1afb9f012102492c358ea63726b787d77af1735916f8902f810e3cec470b14d9cb9fc2aaeb1f"
      },
      "sequence": 4294967295
    }
  ],
  "vout": [
    {
      "value": 1.04500000,
      "n": 0,
      "scriptPubKey": {
        "asm": "OP_HASH160 07b5aa90abb52d660828e8f81770c2e6921d18e0 OP_EQUAL",
        "hex": "a91407b5aa90abb52d660828e8f81770c2e6921d18e087",
        "reqSigs": 1,
        "type": "scripthash",
        "addresses": [
          "9s9328H424353zzzzzzzzzzzzzzzVV8DJd"
        ]
      }
    },
    {
      "value": 52.66124168,
      "n": 1,
      "scriptPubKey": {
        "asm": "OP_DUP OP_HASH160 598c699c6fb5c6b53ab29420b93ef95d4a183f44 OP_EQUALVERIFY OP_CHECKSIG",
        "hex": "76a914598c699c6fb5c6b53ab29420b93ef95d4a183f4488ac",
        "reqSigs": 1,
        "type": "pubkeyhash",
        "addresses": [
          "DDJatNB6vg5oqNoKT62aaqgyBQ7Pzuv4Y2"
        ]
      }
    }
  ],
  "blockhash": "bf6d1571eeed882c659a893efeeef8e2c31963faafb3cce533eaa64cfa69631d",
  "confirmations": 1571934,
  "time": 1571540022,
  "blocktime": 1571540022
}
