{
  "hex": "01000000017074b844474d9f20fb98b13aac215ea719f349ae267f67aa4c32373406b001fd080000006a473044022075e026e2fc7e2a3d757a8c15fc4bb4d71745dff43ea3a474a851f6f451ef513b02206f227e2121ac8fd079e93a4645491487e28b461b1b1db9d750be6e4fbcfa77ba0121023f22a5134aca62c163c08f36bc8ab762c2e77f4b9aa26bcc2bec89ba998a9367feffffff04b8630000000000001976a91455bcddac6fae3ade75226744ea5125d1703e152488ac7a04ef84cd0000001976a9141ff146f7a6b3cf208749aae54c7bb5b1063c1f6c88ac112700000000000017a9140e039d5fe090bfa46a2706c966a9d4c039ae5793870c5365d9450000001976a914d4f174442cceb5bf71ab91dafcfbfc03be7106c988acf4b53000",
  "txid": "091aed854be8b111a450ce7fd6f0f8da296fa9767cb431be7fe2cd79f450f0d3",
  "hash": "091aed854be8b111a450ce7fd6f0f8da296fa9767cb431be7fe2cd79f450f0d3",
  "size": 291,
  "vsize": 291,
  "version": 1,
  "locktime": 3192308,
  "vin": [
    {
      "txid": "fd01b0063437324caa677f26ae49f319a75e21ac3ab198fb209f4d4744b87470",
      "vout": 8,
      "scriptSig": {
        "asm": "3044022075e026e2fc7e2a3d757a8c15fc4bb4d71745dff43ea3a474a851f6f451ef513b02206f227e2121ac8fd079e93a4645491487e28b461b1b1db9d750be6e4fbcfa77ba[ALL] 023f22a5134aca62c163c08f36bc8ab762c2e77f4b9aa26bcc2bec89ba998a9367",
        "hex": "473044022075e026e2fc7e2a3d757a8c15fc4bb4d71745dff43ea3a474a851f6f451ef513b02206f227e2121ac8fd079e93a4645491487e28b461b1b1db9d750be6e4fbcfa77ba0121023f22a5134aca62c163c08f36bc8ab762c2e77f4b9aa26bcc2bec89ba998a9367"
      },
      "sequence": 4294967294
    }
  ],
  "vout": [
    {
      "value": 0.00025528,
      "n": 0,
      "scriptPubKey": {
        "asm": "OP_DUP OP_HASH160 55bcddac6fae3ade75226744ea5125d1703e1524 OP_EQUALVERIFY OP_CHECKSIG",
        "hex": "76a91455bcddac6fae3ade75226744ea5125d1703e152488ac",
        "reqSigs": 1,
        "type": "pubkeyhash",
        "addresses": [
          "DCxSECREThBEACHhSoLhLLCxdbzzXeMuuj"
        ]
      }
    },
    {
      "value": 8826.98552442,
      "n": 1,
      "scriptPubKey": {
        "asm": "OP_DUP OP_HASH160 1ff146f7a6b3cf208749aae54c7bb5b1063c1f6c OP_EQUALVERIFY OP_CHECKSIG",
        "hex": "76a9141ff146f7a6b3cf208749aae54c7bb5b1063c1f6c88ac",
        "reqSigs": 1,
        "type": "pubkeyhash",
        "addresses": [
          "D83zXSUewQcTDd148QYc93wMuP9xe14YxR"
        ]
      }
    },
    {
      "value": 0.00010001,
      "n": 2,
      "scriptPubKey": {
        "asm": "OP_HASH160 0e039d5fe090bfa46a2706c966a9d4c039ae5793 OP_EQUAL",
        "hex": "a9140e039d5fe090bfa46a2706c966a9d4c039ae579387",
        "reqSigs": 1,
        "type": "scripthash",
        "addresses": [
          "9siNTERNALxTRANSzzzzzzzzzzzzba2DLb"
        ]
      }
    },
    {
      "value": 3000.00039692,
      "n": 3,
      "scriptPubKey": {
        "asm": "OP_DUP OP_HASH160 d4f174442cceb5bf71ab91dafcfbfc03be7106c9 OP_EQUALVERIFY OP_CHECKSIG",
        "hex": "76a914d4f174442cceb5bf71ab91dafcfbfc03be7106c988ac",
        "reqSigs": 1,
        "type": "pubkeyhash",
        "addresses": [
          "DQZ33TQFS6QuUdb7KJ9vSt1yV6yBeg5qrH"
        ]
      }
    }
  ],
  "blockhash": "5735a48308120dd713d85912592a0a4db42818889256d551b944b5b836cd6bce",
  "confirmations": 1322694,
  "time": 1587176453,
  "blocktime": 1587176453
}
