{
  "hex": "0100000001ec98228a10e7e3cb489707a715f30feadf2f08e1f5a0c76429deb851f6616e68010000006b483045022100e3ca49203de73e8fa381855a9c449424dda3b060095442cc63cb3a2d8b1356b602207f6de094fcd6e9a5b8fb71dcc171efa6ce87495d80bf468b114ddf3c0f379def01210205a3960660f80f62395065fcc175f05cdeaac76338fb9ca8e5e6270e438fbb52feffffff0507f2cd1d000000001976a9148d31aab9801287e74fc2fb74af5149e45606148488ac10270000000000001976a91455b8550e4cbb442c60492c3a2b5ca8ae6efa09c588ac102700000000000017a9140b296ba775c75004c6974579ba7314a9c0772a7e87102700000000000017a91409d06469d614ad89e25c269e54376d76d5150e3987102700000000000017a9140ad17b66d08b1d037a39a45613a7b06c894c813f874bfc3200",
  "txid": "0bd18a2161038ffd10f0cdf8b61fc83154d48f2b6df00ebd87f5d9c2ea7e7d2b",
  "hash": "0bd18a2161038ffd10f0cdf8b61fc83154d48f2b6df00ebd87f5d9c2ea7e7d2b",
  "size": 322,
  "vsize": 322,
  "version": 1,
  "locktime": 3341387,
  "vin": [
    {
      "txid": "686e61f651b8de2964c7a0f5e1082fdfea0ff315a7079748cbe3e7108a2298ec",
      "vout": 1,
      "scriptSig": {
        "asm": "3045022100e3ca49203de73e8fa381855a9c449424dda3b060095442cc63cb3a2d8b1356b602207f6de094fcd6e9a5b8fb71dcc171efa6ce87495d80bf468b114ddf3c0f379def[ALL] 0205a3960660f80f62395065fcc175f05cdeaac76338fb9ca8e5e6270e438fbb52",
        "hex": "483045022100e3ca49203de73e8fa381855a9c449424dda3b060095442cc63cb3a2d8b1356b602207f6de094fcd6e9a5b8fb71dcc171efa6ce87495d80bf468b114ddf3c0f379def01210205a3960660f80f62395065fcc175f05cdeaac76338fb9ca8e5e6270e438fbb52"
      },
      "sequence": 4294967294
    }
  ],
  "vout": [
    {
      "value": 5.00036103,
      "n": 0,
      "scriptPubKey": {
        "asm": "OP_DUP OP_HASH160 8d31aab9801287e74fc2fb74af5149e456061484 OP_EQUALVERIFY OP_CHECKSIG",
        "hex": "76a9148d31aab9801287e74fc2fb74af5149e45606148488ac",
        "reqSigs": 1,
        "type": "pubkeyhash",
        "addresses": [
          "DJ1fKDsbZ9UNn5EeCASeiRuTCeCZbPFMRs"
        ]
      }
    },
    {
      "value": 0.00010000,
      "n": 1,
      "scriptPubKey": {
        "asm": "OP_DUP OP_HASH160 55b8550e4cbb442c60492c3a2b5ca8ae6efa09c5 OP_EQUALVERIFY OP_CHECKSIG",
        "hex": "76a91455b8550e4cbb442c60492c3a2b5ca8ae6efa09c588ac",
        "reqSigs": 1,
        "type": "pubkeyhash",
        "addresses": [
          "DCxLoCALxWiNDoWSxTESTzzzzzzzWoRu2D"
        ]
      }
    },
    {
      "value": 0.00010000,
      "n": 2,
      "scriptPubKey": {
        "asm": "OP_HASH160 0b296ba775c75004c6974579ba7314a9c0772a7e OP_EQUAL",
        "hex": "a9140b296ba775c75004c6974579ba7314a9c0772a7e87",
        "reqSigs": 1,
        "type": "scripthash",
        "addresses": [
          "9sTHiSxTESTxiSxSENTxFRoMxAzzXManny"
        ]
      }
    },
    {
      "value": 0.00010000,
      "n": 3,
      "scriptPubKey": {
        "asm": "OP_HASH160 09d06469d614ad89e25c269e54376d76d5150e39 OP_EQUAL",
        "hex": "a91409d06469d614ad89e25c269e54376d76d5150e3987",
        "reqSigs": 1,
        "type": "scripthash",
        "addresses": [
          "9sLAPToPxRUNNiNGxWiNDoWSx1ozViZK8x"
        ]
      }
    },
    {
      "value": 0.00010000,
      "n": 4,
      "scriptPubKey": {
        "asm": "OP_HASH160 0ad17b66d08b1d037a39a45613a7b06c894c813f OP_EQUAL",
        "hex": "a9140ad17b66d08b1d037a39a45613a7b06c894c813f87",
        "reqSigs": 1,
        "type": "scripthash",
        "addresses": [
          "9sRUNNiNGxDoGECoiNxCoREhzzzzUCwbu6"
        ]
      }
    }
  ],
  "blockhash": "b3a4b2edd39f3dd20da89009cba93fb54f8e077421d4c214b9592362a1648b6f",
  "confirmations": 1173761,
  "time": 1596546442,
  "blocktime": 1596546442
}
