{
  "hex": "01000000012656afb9c60e51a0d211337a465f85b2607f9cf9e73a7fea404d8a6569600558000000006a473044022032c86a550e1216e0c206084ddd07e3c35c8ef741f696edbd52e17c4bf959614b02206a2f1cd6e2a8cf7d4e3273d9d3d56efd63778d5317ed827bc355972311a80f2d012103a2e66171826ae9d41649367fa4357fef16b6c5ffae1684e495ddf66faba62073ffffffff02d3e8f505000000001976a91455b225aebdbc98e3c4bc57fbc420fed8c3978e4988acd1daf648000000001976a9145af194f69354605384d6ed9e74edad58a1eb5c5488ac00000000",
  "txid": "0d7b405d973f67526969a00461f9062b80e7b8c68d323265cadd20e0d8f63cd7",
  "hash": "0d7b405d973f67526969a00461f9062b80e7b8c68d323265cadd20e0d8f63cd7",
  "size": 225,
  "vsize": 225,
  "version": 1,
  "locktime": 0,
  "vin": [
    {
      "txid": "58056069658a4d40ea7f3ae7f99c7f60b2855f467a3311d2a0510ec6b9af5626",
      "vout": 0,
      "scriptSig": {
        "asm": "3044022032c86a550e1216e0c206084ddd07e3c35c8ef741f696edbd52e17c4bf959614b02206a2f1cd6e2a8cf7d4e3273d9d3d56efd63778d5317ed827bc355972311a80f2d[ALL] 03a2e66171826ae9d41649367fa4357fef16b6c5ffae1684e495ddf66faba62073",
        "hex": "473044022032c86a550e1216e0c206084ddd07e3c35c8ef741f696edbd52e17c4bf959614b02206a2f1cd6e2a8cf7d4e3273d9d3d56efd63778d5317ed827bc355972311a80f2d012103a2e66171826ae9d41649367fa4357fef16b6c5ffae1684e495ddf66faba62073"
      },
      "sequence": 4294967295
    }
  ],
  "vout": [
    {
      "value": 1.00002003,
      "n": 0,
      "scriptPubKey": {
        "asm": "OP_DUP OP_HASH160 55b225aebdbc98e3c4bc57fbc420fed8c3978e49 OP_EQUALVERIFY OP_CHECKSIG",
        "hex": "76a91455b225aebdbc98e3c4bc57fbc420fed8c3978e4988ac",
        "reqSigs": 1,
        "type": "pubkeyhash",
        "addresses": [
          "DCxDPSxNoWxSERViNGxAzzzzzzzza5R6yb"
        ]
      }
    },
    {
      "value": 12.24137425,
      "n": 1,
      "scriptPubKey": {
        "asm": "OP_DUP OP_HASH160 5af194f69354605384d6ed9e74edad58a1eb5c54 OP_EQUALVERIFY OP_CHECKSIG",
        "hex": "76a9145af194f69354605384d6ed9e74edad58a1eb5c5488ac",
        "reqSigs": 1,
        "type": "pubkeyhash",
        "addresses": [
          "DDRxkvidW2VAvJT6oTr9bTUu6vd52aV9A9"
        ]
      }
    }
  ],
  "blockhash": "54bf8a394beeb05c86d01698b96510278e65532101f3c286c5e20df9cabb2670",
  "confirmations": 1585037,
  "time": 1570717813,
  "blocktime": 1570717813
}
