{
  "hex": "01000000015dd14a0b227dec50ad86f3ee94a57cedc151f82f3d94b4077d948230cb62c55e000000006b48304502210096cd9a78f60b17761e661531bcbfb1e57f170784bf9a254fec5eb1341da8b42302201bcd3ec19aa277f3a7c715b2db4374b227f9914b25355d162e8eb933f2beb161012102c5eca871871d2b4410a0218a345200b4fe1e2d1c5772964acfe0863c454f6ef9ffffffff0200e1f5050000000017a9140b011ab4520a3233c0d95c3c4e18cc0282f92d6187fa79bf0c000000001976a9145fa6cec9aa1a888bd1a32040eef451c98a159ab988ac00000000",
  "txid": "10ca2cafb326c8e36b4ea6883d69887f08ffe7e8772117e02165843802775a0f",
  "hash": "10ca2cafb326c8e36b4ea6883d69887f08ffe7e8772117e02165843802775a0f",
  "size": 224,
  "vsize": 224,
  "version": 1,
  "locktime": 0,
  "vin": [
    {
      "txid": "5ec562cb3082947d07b4943d2ff851c1ed7ca594eef386ad50ec7d220b4ad15d",
      "vout": 0,
      "scriptSig": {
        "asm": "304502210096cd9a78f60b17761e661531bcbfb1e57f170784bf9a254fec5eb1341da8b42302201bcd3ec19aa277f3a7c715b2db4374b227f9914b25355d162e8eb933f2beb161[ALL] 02c5eca871871d2b4410a0218a345200b4fe1e2d1c5772964acfe0863c454f6ef9",
        "hex": "48304502210096cd9a78f60b17761e661531bcbfb1e57f170784bf9a254fec5eb1341da8b42302201bcd3ec19aa277f3a7c715b2db4374b227f9914b25355d162e8eb933f2beb161012102c5eca871871d2b4410a0218a345200b4fe1e2d1c5772964acfe0863c454f6ef9"
      },
      "sequence": 4294967295
    }
  ],
  "vout": [
    {
      "value": 1.00000000,
      "n": 0,
      "scriptPubKey": {
        "asm": "OP_HASH160 0b011ab4520a3233c0d95c3c4e18cc0282f92d61 OP_EQUAL",
        "hex": "a9140b011ab4520a3233c0d95c3c4e18cc0282f92d6187",
        "reqSigs": 1,
        "type": "scripthash",
        "addresses": [
          "9sSTREETSxoFxEVANGELiNEzzzzzVHhC1p"
        ]
      }
    },
    {
      "value": 2.13875194,
      "n": 1,
      "scriptPubKey": {
        "asm": "OP_DUP OP_HASH160 5fa6cec9aa1a888bd1a32040eef451c98a159ab9 OP_EQUALVERIFY OP_CHECKSIG",
        "hex": "76a9145fa6cec9aa1a888bd1a32040eef451c98a159ab988ac",
        "reqSigs": 1,
        "type": "pubkeyhash",
        "addresses": [
          "DDrrZVKGDnftg2i7bVnGudhB1tu8MCPG9f"
        ]
      }
    }
  ],
  "blockhash": "f02009635904e574ff4b7aab00104247a64f8739d6cc50b6e9fb4d8e5908e752",
  "confirmations": 1571043,
  "time": 1571586308,
  "blocktime": 1571586308
}
