{
  "hex": "0100000001570fa85567b9b1f9c1970a1514578988a05079aeb2a33a30311e8ce2b8422454010000006a47304402202b5c050000ddee38a2fb697947ca34c59154289e397c88bfa684aa12f30b7cd9022048a1da395e415b53f8f3663020f8e7c09434421891ae0dc0daf56cba05a7c81b0121022772881441744e930854218b8b01b120f831eac220d70945b10878a61834e762ffffffff021010f705000000001976a91455ba5d853f69be9ff3cd8e8c87b9b3016bd7aa1588ac968c4125000000001976a914f27b5b5f760b2c39e8d15d07855b92e2e6bbfa0e88ac00000000",
  "txid": "150e459f8de95f9ee0e8816a0bdafbf7da19d4d442923ccfe2c41e779fb8c17a",
  "hash": "150e459f8de95f9ee0e8816a0bdafbf7da19d4d442923ccfe2c41e779fb8c17a",
  "size": 225,
  "vsize": 225,
  "version": 1,
  "locktime": 0,
  "vin": [
    {
      "txid": "542442b8e28c1e31303aa3b2ae7950a088895714150a97c1f9b1b96755a80f57",
      "vout": 1,
      "scriptSig": {
        "asm": "304402202b5c050000ddee38a2fb697947ca34c59154289e397c88bfa684aa12f30b7cd9022048a1da395e415b53f8f3663020f8e7c09434421891ae0dc0daf56cba05a7c81b[ALL] 022772881441744e930854218b8b01b120f831eac220d70945b10878a61834e762",
        "hex": "47304402202b5c050000ddee38a2fb697947ca34c59154289e397c88bfa684aa12f30b7cd9022048a1da395e415b53f8f3663020f8e7c09434421891ae0dc0daf56cba05a7c81b0121022772881441744e930854218b8b01b120f831eac220d70945b10878a61834e762"
      },
      "sequence": 4294967295
    }
  ],
  "vout": [
    {
      "value": 1.00077584,
      "n": 0,
      "scriptPubKey": {
        "asm": "OP_DUP OP_HASH160 55ba5d853f69be9ff3cd8e8c87b9b3016bd7aa15 OP_EQUALVERIFY OP_CHECKSIG",
        "hex": "76a91455ba5d853f69be9ff3cd8e8c87b9b3016bd7aa1588ac",
        "reqSigs": 1,
        "type": "pubkeyhash",
        "addresses": [
          "DCxPETERTHiELxiSxHARiSELDoNzZDLUXx"
        ]
      }
    },
    {
      "value": 6.25052822,
      "n": 1,
      "scriptPubKey": {
        "asm": "OP_DUP OP_HASH160 f27b5b5f760b2c39e8d15d07855b92e2e6bbfa0e OP_EQUALVERIFY OP_CHECKSIG",
        "hex": "76a914f27b5b5f760b2c39e8d15d07855b92e2e6bbfa0e88ac",
        "reqSigs": 1,
        "type": "pubkeyhash",
        "addresses": [
          "DTFDqfrwgXMp2P7xydjZ7Gkn7gBKMnRQdw"
        ]
      }
    }
  ],
  "blockhash": "88e5a62e95e6eebaaec2195d7b6ed303172f37a8a2faf8ffe6d02afca9532ba6",
  "confirmations": 1573979,
  "time": 1571403422,
  "blocktime": 1571403422
}
