{
  "hex": "01000000018a65a22f2bdd91861eb013f72a1cedc204e134d54e11826378b0d0ab177f862c0b0000006a47304402201444ae9d8b5d4a52d54c3de87da408584b58e2d0e991d296d747cbf9952fc85a022003a8a875cae102f79a39ff10da42b8bed19f8607054cb557ce65e0e311ae565c01210377ff200d853315aeda2eb490ca4c02c93418092cb940de99856d489486bb37bbfeffffff1010270000000000001976a91455b203790ae331557bfcdb6147d0ae6fc30d34f388ac10270000000000001976a91455b55ae503e2930561515924023303d171641d1c88ac10270000000000001976a91455cad37559f4adb27446d3440bce7348f23780a388ac10270000000000001976a91455bdbe4b72f0b04bb7d6efb35c329009ef5a4fad88ac4f2ad940140100001976a914bb7831c9a5579e65638ec9ca7a13f6c5c4b206c588ac10270000000000001976a91455cad4c1c127a44ad68b820fe2233e92d49fb82388ac10270000000000001976a91455ba9017e0f7de52553640fce1cfb3bec9caed3688ac10270000000000001976a91455b58b3d700cfd3bb16cee77d5417b2ec111a98788ac10270000000000001976a91455bdbe9610e4d2cc7f2207ac9ea1921644f6bd9288ac10270000000000001976a91455bbf951e16ec8a77e09c9c8c9d626306235452488ac10270000000000001976a91455ba5eccfe6f886502d02891a136d314c16c359788ac10270000000000001976a91455bd57d218e4e8e824926382579a7fd7a653f30f88ac10270000000000001976a91455bdc05525609b475340f939dd6f44f675607d2f88ac10270000000000001976a91455afb184d86f8d90d19b04c446e58fd58655a09588ac10270000000000001976a91455b76dd7a2b32c882e7a3a7c05720e08df04c8b288ac10270000000000001976a91455bccf8aa156349e738f2b9cc26e79cee7b45aac88acc05b2e00",
  "txid": "18468f8aad5dbe822a7a78fe8293a790bc8c2b4d91c82a172a3b19c163d1b1d5",
  "hash": "18468f8aad5dbe822a7a78fe8293a790bc8c2b4d91c82a172a3b19c163d1b1d5",
  "size": 701,
  "vsize": 701,
  "version": 1,
  "locktime": 3038144,
  "vin": [
    {
      "txid": "2c867f17abd0b0786382114ed534e104c2ed1c2af713b01e8691dd2b2fa2658a",
      "vout": 11,
      "scriptSig": {
        "asm": "304402201444ae9d8b5d4a52d54c3de87da408584b58e2d0e991d296d747cbf9952fc85a022003a8a875cae102f79a39ff10da42b8bed19f8607054cb557ce65e0e311ae565c[ALL] 0377ff200d853315aeda2eb490ca4c02c93418092cb940de99856d489486bb37bb",
        "hex": "47304402201444ae9d8b5d4a52d54c3de87da408584b58e2d0e991d296d747cbf9952fc85a022003a8a875cae102f79a39ff10da42b8bed19f8607054cb557ce65e0e311ae565c01210377ff200d853315aeda2eb490ca4c02c93418092cb940de99856d489486bb37bb"
      },
      "sequence": 4294967294
    }
  ],
  "vout": [
    {
      "value": 0.00010000,
      "n": 0,
      "scriptPubKey": {
        "asm": "OP_DUP OP_HASH160 55b203790ae331557bfcdb6147d0ae6fc30d34f3 OP_EQUALVERIFY OP_CHECKSIG",
        "hex": "76a91455b203790ae331557bfcdb6147d0ae6fc30d34f388ac",
        "reqSigs": 1,
        "type": "pubkeyhash",
        "addresses": [
          "DCxDEARxKHoUzzzzzzzzzzzzzzzzUF1FR2"
        ]
      }
    },
    {
      "value": 0.00010000,
      "n": 1,
      "scriptPubKey": {
        "asm": "OP_DUP OP_HASH160 55b55ae503e2930561515924023303d171641d1c OP_EQUALVERIFY OP_CHECKSIG",
        "hex": "76a91455b55ae503e2930561515924023303d171641d1c88ac",
        "reqSigs": 1,
        "type": "pubkeyhash",
        "addresses": [
          "DCxHELLovxHoWxARExYoUkzzzzzzRc7Dgf"
        ]
      }
    },
    {
      "value": 0.00010000,
      "n": 2,
      "scriptPubKey": {
        "asm": "OP_DUP OP_HASH160 55cad37559f4adb27446d3440bce7348f23780a3 OP_EQUALVERIFY OP_CHECKSIG",
        "hex": "76a91455cad37559f4adb27446d3440bce7348f23780a388ac",
        "reqSigs": 1,
        "type": "pubkeyhash",
        "addresses": [
          "DCxixAMxDoiNGxWELLhzzzzzzzzzU7w1d6"
        ]
      }
    },
    {
      "value": 0.00010000,
      "n": 3,
      "scriptPubKey": {
        "asm": "OP_DUP OP_HASH160 55bdbe4b72f0b04bb7d6efb35c329009ef5a4fad OP_EQUALVERIFY OP_CHECKSIG",
        "hex": "76a91455bdbe4b72f0b04bb7d6efb35c329009ef5a4fad88ac",
        "reqSigs": 1,
        "type": "pubkeyhash",
        "addresses": [
          "DCxTHANKSxFoRxASKiNGhzzzzzzzWu5KQh"
        ]
      }
    },
    {
      "value": 11864.98947663,
      "n": 4,
      "scriptPubKey": {
        "asm": "OP_DUP OP_HASH160 bb7831c9a5579e65638ec9ca7a13f6c5c4b206c5 OP_EQUALVERIFY OP_CHECKSIG",
        "hex": "76a914bb7831c9a5579e65638ec9ca7a13f6c5c4b206c588ac",
        "reqSigs": 1,
        "type": "pubkeyhash",
        "addresses": [
          "DNELtPZcjdencSNTPvMgayu5BskkTQF112"
        ]
      }
    },
    {
      "value": 0.00010000,
      "n": 5,
      "scriptPubKey": {
        "asm": "OP_DUP OP_HASH160 55cad4c1c127a44ad68b820fe2233e92d49fb823 OP_EQUALVERIFY OP_CHECKSIG",
        "hex": "76a91455cad4c1c127a44ad68b820fe2233e92d49fb82388ac",
        "reqSigs": 1,
        "type": "pubkeyhash",
        "addresses": [
          "DCxixWoULDxLiKExFoRxYoUxTozzWq5WCs"
        ]
      }
    },
    {
      "value": 0.00010000,
      "n": 6,
      "scriptPubKey": {
        "asm": "OP_DUP OP_HASH160 55ba9017e0f7de52553640fce1cfb3bec9caed36 OP_EQUALVERIFY OP_CHECKSIG",
        "hex": "76a91455ba9017e0f7de52553640fce1cfb3bec9caed3688ac",
        "reqSigs": 1,
        "type": "pubkeyhash",
        "addresses": [
          "DCxPUBLiSHxANxARTiCLExABoUTzVzGB1i"
        ]
      }
    },
    {
      "value": 0.00010000,
      "n": 7,
      "scriptPubKey": {
        "asm": "OP_DUP OP_HASH160 55b58b3d700cfd3bb16cee77d5417b2ec111a987 OP_EQUALVERIFY OP_CHECKSIG",
        "hex": "76a91455b58b3d700cfd3bb16cee77d5417b2ec111a98788ac",
        "reqSigs": 1,
        "type": "pubkeyhash",
        "addresses": [
          "DCxHTTPSwffDiMEhCASHzzzzzzzzYqAXa2"
        ]
      }
    },
    {
      "value": 0.00010000,
      "n": 8,
      "scriptPubKey": {
        "asm": "OP_DUP OP_HASH160 55bdbe9610e4d2cc7f2207ac9ea1921644f6bd92 OP_EQUALVERIFY OP_CHECKSIG",
        "hex": "76a91455bdbe9610e4d2cc7f2207ac9ea1921644f6bd9288ac",
        "reqSigs": 1,
        "type": "pubkeyhash",
        "addresses": [
          "DCxTHExSYSTEMxPRESENTSxAzzzzWvbSP9"
        ]
      }
    },
    {
      "value": 0.00010000,
      "n": 9,
      "scriptPubKey": {
        "asm": "OP_DUP OP_HASH160 55bbf951e16ec8a77e09c9c8c9d6263062354524 OP_EQUALVERIFY OP_CHECKSIG",
        "hex": "76a91455bbf951e16ec8a77e09c9c8c9d626306235452488ac",
        "reqSigs": 1,
        "type": "pubkeyhash",
        "addresses": [
          "DCxRADiCALLYxNEWxWAYxFoRzzzzYrtt3y"
        ]
      }
    },
    {
      "value": 0.00010000,
      "n": 10,
      "scriptPubKey": {
        "asm": "OP_DUP OP_HASH160 55ba5eccfe6f886502d02891a136d314c16c3597 OP_EQUALVERIFY OP_CHECKSIG",
        "hex": "76a91455ba5eccfe6f886502d02891a136d314c16c359788ac",
        "reqSigs": 1,
        "type": "pubkeyhash",
        "addresses": [
          "DCxPEoPLExToxUSExCRYPTohzzzzUBScy7"
        ]
      }
    },
    {
      "value": 0.00010000,
      "n": 11,
      "scriptPubKey": {
        "asm": "OP_DUP OP_HASH160 55bd57d218e4e8e824926382579a7fd7a653f30f OP_EQUALVERIFY OP_CHECKSIG",
        "hex": "76a91455bd57d218e4e8e824926382579a7fd7a653f30f88ac",
        "reqSigs": 1,
        "type": "pubkeyhash",
        "addresses": [
          "DCxSoMEoNExNEEDSxToxBREAKzzzXue5ur"
        ]
      }
    },
    {
      "value": 0.00010000,
      "n": 12,
      "scriptPubKey": {
        "asm": "OP_DUP OP_HASH160 55bdc05525609b475340f939dd6f44f675607d2f OP_EQUALVERIFY OP_CHECKSIG",
        "hex": "76a91455bdc05525609b475340f939dd6f44f675607d2f88ac",
        "reqSigs": 1,
        "type": "pubkeyhash",
        "addresses": [
          "DCxTHiSxSToRYvxANDxiTxMiGHTzaKLnAj"
        ]
      }
    },
    {
      "value": 0.00010000,
      "n": 13,
      "scriptPubKey": {
        "asm": "OP_DUP OP_HASH160 55afb184d86f8d90d19b04c446e58fd58655a095 OP_EQUALVERIFY OP_CHECKSIG",
        "hex": "76a91455afb184d86f8d90d19b04c446e58fd58655a09588ac",
        "reqSigs": 1,
        "type": "pubkeyhash",
        "addresses": [
          "DCxASxWELLxBExYoUhxHUGSxANDzRLuY2d"
        ]
      }
    },
    {
      "value": 0.00010000,
      "n": 14,
      "scriptPubKey": {
        "asm": "OP_DUP OP_HASH160 55b76dd7a2b32c882e7a3a7c05720e08df04c8b2 OP_EQUALVERIFY OP_CHECKSIG",
        "hex": "76a91455b76dd7a2b32c882e7a3a7c05720e08df04c8b288ac",
        "reqSigs": 1,
        "type": "pubkeyhash",
        "addresses": [
          "DCxKiSSESvxFoREVERxYoURxFANzWqVcQb"
        ]
      }
    },
    {
      "value": 0.00010000,
      "n": 15,
      "scriptPubKey": {
        "asm": "OP_DUP OP_HASH160 55bccf8aa156349e738f2b9cc26e79cee7b45aac OP_EQUALVERIFY OP_CHECKSIG",
        "hex": "76a91455bccf8aa156349e738f2b9cc26e79cee7b45aac88ac",
        "reqSigs": 1,
        "type": "pubkeyhash",
        "addresses": [
          "DCxSAMxHoUSToNxSAMzzzzzzzzzzdJ7X4m"
        ]
      }
    }
  ],
  "blockhash": "85a97f705bc52f0320be8da14fb01e33ca3d2d3373ec8dc153802a69c9616200",
  "confirmations": 1477015,
  "time": 1577483382,
  "blocktime": 1577483382
}
