{
  "hex": "01000000011ac1429c6c5d34e53f7b8a7fe368b8146392453935ff939f9f0d3034e6d4f083010000006a47304402201f71a1a7a037d22b945cb530b61322e5f4cb0316c69dd8fb21cc2339c7338be2022022d329fa7561613eed9eea4eb6dd325aea4cdfef98199683274cacb35517198a012103d23bb3cbedfea803054bca687e4f5495e4e391e467a2daab80156cc47c718fc1feffffff0b10270000000000001976a91455b55ae503e9440e941102da9f793a459d732d1d88ac102700000000000017a9140b296ba774ecd1214ffb0d84e44559468bad1ebb87102700000000000017a9140a0430a414fdbcced957f789cdd6c0205109873687102700000000000017a914089c432eb59dd004c9d2f69a6bd7f1079c720cea87102700000000000017a91413a5dc8ad8bc1781491b4772fa07db2fb508704f87102700000000000017a914130a9def506c571b6ec7995f8edf238a71c70dea8760b27912020000001976a914f50b8cfe4ce68695e9c658928218cde78b72bc3e88ac102700000000000017a9141321a44d8796f561d2a64948a0968db65d5d42b487102700000000000017a91416cb9728aabfbcc3c299eb7addd6a000669d183b87102700000000000017a91408ed51f7bc1f26578fb66f5dcc492e737f89c1ee87102700000000000017a9140820754c8f56a55c490e8e849d2039a98fe9aced8793c43000",
  "txid": "19bbd28e6827da1c5957eed5f25b528d841c2708e8629c27d5401b39c0d410b4",
  "hash": "19bbd28e6827da1c5957eed5f25b528d841c2708e8629c27d5401b39c0d410b4",
  "size": 513,
  "vsize": 513,
  "version": 1,
  "locktime": 3196051,
  "vin": [
    {
      "txid": "83f0d4e634300d9f9f93ff353945926314b868e37f8a7b3fe5345d6c9c42c11a",
      "vout": 1,
      "scriptSig": {
        "asm": "304402201f71a1a7a037d22b945cb530b61322e5f4cb0316c69dd8fb21cc2339c7338be2022022d329fa7561613eed9eea4eb6dd325aea4cdfef98199683274cacb35517198a[ALL] 03d23bb3cbedfea803054bca687e4f5495e4e391e467a2daab80156cc47c718fc1",
        "hex": "47304402201f71a1a7a037d22b945cb530b61322e5f4cb0316c69dd8fb21cc2339c7338be2022022d329fa7561613eed9eea4eb6dd325aea4cdfef98199683274cacb35517198a012103d23bb3cbedfea803054bca687e4f5495e4e391e467a2daab80156cc47c718fc1"
      },
      "sequence": 4294967294
    }
  ],
  "vout": [
    {
      "value": 0.00010000,
      "n": 0,
      "scriptPubKey": {
        "asm": "OP_DUP OP_HASH160 55b55ae503e9440e941102da9f793a459d732d1d OP_EQUALVERIFY OP_CHECKSIG",
        "hex": "76a91455b55ae503e9440e941102da9f793a459d732d1d88ac",
        "reqSigs": 1,
        "type": "pubkeyhash",
        "addresses": [
          "DCxHELLoxBLoCKCHAiNzzzzzzzzzVBUNSR"
        ]
      }
    },
    {
      "value": 0.00010000,
      "n": 1,
      "scriptPubKey": {
        "asm": "OP_HASH160 0b296ba774ecd1214ffb0d84e44559468bad1ebb OP_EQUAL",
        "hex": "a9140b296ba774ecd1214ffb0d84e44559468bad1ebb87",
        "reqSigs": 1,
        "type": "scripthash",
        "addresses": [
          "9sTHiSxSYSTEMxLETSxYoUxPUTzzVBz8W5"
        ]
      }
    },
    {
      "value": 0.00010000,
      "n": 2,
      "scriptPubKey": {
        "asm": "OP_HASH160 0a0430a414fdbcced957f789cdd6c02051098736 OP_EQUAL",
        "hex": "a9140a0430a414fdbcced957f789cdd6c0205109873687",
        "reqSigs": 1,
        "type": "scripthash",
        "addresses": [
          "9sMESSAGESxDiRECTLYxiNTozzzzWMQ9HF"
        ]
      }
    },
    {
      "value": 0.00010000,
      "n": 3,
      "scriptPubKey": {
        "asm": "OP_HASH160 089c432eb59dd004c9d2f69a6bd7f1079c720cea OP_EQUAL",
        "hex": "a914089c432eb59dd004c9d2f69a6bd7f1079c720cea87",
        "reqSigs": 1,
        "type": "scripthash",
        "addresses": [
          "9sDoGECoiNxTRANSACTioNSzzzzzZxnRCh"
        ]
      }
    },
    {
      "value": 0.00010000,
      "n": 4,
      "scriptPubKey": {
        "asm": "OP_HASH160 13a5dc8ad8bc1781491b4772fa07db2fb508704f OP_EQUAL",
        "hex": "a91413a5dc8ad8bc1781491b4772fa07db2fb508704f87",
        "reqSigs": 1,
        "type": "scripthash",
        "addresses": [
          "9tEACHxLiNExWiLLxBExSHoWNxASXpLpGx"
        ]
      }
    },
    {
      "value": 0.00010000,
      "n": 5,
      "scriptPubKey": {
        "asm": "OP_HASH160 130a9def506c571b6ec7995f8edf238a71c70dea OP_EQUAL",
        "hex": "a914130a9def506c571b6ec7995f8edf238a71c70dea87",
        "reqSigs": 1,
        "type": "scripthash",
        "addresses": [
          "9tAxDiFFERENTxCoLoRxiNxAzzzzToGHCU"
        ]
      }
    },
    {
      "value": 88.99900000,
      "n": 6,
      "scriptPubKey": {
        "asm": "OP_DUP OP_HASH160 f50b8cfe4ce68695e9c658928218cde78b72bc3e OP_EQUALVERIFY OP_CHECKSIG",
        "hex": "76a914f50b8cfe4ce68695e9c658928218cde78b72bc3e88ac",
        "reqSigs": 1,
        "type": "pubkeyhash",
        "addresses": [
          "DTUmvpN8JKoqSNgQKL5qof1X9K9k1vGwbH"
        ]
      }
    },
    {
      "value": 0.00010000,
      "n": 7,
      "scriptPubKey": {
        "asm": "OP_HASH160 1321a44d8796f561d2a64948a0968db65d5d42b4 OP_EQUAL",
        "hex": "a9141321a44d8796f561d2a64948a0968db65d5d42b487",
        "reqSigs": 1,
        "type": "scripthash",
        "addresses": [
          "9tBRoWSERxTHATxixAMxSiLLzzzzXRYbFd"
        ]
      }
    },
    {
      "value": 0.00010000,
      "n": 8,
      "scriptPubKey": {
        "asm": "OP_HASH160 16cb9728aabfbcc3c299eb7addd6a000669d183b OP_EQUAL",
        "hex": "a91416cb9728aabfbcc3c299eb7addd6a000669d183b87",
        "reqSigs": 1,
        "type": "scripthash",
        "addresses": [
          "9tWoRKiNGxoNzzzzzzzzzzzzzzzzWueBuu"
        ]
      }
    },
    {
      "value": 0.00010000,
      "n": 9,
      "scriptPubKey": {
        "asm": "OP_HASH160 08ed51f7bc1f26578fb66f5dcc492e737f89c1ee OP_EQUAL",
        "hex": "a91408ed51f7bc1f26578fb66f5dcc492e737f89c1ee87",
        "reqSigs": 1,
        "type": "scripthash",
        "addresses": [
          "9sFUNDiNGxoPTioNSxWiLLxALSozdYN1LP"
        ]
      }
    },
    {
      "value": 0.00010000,
      "n": 10,
      "scriptPubKey": {
        "asm": "OP_HASH160 0820754c8f56a55c490e8e849d2039a98fe9aced OP_EQUAL",
        "hex": "a9140820754c8f56a55c490e8e849d2039a98fe9aced87",
        "reqSigs": 1,
        "type": "scripthash",
        "addresses": [
          "9sBExADDEDzzzzzzzzzzzzzzzzzzXEADQ4"
        ]
      }
    }
  ],
  "blockhash": "15ce7c506170ae08cf84d71d0a44c58f2273e113de40cf8565e67b17823eb36f",
  "confirmations": 1319006,
  "time": 1587407780,
  "blocktime": 1587407780
}
