{
  "hex": "01000000013c2afd5b2df27f4039a87e2292ed2f9908305f1b67a328c423358dece521b27b0e0000006b48304502210086bdc8f259a9a4631394718e541b0161d44aeeba92c44b7d14fae1a039f55450022052dbc3c6e204bb99c0b1fbe0eff107c641c227523b79bec3c8bbe33b26a7e40b0121037bf314a7a24aa58d1bc6147b4e66793e7f58b50427a364a194cfbdba9e7e1ff3feffffff1010270000000000001976a91455b203790ad792b14fa4f838d363ce85c91b184288ac10270000000000001976a91455b55ae503e2930561515924023303d171641d1c88ac10270000000000001976a91455cad37559f4adb27446d3440bce7348f23780a388acb8461e0e080000001976a914671ca53885e268997161fd367560617e6f1f950688ac10270000000000001976a91455bdbe4b72f0b04bb7d6efb35c329009ef5a4fad88ac10270000000000001976a91455cad4c1c127a44ad68b820fe2233e92d49fb82388ac10270000000000001976a91455ba9017e0f7de52553640fce1cfb3bec9caed3688ac10270000000000001976a91455b58b3d700cfd3bb16cee77d5417b2ec111a98788ac10270000000000001976a91455bdbe9610e4d2cc7f2207ac9ea1921644f6bd9288ac10270000000000001976a91455bbf951e16ec8a77e09c9c8c9d626306235452488ac10270000000000001976a91455ba5eccfe6f886502d02891a136d314c16c359788ac10270000000000001976a91455bd57d218e4e8e824926382579a7fd7a653f30f88ac10270000000000001976a91455bdc05525609b475340f939dd6f44f675607d2f88ac10270000000000001976a91455afb184d86f8d90d19b04c446e58fd58655a09588ac10270000000000001976a91455b76dd7a2b32c882e7a3a7c05720e08df04c8b288ac10270000000000001976a91455bccf82c3401fc92384f0e4ae8f2510edd0648a88aca75b2e00",
  "txid": "1a8d8186b31a31d0019c7d8ea3ffa3ec5dd2e3181aa0627f4f72437b9ce99553",
  "hash": "1a8d8186b31a31d0019c7d8ea3ffa3ec5dd2e3181aa0627f4f72437b9ce99553",
  "size": 702,
  "vsize": 702,
  "version": 1,
  "locktime": 3038119,
  "vin": [
    {
      "txid": "7bb221e5ec8d3523c428a3671b5f3008992fed92227ea839407ff22d5bfd2a3c",
      "vout": 14,
      "scriptSig": {
        "asm": "304502210086bdc8f259a9a4631394718e541b0161d44aeeba92c44b7d14fae1a039f55450022052dbc3c6e204bb99c0b1fbe0eff107c641c227523b79bec3c8bbe33b26a7e40b[ALL] 037bf314a7a24aa58d1bc6147b4e66793e7f58b50427a364a194cfbdba9e7e1ff3",
        "hex": "48304502210086bdc8f259a9a4631394718e541b0161d44aeeba92c44b7d14fae1a039f55450022052dbc3c6e204bb99c0b1fbe0eff107c641c227523b79bec3c8bbe33b26a7e40b0121037bf314a7a24aa58d1bc6147b4e66793e7f58b50427a364a194cfbdba9e7e1ff3"
      },
      "sequence": 4294967294
    }
  ],
  "vout": [
    {
      "value": 0.00010000,
      "n": 0,
      "scriptPubKey": {
        "asm": "OP_DUP OP_HASH160 55b203790ad792b14fa4f838d363ce85c91b1842 OP_EQUALVERIFY OP_CHECKSIG",
        "hex": "76a91455b203790ad792b14fa4f838d363ce85c91b184288ac",
        "reqSigs": 1,
        "type": "pubkeyhash",
        "addresses": [
          "DCxDEARxHARVARDxRESEARCHzzzzUXPSpL"
        ]
      }
    },
    {
      "value": 0.00010000,
      "n": 1,
      "scriptPubKey": {
        "asm": "OP_DUP OP_HASH160 55b55ae503e2930561515924023303d171641d1c OP_EQUALVERIFY OP_CHECKSIG",
        "hex": "76a91455b55ae503e2930561515924023303d171641d1c88ac",
        "reqSigs": 1,
        "type": "pubkeyhash",
        "addresses": [
          "DCxHELLovxHoWxARExYoUkzzzzzzRc7Dgf"
        ]
      }
    },
    {
      "value": 0.00010000,
      "n": 2,
      "scriptPubKey": {
        "asm": "OP_DUP OP_HASH160 55cad37559f4adb27446d3440bce7348f23780a3 OP_EQUALVERIFY OP_CHECKSIG",
        "hex": "76a91455cad37559f4adb27446d3440bce7348f23780a388ac",
        "reqSigs": 1,
        "type": "pubkeyhash",
        "addresses": [
          "DCxixAMxDoiNGxWELLhzzzzzzzzzU7w1d6"
        ]
      }
    },
    {
      "value": 345.96603576,
      "n": 3,
      "scriptPubKey": {
        "asm": "OP_DUP OP_HASH160 671ca53885e268997161fd367560617e6f1f9506 OP_EQUALVERIFY OP_CHECKSIG",
        "hex": "76a914671ca53885e268997161fd367560617e6f1f950688ac",
        "reqSigs": 1,
        "type": "pubkeyhash",
        "addresses": [
          "DEYJTLKEAXRZMRQLqeMtNwQ5jDJVkxcAnZ"
        ]
      }
    },
    {
      "value": 0.00010000,
      "n": 4,
      "scriptPubKey": {
        "asm": "OP_DUP OP_HASH160 55bdbe4b72f0b04bb7d6efb35c329009ef5a4fad OP_EQUALVERIFY OP_CHECKSIG",
        "hex": "76a91455bdbe4b72f0b04bb7d6efb35c329009ef5a4fad88ac",
        "reqSigs": 1,
        "type": "pubkeyhash",
        "addresses": [
          "DCxTHANKSxFoRxASKiNGhzzzzzzzWu5KQh"
        ]
      }
    },
    {
      "value": 0.00010000,
      "n": 5,
      "scriptPubKey": {
        "asm": "OP_DUP OP_HASH160 55cad4c1c127a44ad68b820fe2233e92d49fb823 OP_EQUALVERIFY OP_CHECKSIG",
        "hex": "76a91455cad4c1c127a44ad68b820fe2233e92d49fb82388ac",
        "reqSigs": 1,
        "type": "pubkeyhash",
        "addresses": [
          "DCxixWoULDxLiKExFoRxYoUxTozzWq5WCs"
        ]
      }
    },
    {
      "value": 0.00010000,
      "n": 6,
      "scriptPubKey": {
        "asm": "OP_DUP OP_HASH160 55ba9017e0f7de52553640fce1cfb3bec9caed36 OP_EQUALVERIFY OP_CHECKSIG",
        "hex": "76a91455ba9017e0f7de52553640fce1cfb3bec9caed3688ac",
        "reqSigs": 1,
        "type": "pubkeyhash",
        "addresses": [
          "DCxPUBLiSHxANxARTiCLExABoUTzVzGB1i"
        ]
      }
    },
    {
      "value": 0.00010000,
      "n": 7,
      "scriptPubKey": {
        "asm": "OP_DUP OP_HASH160 55b58b3d700cfd3bb16cee77d5417b2ec111a987 OP_EQUALVERIFY OP_CHECKSIG",
        "hex": "76a91455b58b3d700cfd3bb16cee77d5417b2ec111a98788ac",
        "reqSigs": 1,
        "type": "pubkeyhash",
        "addresses": [
          "DCxHTTPSwffDiMEhCASHzzzzzzzzYqAXa2"
        ]
      }
    },
    {
      "value": 0.00010000,
      "n": 8,
      "scriptPubKey": {
        "asm": "OP_DUP OP_HASH160 55bdbe9610e4d2cc7f2207ac9ea1921644f6bd92 OP_EQUALVERIFY OP_CHECKSIG",
        "hex": "76a91455bdbe9610e4d2cc7f2207ac9ea1921644f6bd9288ac",
        "reqSigs": 1,
        "type": "pubkeyhash",
        "addresses": [
          "DCxTHExSYSTEMxPRESENTSxAzzzzWvbSP9"
        ]
      }
    },
    {
      "value": 0.00010000,
      "n": 9,
      "scriptPubKey": {
        "asm": "OP_DUP OP_HASH160 55bbf951e16ec8a77e09c9c8c9d6263062354524 OP_EQUALVERIFY OP_CHECKSIG",
        "hex": "76a91455bbf951e16ec8a77e09c9c8c9d626306235452488ac",
        "reqSigs": 1,
        "type": "pubkeyhash",
        "addresses": [
          "DCxRADiCALLYxNEWxWAYxFoRzzzzYrtt3y"
        ]
      }
    },
    {
      "value": 0.00010000,
      "n": 10,
      "scriptPubKey": {
        "asm": "OP_DUP OP_HASH160 55ba5eccfe6f886502d02891a136d314c16c3597 OP_EQUALVERIFY OP_CHECKSIG",
        "hex": "76a91455ba5eccfe6f886502d02891a136d314c16c359788ac",
        "reqSigs": 1,
        "type": "pubkeyhash",
        "addresses": [
          "DCxPEoPLExToxUSExCRYPTohzzzzUBScy7"
        ]
      }
    },
    {
      "value": 0.00010000,
      "n": 11,
      "scriptPubKey": {
        "asm": "OP_DUP OP_HASH160 55bd57d218e4e8e824926382579a7fd7a653f30f OP_EQUALVERIFY OP_CHECKSIG",
        "hex": "76a91455bd57d218e4e8e824926382579a7fd7a653f30f88ac",
        "reqSigs": 1,
        "type": "pubkeyhash",
        "addresses": [
          "DCxSoMEoNExNEEDSxToxBREAKzzzXue5ur"
        ]
      }
    },
    {
      "value": 0.00010000,
      "n": 12,
      "scriptPubKey": {
        "asm": "OP_DUP OP_HASH160 55bdc05525609b475340f939dd6f44f675607d2f OP_EQUALVERIFY OP_CHECKSIG",
        "hex": "76a91455bdc05525609b475340f939dd6f44f675607d2f88ac",
        "reqSigs": 1,
        "type": "pubkeyhash",
        "addresses": [
          "DCxTHiSxSToRYvxANDxiTxMiGHTzaKLnAj"
        ]
      }
    },
    {
      "value": 0.00010000,
      "n": 13,
      "scriptPubKey": {
        "asm": "OP_DUP OP_HASH160 55afb184d86f8d90d19b04c446e58fd58655a095 OP_EQUALVERIFY OP_CHECKSIG",
        "hex": "76a91455afb184d86f8d90d19b04c446e58fd58655a09588ac",
        "reqSigs": 1,
        "type": "pubkeyhash",
        "addresses": [
          "DCxASxWELLxBExYoUhxHUGSxANDzRLuY2d"
        ]
      }
    },
    {
      "value": 0.00010000,
      "n": 14,
      "scriptPubKey": {
        "asm": "OP_DUP OP_HASH160 55b76dd7a2b32c882e7a3a7c05720e08df04c8b2 OP_EQUALVERIFY OP_CHECKSIG",
        "hex": "76a91455b76dd7a2b32c882e7a3a7c05720e08df04c8b288ac",
        "reqSigs": 1,
        "type": "pubkeyhash",
        "addresses": [
          "DCxKiSSESvxFoREVERxYoURxFANzWqVcQb"
        ]
      }
    },
    {
      "value": 0.00010000,
      "n": 15,
      "scriptPubKey": {
        "asm": "OP_DUP OP_HASH160 55bccf82c3401fc92384f0e4ae8f2510edd0648a OP_EQUALVERIFY OP_CHECKSIG",
        "hex": "76a91455bccf82c3401fc92384f0e4ae8f2510edd0648a88ac",
        "reqSigs": 1,
        "type": "pubkeyhash",
        "addresses": [
          "DCxSAMUELxShxPUGSWoRTHzzzzzzXFs7rT"
        ]
      }
    }
  ],
  "blockhash": "94ef9ecd1107408746ea3fc2370fa6d61f12a6ae9752ae049229999fae322265",
  "confirmations": 1476907,
  "time": 1577481556,
  "blocktime": 1577481556
}
