{
  "hex": "0100000001d2202256df9597df6894e478926338943396da28a0057dd4d561917ac2717b21000000006b483045022100fa25455d7a2f0d499263541890d16b2f55306dce12a0e9b989907f1bff56b8aa022028b50d30a7406e040653aa22be9c4281ae7761000c151e3e826193948133df5c012103a9ce0b9a2e5981671f9b46a17c1bf2cd2b09b0c5908bfc7eca359621e8efd59efeffffff022f92e435170100001976a914b127bc46e73d899858f819dfb20400c17787111f88ac00e1f505000000001976a91455c27e513ce54d1dc800bab506c4ecab5524d48088ac0a562c00",
  "txid": "1af4aa396d00a32f99e51821cda90f88bb304e4ecc52438265bf47c805c4478c",
  "hash": "1af4aa396d00a32f99e51821cda90f88bb304e4ecc52438265bf47c805c4478c",
  "size": 226,
  "vsize": 226,
  "version": 1,
  "locktime": 2905610,
  "vin": [
    {
      "txid": "217b71c27a9161d5d47d05a028da96339438639278e49468df9795df562220d2",
      "vout": 0,
      "scriptSig": {
        "asm": "3045022100fa25455d7a2f0d499263541890d16b2f55306dce12a0e9b989907f1bff56b8aa022028b50d30a7406e040653aa22be9c4281ae7761000c151e3e826193948133df5c[ALL] 03a9ce0b9a2e5981671f9b46a17c1bf2cd2b09b0c5908bfc7eca359621e8efd59e",
        "hex": "483045022100fa25455d7a2f0d499263541890d16b2f55306dce12a0e9b989907f1bff56b8aa022028b50d30a7406e040653aa22be9c4281ae7761000c151e3e826193948133df5c012103a9ce0b9a2e5981671f9b46a17c1bf2cd2b09b0c5908bfc7eca359621e8efd59e"
      },
      "sequence": 4294967294
    }
  ],
  "vout": [
    {
      "value": 11992.00047663,
      "n": 0,
      "scriptPubKey": {
        "asm": "OP_DUP OP_HASH160 b127bc46e73d899858f819dfb20400c17787111f OP_EQUALVERIFY OP_CHECKSIG",
        "hex": "76a914b127bc46e73d899858f819dfb20400c17787111f88ac",
        "reqSigs": 1,
        "type": "pubkeyhash",
        "addresses": [
          "DMHok5ccsNrYK6iSx9ibrk8bfM9xpo6zvm"
        ]
      }
    },
    {
      "value": 1.00000000,
      "n": 1,
      "scriptPubKey": {
        "asm": "OP_DUP OP_HASH160 55c27e513ce54d1dc800bab506c4ecab5524d480 OP_EQUALVERIFY OP_CHECKSIG",
        "hex": "76a91455c27e513ce54d1dc800bab506c4ecab5524d48088ac",
        "reqSigs": 1,
        "type": "pubkeyhash",
        "addresses": [
          "DCxYyCoMBiNAToRzzzzzzzzzzzzzZUHixB"
        ]
      }
    }
  ],
  "blockhash": "0428547689f33e7f855e5d454874e67e46a24bef406ec34b65ed00917eaf3534",
  "confirmations": 1609570,
  "time": 1569188968,
  "blocktime": 1569188968
}
