{
  "hex": "0100000001b136e6187ca82e2be985831261937be19f03cd21a9ad36c16e09761926e76259000000006b483045022100f7515e2927c31b8faba8d366fcf0f5d6581066dd3d9cc29b49c3d14ff322a8ce022050f1e4d78a00e90cf4361f13437db4f83380d83c48ceec307c1c9c6cddd5ec57012102a3139f5781c485c5ec1437fc361c7430f3acd95e8f169cfa4400c438a513d970feffffff022f54d041170100001976a914b63f7d11558df02132067d104d20874ca38dd84588ac00e1f505000000001976a91455c27e513ce54d1dc800bab506c4ecab5524d48088acd3552c00",
  "txid": "217b71c27a9161d5d47d05a028da96339438639278e49468df9795df562220d2",
  "hash": "217b71c27a9161d5d47d05a028da96339438639278e49468df9795df562220d2",
  "size": 226,
  "vsize": 226,
  "version": 1,
  "locktime": 2905555,
  "vin": [
    {
      "txid": "5962e7261976096ec136ada921cd039fe17b9361128385e92b2ea87c18e636b1",
      "vout": 0,
      "scriptSig": {
        "asm": "3045022100f7515e2927c31b8faba8d366fcf0f5d6581066dd3d9cc29b49c3d14ff322a8ce022050f1e4d78a00e90cf4361f13437db4f83380d83c48ceec307c1c9c6cddd5ec57[ALL] 02a3139f5781c485c5ec1437fc361c7430f3acd95e8f169cfa4400c438a513d970",
        "hex": "483045022100f7515e2927c31b8faba8d366fcf0f5d6581066dd3d9cc29b49c3d14ff322a8ce022050f1e4d78a00e90cf4361f13437db4f83380d83c48ceec307c1c9c6cddd5ec57012102a3139f5781c485c5ec1437fc361c7430f3acd95e8f169cfa4400c438a513d970"
      },
      "sequence": 4294967294
    }
  ],
  "vout": [
    {
      "value": 11994.00047663,
      "n": 0,
      "scriptPubKey": {
        "asm": "OP_DUP OP_HASH160 b63f7d11558df02132067d104d20874ca38dd845 OP_EQUALVERIFY OP_CHECKSIG",
        "hex": "76a914b63f7d11558df02132067d104d20874ca38dd84588ac",
        "reqSigs": 1,
        "type": "pubkeyhash",
        "addresses": [
          "DMkjaS56djLo4akt3u4YwjvNRMqrzg1Bvi"
        ]
      }
    },
    {
      "value": 1.00000000,
      "n": 1,
      "scriptPubKey": {
        "asm": "OP_DUP OP_HASH160 55c27e513ce54d1dc800bab506c4ecab5524d480 OP_EQUALVERIFY OP_CHECKSIG",
        "hex": "76a91455c27e513ce54d1dc800bab506c4ecab5524d48088ac",
        "reqSigs": 1,
        "type": "pubkeyhash",
        "addresses": [
          "DCxYyCoMBiNAToRzzzzzzzzzzzzzZUHixB"
        ]
      }
    }
  ],
  "blockhash": "320b315fde4fe1df925dbeeebcf0690d47a25b98bd1ba417581e2b29f6a0b178",
  "confirmations": 1609409,
  "time": 1569188538,
  "blocktime": 1569188538
}
