{
  "hex": "010000000250b97c52fbd335f47c021fe9ade3231a5d0075c144b7d7dd9b24e647c0321621020000006a47304402203a6c0fd01b27223055bdfb335683f4c5788a343de7d35f01bc295089ed4178ea022001b2af16d17fc3fd3a6c823813df7562cd1950dc31144536b8ee120e6ed838ed0121031ee0749e50515be3b14b8372d2bcf28d36394a1123a6c5778d9128be3e5d3fc9fffffffff610fd6ccc8569468a30882494b2ccbdca370a60e5b449217a9e6e2bfe53477d000000006a47304402201ae73bae6ce84403f0f850c30403cb5508feeac57cd4d3ace729d28cafb13bcb02206fd635fcfef57e0d06b9efa633c732d1734776a5ea386ad7894a6aff3c4d1dfe012103dfe7a2089b86ff8cace45189921e8fa2cd4aa31c4235edc7f5665b666533e2c8ffffffff02b001cf60000000001976a914af6cc90510a7ee89caef5e2baf8f94d72d1ea31d88ace0ecf505000000001976a91455ba01a55778ccbdcd536aa8e82543c60ea269c288ac00000000",
  "txid": "23146e798d4bc8e347349bcf82dc7f3edf65f5b557139bd22e3141db5a326ba8",
  "hash": "23146e798d4bc8e347349bcf82dc7f3edf65f5b557139bd22e3141db5a326ba8",
  "size": 372,
  "vsize": 372,
  "version": 1,
  "locktime": 0,
  "vin": [
    {
      "txid": "211632c047e6249bddd7b744c175005d1a23e3ade91f027cf435d3fb527cb950",
      "vout": 2,
      "scriptSig": {
        "asm": "304402203a6c0fd01b27223055bdfb335683f4c5788a343de7d35f01bc295089ed4178ea022001b2af16d17fc3fd3a6c823813df7562cd1950dc31144536b8ee120e6ed838ed[ALL] 031ee0749e50515be3b14b8372d2bcf28d36394a1123a6c5778d9128be3e5d3fc9",
        "hex": "47304402203a6c0fd01b27223055bdfb335683f4c5788a343de7d35f01bc295089ed4178ea022001b2af16d17fc3fd3a6c823813df7562cd1950dc31144536b8ee120e6ed838ed0121031ee0749e50515be3b14b8372d2bcf28d36394a1123a6c5778d9128be3e5d3fc9"
      },
      "sequence": 4294967295
    },
    {
      "txid": "7d4753fe2b6e9e7a2149b4e5600a37cabdccb2942488308a466985cc6cfd10f6",
      "vout": 0,
      "scriptSig": {
        "asm": "304402201ae73bae6ce84403f0f850c30403cb5508feeac57cd4d3ace729d28cafb13bcb02206fd635fcfef57e0d06b9efa633c732d1734776a5ea386ad7894a6aff3c4d1dfe[ALL] 03dfe7a2089b86ff8cace45189921e8fa2cd4aa31c4235edc7f5665b666533e2c8",
        "hex": "47304402201ae73bae6ce84403f0f850c30403cb5508feeac57cd4d3ace729d28cafb13bcb02206fd635fcfef57e0d06b9efa633c732d1734776a5ea386ad7894a6aff3c4d1dfe012103dfe7a2089b86ff8cace45189921e8fa2cd4aa31c4235edc7f5665b666533e2c8"
      },
      "sequence": 4294967295
    }
  ],
  "vout": [
    {
      "value": 16.24179120,
      "n": 0,
      "scriptPubKey": {
        "asm": "OP_DUP OP_HASH160 af6cc90510a7ee89caef5e2baf8f94d72d1ea31d OP_EQUALVERIFY OP_CHECKSIG",
        "hex": "76a914af6cc90510a7ee89caef5e2baf8f94d72d1ea31d88ac",
        "reqSigs": 1,
        "type": "pubkeyhash",
        "addresses": [
          "DM8f7MnwCeFpyftqQDA4V67c6iBVZarZBb"
        ]
      }
    },
    {
      "value": 1.00003040,
      "n": 1,
      "scriptPubKey": {
        "asm": "OP_DUP OP_HASH160 55ba01a55778ccbdcd536aa8e82543c60ea269c2 OP_EQUALVERIFY OP_CHECKSIG",
        "hex": "76a91455ba01a55778ccbdcd536aa8e82543c60ea269c288ac",
        "reqSigs": 1,
        "type": "pubkeyhash",
        "addresses": [
          "DCxNoWxSERViNGzzzzzzzzzzzzzzbcaqQ5"
        ]
      }
    }
  ],
  "blockhash": "33c29ba60ca8856d9378bd4a3e0c2a0084756d37bbafce8dd6a09595d87d6f01",
  "confirmations": 1586334,
  "time": 1570635204,
  "blocktime": 1570635204
}
