{
  "hex": "01000000020f5a770238846521e0172177e8e7ff087f88693d88a64e6be3c826b3af2cca10010000006a4730440220109b2288079c4c7ac25b21f2d8ea0f19be2d6180efcd363b542d780ebec885ed022039b196f2f6d9081166d6fc4f9615342eb3f9f2e2ce1b63e692bcb1ee862c7e15012102e0feec541a3a77cea36f57779bea55f1310a5fb27fe766bddff580747dcd809bffffffffcf9581a0901d4d6317d3dcbcc9db4d2cc35a185ca3f65436d53d56ed99df74a3000000006a47304402207aed3fd0e67495a05f87e4bf824ef29f1f3ea7202b4f82570edb7748be698a9d02206e5fb1ff0f9b5c6521f4a9f5418eae5f3300cc7cf6496132e5b78cb28b6e4997012102d7fb304a99ffa25940d42a736bdcffad0e0fcc02a4dda50571cbffda5d5c4fb1ffffffff02b003f605000000001976a91455b20375ad5e891ca230c36a8de1c6b65c245c9688ac3162db0c000000001976a9141145130f58c288d99c8109d4bedd610a82aa68d088ac00000000",
  "txid": "260c1119f0256fb2aadf841c9f99f58b6f62380d6c80708683319db20bdde962",
  "hash": "260c1119f0256fb2aadf841c9f99f58b6f62380d6c80708683319db20bdde962",
  "size": 372,
  "vsize": 372,
  "version": 1,
  "locktime": 0,
  "vin": [
    {
      "txid": "10ca2cafb326c8e36b4ea6883d69887f08ffe7e8772117e02165843802775a0f",
      "vout": 1,
      "scriptSig": {
        "asm": "30440220109b2288079c4c7ac25b21f2d8ea0f19be2d6180efcd363b542d780ebec885ed022039b196f2f6d9081166d6fc4f9615342eb3f9f2e2ce1b63e692bcb1ee862c7e15[ALL] 02e0feec541a3a77cea36f57779bea55f1310a5fb27fe766bddff580747dcd809b",
        "hex": "4730440220109b2288079c4c7ac25b21f2d8ea0f19be2d6180efcd363b542d780ebec885ed022039b196f2f6d9081166d6fc4f9615342eb3f9f2e2ce1b63e692bcb1ee862c7e15012102e0feec541a3a77cea36f57779bea55f1310a5fb27fe766bddff580747dcd809b"
      },
      "sequence": 4294967295
    },
    {
      "txid": "a374df99ed563dd53654f6a35c185ac32c4ddbc9bcdcd317634d1d90a08195cf",
      "vout": 0,
      "scriptSig": {
        "asm": "304402207aed3fd0e67495a05f87e4bf824ef29f1f3ea7202b4f82570edb7748be698a9d02206e5fb1ff0f9b5c6521f4a9f5418eae5f3300cc7cf6496132e5b78cb28b6e4997[ALL] 02d7fb304a99ffa25940d42a736bdcffad0e0fcc02a4dda50571cbffda5d5c4fb1",
        "hex": "47304402207aed3fd0e67495a05f87e4bf824ef29f1f3ea7202b4f82570edb7748be698a9d02206e5fb1ff0f9b5c6521f4a9f5418eae5f3300cc7cf6496132e5b78cb28b6e4997012102d7fb304a99ffa25940d42a736bdcffad0e0fcc02a4dda50571cbffda5d5c4fb1"
      },
      "sequence": 4294967295
    }
  ],
  "vout": [
    {
      "value": 1.00008880,
      "n": 0,
      "scriptPubKey": {
        "asm": "OP_DUP OP_HASH160 55b20375ad5e891ca230c36a8de1c6b65c245c96 OP_EQUALVERIFY OP_CHECKSIG",
        "hex": "76a91455b20375ad5e891ca230c36a8de1c6b65c245c9688ac",
        "reqSigs": 1,
        "type": "pubkeyhash",
        "addresses": [
          "DCxDEADxBEEFxCAFEzzzzzzzzzzzXeeZ2A"
        ]
      }
    },
    {
      "value": 2.15704113,
      "n": 1,
      "scriptPubKey": {
        "asm": "OP_DUP OP_HASH160 1145130f58c288d99c8109d4bedd610a82aa68d0 OP_EQUALVERIFY OP_CHECKSIG",
        "hex": "76a9141145130f58c288d99c8109d4bedd610a82aa68d088ac",
        "reqSigs": 1,
        "type": "pubkeyhash",
        "addresses": [
          "D6iQmtxhYPmxsdLqrDJy5SShUDU6G83JDe"
        ]
      }
    }
  ],
  "blockhash": "252249dbe9810b65fc87cc545b97faa11bee07f271a6086ed643f0de290e2f0a",
  "confirmations": 1535500,
  "time": 1572551554,
  "blocktime": 1572551554
}
