{
  "hex": "0100000003d374ea8309f1226b6bd1a515d7c0c58c24f504970e3d3d3beb4a56f88c38e080010000006b483045022100cac43a709a705db2bd26a58c27e13dba9b898da4071d85e087c184be35ca923c022013a34177132ecdf9b819b4ce6aed042d03ea6d44fc1ee5d64e3cbca409f914d8012102789c1ed1cc1f8ae10420f62b350e280f1d6f7748cf12889bccca1c33841c1020ffffffff96a3e0af10c73d91afc62901f9014a869de36442ef1f6f2331283eeed93e1d5b000000006a47304402207b3545620f55a8a350090571b8a2cfa96555c66faeca9f08aeaa5ce2ed8520c802204a17abbfaece6b09ac11327206aab84fa80c4e1c32acb7bd33b23e35ec3c20750121033f64ad93a062c741158e994410989faf065c265977792996943a521aeae8bc58ffffffff7ac1b89f771ec4e2cf3c9242d4d419daf7fbda0b6a81e8e09e5fe98d9f450e15010000006a47304402201231c47868eefdf057d2fc9b479bd2c81ff2a72a7fbc25bedbbdf013aed17031022058e74e9ab3e5cc1506753ff90eea5aa434dda43c06c10b5033a562a8a79dfa0501210358bf437b2f0cfac167983cb1d1fd75b413e3e3474bbc33389ab14b9d13ea7ec8ffffffff02fafd9624000000001976a914be0568dfe971c964c19c9710016b67894ee4fae588ac45dc14060000000017a914089c590b0d07d384a930379d686d3051af29db338700000000",
  "txid": "26e1bf71671b6791428a8a8b42190c225adb4d3a3960fa69929581ca9e448526",
  "hash": "26e1bf71671b6791428a8a8b42190c225adb4d3a3960fa69929581ca9e448526",
  "size": 518,
  "vsize": 518,
  "version": 1,
  "locktime": 0,
  "vin": [
    {
      "txid": "80e0388cf8564aeb3b3d3d0e9704f5248cc5c0d715a5d16b6b22f10983ea74d3",
      "vout": 1,
      "scriptSig": {
        "asm": "3045022100cac43a709a705db2bd26a58c27e13dba9b898da4071d85e087c184be35ca923c022013a34177132ecdf9b819b4ce6aed042d03ea6d44fc1ee5d64e3cbca409f914d8[ALL] 02789c1ed1cc1f8ae10420f62b350e280f1d6f7748cf12889bccca1c33841c1020",
        "hex": "483045022100cac43a709a705db2bd26a58c27e13dba9b898da4071d85e087c184be35ca923c022013a34177132ecdf9b819b4ce6aed042d03ea6d44fc1ee5d64e3cbca409f914d8012102789c1ed1cc1f8ae10420f62b350e280f1d6f7748cf12889bccca1c33841c1020"
      },
      "sequence": 4294967295
    },
    {
      "txid": "5b1d3ed9ee3e2831236f1fef4264e39d864a01f90129c6af913dc710afe0a396",
      "vout": 0,
      "scriptSig": {
        "asm": "304402207b3545620f55a8a350090571b8a2cfa96555c66faeca9f08aeaa5ce2ed8520c802204a17abbfaece6b09ac11327206aab84fa80c4e1c32acb7bd33b23e35ec3c2075[ALL] 033f64ad93a062c741158e994410989faf065c265977792996943a521aeae8bc58",
        "hex": "47304402207b3545620f55a8a350090571b8a2cfa96555c66faeca9f08aeaa5ce2ed8520c802204a17abbfaece6b09ac11327206aab84fa80c4e1c32acb7bd33b23e35ec3c20750121033f64ad93a062c741158e994410989faf065c265977792996943a521aeae8bc58"
      },
      "sequence": 4294967295
    },
    {
      "txid": "150e459f8de95f9ee0e8816a0bdafbf7da19d4d442923ccfe2c41e779fb8c17a",
      "vout": 1,
      "scriptSig": {
        "asm": "304402201231c47868eefdf057d2fc9b479bd2c81ff2a72a7fbc25bedbbdf013aed17031022058e74e9ab3e5cc1506753ff90eea5aa434dda43c06c10b5033a562a8a79dfa05[ALL] 0358bf437b2f0cfac167983cb1d1fd75b413e3e3474bbc33389ab14b9d13ea7ec8",
        "hex": "47304402201231c47868eefdf057d2fc9b479bd2c81ff2a72a7fbc25bedbbdf013aed17031022058e74e9ab3e5cc1506753ff90eea5aa434dda43c06c10b5033a562a8a79dfa0501210358bf437b2f0cfac167983cb1d1fd75b413e3e3474bbc33389ab14b9d13ea7ec8"
      },
      "sequence": 4294967295
    }
  ],
  "vout": [
    {
      "value": 6.13875194,
      "n": 0,
      "scriptPubKey": {
        "asm": "OP_DUP OP_HASH160 be0568dfe971c964c19c9710016b67894ee4fae5 OP_EQUALVERIFY OP_CHECKSIG",
        "hex": "76a914be0568dfe971c964c19c9710016b67894ee4fae588ac",
        "reqSigs": 1,
        "type": "pubkeyhash",
        "addresses": [
          "DNTqQaPR8j4ziRw2pqhEjrjoDNGTGBbcQ1"
        ]
      }
    },
    {
      "value": 1.02030405,
      "n": 1,
      "scriptPubKey": {
        "asm": "OP_HASH160 089c590b0d07d384a930379d686d3051af29db33 OP_EQUAL",
        "hex": "a914089c590b0d07d384a930379d686d3051af29db3387",
        "reqSigs": 1,
        "type": "scripthash",
        "addresses": [
          "9sDoNALDTRUMPiSREXNEMoRENSiSWKkjmm"
        ]
      }
    }
  ],
  "blockhash": "346947cfdb07dc0d37072207a55dcc09b562628499a7bdc634deb865a7c6831b",
  "confirmations": 1573997,
  "time": 1571405209,
  "blocktime": 1571405209
}
