{
  "hex": "010000000157e6a5881350e32b5d2e2476b33695e30011b175a728d7a5fcda10751855d9b8020000006a473044022028858cff5ef84bbdedf5aa400aa5905ae453a8016c7080340f77d9a6cedf59df02200dcbcbef7ced49384c12c4ba7188dc28d2a1d702fdf2e8ad96808a7e1587350c012102b334c824b5567d955b8d56be2e9cad34a0c916096a10c4f2185a0e05f74de25bfeffffff0410270000000000001976a91455bdb443956b106dba39e6e55c7f32bfb940454788ac5086419b010000001976a91484b0d8db1f0a87b73af0f8750910f10ea26fcdc088ac102700000000000017a9140b26afacd732059d1894f837af2901d121672d4b87102700000000000017a9141c20e788ace8305eed507f8422ba49d6eca24bff87f9c63000",
  "txid": "28b5f4b8cacfbf09cba792ef574f4f534d7b7f88e5575210e574dc435eda487c",
  "hash": "28b5f4b8cacfbf09cba792ef574f4f534d7b7f88e5575210e574dc435eda487c",
  "size": 289,
  "vsize": 289,
  "version": 1,
  "locktime": 3196665,
  "vin": [
    {
      "txid": "b8d955187510dafca5d728a775b11100e39536b376242e5d2be3501388a5e657",
      "vout": 2,
      "scriptSig": {
        "asm": "3044022028858cff5ef84bbdedf5aa400aa5905ae453a8016c7080340f77d9a6cedf59df02200dcbcbef7ced49384c12c4ba7188dc28d2a1d702fdf2e8ad96808a7e1587350c[ALL] 02b334c824b5567d955b8d56be2e9cad34a0c916096a10c4f2185a0e05f74de25b",
        "hex": "473044022028858cff5ef84bbdedf5aa400aa5905ae453a8016c7080340f77d9a6cedf59df02200dcbcbef7ced49384c12c4ba7188dc28d2a1d702fdf2e8ad96808a7e1587350c012102b334c824b5567d955b8d56be2e9cad34a0c916096a10c4f2185a0e05f74de25b"
      },
      "sequence": 4294967294
    }
  ],
  "vout": [
    {
      "value": 0.00010000,
      "n": 0,
      "scriptPubKey": {
        "asm": "OP_DUP OP_HASH160 55bdb443956b106dba39e6e55c7f32bfb9404547 OP_EQUALVERIFY OP_CHECKSIG",
        "hex": "76a91455bdb443956b106dba39e6e55c7f32bfb940454788ac",
        "reqSigs": 1,
        "type": "pubkeyhash",
        "addresses": [
          "DCxTESTzzzzzzzzzzzzzzzzzzzzzT7Ki8Y"
        ]
      }
    },
    {
      "value": 68.99730000,
      "n": 1,
      "scriptPubKey": {
        "asm": "OP_DUP OP_HASH160 84b0d8db1f0a87b73af0f8750910f10ea26fcdc0 OP_EQUALVERIFY OP_CHECKSIG",
        "hex": "76a91484b0d8db1f0a87b73af0f8750910f10ea26fcdc088ac",
        "reqSigs": 1,
        "type": "pubkeyhash",
        "addresses": [
          "DHEhb8aiPqKjA9m4VCX1M8Di4VPL9JvAjg"
        ]
      }
    },
    {
      "value": 0.00010000,
      "n": 2,
      "scriptPubKey": {
        "asm": "OP_HASH160 0b26afacd732059d1894f837af2901d121672d4b OP_EQUAL",
        "hex": "a9140b26afacd732059d1894f837af2901d121672d4b87",
        "reqSigs": 1,
        "type": "scripthash",
        "addresses": [
          "9sTESTzzzzzzzzzzzzzzzzzzzzzzbDzixa"
        ]
      }
    },
    {
      "value": 0.00010000,
      "n": 3,
      "scriptPubKey": {
        "asm": "OP_HASH160 1c20e788ace8305eed507f8422ba49d6eca24bff OP_EQUAL",
        "hex": "a9141c20e788ace8305eed507f8422ba49d6eca24bff87",
        "reqSigs": 1,
        "type": "scripthash",
        "addresses": [
          "9tzzzzzzzzzzzzzzzzzzzzzzzzzzTg7t3J"
        ]
      }
    }
  ],
  "blockhash": "5b2c12390ade289d7db8d53ae6e89f3eebce317ceb96108008f99f52b8489414",
  "confirmations": 1318413,
  "time": 1587446696,
  "blocktime": 1587446696
}
