{
  "hex": "0100000001a0e5e63d4c2488333be433534639328fd084e68ed3511fee26e8cf07ffff2eca010000006b483045022100c86d1095b30040881e76f812bd0adc4701eaedc5da152a1800164c4348890bc402207d7599118dab5d55fda416974f627167d9ddef3ff349691c7ecf5a568096218e012103e97d4bcc42c1c488ffe29612ebaccf4b1034f7f42ab99a26c6073e32d1803e59feffffff03102700000000000017a9140b29065937ebaea4424f004cdc852093f9bf76eb87102700000000000017a9141128c7554f4cf2c1f7c4ee669bb6f35ef122f982870f9953f4160100001976a914b0cce0692f7be15585c4ebdd549e4e995d7c1f5e88ac7e122d00",
  "txid": "2daf4485a94c2041c45fefee54787004c1cd150829b86e1b2b3a7c562a981a6e",
  "hash": "2daf4485a94c2041c45fefee54787004c1cd150829b86e1b2b3a7c562a981a6e",
  "size": 256,
  "vsize": 256,
  "version": 1,
  "locktime": 2953854,
  "vin": [
    {
      "txid": "ca2effff07cfe826ee1f51d38ee684d08f3239465333e43b3388244c3de6e5a0",
      "vout": 1,
      "scriptSig": {
        "asm": "3045022100c86d1095b30040881e76f812bd0adc4701eaedc5da152a1800164c4348890bc402207d7599118dab5d55fda416974f627167d9ddef3ff349691c7ecf5a568096218e[ALL] 03e97d4bcc42c1c488ffe29612ebaccf4b1034f7f42ab99a26c6073e32d1803e59",
        "hex": "483045022100c86d1095b30040881e76f812bd0adc4701eaedc5da152a1800164c4348890bc402207d7599118dab5d55fda416974f627167d9ddef3ff349691c7ecf5a568096218e012103e97d4bcc42c1c488ffe29612ebaccf4b1034f7f42ab99a26c6073e32d1803e59"
      },
      "sequence": 4294967294
    }
  ],
  "vout": [
    {
      "value": 0.00010000,
      "n": 0,
      "scriptPubKey": {
        "asm": "OP_HASH160 0b29065937ebaea4424f004cdc852093f9bf76eb OP_EQUAL",
        "hex": "a9140b29065937ebaea4424f004cdc852093f9bf76eb87",
        "reqSigs": 1,
        "type": "scripthash",
        "addresses": [
          "9sTHExDiMECASHxSERViCEzzzzzzBoUCiD"
        ]
      }
    },
    {
      "value": 0.00010000,
      "n": 1,
      "scriptPubKey": {
        "asm": "OP_HASH160 1128c7554f4cf2c1f7c4ee669bb6f35ef122f982 OP_EQUAL",
        "hex": "a9141128c7554f4cf2c1f7c4ee669bb6f35ef122f98287",
        "reqSigs": 1,
        "type": "scripthash",
        "addresses": [
          "9szzzzzzzzzzzzzzzzzzzzzzzzzzvq1Mt1"
        ]
      }
    },
    {
      "value": 11981.00027663,
      "n": 2,
      "scriptPubKey": {
        "asm": "OP_DUP OP_HASH160 b0cce0692f7be15585c4ebdd549e4e995d7c1f5e OP_EQUALVERIFY OP_CHECKSIG",
        "hex": "76a914b0cce0692f7be15585c4ebdd549e4e995d7c1f5e88ac",
        "reqSigs": 1,
        "type": "pubkeyhash",
        "addresses": [
          "DMFvu6ZSUFu6jfeXnzYHHoEBKSJVpwryDw"
        ]
      }
    }
  ],
  "blockhash": "df68e4e6148c6371bcff6c98bfb251c1db442003861c0501d2bbfd3687898348",
  "confirmations": 1561195,
  "time": 1572204002,
  "blocktime": 1572204002
}
