{
  "hex": "0100000001b8cf506cced8b50ff20c6cb9d66405d3b30502fcce719d0fd7308f433185a769000000006a47304402204f19ff2b6e5116e5100c04dfde91589a0dcc8a740ea6bb15048a3b5740179e080220514e456025c4e669a03da48ad75de8a40d441e06fecb64e95eb7db5704117037012102367798f5e3268e82965b1bfc121d2205cf25eaed6a0559289eb490b0330867d5ffffffff021b840031000000001976a9148f78c4b228bd5245f17d4cf91a9cfd90b9cfb91088ac60fcf505000000001976a91455b225aebdbc98e3c4bc57fbc4290f925da2c35088ac00000000",
  "txid": "31812c0bbb352b58a0ac880648d5e8f97a7fa984fbaf98c41b02a6ed525d6fde",
  "hash": "31812c0bbb352b58a0ac880648d5e8f97a7fa984fbaf98c41b02a6ed525d6fde",
  "size": 225,
  "vsize": 225,
  "version": 1,
  "locktime": 0,
  "vin": [
    {
      "txid": "69a78531438f30d70f9d71cefc0205b3d30564d6b96c0cf20fb5d8ce6c50cfb8",
      "vout": 0,
      "scriptSig": {
        "asm": "304402204f19ff2b6e5116e5100c04dfde91589a0dcc8a740ea6bb15048a3b5740179e080220514e456025c4e669a03da48ad75de8a40d441e06fecb64e95eb7db5704117037[ALL] 02367798f5e3268e82965b1bfc121d2205cf25eaed6a0559289eb490b0330867d5",
        "hex": "47304402204f19ff2b6e5116e5100c04dfde91589a0dcc8a740ea6bb15048a3b5740179e080220514e456025c4e669a03da48ad75de8a40d441e06fecb64e95eb7db5704117037012102367798f5e3268e82965b1bfc121d2205cf25eaed6a0559289eb490b0330867d5"
      },
      "sequence": 4294967295
    }
  ],
  "vout": [
    {
      "value": 8.22117403,
      "n": 0,
      "scriptPubKey": {
        "asm": "OP_DUP OP_HASH160 8f78c4b228bd5245f17d4cf91a9cfd90b9cfb910 OP_EQUALVERIFY OP_CHECKSIG",
        "hex": "76a9148f78c4b228bd5245f17d4cf91a9cfd90b9cfb91088ac",
        "reqSigs": 1,
        "type": "pubkeyhash",
        "addresses": [
          "DJDhqpco3dv6tuZZTFqmmiYJ3nKFJXPfKk"
        ]
      }
    },
    {
      "value": 1.00007008,
      "n": 1,
      "scriptPubKey": {
        "asm": "OP_DUP OP_HASH160 55b225aebdbc98e3c4bc57fbc4290f925da2c350 OP_EQUALVERIFY OP_CHECKSIG",
        "hex": "76a91455b225aebdbc98e3c4bc57fbc4290f925da2c35088ac",
        "reqSigs": 1,
        "type": "pubkeyhash",
        "addresses": [
          "DCxDPSxNoWxSERViNGxCzzzzzzzzYtfdq3"
        ]
      }
    }
  ],
  "blockhash": "48dc42f4d34b8e18ffdd8c1dc919789f1065db99e132e0a4f5cbd1e3835ca3ca",
  "confirmations": 1585064,
  "time": 1570720337,
  "blocktime": 1570720337
}
