{
  "hex": "01000000014615aa337eb45c63779b41e6ccb9646143b7cb5ce158d1b13dfd9d9852f537e0010000006a473044022035f4c47f39f7bf31348119cd6eea54219b3b71f421e73d24206e824e42843d9d02200a35e8be8a0902a193698c9d7f93f99f5761f79f99a67a86f85cc825765faa26012103f41c4c314eaebe73a3999b4835f820f41c7af55bc157442272da4936ad2a9511ffffffff02e1ecf505000000001976a91455b20440c11d544c493aec9259f44ce09a75e69a88ac267db060000000001976a914f2e6079fb4a1b6d7127960b02bb4f32002f7fc3c88ac00000000",
  "txid": "32f0a7506064f7c5b8582f0d36595582f9ad2b4f194a6d61103bb1dcf1fc1fb3",
  "hash": "32f0a7506064f7c5b8582f0d36595582f9ad2b4f194a6d61103bb1dcf1fc1fb3",
  "size": 225,
  "vsize": 225,
  "version": 1,
  "locktime": 0,
  "vin": [
    {
      "txid": "e037f552989dfd3db1d158e15ccbb7436164b9cce6419b77635cb47e33aa1546",
      "vout": 1,
      "scriptSig": {
        "asm": "3044022035f4c47f39f7bf31348119cd6eea54219b3b71f421e73d24206e824e42843d9d02200a35e8be8a0902a193698c9d7f93f99f5761f79f99a67a86f85cc825765faa26[ALL] 03f41c4c314eaebe73a3999b4835f820f41c7af55bc157442272da4936ad2a9511",
        "hex": "473044022035f4c47f39f7bf31348119cd6eea54219b3b71f421e73d24206e824e42843d9d02200a35e8be8a0902a193698c9d7f93f99f5761f79f99a67a86f85cc825765faa26012103f41c4c314eaebe73a3999b4835f820f41c7af55bc157442272da4936ad2a9511"
      },
      "sequence": 4294967295
    }
  ],
  "vout": [
    {
      "value": 1.00003041,
      "n": 0,
      "scriptPubKey": {
        "asm": "OP_DUP OP_HASH160 55b20440c11d544c493aec9259f44ce09a75e69a OP_EQUALVERIFY OP_CHECKSIG",
        "hex": "76a91455b20440c11d544c493aec9259f44ce09a75e69a88ac",
        "reqSigs": 1,
        "type": "pubkeyhash",
        "addresses": [
          "DCxDENiEDxCLoTHxHATSxoNLYzzzZr6mDj"
        ]
      }
    },
    {
      "value": 16.22179110,
      "n": 1,
      "scriptPubKey": {
        "asm": "OP_DUP OP_HASH160 f2e6079fb4a1b6d7127960b02bb4f32002f7fc3c OP_EQUALVERIFY OP_CHECKSIG",
        "hex": "76a914f2e6079fb4a1b6d7127960b02bb4f32002f7fc3c88ac",
        "reqSigs": 1,
        "type": "pubkeyhash",
        "addresses": [
          "DTHRdRwKi3N6EtsXQqAQ199SXfEfcb1tbC"
        ]
      }
    }
  ],
  "blockhash": "dbafb5b5a246aaa2b3710ba3f0dd600401dcdb2afaf768e8899d871da5b86e77",
  "confirmations": 1586415,
  "time": 1570635627,
  "blocktime": 1570635627
}
