{
  "hex": "0100000001bafa754d7172e3cf15f7d396ea0d856ea1972377735de737027ec2272799d3d8000000006b48304502210084ea92012a7e64f8c09033f462d2ee15bfd693a74a319a1c3be35c8e0b404bb602203ec43966bc2250d8d5a8d2dcff8ee1d5934a3f3edd6094bdeef7ac90b4364f4c01210275a7089259a2b69be0f21ba336620b5ed0263701fb0f93bdaac9ced5038c4e1affffffff02e7aa5d07000000001976a91455b27ddaf5249450ec2da78c034f89ea4f6a96ba88aca8191346010000001976a9147c359ae8fa712479b1bb6c3169903a3b41e5ae5388ac00000000",
  "txid": "33db3e40ad660625fa1c6d8c75b77b53ddb326506c9131d02bb98be1081e06c7",
  "hash": "33db3e40ad660625fa1c6d8c75b77b53ddb326506c9131d02bb98be1081e06c7",
  "size": 226,
  "vsize": 226,
  "version": 1,
  "locktime": 0,
  "vin": [
    {
      "txid": "d8d3992727c27e0237e75d73772397a16e850dea96d3f715cfe372714d75faba",
      "vout": 0,
      "scriptSig": {
        "asm": "304502210084ea92012a7e64f8c09033f462d2ee15bfd693a74a319a1c3be35c8e0b404bb602203ec43966bc2250d8d5a8d2dcff8ee1d5934a3f3edd6094bdeef7ac90b4364f4c[ALL] 0275a7089259a2b69be0f21ba336620b5ed0263701fb0f93bdaac9ced5038c4e1a",
        "hex": "48304502210084ea92012a7e64f8c09033f462d2ee15bfd693a74a319a1c3be35c8e0b404bb602203ec43966bc2250d8d5a8d2dcff8ee1d5934a3f3edd6094bdeef7ac90b4364f4c01210275a7089259a2b69be0f21ba336620b5ed0263701fb0f93bdaac9ced5038c4e1a"
      },
      "sequence": 4294967295
    }
  ],
  "vout": [
    {
      "value": 1.23579111,
      "n": 0,
      "scriptPubKey": {
        "asm": "OP_DUP OP_HASH160 55b27ddaf5249450ec2da78c034f89ea4f6a96ba OP_EQUALVERIFY OP_CHECKSIG",
        "hex": "76a91455b27ddaf5249450ec2da78c034f89ea4f6a96ba88ac",
        "reqSigs": 1,
        "type": "pubkeyhash",
        "addresses": [
          "DCxDoNxREXxTRUMPoRENSiSzzzzzcHgoCZ"
        ]
      }
    },
    {
      "value": 54.70624168,
      "n": 1,
      "scriptPubKey": {
        "asm": "OP_DUP OP_HASH160 7c359ae8fa712479b1bb6c3169903a3b41e5ae53 OP_EQUALVERIFY OP_CHECKSIG",
        "hex": "76a9147c359ae8fa712479b1bb6c3169903a3b41e5ae5388ac",
        "reqSigs": 1,
        "type": "pubkeyhash",
        "addresses": [
          "DGTrYbRNdnnhubtduoQZeX6zFoefkDHx4P"
        ]
      }
    }
  ],
  "blockhash": "f8b60b97e0347df3598198fe2db642025543805be494bae96ba13173ae85b39b",
  "confirmations": 1572960,
  "time": 1571466477,
  "blocktime": 1571466477
}
