{
  "hex": "0100000001f6b9afe114eee34fcf2ffcf8487d49470b52c25d304cd0bc7994cfe3ac7e50b80b0000006a473044022009b1f4b29432dd4b4968e83ef3b8b2b5990c25feb59c489b26410d007f1fddb602206dc410f85ec704b67e63e2e431f87237956c63abdab5559a7e2f3a7f1b3abc5a01210289fd5ac3e478b53f4d66067cc9e9b94bdcd3244e0f5c3578da1aef088451fbd6feffffff063868b288000000001976a914b483d4ece303e215c60addd3219b03e0704808f288ac10270000000000001976a91455bdc05525b7ecc1a59da75a202dfd04d4b83ea488ac10270000000000001976a91455ce6bcbd9d251add7462f4f7d49bbce83e93cab88ac10270000000000001976a91455b6302bce22e183471d71bcef66d691b6c8751388ac10270000000000001976a91455b2da27ce886928c25c69dc6ae36b485ddf88a088ac10270000000000001976a91455b5c27aa7ae48591197c7f0a1746f4e9488a70788ac45b52f00",
  "txid": "345f44e4cfeaa4fd82a9d57879b56858d54d312a9b7450cfa964f802e8684eb1",
  "hash": "345f44e4cfeaa4fd82a9d57879b56858d54d312a9b7450cfa964f802e8684eb1",
  "size": 361,
  "vsize": 361,
  "version": 1,
  "locktime": 3126597,
  "vin": [
    {
      "txid": "b8507eace3cf9479bcd04c305dc2520b47497d48f8fc2fcf4fe3ee14e1afb9f6",
      "vout": 11,
      "scriptSig": {
        "asm": "3044022009b1f4b29432dd4b4968e83ef3b8b2b5990c25feb59c489b26410d007f1fddb602206dc410f85ec704b67e63e2e431f87237956c63abdab5559a7e2f3a7f1b3abc5a[ALL] 0289fd5ac3e478b53f4d66067cc9e9b94bdcd3244e0f5c3578da1aef088451fbd6",
        "hex": "473044022009b1f4b29432dd4b4968e83ef3b8b2b5990c25feb59c489b26410d007f1fddb602206dc410f85ec704b67e63e2e431f87237956c63abdab5559a7e2f3a7f1b3abc5a01210289fd5ac3e478b53f4d66067cc9e9b94bdcd3244e0f5c3578da1aef088451fbd6"
      },
      "sequence": 4294967294
    }
  ],
  "vout": [
    {
      "value": 22.93393464,
      "n": 0,
      "scriptPubKey": {
        "asm": "OP_DUP OP_HASH160 b483d4ece303e215c60addd3219b03e0704808f2 OP_EQUALVERIFY OP_CHECKSIG",
        "hex": "76a914b483d4ece303e215c60addd3219b03e0704808f288ac",
        "reqSigs": 1,
        "type": "pubkeyhash",
        "addresses": [
          "DMba6cnR6kb41ErpR2XNFoSqXj4Py8NUWV"
        ]
      }
    },
    {
      "value": 0.00010000,
      "n": 1,
      "scriptPubKey": {
        "asm": "OP_DUP OP_HASH160 55bdc05525b7ecc1a59da75a202dfd04d4b83ea4 OP_EQUALVERIFY OP_CHECKSIG",
        "hex": "76a91455bdc05525b7ecc1a59da75a202dfd04d4b83ea488ac",
        "reqSigs": 1,
        "type": "pubkeyhash",
        "addresses": [
          "DCxTHiSxiSxTHExSToRYzzzzzzzzaHy981"
        ]
      }
    },
    {
      "value": 0.00010000,
      "n": 2,
      "scriptPubKey": {
        "asm": "OP_DUP OP_HASH160 55ce6bcbd9d251add7462f4f7d49bbce83e93cab OP_EQUALVERIFY OP_CHECKSIG",
        "hex": "76a91455ce6bcbd9d251add7462f4f7d49bbce83e93cab88ac",
        "reqSigs": 1,
        "type": "pubkeyhash",
        "addresses": [
          "DCxoFxAxMANxNAMEDzzzzzzzzzzzX5rfje"
        ]
      }
    },
    {
      "value": 0.00010000,
      "n": 3,
      "scriptPubKey": {
        "asm": "OP_DUP OP_HASH160 55b6302bce22e183471d71bcef66d691b6c87513 OP_EQUALVERIFY OP_CHECKSIG",
        "hex": "76a91455b6302bce22e183471d71bcef66d691b6c8751388ac",
        "reqSigs": 1,
        "type": "pubkeyhash",
        "addresses": [
          "DCxJEDhxPooRxMoUNTAiNyzzzzzzUczHvP"
        ]
      }
    },
    {
      "value": 0.00010000,
      "n": 4,
      "scriptPubKey": {
        "asm": "OP_DUP OP_HASH160 55b2da27ce886928c25c69dc6ae36b485ddf88a0 OP_EQUALVERIFY OP_CHECKSIG",
        "hex": "76a91455b2da27ce886928c25c69dc6ae36b485ddf88a088ac",
        "reqSigs": 1,
        "type": "pubkeyhash",
        "addresses": [
          "DCxEERvxBARELYxKEPTzzzzzzzzzYhDdQB"
        ]
      }
    },
    {
      "value": 0.00010000,
      "n": 5,
      "scriptPubKey": {
        "asm": "OP_DUP OP_HASH160 55b5c27aa7ae48591197c7f0a1746f4e9488a707 OP_EQUALVERIFY OP_CHECKSIG",
        "hex": "76a91455b5c27aa7ae48591197c7f0a1746f4e9488a70788ac",
        "reqSigs": 1,
        "type": "pubkeyhash",
        "addresses": [
          "DCxHiSxFAMiLYxFEDhzzzzzzzzzzYXWAyB"
        ]
      }
    }
  ],
  "blockhash": "fb46cf4b8bdae34165911143edceba90a9884eacb14c605bb0e078af37bd9864",
  "confirmations": 1388457,
  "time": 1583035368,
  "blocktime": 1583035368
}
