{
  "hex": "010000000139b306b0efa79b8c6a3b4eff76eb474c53bff6b5484c2ddf86bed0c91301576a030000006b483045022100cc0eac303119734ed174505b04c665b4c6a0478e4038dcb56ac772d9b00eb55c02204b20ef7e3077874c302f0f184b4dac49f85fb407933a3e88331d64b39865a3b601210287b135c168f61de093e0f9050f7de0fbac128dae547b9ed57cf4b7a19dc06bbcfeffffff0710270000000000001976a91455bac48dbd6c93cbdb444c627366285a489fe11f88ac102700000000000017a9140b296ba7889bf0a06d27f3054d8539495b43748187102700000000000017a9140b0125d2a9063911e1dfc65f9945171111d8898387c07baf59010000001976a91400bb681b7af3c6dd8f74446b03a2398b59dedb0288ac102700000000000017a91416218bdae6372e3d62b9fecd5f309e10c566d31187102700000000000017a9140c18bac3f0afd60eddc90976cae63fd1f1c143b287102700000000000017a91412ee3d1aa3b3f53f525cffb849aa3a54fe3c6dbf877fcf3000",
  "txid": "3bdca3760540d5f83dae7be9c6c506e6087362ef0900d975ff29ab61aaf1151a",
  "hash": "3bdca3760540d5f83dae7be9c6c506e6087362ef0900d975ff29ab61aaf1151a",
  "size": 386,
  "vsize": 386,
  "version": 1,
  "locktime": 3198847,
  "vin": [
    {
      "txid": "6a570113c9d0be86df2d4c48b5f6bf534c47eb76ff4e3b6a8c9ba7efb006b339",
      "vout": 3,
      "scriptSig": {
        "asm": "3045022100cc0eac303119734ed174505b04c665b4c6a0478e4038dcb56ac772d9b00eb55c02204b20ef7e3077874c302f0f184b4dac49f85fb407933a3e88331d64b39865a3b6[ALL] 0287b135c168f61de093e0f9050f7de0fbac128dae547b9ed57cf4b7a19dc06bbc",
        "hex": "483045022100cc0eac303119734ed174505b04c665b4c6a0478e4038dcb56ac772d9b00eb55c02204b20ef7e3077874c302f0f184b4dac49f85fb407933a3e88331d64b39865a3b601210287b135c168f61de093e0f9050f7de0fbac128dae547b9ed57cf4b7a19dc06bbc"
      },
      "sequence": 4294967294
    }
  ],
  "vout": [
    {
      "value": 0.00010000,
      "n": 0,
      "scriptPubKey": {
        "asm": "OP_DUP OP_HASH160 55bac48dbd6c93cbdb444c627366285a489fe11f OP_EQUALVERIFY OP_CHECKSIG",
        "hex": "76a91455bac48dbd6c93cbdb444c627366285a489fe11f88ac",
        "reqSigs": 1,
        "type": "pubkeyhash",
        "addresses": [
          "DCxPiRATESxARGxARGxARGzzzzzzd6CVG5"
        ]
      }
    },
    {
      "value": 0.00010000,
      "n": 1,
      "scriptPubKey": {
        "asm": "OP_HASH160 0b296ba7889bf0a06d27f3054d8539495b437481 OP_EQUAL",
        "hex": "a9140b296ba7889bf0a06d27f3054d8539495b43748187",
        "reqSigs": 1,
        "type": "scripthash",
        "addresses": [
          "9sTHiSxiSxTHExFiRSTxLiNExoFzaxrxN4"
        ]
      }
    },
    {
      "value": 0.00010000,
      "n": 2,
      "scriptPubKey": {
        "asm": "OP_HASH160 0b0125d2a9063911e1dfc65f9945171111d88983 OP_EQUAL",
        "hex": "a9140b0125d2a9063911e1dfc65f9945171111d8898387",
        "reqSigs": 1,
        "type": "scripthash",
        "addresses": [
          "9sSTUFFxTHATxixTYPEzzzzzzzzzbjxeyR"
        ]
      }
    },
    {
      "value": 57.99640000,
      "n": 3,
      "scriptPubKey": {
        "asm": "OP_DUP OP_HASH160 00bb681b7af3c6dd8f74446b03a2398b59dedb02 OP_EQUALVERIFY OP_CHECKSIG",
        "hex": "76a91400bb681b7af3c6dd8f74446b03a2398b59dedb0288ac",
        "reqSigs": 1,
        "type": "pubkeyhash",
        "addresses": [
          "D5Cy3W5KeC9MojYqsm9ChWVgm5u27YZMG6"
        ]
      }
    },
    {
      "value": 0.00010000,
      "n": 4,
      "scriptPubKey": {
        "asm": "OP_HASH160 16218bdae6372e3d62b9fecd5f309e10c566d311 OP_EQUAL",
        "hex": "a91416218bdae6372e3d62b9fecd5f309e10c566d31187",
        "reqSigs": 1,
        "type": "scripthash",
        "addresses": [
          "9tTHiSxiSxTHExSECoNDxLiNEzzzdZQZj4"
        ]
      }
    },
    {
      "value": 0.00010000,
      "n": 5,
      "scriptPubKey": {
        "asm": "OP_HASH160 0c18bac3f0afd60eddc90976cae63fd1f1c143b2 OP_EQUAL",
        "hex": "a9140c18bac3f0afd60eddc90976cae63fd1f1c143b287",
        "reqSigs": 1,
        "type": "scripthash",
        "addresses": [
          "9sYEPvxYoUxGUESSEDxiTzzzzzzzaiyu7c"
        ]
      }
    },
    {
      "value": 0.00010000,
      "n": 6,
      "scriptPubKey": {
        "asm": "OP_HASH160 12ee3d1aa3b3f53f525cffb849aa3a54fe3c6dbf OP_EQUAL",
        "hex": "a91412ee3d1aa3b3f53f525cffb849aa3a54fe3c6dbf87",
        "reqSigs": 1,
        "type": "scripthash",
        "addresses": [
          "9tANDxTHiSxiSxLiNExFoURzzzzzUtmmNb"
        ]
      }
    }
  ],
  "blockhash": "1eb390604e3af1c90ab440150ef9e0cf99fe8c978d100e3f571de160f597c672",
  "confirmations": 1316288,
  "time": 1587584278,
  "blocktime": 1587584278
}
