{
  "hex": "0100000001a51b9f5db833c7ce7c07fa903d89fdf66992ad6159951a13d4b24eff4bc3d975000000006a473044022014aa3044bb12e14ff233f3045ca9b8a4642fa3d26bfe0ed8c51db57dd34f6ca102207f719bfafb1241cfded329d5792826b964fdd6a1a061834234f756ee046104d8012103616571f971ed9098f95e0d1082be5b8cdbc603d431051beba3cf959f84e0cecfffffffff02edf7f605000000001976a91455bbfa8b227fccd9652ea57aeb8940cb05bd16df88ac1a9cf579010000001976a9148b0e0a4933b860765a7243b3460f65ff7da3f4fc88ac00000000",
  "txid": "3c033dfda3007471fc7857f9516b060c6432b5a0b5eaee905b715475275c6536",
  "hash": "3c033dfda3007471fc7857f9516b060c6432b5a0b5eaee905b715475275c6536",
  "size": 225,
  "vsize": 225,
  "version": 1,
  "locktime": 0,
  "vin": [
    {
      "txid": "75d9c34bff4eb2d4131a955961ad9269f6fd893d90fa077ccec733b85d9f1ba5",
      "vout": 0,
      "scriptSig": {
        "asm": "3044022014aa3044bb12e14ff233f3045ca9b8a4642fa3d26bfe0ed8c51db57dd34f6ca102207f719bfafb1241cfded329d5792826b964fdd6a1a061834234f756ee046104d8[ALL] 03616571f971ed9098f95e0d1082be5b8cdbc603d431051beba3cf959f84e0cecf",
        "hex": "473044022014aa3044bb12e14ff233f3045ca9b8a4642fa3d26bfe0ed8c51db57dd34f6ca102207f719bfafb1241cfded329d5792826b964fdd6a1a061834234f756ee046104d8012103616571f971ed9098f95e0d1082be5b8cdbc603d431051beba3cf959f84e0cecf"
      },
      "sequence": 4294967295
    }
  ],
  "vout": [
    {
      "value": 1.00071405,
      "n": 0,
      "scriptPubKey": {
        "asm": "OP_DUP OP_HASH160 55bbfa8b227fccd9652ea57aeb8940cb05bd16df OP_EQUALVERIFY OP_CHECKSIG",
        "hex": "76a91455bbfa8b227fccd9652ea57aeb8940cb05bd16df88ac",
        "reqSigs": 1,
        "type": "pubkeyhash",
        "addresses": [
          "DCxRAYyRAYxiSxoKzzzzzzzzzzzzUJcRnT"
        ]
      }
    },
    {
      "value": 63.41106714,
      "n": 1,
      "scriptPubKey": {
        "asm": "OP_DUP OP_HASH160 8b0e0a4933b860765a7243b3460f65ff7da3f4fc OP_EQUALVERIFY OP_CHECKSIG",
        "hex": "76a9148b0e0a4933b860765a7243b3460f65ff7da3f4fc88ac",
        "reqSigs": 1,
        "type": "pubkeyhash",
        "addresses": [
          "DHpMHT9a1hecRoABgh9g7Q1XdVBqsSC1Ko"
        ]
      }
    }
  ],
  "blockhash": "7a5bf2894b3b00090d9eae073b5dc3440e46f0b4332f09a8ff90ae75c2251399",
  "confirmations": 1577879,
  "time": 1571167267,
  "blocktime": 1571167267
}
