{
  "hex": "01000000018776814bad3027b36a0bdd304e97b2e5d407719e401a3698122238d6433809f30a0000006b483045022100c514b56be93b500243285b84e0e860184f82f48c0470f8dd1f7fac53a6c93dd20220704f63b12d53beda6afb88f172e9cae6e531c9a5436ff5647ce65c99339c02440121032a95d08860c0596b73649bfb6ff04ff73a96009acdd89a60a14efb38d232a1b7feffffff2310270000000000001976a91455b55ae503e9414c9bc0459c88e28410e645f9d188ac102700000000000017a914095e2364bda473d0ba16ad858ecd300d6abcb7b287102700000000000017a9141917e126bbfae4cc350e16cc72fd1237fcb3104087102700000000000017a9140b28f57507783de88e28f6e39e10b2cb00accb1c87102700000000000017a91412ee80a73cd469af382f2685baf80caa6f17b8dc87102700000000000017a9140e1fd4a9d42aebc89d81ae95ab6f68c4f99ccf7387102700000000000017a91408255675fa94744389238cc70fc4b3883f316a3b87102700000000000017a914190056b1dfb70f3342a252d2c57f50be35827d2a87102700000000000017a9141627c33fe218aa94106c50d9721a357ec5b2617887102700000000000017a91416212691600af9023e4523878fd2eb711637fd9287102700000000000017a91415137fac85f89a333c6c507eb726856f104531b887102700000000000017a9141627c33febe948d98a8e797cb2f5c9212f0e176e87102700000000000017a9140c34594e59c3f7d32b7fad23fb0298390d4965ec87102700000000000017a9140b2fa30c8e4e0b3c950069bfd3fd48b69fd70f9b87102700000000000017a91416b255796a95ea8e9c007c158c7aeecc922d674d87102700000000000017a914136425d2e240d59b7b53190ed590061e954779be87102700000000000017a9140af61ac875a62988d7e72fe82c1846d6dc1f82f987102700000000000017a9140b42a9292f2ab104986c2b45486b2ff870dfaa7987102700000000000017a9140b28f5d0be6429d30ac08ad6cdf8f9f0cb38edb887102700000000000017a91408255675fa94744387a4df7d6aaffca8f98b4a4f87102700000000000017a91418fc287899fabd70b70ab89c99489cdb269030e887102700000000000017a91416cb9730f64f7675d122a39fb79a6f95b03a53b887102700000000000017a914143a6beec5e29aa37902b61092b16475bbe84063879fe4c6a6c90000001976a914c5b50b797c964bf150f1735f762df51f55aec3f188ac102700000000000017a91414fc50d7729bc9fcf043e3cbe075d69846770a7387102700000000000017a914132f4fe19536ec8b77e522cf58672d19fdd58fd687102700000000000017a9140b28f5d0ca543680f4799bafb16ffb90ac8a322587102700000000000017a9140972f153dd5d085da29f100acd09ed02a0b5dfa887102700000000000017a914160a5f19924da6f5b817a2f88dd36a23daa5536c87102700000000000017a91415ee56a6246ce6be4e45dd4e999ae7e0f419307487102700000000000017a91415ee55c278987647673f5ad69795e2c0d43254b787102700000000000017a9140e08367e81c5bff4d2f9c8da2c12bd90e619556687102700000000000017a9140ef65825e09f8217a537e5e9f02e36a4db2e7f7387102700000000000017a914146b11873ce5ef6afbfc1842e7ff1bdf62b60d3187102700000000000017a91412ef35b30e421502a68438b24f4fef8832174d4a87aff53000",
  "txid": "3c509a38410d46713902ca6f87918f957ea89dd42490a0fc60695ac27561d284",
  "hash": "3c509a38410d46713902ca6f87918f957ea89dd42490a0fc60695ac27561d284",
  "size": 1282,
  "vsize": 1282,
  "version": 1,
  "locktime": 3208623,
  "vin": [
    {
      "txid": "f3093843d638221298361a409e7107d4e5b2974e30dd0b6ab32730ad4b817687",
      "vout": 10,
      "scriptSig": {
        "asm": "3045022100c514b56be93b500243285b84e0e860184f82f48c0470f8dd1f7fac53a6c93dd20220704f63b12d53beda6afb88f172e9cae6e531c9a5436ff5647ce65c99339c0244[ALL] 032a95d08860c0596b73649bfb6ff04ff73a96009acdd89a60a14efb38d232a1b7",
        "hex": "483045022100c514b56be93b500243285b84e0e860184f82f48c0470f8dd1f7fac53a6c93dd20220704f63b12d53beda6afb88f172e9cae6e531c9a5436ff5647ce65c99339c02440121032a95d08860c0596b73649bfb6ff04ff73a96009acdd89a60a14efb38d232a1b7"
      },
      "sequence": 4294967294
    }
  ],
  "vout": [
    {
      "value": 0.00010000,
      "n": 0,
      "scriptPubKey": {
        "asm": "OP_DUP OP_HASH160 55b55ae503e9414c9bc0459c88e28410e645f9d1 OP_EQUALVERIFY OP_CHECKSIG",
        "hex": "76a91455b55ae503e9414c9bc0459c88e28410e645f9d188ac",
        "reqSigs": 1,
        "type": "pubkeyhash",
        "addresses": [
          "DCxHELLoxBEARDEDxBAPTiSTSzzzTR6QsP"
        ]
      }
    },
    {
      "value": 0.00010000,
      "n": 1,
      "scriptPubKey": {
        "asm": "OP_HASH160 095e2364bda473d0ba16ad858ecd300d6abcb7b2 OP_EQUAL",
        "hex": "a914095e2364bda473d0ba16ad858ecd300d6abcb7b287",
        "reqSigs": 1,
        "type": "scripthash",
        "addresses": [
          "9sHoWxTHExHECKxARExYoUzzzzzzXkKmTG"
        ]
      }
    },
    {
      "value": 0.00010000,
      "n": 2,
      "scriptPubKey": {
        "asm": "OP_HASH160 1917e126bbfae4cc350e16cc72fd1237fcb31040 OP_EQUAL",
        "hex": "a9141917e126bbfae4cc350e16cc72fd1237fcb3104087",
        "reqSigs": 1,
        "type": "scripthash",
        "addresses": [
          "9tixAMxDoiNGxWELLzzzzzzzzzzzWz9fsV"
        ]
      }
    },
    {
      "value": 0.00010000,
      "n": 3,
      "scriptPubKey": {
        "asm": "OP_HASH160 0b28f57507783de88e28f6e39e10b2cb00accb1c OP_EQUAL",
        "hex": "a9140b28f57507783de88e28f6e39e10b2cb00accb1c87",
        "reqSigs": 1,
        "type": "scripthash",
        "addresses": [
          "9sTHANKSxFoRxASKiNGzzzzzzzzzU1qb6H"
        ]
      }
    },
    {
      "value": 0.00010000,
      "n": 4,
      "scriptPubKey": {
        "asm": "OP_HASH160 12ee80a73cd469af382f2685baf80caa6f17b8dc OP_EQUAL",
        "hex": "a91412ee80a73cd469af382f2685baf80caa6f17b8dc87",
        "reqSigs": 1,
        "type": "scripthash",
        "addresses": [
          "9tANYHoWzzzzzzzzzzzzzzzzzzzzVrLVyJ"
        ]
      }
    },
    {
      "value": 0.00010000,
      "n": 5,
      "scriptPubKey": {
        "asm": "OP_HASH160 0e1fd4a9d42aebc89d81ae95ab6f68c4f99ccf73 OP_EQUAL",
        "hex": "a9140e1fd4a9d42aebc89d81ae95ab6f68c4f99ccf7387",
        "reqSigs": 1,
        "type": "scripthash",
        "addresses": [
          "9sixFiGUREDxoUTxMYzzzzzzzzzzWqTgGw"
        ]
      }
    },
    {
      "value": 0.00010000,
      "n": 6,
      "scriptPubKey": {
        "asm": "OP_HASH160 08255675fa94744389238cc70fc4b3883f316a3b OP_EQUAL",
        "hex": "a91408255675fa94744389238cc70fc4b3883f316a3b87",
        "reqSigs": 1,
        "type": "scripthash",
        "addresses": [
          "9sBLoCKCHAiNxRELiGioNxTHiNGzX6daTA"
        ]
      }
    },
    {
      "value": 0.00010000,
      "n": 7,
      "scriptPubKey": {
        "asm": "OP_HASH160 190056b1dfb70f3342a252d2c57f50be35827d2a OP_EQUAL",
        "hex": "a914190056b1dfb70f3342a252d2c57f50be35827d2a87",
        "reqSigs": 1,
        "type": "scripthash",
        "addresses": [
          "9tiTxiSxSiMPLYxAxWAYxTozzzzzULAn5t"
        ]
      }
    },
    {
      "value": 0.00010000,
      "n": 8,
      "scriptPubKey": {
        "asm": "OP_HASH160 1627c33fe218aa94106c50d9721a357ec5b26178 OP_EQUAL",
        "hex": "a9141627c33fe218aa94106c50d9721a357ec5b2617887",
        "reqSigs": 1,
        "type": "scripthash",
        "addresses": [
          "9tTRANSFERxMoNEYxANYWHERExiNaXJpo1"
        ]
      }
    },
    {
      "value": 0.00010000,
      "n": 9,
      "scriptPubKey": {
        "asm": "OP_HASH160 16212691600af9023e4523878fd2eb711637fd92 OP_EQUAL",
        "hex": "a91416212691600af9023e4523878fd2eb711637fd9287",
        "reqSigs": 1,
        "type": "scripthash",
        "addresses": [
          "9tTHExWoRLDxWiTHoUTxAzzzzzzzUmKyzL"
        ]
      }
    },
    {
      "value": 0.00010000,
      "n": 10,
      "scriptPubKey": {
        "asm": "OP_HASH160 15137fac85f89a333c6c507eb726856f104531b8 OP_EQUAL",
        "hex": "a91415137fac85f89a333c6c507eb726856f104531b887",
        "reqSigs": 1,
        "type": "scripthash",
        "addresses": [
          "9tMiDDLEMANxANDxWiTHxPUREzzzUK3hzy"
        ]
      }
    },
    {
      "value": 0.00010000,
      "n": 11,
      "scriptPubKey": {
        "asm": "OP_HASH160 1627c33febe948d98a8e797cb2f5c9212f0e176e OP_EQUAL",
        "hex": "a9141627c33febe948d98a8e797cb2f5c9212f0e176e87",
        "reqSigs": 1,
        "type": "scripthash",
        "addresses": [
          "9tTRANSPARENCYzzzzzzzzzzzzzzXrcdGd"
        ]
      }
    },
    {
      "value": 0.00010000,
      "n": 12,
      "scriptPubKey": {
        "asm": "OP_HASH160 0c34594e59c3f7d32b7fad23fb0298390d4965ec OP_EQUAL",
        "hex": "a9140c34594e59c3f7d32b7fad23fb0298390d4965ec87",
        "reqSigs": 1,
        "type": "scripthash",
        "addresses": [
          "9sYoUxGUYSxLiKEzzzzzzzzzzzzzZYieMU"
        ]
      }
    },
    {
      "value": 0.00010000,
      "n": 13,
      "scriptPubKey": {
        "asm": "OP_HASH160 0b2fa30c8e4e0b3c950069bfd3fd48b69fd70f9b OP_EQUAL",
        "hex": "a9140b2fa30c8e4e0b3c950069bfd3fd48b69fd70f9b87",
        "reqSigs": 1,
        "type": "scripthash",
        "addresses": [
          "9sTRANSPARENCYvxDoNgyTxYoUkzWW3NQV"
        ]
      }
    },
    {
      "value": 0.00010000,
      "n": 14,
      "scriptPubKey": {
        "asm": "OP_HASH160 16b255796a95ea8e9c007c158c7aeecc922d674d OP_EQUAL",
        "hex": "a91416b255796a95ea8e9c007c158c7aeecc922d674d87",
        "reqSigs": 1,
        "type": "scripthash",
        "addresses": [
          "9tWHATxAMxixTHiNKiNGxoFzzzzzZun7ki"
        ]
      }
    },
    {
      "value": 0.00010000,
      "n": 15,
      "scriptPubKey": {
        "asm": "OP_HASH160 136425d2e240d59b7b53190ed590061e954779be OP_EQUAL",
        "hex": "a914136425d2e240d59b7b53190ed590061e954779be87",
        "reqSigs": 1,
        "type": "scripthash",
        "addresses": [
          "9tCoURSExYoUxDozzzzzzzzzzzzzZiSXng"
        ]
      }
    },
    {
      "value": 0.00010000,
      "n": 16,
      "scriptPubKey": {
        "asm": "OP_HASH160 0af61ac875a62988d7e72fe82c1846d6dc1f82f9 OP_EQUAL",
        "hex": "a9140af61ac875a62988d7e72fe82c1846d6dc1f82f987",
        "reqSigs": 1,
        "type": "scripthash",
        "addresses": [
          "9sSEExTHiSxMESSAGExiSxTiEDzzWXxmQM"
        ]
      }
    },
    {
      "value": 0.00010000,
      "n": 17,
      "scriptPubKey": {
        "asm": "OP_HASH160 0b42a9292f2ab104986c2b45486b2ff870dfaa79 OP_EQUAL",
        "hex": "a9140b42a9292f2ab104986c2b45486b2ff870dfaa7987",
        "reqSigs": 1,
        "type": "scripthash",
        "addresses": [
          "9sToxAxBUNCHxoFxADDRESSESzzzZUPLSY"
        ]
      }
    },
    {
      "value": 0.00010000,
      "n": 18,
      "scriptPubKey": {
        "asm": "OP_HASH160 0b28f5d0be6429d30ac08ad6cdf8f9f0cb38edb8 OP_EQUAL",
        "hex": "a9140b28f5d0be6429d30ac08ad6cdf8f9f0cb38edb887",
        "reqSigs": 1,
        "type": "scripthash",
        "addresses": [
          "9sTHATxYoUxCANxSEExoNxAzzzzzYF3xkm"
        ]
      }
    },
    {
      "value": 0.00010000,
      "n": 19,
      "scriptPubKey": {
        "asm": "OP_HASH160 08255675fa94744387a4df7d6aaffca8f98b4a4f OP_EQUAL",
        "hex": "a91408255675fa94744387a4df7d6aaffca8f98b4a4f87",
        "reqSigs": 1,
        "type": "scripthash",
        "addresses": [
          "9sBLoCKCHAiNxEXPLoRERzzzzzzzaiTw7U"
        ]
      }
    },
    {
      "value": 0.00010000,
      "n": 20,
      "scriptPubKey": {
        "asm": "OP_HASH160 18fc287899fabd70b70ab89c99489cdb269030e8 OP_EQUAL",
        "hex": "a91418fc287899fabd70b70ab89c99489cdb269030e887",
        "reqSigs": 1,
        "type": "scripthash",
        "addresses": [
          "9tiNxFACTxANYoNExiNxTHEzzzzzZXmkXg"
        ]
      }
    },
    {
      "value": 0.00010000,
      "n": 21,
      "scriptPubKey": {
        "asm": "OP_HASH160 16cb9730f64f7675d122a39fb79a6f95b03a53b8 OP_EQUAL",
        "hex": "a91416cb9730f64f7675d122a39fb79a6f95b03a53b887",
        "reqSigs": 1,
        "type": "scripthash",
        "addresses": [
          "9tWoRLDxCANxREADxTHiSxANDzzzbTntzJ"
        ]
      }
    },
    {
      "value": 0.00010000,
      "n": 22,
      "scriptPubKey": {
        "asm": "OP_HASH160 143a6beec5e29aa37902b61092b16475bbe84063 OP_EQUAL",
        "hex": "a914143a6beec5e29aa37902b61092b16475bbe8406387",
        "reqSigs": 1,
        "type": "scripthash",
        "addresses": [
          "9tHEARxYoURxiNCREDiBLEzzzzzzRKsHA8"
        ]
      }
    },
    {
      "value": 8660.86479007,
      "n": 23,
      "scriptPubKey": {
        "asm": "OP_DUP OP_HASH160 c5b50b797c964bf150f1735f762df51f55aec3f1 OP_EQUALVERIFY OP_CHECKSIG",
        "hex": "76a914c5b50b797c964bf150f1735f762df51f55aec3f188ac",
        "reqSigs": 1,
        "type": "pubkeyhash",
        "addresses": [
          "DPAUYGFmW7oDgTL8Ci631hJ3mmvNyqpsPQ"
        ]
      }
    },
    {
      "value": 0.00010000,
      "n": 24,
      "scriptPubKey": {
        "asm": "OP_HASH160 14fc50d7729bc9fcf043e3cbe075d69846770a73 OP_EQUAL",
        "hex": "a91414fc50d7729bc9fcf043e3cbe075d69846770a7387",
        "reqSigs": 1,
        "type": "scripthash",
        "addresses": [
          "9tMESSAGExoFxBEARDSxANDzzzzzZXe1oR"
        ]
      }
    },
    {
      "value": 0.00010000,
      "n": 25,
      "scriptPubKey": {
        "asm": "OP_HASH160 132f4fe19536ec8b77e522cf58672d19fdd58fd6 OP_EQUAL",
        "hex": "a914132f4fe19536ec8b77e522cf58672d19fdd58fd687",
        "reqSigs": 1,
        "type": "scripthash",
        "addresses": [
          "9tBiBLESzzzzzzzzzzzzzzzzzzzzZBVzBX"
        ]
      }
    },
    {
      "value": 0.00010000,
      "n": 26,
      "scriptPubKey": {
        "asm": "OP_HASH160 0b28f5d0ca543680f4799bafb16ffb90ac8a3225 OP_EQUAL",
        "hex": "a9140b28f5d0ca543680f4799bafb16ffb90ac8a322587",
        "reqSigs": 1,
        "type": "scripthash",
        "addresses": [
          "9sTHATxiSxSoMExMEGAPHoNExFoRX5Rnnj"
        ]
      }
    },
    {
      "value": 0.00010000,
      "n": 27,
      "scriptPubKey": {
        "asm": "OP_HASH160 0972f153dd5d085da29f100acd09ed02a0b5dfa8 OP_EQUAL",
        "hex": "a9140972f153dd5d085da29f100acd09ed02a0b5dfa887",
        "reqSigs": 1,
        "type": "scripthash",
        "addresses": [
          "9sJESUSvxRiGHTkzzzzzzzzzzzzzReAUzp"
        ]
      }
    },
    {
      "value": 0.00010000,
      "n": 28,
      "scriptPubKey": {
        "asm": "OP_HASH160 160a5f19924da6f5b817a2f88dd36a23daa5536c OP_EQUAL",
        "hex": "a914160a5f19924da6f5b817a2f88dd36a23daa5536c87",
        "reqSigs": 1,
        "type": "scripthash",
        "addresses": [
          "9tSoxEVERYoNExALSoxKNoWSxWHoU6NNRe"
        ]
      }
    },
    {
      "value": 0.00010000,
      "n": 29,
      "scriptPubKey": {
        "asm": "OP_HASH160 15ee56a6246ce6be4e45dd4e999ae7e0f4193074 OP_EQUAL",
        "hex": "a91415ee56a6246ce6be4e45dd4e999ae7e0f419307487",
        "reqSigs": 1,
        "type": "scripthash",
        "addresses": [
          "9tSENTxSoMExMESSAGExANDxCANzXFcL4M"
        ]
      }
    },
    {
      "value": 0.00010000,
      "n": 30,
      "scriptPubKey": {
        "asm": "OP_HASH160 15ee55c278987647673f5ad69795e2c0d43254b7 OP_EQUAL",
        "hex": "a91415ee55c278987647673f5ad69795e2c0d43254b787",
        "reqSigs": 1,
        "type": "scripthash",
        "addresses": [
          "9tSENDxTHEMxCRYPToCURRENCYzzV1JQFW"
        ]
      }
    },
    {
      "value": 0.00010000,
      "n": 31,
      "scriptPubKey": {
        "asm": "OP_HASH160 0e08367e81c5bff4d2f9c8da2c12bd90e6195566 OP_EQUAL",
        "hex": "a9140e08367e81c5bff4d2f9c8da2c12bd90e619556687",
        "reqSigs": 1,
        "type": "scripthash",
        "addresses": [
          "9siTxiSxAxToTALLYxFREExANDzzcf2qDT"
        ]
      }
    },
    {
      "value": 0.00010000,
      "n": 32,
      "scriptPubKey": {
        "asm": "OP_HASH160 0ef65825e09f8217a537e5e9f02e36a4db2e7f73 OP_EQUAL",
        "hex": "a9140ef65825e09f8217a537e5e9f02e36a4db2e7f7387",
        "reqSigs": 1,
        "type": "scripthash",
        "addresses": [
          "9soPENxMoNEYxSYSTEMzzzzzzzzzW5PGJd"
        ]
      }
    },
    {
      "value": 0.00010000,
      "n": 33,
      "scriptPubKey": {
        "asm": "OP_HASH160 146b11873ce5ef6afbfc1842e7ff1bdf62b60d31 OP_EQUAL",
        "hex": "a914146b11873ce5ef6afbfc1842e7ff1bdf62b60d3187",
        "reqSigs": 1,
        "type": "scripthash",
        "addresses": [
          "9tJESUSxWoULDxToTALLYzzzzzzzW94t47"
        ]
      }
    },
    {
      "value": 0.00010000,
      "n": 34,
      "scriptPubKey": {
        "asm": "OP_HASH160 12ef35b30e421502a68438b24f4fef8832174d4a OP_EQUAL",
        "hex": "a91412ef35b30e421502a68438b24f4fef8832174d4a87",
        "reqSigs": 1,
        "type": "scripthash",
        "addresses": [
          "9tAPPRoVEhzzzzzzzzzzzzzzzzzzTdmimQ"
        ]
      }
    }
  ],
  "blockhash": "03a5bebf2f5e5f22caf09e4d6acd210210a670b5b9f9839451bf52c6677040bd",
  "confirmations": 1306535,
  "time": 1588198227,
  "blocktime": 1588198227
}
