{
  "hex": "01000000016e1a982a567c3a2b1b6eb8290815cdc104707854eeef5fc441204ca98544af2d020000006a473044022015b2150338d099eb4c0377751ac18b84c1adb0d8968c774bd59b2f512e53a004022043cfaea6f021f77884e1836dc42756f617115709e065b76a51c8939f1650798701210279af9dc4a44bdc2f689d6940429efb40b9200855081842a54f1904249cf34613feffffff04102700000000000017a9140b29065937ebaea4424f004cdc852093f9bf76eb87102700000000000017a9141128c7554f4cf2c1f7c4ee669bb6f35ef122f98287102700000000000017a9140b296ba774ecd1215008be5a0d8acc43a23ce4bd87df9f7bdc160100001976a9147ea022736f422f355cdf497868fd7ecea1056ca788ac2c152d00",
  "txid": "3e035ebc443b8aabd0b9f90912af90d9bc399c3f6543af375b1cca0096009a4b",
  "hash": "3e035ebc443b8aabd0b9f90912af90d9bc399c3f6543af375b1cca0096009a4b",
  "size": 287,
  "vsize": 287,
  "version": 1,
  "locktime": 2954540,
  "vin": [
    {
      "txid": "2daf4485a94c2041c45fefee54787004c1cd150829b86e1b2b3a7c562a981a6e",
      "vout": 2,
      "scriptSig": {
        "asm": "3044022015b2150338d099eb4c0377751ac18b84c1adb0d8968c774bd59b2f512e53a004022043cfaea6f021f77884e1836dc42756f617115709e065b76a51c8939f16507987[ALL] 0279af9dc4a44bdc2f689d6940429efb40b9200855081842a54f1904249cf34613",
        "hex": "473044022015b2150338d099eb4c0377751ac18b84c1adb0d8968c774bd59b2f512e53a004022043cfaea6f021f77884e1836dc42756f617115709e065b76a51c8939f1650798701210279af9dc4a44bdc2f689d6940429efb40b9200855081842a54f1904249cf34613"
      },
      "sequence": 4294967294
    }
  ],
  "vout": [
    {
      "value": 0.00010000,
      "n": 0,
      "scriptPubKey": {
        "asm": "OP_HASH160 0b29065937ebaea4424f004cdc852093f9bf76eb OP_EQUAL",
        "hex": "a9140b29065937ebaea4424f004cdc852093f9bf76eb87",
        "reqSigs": 1,
        "type": "scripthash",
        "addresses": [
          "9sTHExDiMECASHxSERViCEzzzzzzBoUCiD"
        ]
      }
    },
    {
      "value": 0.00010000,
      "n": 1,
      "scriptPubKey": {
        "asm": "OP_HASH160 1128c7554f4cf2c1f7c4ee669bb6f35ef122f982 OP_EQUAL",
        "hex": "a9141128c7554f4cf2c1f7c4ee669bb6f35ef122f98287",
        "reqSigs": 1,
        "type": "scripthash",
        "addresses": [
          "9szzzzzzzzzzzzzzzzzzzzzzzzzzvq1Mt1"
        ]
      }
    },
    {
      "value": 0.00010000,
      "n": 2,
      "scriptPubKey": {
        "asm": "OP_HASH160 0b296ba774ecd1215008be5a0d8acc43a23ce4bd OP_EQUAL",
        "hex": "a9140b296ba774ecd1215008be5a0d8acc43a23ce4bd87",
        "reqSigs": 1,
        "type": "scripthash",
        "addresses": [
          "9sTHiSxSYSTEMxiSxCHEAPzzzzzzEr3Za4"
        ]
      }
    },
    {
      "value": 11976.99997663,
      "n": 3,
      "scriptPubKey": {
        "asm": "OP_DUP OP_HASH160 7ea022736f422f355cdf497868fd7ecea1056ca7 OP_EQUALVERIFY OP_CHECKSIG",
        "hex": "76a9147ea022736f422f355cdf497868fd7ecea1056ca788ac",
        "reqSigs": 1,
        "type": "pubkeyhash",
        "addresses": [
          "DGgdWms5dBi4uMQEpzN9G2wwvdha6BNuBr"
        ]
      }
    }
  ],
  "blockhash": "5c2aae334760076130dd112c754faf73881ab094971c09c138169553fd42cd39",
  "confirmations": 1560585,
  "time": 1572246627,
  "blocktime": 1572246627
}
