{
  "hex": "0100000001b6eb903824c683f4906dc71190ff25e70affaf5d897e973c819306a14d9fde633a0000006b483045022100a54cca97f76077eacd5ce0bd090c0f542cf97b3cac12ac3241037f945f09035d0220385bf611c8a6fa1928f143d20ef45ccbf36cf54d586c642f139a0b3a3ebcce4e0121031ee0749e50515be3b14b8372d2bcf28d36394a1123a6c5778d9128be3e5d3fc9ffffffff020c7cf605000000001976a914506c67fb53964e538a93c5f98450a0b99adab22188ac820e8878000000001976a914765702e7ad9b0e50186569a85f8cb83380c1c7ef88ac00000000",
  "txid": "3e2209acd2d96f151487f449b40cbc20703be211cbf098157927090f9b316bcd",
  "hash": "3e2209acd2d96f151487f449b40cbc20703be211cbf098157927090f9b316bcd",
  "size": 226,
  "vsize": 226,
  "version": 1,
  "locktime": 0,
  "vin": [
    {
      "txid": "63de9f4da10693813c977e895dafff0ae725ff9011c76d90f483c6243890ebb6",
      "vout": 58,
      "scriptSig": {
        "asm": "3045022100a54cca97f76077eacd5ce0bd090c0f542cf97b3cac12ac3241037f945f09035d0220385bf611c8a6fa1928f143d20ef45ccbf36cf54d586c642f139a0b3a3ebcce4e[ALL] 031ee0749e50515be3b14b8372d2bcf28d36394a1123a6c5778d9128be3e5d3fc9",
        "hex": "483045022100a54cca97f76077eacd5ce0bd090c0f542cf97b3cac12ac3241037f945f09035d0220385bf611c8a6fa1928f143d20ef45ccbf36cf54d586c642f139a0b3a3ebcce4e0121031ee0749e50515be3b14b8372d2bcf28d36394a1123a6c5778d9128be3e5d3fc9"
      },
      "sequence": 4294967295
    }
  ],
  "vout": [
    {
      "value": 1.00039692,
      "n": 0,
      "scriptPubKey": {
        "asm": "OP_DUP OP_HASH160 506c67fb53964e538a93c5f98450a0b99adab221 OP_EQUALVERIFY OP_CHECKSIG",
        "hex": "76a914506c67fb53964e538a93c5f98450a0b99adab22188ac",
        "reqSigs": 1,
        "type": "pubkeyhash",
        "addresses": [
          "DCULToFTHEDoLPHiNZZZZZZZZZZZZLkeq5"
        ]
      }
    },
    {
      "value": 20.22182530,
      "n": 1,
      "scriptPubKey": {
        "asm": "OP_DUP OP_HASH160 765702e7ad9b0e50186569a85f8cb83380c1c7ef OP_EQUALVERIFY OP_CHECKSIG",
        "hex": "76a914765702e7ad9b0e50186569a85f8cb83380c1c7ef88ac",
        "reqSigs": 1,
        "type": "pubkeyhash",
        "addresses": [
          "DFvpWYnaoiiULaEzybt2rr1z6E8QLBatz9"
        ]
      }
    }
  ],
  "blockhash": "f9fc366df96ae7d41db8138cb93108f42a55850cd3a9be1520c7a22e61854760",
  "confirmations": 1586555,
  "time": 1570627859,
  "blocktime": 1570627859
}
