{
  "hex": "010000000147d09c8331f8e71236a3da6357b26d3acd804ce043ff8c2cb8c139c5235f5125000000006a473044022059e56d5becc32521778033b6bf629b69156762f69437c8f01a0e1f35801f61b20220190a3d1a4f782055355905735b227028bc58149f8ad3d416ad5ee293f3fc91cd0121034d0537cf67aedbf32f83b95b6a8f09d75e61e73d369f8a767cb888f7cbd70430feffffff0689aa6700000000001976a91455bcddac6fafa483d6effae25b05094153708f3988acbc3500000000000017a91408bbff67edbfdf21c860b3cad3dee43d7c883bbf87c02a00000000000017a9141314d06fb8402362b9b5c2f8c37f86c65619a46687f4eaf7d7060000001976a9149e37991342caf269ab5373715fc36e2307ea40e888ac102700000000000017a914cba2c209fd8a2057a2658857a328653c6a64efbf87f74800000000000017a914d69a5dc8a1e1b197cf7a9b06f4d2c862f1b80dc68788453100",
  "txid": "3f00bfca5133b8e68bab5146628157d3ca21de92221a712627bc1e02e5c74500",
  "hash": "3f00bfca5133b8e68bab5146628157d3ca21de92221a712627bc1e02e5c74500",
  "size": 353,
  "vsize": 353,
  "version": 1,
  "locktime": 3229064,
  "vin": [
    {
      "txid": "25515f23c539c1b82c8cff43e04c80cd3a6db25763daa33612e7f831839cd047",
      "vout": 0,
      "scriptSig": {
        "asm": "3044022059e56d5becc32521778033b6bf629b69156762f69437c8f01a0e1f35801f61b20220190a3d1a4f782055355905735b227028bc58149f8ad3d416ad5ee293f3fc91cd[ALL] 034d0537cf67aedbf32f83b95b6a8f09d75e61e73d369f8a767cb888f7cbd70430",
        "hex": "473044022059e56d5becc32521778033b6bf629b69156762f69437c8f01a0e1f35801f61b20220190a3d1a4f782055355905735b227028bc58149f8ad3d416ad5ee293f3fc91cd0121034d0537cf67aedbf32f83b95b6a8f09d75e61e73d369f8a767cb888f7cbd70430"
      },
      "sequence": 4294967294
    }
  ],
  "vout": [
    {
      "value": 0.06793865,
      "n": 0,
      "scriptPubKey": {
        "asm": "OP_DUP OP_HASH160 55bcddac6fafa483d6effae25b05094153708f39 OP_EQUALVERIFY OP_CHECKSIG",
        "hex": "76a91455bcddac6fafa483d6effae25b05094153708f3988ac",
        "reqSigs": 1,
        "type": "pubkeyhash",
        "addresses": [
          "DCxSECRETxBEACHxSoLUTioNSzzzY84D1u"
        ]
      }
    },
    {
      "value": 0.00013756,
      "n": 1,
      "scriptPubKey": {
        "asm": "OP_HASH160 08bbff67edbfdf21c860b3cad3dee43d7c883bbf OP_EQUAL",
        "hex": "a91408bbff67edbfdf21c860b3cad3dee43d7c883bbf87",
        "reqSigs": 1,
        "type": "scripthash",
        "addresses": [
          "9sETHEREUMxADDRESSxFoRzzzzzzXQQVRU"
        ]
      }
    },
    {
      "value": 0.00010944,
      "n": 2,
      "scriptPubKey": {
        "asm": "OP_HASH160 1314d06fb8402362b9b5c2f8c37f86c65619a466 OP_EQUAL",
        "hex": "a9141314d06fb8402362b9b5c2f8c37f86c65619a46687",
        "reqSigs": 1,
        "type": "scripthash",
        "addresses": [
          "9tBASELiNExPRoToCoLzzzzzzzzzUgJAfk"
        ]
      }
    },
    {
      "value": 293.93152756,
      "n": 3,
      "scriptPubKey": {
        "asm": "OP_DUP OP_HASH160 9e37991342caf269ab5373715fc36e2307ea40e8 OP_EQUALVERIFY OP_CHECKSIG",
        "hex": "76a9149e37991342caf269ab5373715fc36e2307ea40e888ac",
        "reqSigs": 1,
        "type": "pubkeyhash",
        "addresses": [
          "DKZfuaeZ3efwChKq1e3X68WcY6dPCnLqx2"
        ]
      }
    },
    {
      "value": 0.00010000,
      "n": 4,
      "scriptPubKey": {
        "asm": "OP_HASH160 cba2c209fd8a2057a2658857a328653c6a64efbf OP_EQUAL",
        "hex": "a914cba2c209fd8a2057a2658857a328653c6a64efbf87",
        "reqSigs": 1,
        "type": "scripthash",
        "addresses": [
          "AAzzoxE46E46Bc2o5DF56o874zzzWRQcg5"
        ]
      }
    },
    {
      "value": 0.00018679,
      "n": 5,
      "scriptPubKey": {
        "asm": "OP_HASH160 d69a5dc8a1e1b197cf7a9b06f4d2c862f1b80dc6 OP_EQUAL",
        "hex": "a914d69a5dc8a1e1b197cf7a9b06f4d2c862f1b80dc687",
        "reqSigs": 1,
        "type": "scripthash",
        "addresses": [
          "ABzzC18F243oC18a6o425312ozzzVQXkgE"
        ]
      }
    }
  ],
  "blockhash": "aba39703566b5bcfec5f916538ad164a657a29158935631ef953e18bd93ee3e8",
  "confirmations": 534501,
  "time": 1589485323,
  "blocktime": 1589485323
}
