{
  "hex": "0100000001f1d1317ddc202e39aaff24c9ff4d010c80d74eca011c8a1e3ec9795a30bcb3ae010000006a473044022034eaf505cfa6d3a8be0cf527606d4fcddb3d29273630da96fbfbd82dd6b34d7502205f3f146e18608f1a1de7d7a839e79044b5abf0b22e7035c2204118bb8b3e135d012102e9052c293cd8bba7b8ccb514e2649b6e58a13e8e1a1aafa6628d8d8fd2a50d75ffffffff0288671f16010000001976a914e610f22368f26624f56ed79ea83968d9ba43f02888ac00e1f5050000000017a91409ef5a97e28c54916650fc3a32277856936575878700000000",
  "txid": "3f91e0e14a922a2ec072a095e1ce0f881e30b7e55c74e2157a19991f6c88553f",
  "hash": "3f91e0e14a922a2ec072a095e1ce0f881e30b7e55c74e2157a19991f6c88553f",
  "size": 223,
  "vsize": 223,
  "version": 1,
  "locktime": 0,
  "vin": [
    {
      "txid": "aeb3bc305a79c93e1e8a1c01ca4ed7800c014dffc924ffaa392e20dc7d31d1f1",
      "vout": 1,
      "scriptSig": {
        "asm": "3044022034eaf505cfa6d3a8be0cf527606d4fcddb3d29273630da96fbfbd82dd6b34d7502205f3f146e18608f1a1de7d7a839e79044b5abf0b22e7035c2204118bb8b3e135d[ALL] 02e9052c293cd8bba7b8ccb514e2649b6e58a13e8e1a1aafa6628d8d8fd2a50d75",
        "hex": "473044022034eaf505cfa6d3a8be0cf527606d4fcddb3d29273630da96fbfbd82dd6b34d7502205f3f146e18608f1a1de7d7a839e79044b5abf0b22e7035c2204118bb8b3e135d012102e9052c293cd8bba7b8ccb514e2649b6e58a13e8e1a1aafa6628d8d8fd2a50d75"
      },
      "sequence": 4294967295
    }
  ],
  "vout": [
    {
      "value": 46.66124168,
      "n": 0,
      "scriptPubKey": {
        "asm": "OP_DUP OP_HASH160 e610f22368f26624f56ed79ea83968d9ba43f028 OP_EQUALVERIFY OP_CHECKSIG",
        "hex": "76a914e610f22368f26624f56ed79ea83968d9ba43f02888ac",
        "reqSigs": 1,
        "type": "pubkeyhash",
        "addresses": [
          "DS7aFoEVZivKe2Pnma6i81rSVNoz7MxyJb"
        ]
      }
    },
    {
      "value": 1.00000000,
      "n": 1,
      "scriptPubKey": {
        "asm": "OP_HASH160 09ef5a97e28c54916650fc3a3227785693657587 OP_EQUAL",
        "hex": "a91409ef5a97e28c54916650fc3a322778569365758787",
        "reqSigs": 1,
        "type": "scripthash",
        "addresses": [
          "9sLoUiSiANAxLoUiSiANAzzzzzzzZYpA94"
        ]
      }
    }
  ],
  "blockhash": "11b03f6b864273196e983798f5f9dd0e2d02959ed1298947c7e5642c598885e3",
  "confirmations": 1571189,
  "time": 1571586438,
  "blocktime": 1571586438
}
