{
  "hex": "0100000001356572bd3977d4ded090a030896af9bdcbdd093f22f1f6b37ced11248ccabfe5010000006b483045022100a915dbebe5e1577140d80684aec5667c42d1457040ac4d9d3904a9da69a6137302202084c22d118b087b651d3a2350aca172a21ec10de69c71fcdcf0001fac5e44160121035901adccb35bde935a326dcadb4dd86bc214c6ffa87daa886ec23a7e5f48668afeffffff03ac3b966e0b0000001976a9142e6dcfb5b8570f4c706d73571977bd776a80a1bf88ac10270000000000001976a91455bdb44391f196916cdca04cd31a130226b38f6188ac102700000000000017a9140b296ba7889bf8fa15b91e7b401847120530d774875ef72f00",
  "txid": "464c33f7dc77cafab179029625945870e9ceee415b5d7c2a35fc7cbb13c2e4d6",
  "hash": "464c33f7dc77cafab179029625945870e9ceee415b5d7c2a35fc7cbb13c2e4d6",
  "size": 258,
  "vsize": 258,
  "version": 1,
  "locktime": 3143518,
  "vin": [
    {
      "txid": "e5bfca8c2411ed7cb3f6f1223f09ddcbbdf96a8930a090d0ded47739bd726535",
      "vout": 1,
      "scriptSig": {
        "asm": "3045022100a915dbebe5e1577140d80684aec5667c42d1457040ac4d9d3904a9da69a6137302202084c22d118b087b651d3a2350aca172a21ec10de69c71fcdcf0001fac5e4416[ALL] 035901adccb35bde935a326dcadb4dd86bc214c6ffa87daa886ec23a7e5f48668a",
        "hex": "483045022100a915dbebe5e1577140d80684aec5667c42d1457040ac4d9d3904a9da69a6137302202084c22d118b087b651d3a2350aca172a21ec10de69c71fcdcf0001fac5e44160121035901adccb35bde935a326dcadb4dd86bc214c6ffa87daa886ec23a7e5f48668a"
      },
      "sequence": 4294967294
    }
  ],
  "vout": [
    {
      "value": 490.99979692,
      "n": 0,
      "scriptPubKey": {
        "asm": "OP_DUP OP_HASH160 2e6dcfb5b8570f4c706d73571977bd776a80a1bf OP_EQUALVERIFY OP_CHECKSIG",
        "hex": "76a9142e6dcfb5b8570f4c706d73571977bd776a80a1bf88ac",
        "reqSigs": 1,
        "type": "pubkeyhash",
        "addresses": [
          "D9NbAujzZ2F8Y7oQ6iCscimMafMmCN8nCX"
        ]
      }
    },
    {
      "value": 0.00010000,
      "n": 1,
      "scriptPubKey": {
        "asm": "OP_DUP OP_HASH160 55bdb44391f196916cdca04cd31a130226b38f61 OP_EQUALVERIFY OP_CHECKSIG",
        "hex": "76a91455bdb44391f196916cdca04cd31a130226b38f6188ac",
        "reqSigs": 1,
        "type": "pubkeyhash",
        "addresses": [
          "DCxTESTxCASTzzzzzzzzzzzzzzzzZHTvyu"
        ]
      }
    },
    {
      "value": 0.00010000,
      "n": 2,
      "scriptPubKey": {
        "asm": "OP_HASH160 0b296ba7889bf8fa15b91e7b401847120530d774 OP_EQUAL",
        "hex": "a9140b296ba7889bf8fa15b91e7b401847120530d77487",
        "reqSigs": 1,
        "type": "scripthash",
        "addresses": [
          "9sTHiSxiSxoNLYxAxTESTzzzzzzzXMo8MT"
        ]
      }
    }
  ],
  "blockhash": "2ba9df3259d4179e81fd167ebb890bd8ebed0809ca4fffe3ecd93084423010d7",
  "confirmations": 1371579,
  "time": 1584106084,
  "blocktime": 1584106084
}
