{
  "hex": "0100000001b14e68e802f864a9cf50749b2a314dd55868b57978d5a982fda4eacfe4445f34000000006b4830450221008ca4cdc96f5a9f5795c4bb93621f9bbc739482817f2d81c1dc8d3ceca00745a802206373c42648673491c766d10312108fd6789b852aafa413fbd8137f3bc8b77d8e012102ac5d3a4f885de11e21a756081ba603f811f363e1877cbd5d856c1ebcca971c7dfeffffff07102700000000000017a91408ed54aee8ba9629d0614915d5a40c43e911c75487102700000000000017a91407fae5f8bffdc2c5c2547f7ba2fd9a27ef8f663f87102700000000000017a914082bbd272750f5936fb8df431918a63f3f5456eb87102700000000000017a9140a0fe086fcb1a1753a7f6e014188908bd1332f4187102700000000000017a91408fd274fd5ecd2369a90153f60da8d57d548c4af87d856f85e000000001976a914e82127ae09c691b2255b53770b3117de954fa3d088ac102700000000000017a914086bcda88c0d83ba79b9ca810ed3104a9e63fa20878ab52f00",
  "txid": "473cb242e40be897fcb6b8912d29115a97a6b94c6c2add40078feb9b3f53870b",
  "hash": "473cb242e40be897fcb6b8912d29115a97a6b94c6c2add40078feb9b3f53870b",
  "size": 384,
  "vsize": 384,
  "version": 1,
  "locktime": 3126666,
  "vin": [
    {
      "txid": "345f44e4cfeaa4fd82a9d57879b56858d54d312a9b7450cfa964f802e8684eb1",
      "vout": 0,
      "scriptSig": {
        "asm": "30450221008ca4cdc96f5a9f5795c4bb93621f9bbc739482817f2d81c1dc8d3ceca00745a802206373c42648673491c766d10312108fd6789b852aafa413fbd8137f3bc8b77d8e[ALL] 02ac5d3a4f885de11e21a756081ba603f811f363e1877cbd5d856c1ebcca971c7d",
        "hex": "4830450221008ca4cdc96f5a9f5795c4bb93621f9bbc739482817f2d81c1dc8d3ceca00745a802206373c42648673491c766d10312108fd6789b852aafa413fbd8137f3bc8b77d8e012102ac5d3a4f885de11e21a756081ba603f811f363e1877cbd5d856c1ebcca971c7d"
      },
      "sequence": 4294967294
    }
  ],
  "vout": [
    {
      "value": 0.00010000,
      "n": 0,
      "scriptPubKey": {
        "asm": "OP_HASH160 08ed54aee8ba9629d0614915d5a40c43e911c754 OP_EQUAL",
        "hex": "a91408ed54aee8ba9629d0614915d5a40c43e911c75487",
        "reqSigs": 1,
        "type": "scripthash",
        "addresses": [
          "9sFUNxTiMESzzzzzzzzzzzzzzzzzRgYSaT"
        ]
      }
    },
    {
      "value": 0.00010000,
      "n": 1,
      "scriptPubKey": {
        "asm": "OP_HASH160 07fae5f8bffdc2c5c2547f7ba2fd9a27ef8f663f OP_EQUAL",
        "hex": "a91407fae5f8bffdc2c5c2547f7ba2fd9a27ef8f663f87",
        "reqSigs": 1,
        "type": "scripthash",
        "addresses": [
          "9sATxTHExFACToRYxToDAYzzzzzzYb8gdQ"
        ]
      }
    },
    {
      "value": 0.00010000,
      "n": 2,
      "scriptPubKey": {
        "asm": "OP_HASH160 082bbd272750f5936fb8df431918a63f3f5456eb OP_EQUAL",
        "hex": "a914082bbd272750f5936fb8df431918a63f3f5456eb87",
        "reqSigs": 1,
        "type": "scripthash",
        "addresses": [
          "9sBUTxLiKExANYxDAYvxWExzzzzzWSQCAm"
        ]
      }
    },
    {
      "value": 0.00010000,
      "n": 3,
      "scriptPubKey": {
        "asm": "OP_HASH160 0a0fe086fcb1a1753a7f6e014188908bd1332f41 OP_EQUAL",
        "hex": "a9140a0fe086fcb1a1753a7f6e014188908bd1332f4187",
        "reqSigs": 1,
        "type": "scripthash",
        "addresses": [
          "9sMUSTxBExViGiLANTxTozzzzzzzYsxP8K"
        ]
      }
    },
    {
      "value": 0.00010000,
      "n": 4,
      "scriptPubKey": {
        "asm": "OP_HASH160 08fd274fd5ecd2369a90153f60da8d57d548c4af OP_EQUAL",
        "hex": "a91408fd274fd5ecd2369a90153f60da8d57d548c4af87",
        "reqSigs": 1,
        "type": "scripthash",
        "addresses": [
          "9sFoLLoWxALLxSAFETYzzzzzzzzzUFLzfi"
        ]
      }
    },
    {
      "value": 15.93333464,
      "n": 5,
      "scriptPubKey": {
        "asm": "OP_DUP OP_HASH160 e82127ae09c691b2255b53770b3117de954fa3d0 OP_EQUALVERIFY OP_CHECKSIG",
        "hex": "76a914e82127ae09c691b2255b53770b3117de954fa3d088ac",
        "reqSigs": 1,
        "type": "pubkeyhash",
        "addresses": [
          "DSJV2Qu3LtW45C1xj3hTbxAwoC4HGaRRWU"
        ]
      }
    },
    {
      "value": 0.00010000,
      "n": 6,
      "scriptPubKey": {
        "asm": "OP_HASH160 086bcda88c0d83ba79b9ca810ed3104a9e63fa20 OP_EQUAL",
        "hex": "a914086bcda88c0d83ba79b9ca810ed3104a9e63fa2087",
        "reqSigs": 1,
        "type": "scripthash",
        "addresses": [
          "9sCoDESxANDxREGULATioNShzzzzY5b4ex"
        ]
      }
    }
  ],
  "blockhash": "8e8fb2c0ee852aab33f8eaf215bcdf2949b35a395e1a3c1c9f4d4bef8f35d014",
  "confirmations": 1388500,
  "time": 1583040094,
  "blocktime": 1583040094
}
