{
  "hex": "0100000001b410d4c0391b40d5279c62e808271c848d525bf2d5ee57591cda27688ed2bb19060000006b483045022100c2bb7c47790a56eea6bdcd592fc7fbabc3e657217525cd0291a3105e57107718022062e4917d53b66e3977368e1ab8d19461c6c49f9f44d890a5324b0edfecf18a420121028a4f1a0a23f294102287675b602bdaa65ce882159228df27bc9636d1494216d9feffffff0610270000000000001976a91455c184fb633ce9da47d8fdc33d0447dd0138e04388ac102700000000000017a9141128c7554f4cf2c1f7c4ee669bb6f35ef122f97e87102700000000000017a91407ece7cb7077f781bdd77d58bb31deebc9c75c4787102700000000000017a914161ecfdb8ae40ff7cdc3f0c0aad9d799794ba73b8710a9b5ee010000001976a9149e015fa5a269a678f8263b90a84acbfafb66a40c88ac102700000000000017a9140b26afa82d48c9fc39113d4021614a86f8e6529487e1c63000",
  "txid": "4af2e7e525f66a4e7eb1460f0d64e080721038253e85cb4d9712e0f4e4cc03a4",
  "hash": "4af2e7e525f66a4e7eb1460f0d64e080721038253e85cb4d9712e0f4e4cc03a4",
  "size": 354,
  "vsize": 354,
  "version": 1,
  "locktime": 3196641,
  "vin": [
    {
      "txid": "19bbd28e6827da1c5957eed5f25b528d841c2708e8629c27d5401b39c0d410b4",
      "vout": 6,
      "scriptSig": {
        "asm": "3045022100c2bb7c47790a56eea6bdcd592fc7fbabc3e657217525cd0291a3105e57107718022062e4917d53b66e3977368e1ab8d19461c6c49f9f44d890a5324b0edfecf18a42[ALL] 028a4f1a0a23f294102287675b602bdaa65ce882159228df27bc9636d1494216d9",
        "hex": "483045022100c2bb7c47790a56eea6bdcd592fc7fbabc3e657217525cd0291a3105e57107718022062e4917d53b66e3977368e1ab8d19461c6c49f9f44d890a5324b0edfecf18a420121028a4f1a0a23f294102287675b602bdaa65ce882159228df27bc9636d1494216d9"
      },
      "sequence": 4294967294
    }
  ],
  "vout": [
    {
      "value": 0.00010000,
      "n": 0,
      "scriptPubKey": {
        "asm": "OP_DUP OP_HASH160 55c184fb633ce9da47d8fdc33d0447dd0138e043 OP_EQUALVERIFY OP_CHECKSIG",
        "hex": "76a91455c184fb633ce9da47d8fdc33d0447dd0138e04388ac",
        "reqSigs": 1,
        "type": "pubkeyhash",
        "addresses": [
          "DCxXoXoXoXoXzzzzzzzzzzzzzzzzYMnNMT"
        ]
      }
    },
    {
      "value": 0.00010000,
      "n": 1,
      "scriptPubKey": {
        "asm": "OP_HASH160 1128c7554f4cf2c1f7c4ee669bb6f35ef122f97e OP_EQUAL",
        "hex": "a9141128c7554f4cf2c1f7c4ee669bb6f35ef122f97e87",
        "reqSigs": 1,
        "type": "scripthash",
        "addresses": [
          "9szzzzzzzzzzzzzzzzzzzzzzzzzzSnNTNc"
        ]
      }
    },
    {
      "value": 0.00010000,
      "n": 2,
      "scriptPubKey": {
        "asm": "OP_HASH160 07ece7cb7077f781bdd77d58bb31deebc9c75c47 OP_EQUAL",
        "hex": "a91407ece7cb7077f781bdd77d58bb31deebc9c75c4787",
        "reqSigs": 1,
        "type": "scripthash",
        "addresses": [
          "9sABCDEFGHiJKLMNoPQRSTUVWXYZaqEMxa"
        ]
      }
    },
    {
      "value": 0.00010000,
      "n": 3,
      "scriptPubKey": {
        "asm": "OP_HASH160 161ecfdb8ae40ff7cdc3f0c0aad9d799794ba73b OP_EQUAL",
        "hex": "a914161ecfdb8ae40ff7cdc3f0c0aad9d799794ba73b87",
        "reqSigs": 1,
        "type": "scripthash",
        "addresses": [
          "9tTESTiNGxoNExTWozzzzzzzzzzzWgvkX2"
        ]
      }
    },
    {
      "value": 82.99850000,
      "n": 4,
      "scriptPubKey": {
        "asm": "OP_DUP OP_HASH160 9e015fa5a269a678f8263b90a84acbfafb66a40c OP_EQUALVERIFY OP_CHECKSIG",
        "hex": "76a9149e015fa5a269a678f8263b90a84acbfafb66a40c88ac",
        "reqSigs": 1,
        "type": "pubkeyhash",
        "addresses": [
          "DKYYx1Su4bEpHYjZRruQ2RPf5XuXKeErSv"
        ]
      }
    },
    {
      "value": 0.00010000,
      "n": 5,
      "scriptPubKey": {
        "asm": "OP_HASH160 0b26afa82d48c9fc39113d4021614a86f8e65294 OP_EQUAL",
        "hex": "a9140b26afa82d48c9fc39113d4021614a86f8e6529487",
        "reqSigs": 1,
        "type": "scripthash",
        "addresses": [
          "9sTESTiNGxTESTiNGzzzzzzzzzzzWK5GbB"
        ]
      }
    }
  ],
  "blockhash": "3175e14d256c322e9a5b04e10b8fdafabb95e38cbe41c279731025cdb596db01",
  "confirmations": 1318516,
  "time": 1587445112,
  "blocktime": 1587445112
}
