{
  "hex": "01000000014022e9ad8555ec3521f4a45c1aab51f692f7ef18ede6dc437c077fb092290b7d060000006a473044022063a3aed57607dba82735e6357da1834ea20b84754c79aac656c52f36d5679555022039811f989544d92b5283774983d86ba4c106bf82548fa1eae11776c276079dca012103462ee47b5e51a29a38d43162334750c9e4e8f8af26e509e47cbe051d5ee24133feffffff04102700000000000017a9140c34594ca701a2792d8195dc05a8295d9c95deac8758bbeaff000000001976a9146e75090369794d5280a7fe0f3eb82289e1ca7b9f88ac102700000000000017a91407f48b52028afdcc2b859f0acf2abb60922db0b387102700000000000017a9140efaaf48b95a12920ccde659baf980d7e663ea9987fb232f00",
  "txid": "4bde88e6a3962490e759a3f80d3a7a1d663d654aef9fb507d657b3ad707eb5ad",
  "hash": "4bde88e6a3962490e759a3f80d3a7a1d663d654aef9fb507d657b3ad707eb5ad",
  "size": 287,
  "vsize": 287,
  "version": 1,
  "locktime": 3089403,
  "vin": [
    {
      "txid": "7d0b2992b07f077c43dce6ed18eff792f651ab1a5ca4f42135ec5585ade92240",
      "vout": 6,
      "scriptSig": {
        "asm": "3044022063a3aed57607dba82735e6357da1834ea20b84754c79aac656c52f36d5679555022039811f989544d92b5283774983d86ba4c106bf82548fa1eae11776c276079dca[ALL] 03462ee47b5e51a29a38d43162334750c9e4e8f8af26e509e47cbe051d5ee24133",
        "hex": "473044022063a3aed57607dba82735e6357da1834ea20b84754c79aac656c52f36d5679555022039811f989544d92b5283774983d86ba4c106bf82548fa1eae11776c276079dca012103462ee47b5e51a29a38d43162334750c9e4e8f8af26e509e47cbe051d5ee24133"
      },
      "sequence": 4294967294
    }
  ],
  "vout": [
    {
      "value": 0.00010000,
      "n": 0,
      "scriptPubKey": {
        "asm": "OP_HASH160 0c34594ca701a2792d8195dc05a8295d9c95deac OP_EQUAL",
        "hex": "a9140c34594ca701a2792d8195dc05a8295d9c95deac87",
        "reqSigs": 1,
        "type": "scripthash",
        "addresses": [
          "9sYoUxARExAWESoMExPHAEDRAzzzaVT1ZF"
        ]
      }
    },
    {
      "value": 42.93573464,
      "n": 1,
      "scriptPubKey": {
        "asm": "OP_DUP OP_HASH160 6e75090369794d5280a7fe0f3eb82289e1ca7b9f OP_EQUALVERIFY OP_CHECKSIG",
        "hex": "76a9146e75090369794d5280a7fe0f3eb82289e1ca7b9f88ac",
        "reqSigs": 1,
        "type": "pubkeyhash",
        "addresses": [
          "DFD957FeQPZ6QqKNqrkVqhWh29rQn7RKNE"
        ]
      }
    },
    {
      "value": 0.00010000,
      "n": 2,
      "scriptPubKey": {
        "asm": "OP_HASH160 07f48b52028afdcc2b859f0acf2abb60922db0b3 OP_EQUAL",
        "hex": "a91407f48b52028afdcc2b859f0acf2abb60922db0b387",
        "reqSigs": 1,
        "type": "scripthash",
        "addresses": [
          "9sALLxoFxHAVExVoiCESxiNzzzzzazf9jE"
        ]
      }
    },
    {
      "value": 0.00010000,
      "n": 3,
      "scriptPubKey": {
        "asm": "OP_HASH160 0efaaf48b95a12920ccde659baf980d7e663ea99 OP_EQUAL",
        "hex": "a9140efaaf48b95a12920ccde659baf980d7e663ea9987",
        "reqSigs": 1,
        "type": "scripthash",
        "addresses": [
          "9soURxHEADSzzzzzzzzzzzzzzzzzYvsADH"
        ]
      }
    }
  ],
  "blockhash": "5bea7dce9b9362d92170b42d28581d0fa3c91be291e0285f5aada83fe28d864f",
  "confirmations": 1425752,
  "time": 1580699787,
  "blocktime": 1580699787
}
