{
  "hex": "0100000001d3f050f479cde27fbe31b47c76a96f29daf8f0d67fce50a411b1e84b85ed1a09010000006b483045022100eec131eb5b9d875b8c92cb1eb655d93a3544485f9ea1f7e00684959e2976017502200df31adf82414bbdf134b5c90a40edeac659e5a476dc704004c538375fdc30c50121024006862f2918466d1c7f704848b1f9be604b85f38172e554e9bc302fcae9fcf1feffffff5bc3f57100000000001976a91455b58eccc439612ce082fd4de77febdebddd378a88ac283d00000000000017a9140942703fde459bf8f3e4da6939e75905bb9041bc87424200000000000017a9141917e126bbfae4cc350e16cc72fd1237fcb3104087102700000000000017a9140b28f57507783de88e28f6e39e10b2cb00accb1c87102700000000000017a91416218bdae6372e3d62baa61d62c1cade2462492c87102700000000000017a91416b2ca61c671222252a3b3f38b74a373a5eeb05387102700000000000017a91416281592d594195980b157061a892c98a211563587102700000000000017a91413f55c3188102156cd36ae8dc95cd3360529ed1c87102700000000000017a9140ef044aa5fe8fac27f1b35da1cb0e7b8d624b8c187102700000000000017a9140ac59ed80e8f6cb96db84157b3b1b3924cb7518787102700000000000017a914084d0ea91dcf6de8d95213ef227d23622a69e15087102700000000000017a9140859b6e0f434ef9a09d9ef6b3ce4b900093f2e1c87102700000000000017a914093f3a3ec8a998625a1456282d4e031bf528ac3387102700000000000017a91416218bdacbf5a5fe6afb80c40985fd0f2142698a87102700000000000017a91416b978ede47f7ca4c3f596980b8f32681f0b087087102700000000000017a91416cb9730f6f48485f4069a84097ff27c4532153087102700000000000017a91412ee828805b33c59ba761ae6a8155a3a7a6309a487102700000000000017a914163acb5d0812d86a5f04a78374d3a8ccf5fd36db87102700000000000017a9140b296ba774ecd1215008be7bbc5f3c1a3c355aa387102700000000000017a9140b0d7f8db5cff1383abebc8fe75631013902c30587102700000000000017a9140b2fa30c7e429513f91a00fc3acad1d24155c4ca87102700000000000017a9140b296ba76320e0b4a0810c7deb5fecd55f1184c687102700000000000017a9140ef89dbf9f347adc43ec82d3db0508bbfbcf0cb787102700000000000017a914086befa06031b3ccbe5c4a46d338e483752f053a87102700000000000017a9140ef89fd7762cefb2f8ef959762c964b867bde3f287102700000000000017a9140b28f5d0b78ed9f28e9eed02371590250726008887102700000000000017a9141548580adc38fa54f61bcc7331193f048b7f688187102700000000000017a91419e8657017a764277527bc521c917964aa3a579587102700000000000017a91418ff801120d6b705c5191f336eb03b46215eefa887102700000000000017a91413905ba0a24c498fa803069e0800e6082e76de0187102700000000000017a91416c771ed0a6b7a16551ed66489e15095409df16d87102700000000000017a91413487b991000650437ef695b4ec4a923f9aea0f287102700000000000017a9140e1fda03732e64d48dc1c382bd09472e13e0bca787102700000000000017a914095e1a0e145c4e0dc8f8fae8ca085cce3d3b4f1087102700000000000017a91407f61ce7456a03ec64e55893fd5513ccd6607d3a87102700000000000017a9140b01c0bdac522211fcc3b6616f7692e16c4e491087102700000000000017a9140b121e46f0d56e1ae609e715e869f3c2e8f70f2d87102700000000000017a9140b29065c72979d51476a5471422d5bcbfcb0a16c87102700000000000017a91407f61ce70a187038b0cbea67c04480246a4575ee87102700000000000017a9140ef04595fdb7792405d0646312959c364e1a7b5887102700000000000017a9140b42ab7a393c1590db5aa95e334f4a3ab001b59b87102700000000000017a914082f7d05a10f05f8ab3fed498c302be28cc0bbf287102700000000000017a9141917e126be57501cc0e357c6e19039e7f5eda4bd87102700000000000017a9141566a13f3cd51635ea7d294d5236400cac989b3b87102700000000000017a91414e32b66099032e5cd9ef3845013e46baef5efbe87e1362654cb0000001976a91499ffb2353f6d5387efca88b69404886bcd16697188ac102700000000000017a9140bba3546354fa2ac18de92c24930bd1f1668a6f387102700000000000017a914093f2b71a49457cd7e94fbd942fe2878b264f3e087102700000000000017a91408ed51f7bc1f16f3ec176971a157dfbdb002550a87102700000000000017a91409ef9f276647496dc9f729c5cf23a8f248919f8b87102700000000000017a91408de498972c30e8103ddf232bd53cbfc97e28d1187102700000000000017a9141918025d86c709bd58b965e5517f64cdeb29c99b87102700000000000017a914172c7981b75f3566f5c8b04cb140ae64f458cff687102700000000000017a91413453e9a5039b1820baaede33f49618d3bf2b8aa87102700000000000017a9140b29065d24d325543fc9ccd54046194a9ef97d4b87102700000000000017a9140add14bbeacdc13316adf10c6c22d1cd0b9dbb7687102700000000000017a9140e075ecbafdbaa14cbf399a60596a226f776c9b187102700000000000017a914086beb9488c9bd8bd4cb9b324e85a16abb74b81287102700000000000017a9140b2fa30c8e4e0b3d11bbc77f9f66586501d67ce287102700000000000017a9141917e126c71ce3927eef16069b509bb7c815ad7787102700000000000017a9141655b72f97d62e1f8350714b5d7c933328b0b9c387102700000000000017a91418fadb3ca17ad2e833183106450cf682ab4dc4ce87102700000000000017a9141323dd5c825b434540e46f5a088487e5ccf9840687102700000000000017a91418fbbe7bb5b7a4aa242074e7dee30da570eeb67f87102700000000000017a91414a27721c7f81dcbf2f8f85b75644a804fe2e28787102700000000000017a9140e1fc0f36a450537796e3c686491471e16a916d487102700000000000017a9140b28f5d0bb38d643d56dd9a3bfa573d3e2aa10a987102700000000000017a9140b42aa0527ce4dfabac7ece9c1acd1736d6881ff87102700000000000017a9140ac254ea100d1f7c06bfece8deae9ed27f07641287102700000000000017a9140b119e8a9fd5b5491ac8fd9320a6c7763586431d87102700000000000017a91412f231c1cd9c386a1b1efcd799b5f79dce3d8af887102700000000000017a91412ee3d1a7a85a00d117d4c7228a07ec87ea0c1a787102700000000000017a91415ba908f104cbd214f66e04afa1c0f155e037cc287102700000000000017a9141421a64c01c869817750f101837d5d3cc955cfab87102700000000000017a91419e865d03d5571928b97f436b492c509cbb1d55e87102700000000000017a91416218bdad4eea5e2840cd0bd2882eaa993bf642787102700000000000017a914143a90a67bd8728a2c2b4705608bb6c6fd47b31087102700000000000017a9140e1fe22a292bcc20632e399b89012f8a7bd0dee987102700000000000017a9140a6552cea2356f6fba9a3c54a4c0b1051155008287102700000000000017a9140a502cc2819512fe030407267f53beba6a73e7b987102700000000000017a91408f9018710110c3dbc83a69eb92972ecf896e80d87102700000000000017a9140bcf51b9a1ea0db1272b5e9b368207f458bc888487102700000000000017a9140ef04584c51fe2ae3317761751e955db28af234187102700000000000017a9140a6e80b656d6b78fc14facf136942c2aaf8ee18587102700000000000017a9140b42aa2ae803b4f96cb6c52c7e0e063c8b8de46c87102700000000000017a91407fae5860cdb4d9560564a5239f8e48360e6971887102700000000000017a9140b42a9c7f488bd5ddd7e9dd5cf69a8f16febc87887102700000000000017a9140b5d96fc3a3af0821bc33ad03346cdf4bcbff5e787102700000000000017a9140b878147224a458da56f31b3ba7843b7304f415087102700000000000017a9140b0d7f8db5cff1383b23aa3c93e63703e2d52a82870c9b00000000000017a914162115a865137b8586d3edb4bfc2e0575f2c14f787f4ee3000",
  "txid": "540c6ee6b0d04000b4816db76c74928afa49706afef3cae5fdb446d6710ec2de",
  "hash": "540c6ee6b0d04000b4816db76c74928afa49706afef3cae5fdb446d6710ec2de",
  "size": 3074,
  "vsize": 3074,
  "version": 1,
  "locktime": 3206900,
  "vin": [
    {
      "txid": "091aed854be8b111a450ce7fd6f0f8da296fa9767cb431be7fe2cd79f450f0d3",
      "vout": 1,
      "scriptSig": {
        "asm": "3045022100eec131eb5b9d875b8c92cb1eb655d93a3544485f9ea1f7e00684959e2976017502200df31adf82414bbdf134b5c90a40edeac659e5a476dc704004c538375fdc30c5[ALL] 024006862f2918466d1c7f704848b1f9be604b85f38172e554e9bc302fcae9fcf1",
        "hex": "483045022100eec131eb5b9d875b8c92cb1eb655d93a3544485f9ea1f7e00684959e2976017502200df31adf82414bbdf134b5c90a40edeac659e5a476dc704004c538375fdc30c50121024006862f2918466d1c7f704848b1f9be604b85f38172e554e9bc302fcae9fcf1"
      },
      "sequence": 4294967294
    }
  ],
  "vout": [
    {
      "value": 0.07468483,
      "n": 0,
      "scriptPubKey": {
        "asm": "OP_DUP OP_HASH160 55b58eccc439612ce082fd4de77febdebddd378a OP_EQUALVERIFY OP_CHECKSIG",
        "hex": "76a91455b58eccc439612ce082fd4de77febdebddd378a88ac",
        "reqSigs": 1,
        "type": "pubkeyhash",
        "addresses": [
          "DCxHURRiEDhSEASoNERSxdbzzzzzb6YqTP"
        ]
      }
    },
    {
      "value": 0.00015656,
      "n": 1,
      "scriptPubKey": {
        "asm": "OP_HASH160 0942703fde459bf8f3e4da6939e75905bb9041bc OP_EQUAL",
        "hex": "a9140942703fde459bf8f3e4da6939e75905bb9041bc87",
        "reqSigs": 1,
        "type": "scripthash",
        "addresses": [
          "9sHELLovxHoWxARExYoUzzzzzzzzUXHah5"
        ]
      }
    },
    {
      "value": 0.00016962,
      "n": 2,
      "scriptPubKey": {
        "asm": "OP_HASH160 1917e126bbfae4cc350e16cc72fd1237fcb31040 OP_EQUAL",
        "hex": "a9141917e126bbfae4cc350e16cc72fd1237fcb3104087",
        "reqSigs": 1,
        "type": "scripthash",
        "addresses": [
          "9tixAMxDoiNGxWELLzzzzzzzzzzzWz9fsV"
        ]
      }
    },
    {
      "value": 0.00010000,
      "n": 3,
      "scriptPubKey": {
        "asm": "OP_HASH160 0b28f57507783de88e28f6e39e10b2cb00accb1c OP_EQUAL",
        "hex": "a9140b28f57507783de88e28f6e39e10b2cb00accb1c87",
        "reqSigs": 1,
        "type": "scripthash",
        "addresses": [
          "9sTHANKSxFoRxASKiNGzzzzzzzzzU1qb6H"
        ]
      }
    },
    {
      "value": 0.00010000,
      "n": 4,
      "scriptPubKey": {
        "asm": "OP_HASH160 16218bdae6372e3d62baa61d62c1cade2462492c OP_EQUAL",
        "hex": "a91416218bdae6372e3d62baa61d62c1cade2462492c87",
        "reqSigs": 1,
        "type": "scripthash",
        "addresses": [
          "9tTHiSxiSxTHExTHiNGzzzzzzzzzYLbEYe"
        ]
      }
    },
    {
      "value": 0.00010000,
      "n": 5,
      "scriptPubKey": {
        "asm": "OP_HASH160 16b2ca61c671222252a3b3f38b74a373a5eeb053 OP_EQUAL",
        "hex": "a91416b2ca61c671222252a3b3f38b74a373a5eeb05387",
        "reqSigs": 1,
        "type": "scripthash",
        "addresses": [
          "9tWHiCHxixHAVExBEENzzzzzzzzzWULJcT"
        ]
      }
    },
    {
      "value": 0.00010000,
      "n": 6,
      "scriptPubKey": {
        "asm": "OP_HASH160 16281592d594195980b157061a892c98a2115635 OP_EQUAL",
        "hex": "a91416281592d594195980b157061a892c98a211563587",
        "reqSigs": 1,
        "type": "scripthash",
        "addresses": [
          "9tTRYiNGxToxDESCRiBEzzzzzzzzX7AQ4h"
        ]
      }
    },
    {
      "value": 0.00010000,
      "n": 7,
      "scriptPubKey": {
        "asm": "OP_HASH160 13f55c3188102156cd36ae8dc95cd3360529ed1c OP_EQUAL",
        "hex": "a91413f55c3188102156cd36ae8dc95cd3360529ed1c87",
        "reqSigs": 1,
        "type": "scripthash",
        "addresses": [
          "9tFoRxMoNTHSxNoWzzzzzzzzzzzzSKrC8j"
        ]
      }
    },
    {
      "value": 0.00010000,
      "n": 8,
      "scriptPubKey": {
        "asm": "OP_HASH160 0ef044aa5fe8fac27f1b35da1cb0e7b8d624b8c1 OP_EQUAL",
        "hex": "a9140ef044aa5fe8fac27f1b35da1cb0e7b8d624b8c187",
        "reqSigs": 1,
        "type": "scripthash",
        "addresses": [
          "9soFxCoURSExiFxYoUxAREzzzzzzUffXRs"
        ]
      }
    },
    {
      "value": 0.00010000,
      "n": 9,
      "scriptPubKey": {
        "asm": "OP_HASH160 0ac59ed80e8f6cb96db84157b3b1b3924cb75187 OP_EQUAL",
        "hex": "a9140ac59ed80e8f6cb96db84157b3b1b3924cb7518787",
        "reqSigs": 1,
        "type": "scripthash",
        "addresses": [
          "9sREADiNGxTHiSxNoWxYoUzzzzzzWnubto"
        ]
      }
    },
    {
      "value": 0.00010000,
      "n": 10,
      "scriptPubKey": {
        "asm": "OP_HASH160 084d0ea91dcf6de8d95213ef227d23622a69e150 OP_EQUAL",
        "hex": "a914084d0ea91dcf6de8d95213ef227d23622a69e15087",
        "reqSigs": 1,
        "type": "scripthash",
        "addresses": [
          "9sCANxUNDERSTANDxHoWzzzzzzzzYDqUaN"
        ]
      }
    },
    {
      "value": 0.00010000,
      "n": 11,
      "scriptPubKey": {
        "asm": "OP_HASH160 0859b6e0f434ef9a09d9ef6b3ce4b900093f2e1c OP_EQUAL",
        "hex": "a9140859b6e0f434ef9a09d9ef6b3ce4b900093f2e1c87",
        "reqSigs": 1,
        "type": "scripthash",
        "addresses": [
          "9sCRYPToCURRENCYxCANzzzzzzzzVMEnJr"
        ]
      }
    },
    {
      "value": 0.00010000,
      "n": 12,
      "scriptPubKey": {
        "asm": "OP_HASH160 093f3a3ec8a998625a1456282d4e031bf528ac33 OP_EQUAL",
        "hex": "a914093f3a3ec8a998625a1456282d4e031bf528ac3387",
        "reqSigs": 1,
        "type": "scripthash",
        "addresses": [
          "9sHAVExAxMESSAGEzzzzzzzzzzzzaN3VB9"
        ]
      }
    },
    {
      "value": 0.00010000,
      "n": 13,
      "scriptPubKey": {
        "asm": "OP_HASH160 16218bdacbf5a5fe6afb80c40985fd0f2142698a OP_EQUAL",
        "hex": "a91416218bdacbf5a5fe6afb80c40985fd0f2142698a87",
        "reqSigs": 1,
        "type": "scripthash",
        "addresses": [
          "9tTHiSxMESSAGESxGETSzzzzzzzzW5DukD"
        ]
      }
    },
    {
      "value": 0.00010000,
      "n": 14,
      "scriptPubKey": {
        "asm": "OP_HASH160 16b978ede47f7ca4c3f596980b8f32681f0b0870 OP_EQUAL",
        "hex": "a91416b978ede47f7ca4c3f596980b8f32681f0b087087",
        "reqSigs": 1,
        "type": "scripthash",
        "addresses": [
          "9tWRiTTENxoUTxToxTHEzzzzzzzzXyLh4n"
        ]
      }
    },
    {
      "value": 0.00010000,
      "n": 15,
      "scriptPubKey": {
        "asm": "OP_HASH160 16cb9730f6f48485f4069a84097ff27c45321530 OP_EQUAL",
        "hex": "a91416cb9730f6f48485f4069a84097ff27c4532153087",
        "reqSigs": 1,
        "type": "scripthash",
        "addresses": [
          "9tWoRLDxiNxAxWAYxTHATzzzzzzzabmJzN"
        ]
      }
    },
    {
      "value": 0.00010000,
      "n": 16,
      "scriptPubKey": {
        "asm": "OP_HASH160 12ee828805b33c59ba761ae6a8155a3a7a6309a4 OP_EQUAL",
        "hex": "a91412ee828805b33c59ba761ae6a8155a3a7a6309a487",
        "reqSigs": 1,
        "type": "scripthash",
        "addresses": [
          "9tANYoNExWHoxiSxPoiNTEDzzzzzVJFt7A"
        ]
      }
    },
    {
      "value": 0.00010000,
      "n": 17,
      "scriptPubKey": {
        "asm": "OP_HASH160 163acb5d0812d86a5f04a78374d3a8ccf5fd36db OP_EQUAL",
        "hex": "a914163acb5d0812d86a5f04a78374d3a8ccf5fd36db87",
        "reqSigs": 1,
        "type": "scripthash",
        "addresses": [
          "9tToxiTxCANxREADzzzzzzzzzzzzasAT81"
        ]
      }
    },
    {
      "value": 0.00010000,
      "n": 18,
      "scriptPubKey": {
        "asm": "OP_HASH160 0b296ba774ecd1215008be7bbc5f3c1a3c355aa3 OP_EQUAL",
        "hex": "a9140b296ba774ecd1215008be7bbc5f3c1a3c355aa387",
        "reqSigs": 1,
        "type": "scripthash",
        "addresses": [
          "9sTHiSxSYSTEMxiSzzzzzzzzzzzzUh1xvj"
        ]
      }
    },
    {
      "value": 0.00010000,
      "n": 19,
      "scriptPubKey": {
        "asm": "OP_HASH160 0b0d7f8db5cff1383abebc8fe75631013902c305 OP_EQUAL",
        "hex": "a9140b0d7f8db5cff1383abebc8fe75631013902c30587",
        "reqSigs": 1,
        "type": "scripthash",
        "addresses": [
          "9sSiGNiFiCANTxBECAUSEzzzzzzzYQkW2H"
        ]
      }
    },
    {
      "value": 0.00010000,
      "n": 20,
      "scriptPubKey": {
        "asm": "OP_HASH160 0b2fa30c7e429513f91a00fc3acad1d24155c4ca OP_EQUAL",
        "hex": "a9140b2fa30c7e429513f91a00fc3acad1d24155c4ca87",
        "reqSigs": 1,
        "type": "scripthash",
        "addresses": [
          "9sTRANSACTioNSxSUCHxASzzzzzzWWx2KK"
        ]
      }
    },
    {
      "value": 0.00010000,
      "n": 21,
      "scriptPubKey": {
        "asm": "OP_HASH160 0b296ba76320e0b4a0810c7deb5fecd55f1184c6 OP_EQUAL",
        "hex": "a9140b296ba76320e0b4a0810c7deb5fecd55f1184c687",
        "reqSigs": 1,
        "type": "scripthash",
        "addresses": [
          "9sTHiSxCANxNEVERxBExCHANGEDzYB1Uo9"
        ]
      }
    },
    {
      "value": 0.00010000,
      "n": 22,
      "scriptPubKey": {
        "asm": "OP_HASH160 0ef89dbf9f347adc43ec82d3db0508bbfbcf0cb7 OP_EQUAL",
        "hex": "a9140ef89dbf9f347adc43ec82d3db0508bbfbcf0cb787",
        "reqSigs": 1,
        "type": "scripthash",
        "addresses": [
          "9soRxERASEDxANDxCANzzzzzzzzzSo255C"
        ]
      }
    },
    {
      "value": 0.00010000,
      "n": 23,
      "scriptPubKey": {
        "asm": "OP_HASH160 086befa06031b3ccbe5c4a46d338e483752f053a OP_EQUAL",
        "hex": "a914086befa06031b3ccbe5c4a46d338e483752f053a87",
        "reqSigs": 1,
        "type": "scripthash",
        "addresses": [
          "9sCoNTAiNxAxPAYMENTxoRxTWozzVpMnxq"
        ]
      }
    },
    {
      "value": 0.00010000,
      "n": 24,
      "scriptPubKey": {
        "asm": "OP_HASH160 0ef89fd7762cefb2f8ef959762c964b867bde3f2 OP_EQUAL",
        "hex": "a9140ef89fd7762cefb2f8ef959762c964b867bde3f287",
        "reqSigs": 1,
        "type": "scripthash",
        "addresses": [
          "9soRxoNExHUNDREDxANDxSEVENzzX8zHGU"
        ]
      }
    },
    {
      "value": 0.00010000,
      "n": 25,
      "scriptPubKey": {
        "asm": "OP_HASH160 0b28f5d0b78ed9f28e9eed023715902507260088 OP_EQUAL",
        "hex": "a9140b28f5d0b78ed9f28e9eed02371590250726008887",
        "reqSigs": 1,
        "type": "scripthash",
        "addresses": [
          "9sTHATxTHEYxDESCRiBEzzzzzzzzZGwfic"
        ]
      }
    },
    {
      "value": 0.00010000,
      "n": 26,
      "scriptPubKey": {
        "asm": "OP_HASH160 1548580adc38fa54f61bcc7331193f048b7f6881 OP_EQUAL",
        "hex": "a9141548580adc38fa54f61bcc7331193f048b7f688187",
        "reqSigs": 1,
        "type": "scripthash",
        "addresses": [
          "9tNoWxixKNoWxTHExZEiTGEiSTzzUYGLqZ"
        ]
      }
    },
    {
      "value": 0.00010000,
      "n": 27,
      "scriptPubKey": {
        "asm": "OP_HASH160 19e8657017a764277527bc521c917964aa3a5795 OP_EQUAL",
        "hex": "a91419e8657017a764277527bc521c917964aa3a579587",
        "reqSigs": 1,
        "type": "scripthash",
        "addresses": [
          "9toFxMoSTxLiBERALxVENTURESzzXv9H1D"
        ]
      }
    },
    {
      "value": 0.00010000,
      "n": 28,
      "scriptPubKey": {
        "asm": "OP_HASH160 18ff801120d6b705c5191f336eb03b46215eefa8 OP_EQUAL",
        "hex": "a91418ff801120d6b705c5191f336eb03b46215eefa887",
        "reqSigs": 1,
        "type": "scripthash",
        "addresses": [
          "9tiSxToxSiTxDoWNxFoRxLoNGzzzaUakKg"
        ]
      }
    },
    {
      "value": 0.00010000,
      "n": 29,
      "scriptPubKey": {
        "asm": "OP_HASH160 13905ba0a24c498fa803069e0800e6082e76de01 OP_EQUAL",
        "hex": "a91413905ba0a24c498fa803069e0800e6082e76de0187",
        "reqSigs": 1,
        "type": "scripthash",
        "addresses": [
          "9tDiSCUSSioNSvxATxTiMESzzzzzaYu4hP"
        ]
      }
    },
    {
      "value": 0.00010000,
      "n": 30,
      "scriptPubKey": {
        "asm": "OP_HASH160 16c771ed0a6b7a16551ed66489e15095409df16d OP_EQUAL",
        "hex": "a91416c771ed0a6b7a16551ed66489e15095409df16d87",
        "reqSigs": 1,
        "type": "scripthash",
        "addresses": [
          "9tWiTHxTHExHELPxoFzzzzzzzzzzZ7X6WG"
        ]
      }
    },
    {
      "value": 0.00010000,
      "n": 31,
      "scriptPubKey": {
        "asm": "OP_HASH160 13487b991000650437ef695b4ec4a923f9aea0f2 OP_EQUAL",
        "hex": "a91413487b991000650437ef695b4ec4a923f9aea0f287",
        "reqSigs": 1,
        "type": "scripthash",
        "addresses": [
          "9tCELEBRATEDxLoCALxEXPERTSzzXoiVB1"
        ]
      }
    },
    {
      "value": 0.00010000,
      "n": 32,
      "scriptPubKey": {
        "asm": "OP_HASH160 0e1fda03732e64d48dc1c382bd09472e13e0bca7 OP_EQUAL",
        "hex": "a9140e1fda03732e64d48dc1c382bd09472e13e0bca787",
        "reqSigs": 1,
        "type": "scripthash",
        "addresses": [
          "9sixHAVExSPENDxTHoUSANDSxoFzS34Vs4"
        ]
      }
    },
    {
      "value": 0.00010000,
      "n": 33,
      "scriptPubKey": {
        "asm": "OP_HASH160 095e1a0e145c4e0dc8f8fae8ca085cce3d3b4f10 OP_EQUAL",
        "hex": "a914095e1a0e145c4e0dc8f8fae8ca085cce3d3b4f1087",
        "reqSigs": 1,
        "type": "scripthash",
        "addresses": [
          "9sHoURSxoNxTHiSxSYSTEMzzzzzzUyNb5W"
        ]
      }
    },
    {
      "value": 0.00010000,
      "n": 34,
      "scriptPubKey": {
        "asm": "OP_HASH160 07f61ce7456a03ec64e55893fd5513ccd6607d3a OP_EQUAL",
        "hex": "a91407f61ce7456a03ec64e55893fd5513ccd6607d3a87",
        "reqSigs": 1,
        "type": "scripthash",
        "addresses": [
          "9sANDxTHATxMAKESxMExoNEzzzzzV8dpMp"
        ]
      }
    },
    {
      "value": 0.00010000,
      "n": 35,
      "scriptPubKey": {
        "asm": "OP_HASH160 0b01c0bdac522211fcc3b6616f7692e16c4e4910 OP_EQUAL",
        "hex": "a9140b01c0bdac522211fcc3b6616f7692e16c4e491087",
        "reqSigs": 1,
        "type": "scripthash",
        "addresses": [
          "9sSUCHxEXPERTvxMAYBExWExCANzYCMs4G"
        ]
      }
    },
    {
      "value": 0.00010000,
      "n": 36,
      "scriptPubKey": {
        "asm": "OP_HASH160 0b121e46f0d56e1ae609e715e869f3c2e8f70f2d OP_EQUAL",
        "hex": "a9140b121e46f0d56e1ae609e715e869f3c2e8f70f2d87",
        "reqSigs": 1,
        "type": "scripthash",
        "addresses": [
          "9sSooNxMoVExFRoMzzzzzzzzzzzzVe5dCU"
        ]
      }
    },
    {
      "value": 0.00010000,
      "n": 37,
      "scriptPubKey": {
        "asm": "OP_HASH160 0b29065c72979d51476a5471422d5bcbfcb0a16c OP_EQUAL",
        "hex": "a9140b29065c72979d51476a5471422d5bcbfcb0a16c87",
        "reqSigs": 1,
        "type": "scripthash",
        "addresses": [
          "9sTHExRELATiVELYxSAFEzzzzzzzZbJ52h"
        ]
      }
    },
    {
      "value": 0.00010000,
      "n": 38,
      "scriptPubKey": {
        "asm": "OP_HASH160 07f61ce70a187038b0cbea67c04480246a4575ee OP_EQUAL",
        "hex": "a91407f61ce70a187038b0cbea67c04480246a4575ee87",
        "reqSigs": 1,
        "type": "scripthash",
        "addresses": [
          "9sANDxSTERiLExACTioNzzzzzzzzUgLk7M"
        ]
      }
    },
    {
      "value": 0.00010000,
      "n": 39,
      "scriptPubKey": {
        "asm": "OP_HASH160 0ef04595fdb7792405d0646312959c364e1a7b58 OP_EQUAL",
        "hex": "a9140ef04595fdb7792405d0646312959c364e1a7b5887",
        "reqSigs": 1,
        "type": "scripthash",
        "addresses": [
          "9soFxTHoUGHTFULxREFLECTioNzzVKeEyp"
        ]
      }
    },
    {
      "value": 0.00010000,
      "n": 40,
      "scriptPubKey": {
        "asm": "OP_HASH160 0b42ab7a393c1590db5aa95e334f4a3ab001b59b OP_EQUAL",
        "hex": "a9140b42ab7a393c1590db5aa95e334f4a3ab001b59b87",
        "reqSigs": 1,
        "type": "scripthash",
        "addresses": [
          "9sToxoRGANiZiNGxGLoBALLYzzzzVhwL5Y"
        ]
      }
    },
    {
      "value": 0.00010000,
      "n": 41,
      "scriptPubKey": {
        "asm": "OP_HASH160 082f7d05a10f05f8ab3fed498c302be28cc0bbf2 OP_EQUAL",
        "hex": "a914082f7d05a10f05f8ab3fed498c302be28cc0bbf287",
        "reqSigs": 1,
        "type": "scripthash",
        "addresses": [
          "9sBYxUSiNGxTHiSxSYSTEMzzzzzzZSK9vU"
        ]
      }
    },
    {
      "value": 0.00010000,
      "n": 42,
      "scriptPubKey": {
        "asm": "OP_HASH160 1917e126be57501cc0e357c6e19039e7f5eda4bd OP_EQUAL",
        "hex": "a9141917e126be57501cc0e357c6e19039e7f5eda4bd87",
        "reqSigs": 1,
        "type": "scripthash",
        "addresses": [
          "9tixAMxFiNALLYxMAKiNGxSoMEzzT18zwr"
        ]
      }
    },
    {
      "value": 0.00010000,
      "n": 43,
      "scriptPubKey": {
        "asm": "OP_HASH160 1566a13f3cd51635ea7d294d5236400cac989b3b OP_EQUAL",
        "hex": "a9141566a13f3cd51635ea7d294d5236400cac989b3b87",
        "reqSigs": 1,
        "type": "scripthash",
        "addresses": [
          "9tPRoGRESSxANDxFiNDiNGzzzzzzWsskRg"
        ]
      }
    },
    {
      "value": 0.00010000,
      "n": 44,
      "scriptPubKey": {
        "asm": "OP_HASH160 14e32b66099032e5cd9ef3845013e46baef5efbe OP_EQUAL",
        "hex": "a91414e32b66099032e5cd9ef3845013e46baef5efbe87",
        "reqSigs": 1,
        "type": "scripthash",
        "addresses": [
          "9tLiKEyMiNDEDxALLiESzzzzzzzzVyBvpE"
        ]
      }
    },
    {
      "value": 8732.90151649,
      "n": 45,
      "scriptPubKey": {
        "asm": "OP_DUP OP_HASH160 99ffb2353f6d5387efca88b69404886bcd166971 OP_EQUALVERIFY OP_CHECKSIG",
        "hex": "76a91499ffb2353f6d5387efca88b69404886bcd16697188ac",
        "reqSigs": 1,
        "type": "pubkeyhash",
        "addresses": [
          "DKBNEgnNiYvHJN2nr5UZKaVoSVg4ubBAXZ"
        ]
      }
    },
    {
      "value": 0.00010000,
      "n": 46,
      "scriptPubKey": {
        "asm": "OP_HASH160 0bba3546354fa2ac18de92c24930bd1f1668a6f3 OP_EQUAL",
        "hex": "a9140bba3546354fa2ac18de92c24930bd1f1668a6f387",
        "reqSigs": 1,
        "type": "scripthash",
        "addresses": [
          "9sWHATxixAMxWoRKiNGxoNxiSzzzW4pmMD"
        ]
      }
    },
    {
      "value": 0.00010000,
      "n": 47,
      "scriptPubKey": {
        "asm": "OP_HASH160 093f2b71a49457cd7e94fbd942fe2878b264f3e0 OP_EQUAL",
        "hex": "a914093f2b71a49457cd7e94fbd942fe2878b264f3e087",
        "reqSigs": 1,
        "type": "scripthash",
        "addresses": [
          "9sHARDxANDxHASxDRAiNEDxMYzzzbW7mn6"
        ]
      }
    },
    {
      "value": 0.00010000,
      "n": 48,
      "scriptPubKey": {
        "asm": "OP_HASH160 08ed51f7bc1f16f3ec176971a157dfbdb002550a OP_EQUAL",
        "hex": "a91408ed51f7bc1f16f3ec176971a157dfbdb002550a87",
        "reqSigs": 1,
        "type": "scripthash",
        "addresses": [
          "9sFUNDiNGxANDxixNoWxAMzzzzzzWtzCpx"
        ]
      }
    },
    {
      "value": 0.00010000,
      "n": 49,
      "scriptPubKey": {
        "asm": "OP_HASH160 09ef9f276647496dc9f729c5cf23a8f248919f8b OP_EQUAL",
        "hex": "a91409ef9f276647496dc9f729c5cf23a8f248919f8b87",
        "reqSigs": 1,
        "type": "scripthash",
        "addresses": [
          "9sLooKiNGxToxFRiENDSxANDzzzzbCDKGn"
        ]
      }
    },
    {
      "value": 0.00010000,
      "n": 50,
      "scriptPubKey": {
        "asm": "OP_HASH160 08de498972c30e8103ddf232bd53cbfc97e28d11 OP_EQUAL",
        "hex": "a91408de498972c30e8103ddf232bd53cbfc97e28d1187",
        "reqSigs": 1,
        "type": "scripthash",
        "addresses": [
          "9sFAMiLYxFoRxHELPzzzzzzzzzzzXAiGM6"
        ]
      }
    },
    {
      "value": 0.00010000,
      "n": 51,
      "scriptPubKey": {
        "asm": "OP_HASH160 1918025d86c709bd58b965e5517f64cdeb29c99b OP_EQUAL",
        "hex": "a9141918025d86c709bd58b965e5517f64cdeb29c99b87",
        "reqSigs": 1,
        "type": "scripthash",
        "addresses": [
          "9tixKNoWxTHATxMANYxoFzzzzzzza5mx44"
        ]
      }
    },
    {
      "value": 0.00010000,
      "n": 52,
      "scriptPubKey": {
        "asm": "OP_HASH160 172c7981b75f3566f5c8b04cb140ae64f458cff6 OP_EQUAL",
        "hex": "a914172c7981b75f3566f5c8b04cb140ae64f458cff687",
        "reqSigs": 1,
        "type": "scripthash",
        "addresses": [
          "9tYoUxGUYSxFiTxiNToxTHATzzzzYe5sBb"
        ]
      }
    },
    {
      "value": 0.00010000,
      "n": 53,
      "scriptPubKey": {
        "asm": "OP_HASH160 13453e9a5039b1820baaede33f49618d3bf2b8aa OP_EQUAL",
        "hex": "a91413453e9a5039b1820baaede33f49618d3bf2b8aa87",
        "reqSigs": 1,
        "type": "scripthash",
        "addresses": [
          "9tCATEGoRYzzzzzzzzzzzzzzzzzzSgwKk6"
        ]
      }
    },
    {
      "value": 0.00010000,
      "n": 54,
      "scriptPubKey": {
        "asm": "OP_HASH160 0b29065d24d325543fc9ccd54046194a9ef97d4b OP_EQUAL",
        "hex": "a9140b29065d24d325543fc9ccd54046194a9ef97d4b87",
        "reqSigs": 1,
        "type": "scripthash",
        "addresses": [
          "9sTHExTiMExFoRxCHANGExiSzzzzY6joAd"
        ]
      }
    },
    {
      "value": 0.00010000,
      "n": 55,
      "scriptPubKey": {
        "asm": "OP_HASH160 0add14bbeacdc13316adf10c6c22d1cd0b9dbb76 OP_EQUAL",
        "hex": "a9140add14bbeacdc13316adf10c6c22d1cd0b9dbb7687",
        "reqSigs": 1,
        "type": "scripthash",
        "addresses": [
          "9sRiGHTxNoWxANDxTHiSzzzzzzzzYaqrGt"
        ]
      }
    },
    {
      "value": 0.00010000,
      "n": 56,
      "scriptPubKey": {
        "asm": "OP_HASH160 0e075ecbafdbaa14cbf399a60596a226f776c9b1 OP_EQUAL",
        "hex": "a9140e075ecbafdbaa14cbf399a60596a226f776c9b187",
        "reqSigs": 1,
        "type": "scripthash",
        "addresses": [
          "9siSxAxTooLxoFxGLoBALzzzzzzzXyPve2"
        ]
      }
    },
    {
      "value": 0.00010000,
      "n": 57,
      "scriptPubKey": {
        "asm": "OP_HASH160 086beb9488c9bd8bd4cb9b324e85a16abb74b812 OP_EQUAL",
        "hex": "a914086beb9488c9bd8bd4cb9b324e85a16abb74b81287",
        "reqSigs": 1,
        "type": "scripthash",
        "addresses": [
          "9sCoMMUNiCATioNxANDzzzzzzzzzZxAbZo"
        ]
      }
    },
    {
      "value": 0.00010000,
      "n": 58,
      "scriptPubKey": {
        "asm": "OP_HASH160 0b2fa30c8e4e0b3d11bbc77f9f66586501d67ce2 OP_EQUAL",
        "hex": "a9140b2fa30c8e4e0b3d11bbc77f9f66586501d67ce287",
        "reqSigs": 1,
        "type": "scripthash",
        "addresses": [
          "9sTRANSPARENTxGiViNGzzzzzzzzUc4akw"
        ]
      }
    },
    {
      "value": 0.00010000,
      "n": 59,
      "scriptPubKey": {
        "asm": "OP_HASH160 1917e126c71ce3927eef16069b509bb7c815ad77 OP_EQUAL",
        "hex": "a9141917e126c71ce3927eef16069b509bb7c815ad7787",
        "reqSigs": 1,
        "type": "scripthash",
        "addresses": [
          "9tixAMxNoTxASKiNGxYoUxTozzzzb4pxNW"
        ]
      }
    },
    {
      "value": 0.00010000,
      "n": 60,
      "scriptPubKey": {
        "asm": "OP_HASH160 1655b72f97d62e1f8350714b5d7c933328b0b9c3 OP_EQUAL",
        "hex": "a9141655b72f97d62e1f8350714b5d7c933328b0b9c387",
        "reqSigs": 1,
        "type": "scripthash",
        "addresses": [
          "9tUNDERSTANDxSoMETHiNGzzzzzzXDdtPe"
        ]
      }
    },
    {
      "value": 0.00010000,
      "n": 61,
      "scriptPubKey": {
        "asm": "OP_HASH160 18fadb3ca17ad2e833183106450cf682ab4dc4ce OP_EQUAL",
        "hex": "a91418fadb3ca17ad2e833183106450cf682ab4dc4ce87",
        "reqSigs": 1,
        "type": "scripthash",
        "addresses": [
          "9tiMPoSSiBLYxDiFFiCULTzzzzzza2j1AA"
        ]
      }
    },
    {
      "value": 0.00010000,
      "n": 62,
      "scriptPubKey": {
        "asm": "OP_HASH160 1323dd5c825b434540e46f5a088487e5ccf98406 OP_EQUAL",
        "hex": "a9141323dd5c825b434540e46f5a088487e5ccf9840687",
        "reqSigs": 1,
        "type": "scripthash",
        "addresses": [
          "9tBUTxToxTRUSTxYoURzzzzzzzzzTXaNzs"
        ]
      }
    },
    {
      "value": 0.00010000,
      "n": 63,
      "scriptPubKey": {
        "asm": "OP_HASH160 18fbbe7bb5b7a4aa242074e7dee30da570eeb67f OP_EQUAL",
        "hex": "a91418fbbe7bb5b7a4aa242074e7dee30da570eeb67f87",
        "reqSigs": 1,
        "type": "scripthash",
        "addresses": [
          "9tiNTUiTioNxANDxWHATxYoUzzzzZpUMPp"
        ]
      }
    },
    {
      "value": 0.00010000,
      "n": 64,
      "scriptPubKey": {
        "asm": "OP_HASH160 14a27721c7f81dcbf2f8f85b75644a804fe2e287 OP_EQUAL",
        "hex": "a91414a27721c7f81dcbf2f8f85b75644a804fe2e28787",
        "reqSigs": 1,
        "type": "scripthash",
        "addresses": [
          "9tKNoWxoFxMEhzzzzzzzzzzzzzzzTcAgwd"
        ]
      }
    },
    {
      "value": 0.00010000,
      "n": 65,
      "scriptPubKey": {
        "asm": "OP_HASH160 0e1fc0f36a450537796e3c686491471e16a916d4 OP_EQUAL",
        "hex": "a9140e1fc0f36a450537796e3c686491471e16a916d487",
        "reqSigs": 1,
        "type": "scripthash",
        "addresses": [
          "9sixAMxPRESENTiNGxAxTooLzzzzWyi9i5"
        ]
      }
    },
    {
      "value": 0.00010000,
      "n": 66,
      "scriptPubKey": {
        "asm": "OP_HASH160 0b28f5d0bb38d643d56dd9a3bfa573d3e2aa10a9 OP_EQUAL",
        "hex": "a9140b28f5d0bb38d643d56dd9a3bfa573d3e2aa10a987",
        "reqSigs": 1,
        "type": "scripthash",
        "addresses": [
          "9sTHATxWExCANxUSExToDAYzzzzzZBHQqX"
        ]
      }
    },
    {
      "value": 0.00010000,
      "n": 67,
      "scriptPubKey": {
        "asm": "OP_HASH160 0b42aa0527ce4dfabac7ece9c1acd1736d6881ff OP_EQUAL",
        "hex": "a9140b42aa0527ce4dfabac7ece9c1acd1736d6881ff87",
        "reqSigs": 1,
        "type": "scripthash",
        "addresses": [
          "9sToxQUiCKLYxACTxWiTHzzzzzzzamSsaS"
        ]
      }
    },
    {
      "value": 0.00010000,
      "n": 68,
      "scriptPubKey": {
        "asm": "OP_HASH160 0ac254ea100d1f7c06bfece8deae9ed27f076412 OP_EQUAL",
        "hex": "a9140ac254ea100d1f7c06bfece8deae9ed27f07641287",
        "reqSigs": 1,
        "type": "scripthash",
        "addresses": [
          "9sRADiCALxFiNANCiALxANDzzzzzWruNSu"
        ]
      }
    },
    {
      "value": 0.00010000,
      "n": 69,
      "scriptPubKey": {
        "asm": "OP_HASH160 0b119e8a9fd5b5491ac8fd9320a6c7763586431d OP_EQUAL",
        "hex": "a9140b119e8a9fd5b5491ac8fd9320a6c7763586431d87",
        "reqSigs": 1,
        "type": "scripthash",
        "addresses": [
          "9sSoCiALxTRANSPARENCYzzzzzzzT2Goq3"
        ]
      }
    },
    {
      "value": 0.00010000,
      "n": 70,
      "scriptPubKey": {
        "asm": "OP_HASH160 12f231c1cd9c386a1b1efcd799b5f79dce3d8af8 OP_EQUAL",
        "hex": "a91412f231c1cd9c386a1b1efcd799b5f79dce3d8af887",
        "reqSigs": 1,
        "type": "scripthash",
        "addresses": [
          "9tASxoURxMUSLiMxBRoTHERSzzzzczH3rM"
        ]
      }
    },
    {
      "value": 0.00010000,
      "n": 71,
      "scriptPubKey": {
        "asm": "OP_HASH160 12ee3d1a7a85a00d117d4c7228a07ec87ea0c1a7 OP_EQUAL",
        "hex": "a91412ee3d1a7a85a00d117d4c7228a07ec87ea0c1a787",
        "reqSigs": 1,
        "type": "scripthash",
        "addresses": [
          "9tANDxSiSTERSxPASSxTHRoUGHzzcAWuRb"
        ]
      }
    },
    {
      "value": 0.00010000,
      "n": 72,
      "scriptPubKey": {
        "asm": "OP_HASH160 15ba908f104cbd214f66e04afa1c0f155e037cc2 OP_EQUAL",
        "hex": "a91415ba908f104cbd214f66e04afa1c0f155e037cc287",
        "reqSigs": 1,
        "type": "scripthash",
        "addresses": [
          "9tRAMADANvxTHEYxARExASKEDzzzaQ9xGK"
        ]
      }
    },
    {
      "value": 0.00010000,
      "n": 73,
      "scriptPubKey": {
        "asm": "OP_HASH160 1421a64c01c869817750f101837d5d3cc955cfab OP_EQUAL",
        "hex": "a9141421a64c01c869817750f101837d5d3cc955cfab87",
        "reqSigs": 1,
        "type": "scripthash",
        "addresses": [
          "9tGiVExAxZACATxoRxPAYMENTzzzXscZYk"
        ]
      }
    },
    {
      "value": 0.00010000,
      "n": 74,
      "scriptPubKey": {
        "asm": "OP_HASH160 19e865d03d5571928b97f436b492c509cbb1d55e OP_EQUAL",
        "hex": "a91419e865d03d5571928b97f436b492c509cbb1d55e87",
        "reqSigs": 1,
        "type": "scripthash",
        "addresses": [
          "9toFxTiMExoRxENERGYvxMAYBEzzWk3gCN"
        ]
      }
    },
    {
      "value": 0.00010000,
      "n": 75,
      "scriptPubKey": {
        "asm": "OP_HASH160 16218bdad4eea5e2840cd0bd2882eaa993bf6427 OP_EQUAL",
        "hex": "a91416218bdad4eea5e2840cd0bd2882eaa993bf642787",
        "reqSigs": 1,
        "type": "scripthash",
        "addresses": [
          "9tTHiSxUUxFELLoWSHiPxCANzzzzWCzT2m"
        ]
      }
    },
    {
      "value": 0.00010000,
      "n": 76,
      "scriptPubKey": {
        "asm": "OP_HASH160 143a90a67bd8728a2c2b4705608bb6c6fd47b310 OP_EQUAL",
        "hex": "a914143a90a67bd8728a2c2b4705608bb6c6fd47b31087",
        "reqSigs": 1,
        "type": "scripthash",
        "addresses": [
          "9tHELPxiNxTHExSAMExWAYzzzzzzTdo8JB"
        ]
      }
    },
    {
      "value": 0.00010000,
      "n": 77,
      "scriptPubKey": {
        "asm": "OP_HASH160 0e1fe22a292bcc20632e399b89012f8a7bd0dee9 OP_EQUAL",
        "hex": "a9140e1fe22a292bcc20632e399b89012f8a7bd0dee987",
        "reqSigs": 1,
        "type": "scripthash",
        "addresses": [
          "9sixKNoWxTHATxMoSTxoFxTHEzzzWkbhQL"
        ]
      }
    },
    {
      "value": 0.00010000,
      "n": 78,
      "scriptPubKey": {
        "asm": "OP_HASH160 0a6552cea2356f6fba9a3c54a4c0b10511550082 OP_EQUAL",
        "hex": "a9140a6552cea2356f6fba9a3c54a4c0b1051155008287",
        "reqSigs": 1,
        "type": "scripthash",
        "addresses": [
          "9sPEoPLExWHoxREADxTHiSxAREzzYKDDQp"
        ]
      }
    },
    {
      "value": 0.00010000,
      "n": 79,
      "scriptPubKey": {
        "asm": "OP_HASH160 0a502cc2819512fe030407267f53beba6a73e7b9 OP_EQUAL",
        "hex": "a9140a502cc2819512fe030407267f53beba6a73e7b987",
        "reqSigs": 1,
        "type": "scripthash",
        "addresses": [
          "9sNoTxGoiNGxToxBExABLExTozzzZSMFSj"
        ]
      }
    },
    {
      "value": 0.00010000,
      "n": 80,
      "scriptPubKey": {
        "asm": "OP_HASH160 08f9018710110c3dbc83a69eb92972ecf896e80d OP_EQUAL",
        "hex": "a91408f9018710110c3dbc83a69eb92972ecf896e80d87",
        "reqSigs": 1,
        "type": "scripthash",
        "addresses": [
          "9sFiNANCiALLYxHELPxMEvxBUTzzRwdUsi"
        ]
      }
    },
    {
      "value": 0.00010000,
      "n": 81,
      "scriptPubKey": {
        "asm": "OP_HASH160 0bcf51b9a1ea0db1272b5e9b368207f458bc8884 OP_EQUAL",
        "hex": "a9140bcf51b9a1ea0db1272b5e9b368207f458bc888487",
        "reqSigs": 1,
        "type": "scripthash",
        "addresses": [
          "9sWiTHxJUSTxAxFEWxDEGREESzzzXNiiYi"
        ]
      }
    },
    {
      "value": 0.00010000,
      "n": 82,
      "scriptPubKey": {
        "asm": "OP_HASH160 0ef04584c51fe2ae3317761751e955db28af2341 OP_EQUAL",
        "hex": "a9140ef04584c51fe2ae3317761751e955db28af234187",
        "reqSigs": 1,
        "type": "scripthash",
        "addresses": [
          "9soFxSEPARATioNvxYoUxCoULDzzZMQ6dq"
        ]
      }
    },
    {
      "value": 0.00010000,
      "n": 83,
      "scriptPubKey": {
        "asm": "OP_HASH160 0a6e80b656d6b78fc14facf136942c2aaf8ee185 OP_EQUAL",
        "hex": "a9140a6e80b656d6b78fc14facf136942c2aaf8ee18587",
        "reqSigs": 1,
        "type": "scripthash",
        "addresses": [
          "9sPRoBABLYxGETxTHiSxMESSAGEzcpEMRV"
        ]
      }
    },
    {
      "value": 0.00010000,
      "n": 84,
      "scriptPubKey": {
        "asm": "OP_HASH160 0b42aa2ae803b4f96cb6c52c7e0e063c8b8de46c OP_EQUAL",
        "hex": "a9140b42aa2ae803b4f96cb6c52c7e0e063c8b8de46c87",
        "reqSigs": 1,
        "type": "scripthash",
        "addresses": [
          "9sToxSoMEoNExWHoxCANvxoRzzzzXqwmEB"
        ]
      }
    },
    {
      "value": 0.00010000,
      "n": 85,
      "scriptPubKey": {
        "asm": "OP_HASH160 07fae5860cdb4d9560564a5239f8e48360e69718 OP_EQUAL",
        "hex": "a91407fae5860cdb4d9560564a5239f8e48360e6971887",
        "reqSigs": 1,
        "type": "scripthash",
        "addresses": [
          "9sATxLEASTxSoMEoNExWiLLiNGzzXb1v2W"
        ]
      }
    },
    {
      "value": 0.00010000,
      "n": 86,
      "scriptPubKey": {
        "asm": "OP_HASH160 0b42a9c7f488bd5ddd7e9dd5cf69a8f16febc878 OP_EQUAL",
        "hex": "a9140b42a9c7f488bd5ddd7e9dd5cf69a8f16febc87887",
        "reqSigs": 1,
        "type": "scripthash",
        "addresses": [
          "9sToxLiSTENxANDxCAPABLExoFzzaT5qoN"
        ]
      }
    },
    {
      "value": 0.00010000,
      "n": 87,
      "scriptPubKey": {
        "asm": "OP_HASH160 0b5d96fc3a3af0821bc33ad03346cdf4bcbff5e7 OP_EQUAL",
        "hex": "a9140b5d96fc3a3af0821bc33ad03346cdf4bcbff5e787",
        "reqSigs": 1,
        "type": "scripthash",
        "addresses": [
          "9sUNDERSTANDiNGxWHYxTHiSzzzzadAMmw"
        ]
      }
    },
    {
      "value": 0.00010000,
      "n": 88,
      "scriptPubKey": {
        "asm": "OP_HASH160 0b878147224a458da56f31b3ba7843b7304f4150 OP_EQUAL",
        "hex": "a9140b878147224a458da56f31b3ba7843b7304f415087",
        "reqSigs": 1,
        "type": "scripthash",
        "addresses": [
          "9sVERYxMESSAGExiSxQUiTEzzzzzWwcBpd"
        ]
      }
    },
    {
      "value": 0.00010000,
      "n": 89,
      "scriptPubKey": {
        "asm": "OP_HASH160 0b0d7f8db5cff1383b23aa3c93e63703e2d52a82 OP_EQUAL",
        "hex": "a9140b0d7f8db5cff1383b23aa3c93e63703e2d52a8287",
        "reqSigs": 1,
        "type": "scripthash",
        "addresses": [
          "9sSiGNiFiCANTzzzzzzzzzzzzzzzXDSaP6"
        ]
      }
    },
    {
      "value": 0.00039692,
      "n": 90,
      "scriptPubKey": {
        "asm": "OP_HASH160 162115a865137b8586d3edb4bfc2e0575f2c14f7 OP_EQUAL",
        "hex": "a914162115a865137b8586d3edb4bfc2e0575f2c14f787",
        "reqSigs": 1,
        "type": "scripthash",
        "addresses": [
          "9tTHANKSxFoRxYoURxSUPPoRTzzzW6Pdn8"
        ]
      }
    }
  ],
  "blockhash": "779c74aa6a71bcd9fc0a79d0f34fd08adf3d49842aab1f672f0dcbce2386db56",
  "confirmations": 1308247,
  "time": 1588091872,
  "blocktime": 1588091872
}
