{
  "hex": "01000000019b3a849bdc625345d7369852ce67abef85e74077db9d02c495e80286788c2074000000006b483045022100f2e0766fbde0d7b89efc7c3182688f341b08a38009c4f0083b8a15bd28164cf302206bca4f2d634faafe1d4653abb00ad19006532c84f53cd54565a298955072abe00121038390de9884a14053f55e2810432dfb40499eff4678137818db6f00ef55f8c903ffffffff02c4ecf505000000001976a91455b225aebdbc98e3c4bc57fbc46184a593f1368488aca67d2e31000000001976a9141a07610ec832fb795f6cdfb94485a31e015a24c988ac00000000",
  "txid": "542442b8e28c1e31303aa3b2ae7950a088895714150a97c1f9b1b96755a80f57",
  "hash": "542442b8e28c1e31303aa3b2ae7950a088895714150a97c1f9b1b96755a80f57",
  "size": 226,
  "vsize": 226,
  "version": 1,
  "locktime": 0,
  "vin": [
    {
      "txid": "74208c788602e895c4029ddb7740e785efab67ce529836d7455362dc9b843a9b",
      "vout": 0,
      "scriptSig": {
        "asm": "3045022100f2e0766fbde0d7b89efc7c3182688f341b08a38009c4f0083b8a15bd28164cf302206bca4f2d634faafe1d4653abb00ad19006532c84f53cd54565a298955072abe0[ALL] 038390de9884a14053f55e2810432dfb40499eff4678137818db6f00ef55f8c903",
        "hex": "483045022100f2e0766fbde0d7b89efc7c3182688f341b08a38009c4f0083b8a15bd28164cf302206bca4f2d634faafe1d4653abb00ad19006532c84f53cd54565a298955072abe00121038390de9884a14053f55e2810432dfb40499eff4678137818db6f00ef55f8c903"
      },
      "sequence": 4294967295
    }
  ],
  "vout": [
    {
      "value": 1.00003012,
      "n": 0,
      "scriptPubKey": {
        "asm": "OP_DUP OP_HASH160 55b225aebdbc98e3c4bc57fbc46184a593f13684 OP_EQUALVERIFY OP_CHECKSIG",
        "hex": "76a91455b225aebdbc98e3c4bc57fbc46184a593f1368488ac",
        "reqSigs": 1,
        "type": "pubkeyhash",
        "addresses": [
          "DCxDPSxNoWxSERViNGxSzzzzzzzzSKAyrK"
        ]
      }
    },
    {
      "value": 8.25130406,
      "n": 1,
      "scriptPubKey": {
        "asm": "OP_DUP OP_HASH160 1a07610ec832fb795f6cdfb94485a31e015a24c9 OP_EQUALVERIFY OP_CHECKSIG",
        "hex": "76a9141a07610ec832fb795f6cdfb94485a31e015a24c988ac",
        "reqSigs": 1,
        "type": "pubkeyhash",
        "addresses": [
          "D7WiwxTvhvs9e4m3DepuBDrYWf4AXbEhJg"
        ]
      }
    }
  ],
  "blockhash": "9a9debb709dc5f78e38d3a19ad91aedee91bb656419ad6056bf70f5583e12e0f",
  "confirmations": 1584925,
  "time": 1570719899,
  "blocktime": 1570719899
}
