{
  "hex": "0100000001a86b325adb41312ed29b1357b5f565df3e7fdc82cf9b3447e3c84b8d796e1423000000006a473044022054011c8866ee6f6fe0c8c5b6b3dec22d07995c013e60561758692f22f3ee0851022037bb768b38cb4f29e7fa4da20083f99c5f62c091b9171697f5f3d862eb5fb47b01210341c9c344a027f0c72cc48466a1f312c80f4848bdcd949f66d8b581beb27f63dfffffffff02a4a4e254000000001976a914ec9adbbfdef8233b87b0d203f70ba479545a08f788ac0c7cf605000000001976a91455b3c664205a27d134409c331f0544119703c50088ac00000000",
  "txid": "58056069658a4d40ea7f3ae7f99c7f60b2855f467a3311d2a0510ec6b9af5626",
  "hash": "58056069658a4d40ea7f3ae7f99c7f60b2855f467a3311d2a0510ec6b9af5626",
  "size": 225,
  "vsize": 225,
  "version": 1,
  "locktime": 0,
  "vin": [
    {
      "txid": "23146e798d4bc8e347349bcf82dc7f3edf65f5b557139bd22e3141db5a326ba8",
      "vout": 0,
      "scriptSig": {
        "asm": "3044022054011c8866ee6f6fe0c8c5b6b3dec22d07995c013e60561758692f22f3ee0851022037bb768b38cb4f29e7fa4da20083f99c5f62c091b9171697f5f3d862eb5fb47b[ALL] 0341c9c344a027f0c72cc48466a1f312c80f4848bdcd949f66d8b581beb27f63df",
        "hex": "473044022054011c8866ee6f6fe0c8c5b6b3dec22d07995c013e60561758692f22f3ee0851022037bb768b38cb4f29e7fa4da20083f99c5f62c091b9171697f5f3d862eb5fb47b01210341c9c344a027f0c72cc48466a1f312c80f4848bdcd949f66d8b581beb27f63df"
      },
      "sequence": 4294967295
    }
  ],
  "vout": [
    {
      "value": 14.24139428,
      "n": 0,
      "scriptPubKey": {
        "asm": "OP_DUP OP_HASH160 ec9adbbfdef8233b87b0d203f70ba479545a08f7 OP_EQUALVERIFY OP_CHECKSIG",
        "hex": "76a914ec9adbbfdef8233b87b0d203f70ba479545a08f788ac",
        "reqSigs": 1,
        "type": "pubkeyhash",
        "addresses": [
          "DSi9XHDe8mKD5fH7UjWKVt8D92ndHcyfdb"
        ]
      }
    },
    {
      "value": 1.00039692,
      "n": 1,
      "scriptPubKey": {
        "asm": "OP_DUP OP_HASH160 55b3c664205a27d134409c331f0544119703c500 OP_EQUALVERIFY OP_CHECKSIG",
        "hex": "76a91455b3c664205a27d134409c331f0544119703c50088ac",
        "reqSigs": 1,
        "type": "pubkeyhash",
        "addresses": [
          "DCxFLYiNGxSPAGHETTixMoNSTERzY96vdG"
        ]
      }
    }
  ],
  "blockhash": "0ba8431e326e39852bac1aa1c409489fdbfa13e4352df24b99039a0eb02a65f6",
  "confirmations": 1585022,
  "time": 1570713635,
  "blocktime": 1570713635
}
