{
  "hex": "0100000001da1a0376a7e991c0b85d61759552ec0b45e301b12b41bc92be78d6c6feb178a4010000006b483045022100dccc0973043520e724a7a87524a8b675f519eba5ade235072e4ec002832fd5af022054341aaf2956c3fac796866cdfab0e0a88d710c46b8f14f79ea4060859bf21b201210367e75a2c781a9e6e2edfa2d3141b63ff91f80bb213cffb4bec6e3967238996ffffffffff029d610404000000001976a9141a45bc207de34cb73b471480419d7d8e0d1efe9188acc3ecf505000000001976a91455b225aebdbc98e3c4bc57fbc46184a593f1368488ac00000000",
  "txid": "5b1d3ed9ee3e2831236f1fef4264e39d864a01f90129c6af913dc710afe0a396",
  "hash": "5b1d3ed9ee3e2831236f1fef4264e39d864a01f90129c6af913dc710afe0a396",
  "size": 226,
  "vsize": 226,
  "version": 1,
  "locktime": 0,
  "vin": [
    {
      "txid": "a478b1fec6d678be92bc412bb101e3450bec529575615db8c091e9a776031ada",
      "vout": 1,
      "scriptSig": {
        "asm": "3045022100dccc0973043520e724a7a87524a8b675f519eba5ade235072e4ec002832fd5af022054341aaf2956c3fac796866cdfab0e0a88d710c46b8f14f79ea4060859bf21b2[ALL] 0367e75a2c781a9e6e2edfa2d3141b63ff91f80bb213cffb4bec6e3967238996ff",
        "hex": "483045022100dccc0973043520e724a7a87524a8b675f519eba5ade235072e4ec002832fd5af022054341aaf2956c3fac796866cdfab0e0a88d710c46b8f14f79ea4060859bf21b201210367e75a2c781a9e6e2edfa2d3141b63ff91f80bb213cffb4bec6e3967238996ff"
      },
      "sequence": 4294967295
    }
  ],
  "vout": [
    {
      "value": 0.67395997,
      "n": 0,
      "scriptPubKey": {
        "asm": "OP_DUP OP_HASH160 1a45bc207de34cb73b471480419d7d8e0d1efe91 OP_EQUALVERIFY OP_CHECKSIG",
        "hex": "76a9141a45bc207de34cb73b471480419d7d8e0d1efe9188ac",
        "reqSigs": 1,
        "type": "pubkeyhash",
        "addresses": [
          "D7Y1eWXCv1kPySJaz3ngPzHoqoBxsD9517"
        ]
      }
    },
    {
      "value": 1.00003011,
      "n": 1,
      "scriptPubKey": {
        "asm": "OP_DUP OP_HASH160 55b225aebdbc98e3c4bc57fbc46184a593f13684 OP_EQUALVERIFY OP_CHECKSIG",
        "hex": "76a91455b225aebdbc98e3c4bc57fbc46184a593f1368488ac",
        "reqSigs": 1,
        "type": "pubkeyhash",
        "addresses": [
          "DCxDPSxNoWxSERViNGxSzzzzzzzzSKAyrK"
        ]
      }
    }
  ],
  "blockhash": "53a9b205dad3d640da2ab7c5dbe373361241b85affe5a527adcc4487e7fd9836",
  "confirmations": 1584937,
  "time": 1570719834,
  "blocktime": 1570719834
}
