{
  "hex": "01000000018503e4d932e47a9e992e4b9b0f84fa4587832a44c5397bb5f3e61a40fdae8bd0000000006b483045022100fe27658647281366b6cac3f677a145e6b25da7c1237a2c39419aefc065cad3bc02204525997c0ffd9c2e0714ca2954a93fca2923ee736d942321f3fec4075779b4d7012103230776b498aa244a70ace9a8f7dc5494a62d824c173f8290f31b92949e145bb4ffffffff025ade8a8c000000001976a91455b58edada72d8a6e38f5b9da00b90a41bf3eea288ac9d37db5f000000001976a9149f2852bf4fec7382882bd6df2546b7414cf2249688ac00000000",
  "txid": "5bf884c794a3451fa3c7b000c8a28d9ecc89282f4ffa4e746aae24c719d533ce",
  "hash": "5bf884c794a3451fa3c7b000c8a28d9ecc89282f4ffa4e746aae24c719d533ce",
  "size": 226,
  "vsize": 226,
  "version": 1,
  "locktime": 0,
  "vin": [
    {
      "txid": "d08baefd401ae6f3b57b39c5442a838745fa840f9b4b2e999e7ae432d9e40385",
      "vout": 0,
      "scriptSig": {
        "asm": "3045022100fe27658647281366b6cac3f677a145e6b25da7c1237a2c39419aefc065cad3bc02204525997c0ffd9c2e0714ca2954a93fca2923ee736d942321f3fec4075779b4d7[ALL] 03230776b498aa244a70ace9a8f7dc5494a62d824c173f8290f31b92949e145bb4",
        "hex": "483045022100fe27658647281366b6cac3f677a145e6b25da7c1237a2c39419aefc065cad3bc02204525997c0ffd9c2e0714ca2954a93fca2923ee736d942321f3fec4075779b4d7012103230776b498aa244a70ace9a8f7dc5494a62d824c173f8290f31b92949e145bb4"
      },
      "sequence": 4294967295
    }
  ],
  "vout": [
    {
      "value": 23.57911130,
      "n": 0,
      "scriptPubKey": {
        "asm": "OP_DUP OP_HASH160 55b58edada72d8a6e38f5b9da00b90a41bf3eea2 OP_EQUALVERIFY OP_CHECKSIG",
        "hex": "76a91455b58edada72d8a6e38f5b9da00b90a41bf3eea288ac",
        "reqSigs": 1,
        "type": "pubkeyhash",
        "addresses": [
          "DCxHUSHxCAUTioNxECHoLANDzzzzUMB1Yz"
        ]
      }
    },
    {
      "value": 16.08202141,
      "n": 1,
      "scriptPubKey": {
        "asm": "OP_DUP OP_HASH160 9f2852bf4fec7382882bd6df2546b7414cf22496 OP_EQUALVERIFY OP_CHECKSIG",
        "hex": "76a9149f2852bf4fec7382882bd6df2546b7414cf2249688ac",
        "reqSigs": 1,
        "type": "pubkeyhash",
        "addresses": [
          "DKeeHU2LZPquEPbemn3X9fDLprr2etG5jQ"
        ]
      }
    }
  ],
  "blockhash": "c74eccd237c177b7977b28c983bdc28481a1349b42621b23bd38d21ec82c68a9",
  "confirmations": 1492112,
  "time": 1572372300,
  "blocktime": 1572372300
}
