{
  "hex": "01000000012685449eca81959269fa60393a4ddb5a220c19428b8a8a4291671b6771bfe126000000006b483045022100bfc13ca791125eb67393eb1006c5dcbaca2acfa8aea960cc24046b4d3c066e8202202f65a02684c618eae8ed4b5504b73c9a9e355f71084033b2da434b8e3ddb9cc5012102d8dd042046ec93f1ffa0c4ac6ab155e17d04544a535195558e73baed84796192ffffffff02fa3bab18000000001976a914eb738e0ad28c071c911fb70bc6e966ff1cbb509388ac00e1f5050000000017a9140852b8290c90a350ba2b25b6db06ba00ab9a5ea88700000000",
  "txid": "5ec562cb3082947d07b4943d2ff851c1ed7ca594eef386ad50ec7d220b4ad15d",
  "hash": "5ec562cb3082947d07b4943d2ff851c1ed7ca594eef386ad50ec7d220b4ad15d",
  "size": 224,
  "vsize": 224,
  "version": 1,
  "locktime": 0,
  "vin": [
    {
      "txid": "26e1bf71671b6791428a8a8b42190c225adb4d3a3960fa69929581ca9e448526",
      "vout": 0,
      "scriptSig": {
        "asm": "3045022100bfc13ca791125eb67393eb1006c5dcbaca2acfa8aea960cc24046b4d3c066e8202202f65a02684c618eae8ed4b5504b73c9a9e355f71084033b2da434b8e3ddb9cc5[ALL] 02d8dd042046ec93f1ffa0c4ac6ab155e17d04544a535195558e73baed84796192",
        "hex": "483045022100bfc13ca791125eb67393eb1006c5dcbaca2acfa8aea960cc24046b4d3c066e8202202f65a02684c618eae8ed4b5504b73c9a9e355f71084033b2da434b8e3ddb9cc5012102d8dd042046ec93f1ffa0c4ac6ab155e17d04544a535195558e73baed84796192"
      },
      "sequence": 4294967295
    }
  ],
  "vout": [
    {
      "value": 4.13875194,
      "n": 0,
      "scriptPubKey": {
        "asm": "OP_DUP OP_HASH160 eb738e0ad28c071c911fb70bc6e966ff1cbb5093 OP_EQUALVERIFY OP_CHECKSIG",
        "hex": "76a914eb738e0ad28c071c911fb70bc6e966ff1cbb509388ac",
        "reqSigs": 1,
        "type": "pubkeyhash",
        "addresses": [
          "DSc3mEKg179VRHnh5btKFWuwLkG4Ypu2hw"
        ]
      }
    },
    {
      "value": 1.00000000,
      "n": 1,
      "scriptPubKey": {
        "asm": "OP_HASH160 0852b8290c90a350ba2b25b6db06ba00ab9a5ea8 OP_EQUAL",
        "hex": "a9140852b8290c90a350ba2b25b6db06ba00ab9a5ea887",
        "reqSigs": 1,
        "type": "scripthash",
        "addresses": [
          "9sCHANGED1xCLoUDSxRoLLzzzzzzWhf3b6"
        ]
      }
    }
  ],
  "blockhash": "57b644d403601c738497c0c5e9267b60ec7633cdb20d9768471cb000b3240498",
  "confirmations": 1571058,
  "time": 1571584923,
  "blocktime": 1571584923
}
