{
  "hex": "010000000156a7abde42897c7074ad539731122cead44d6df1a8de58e5a1e0ef6c0cdef7f0010000006a47304402201aa594b46a35c01e09ccd1ab7c4fd919ba4da298177cb79c97b385f6803e82160220103a920aaa2d97da301c3be6f8a05c57a636f94ddfaca2e9dd33f9f847abf45b012103ff157861cde183f2e99e2661bb8916d22bdef16bc081f0b7d0a05f253dd2db4bfeffffff032f2d1718170100001976a914d255d43fa897a105a8a50453956a752f60ccaea188ac00e1f5050000000017a9140b29065937ebaea4424f004cdc852093f9bf76eb8700e1f5050000000017a91408e6880d12423563d352133d4e4531f90e4d225b8738122d00",
  "txid": "6652caff6384d73ff9ab390456e81957a00989f552f2e4ceccfea61217eb36c1",
  "hash": "6652caff6384d73ff9ab390456e81957a00989f552f2e4ceccfea61217eb36c1",
  "size": 255,
  "vsize": 255,
  "version": 1,
  "locktime": 2953784,
  "vin": [
    {
      "txid": "f0f7de0c6cefe0a1e558dea8f16d4dd4ea2c12319753ad74707c8942deaba756",
      "vout": 1,
      "scriptSig": {
        "asm": "304402201aa594b46a35c01e09ccd1ab7c4fd919ba4da298177cb79c97b385f6803e82160220103a920aaa2d97da301c3be6f8a05c57a636f94ddfaca2e9dd33f9f847abf45b[ALL] 03ff157861cde183f2e99e2661bb8916d22bdef16bc081f0b7d0a05f253dd2db4b",
        "hex": "47304402201aa594b46a35c01e09ccd1ab7c4fd919ba4da298177cb79c97b385f6803e82160220103a920aaa2d97da301c3be6f8a05c57a636f94ddfaca2e9dd33f9f847abf45b012103ff157861cde183f2e99e2661bb8916d22bdef16bc081f0b7d0a05f253dd2db4b"
      },
      "sequence": 4294967294
    }
  ],
  "vout": [
    {
      "value": 11987.00047663,
      "n": 0,
      "scriptPubKey": {
        "asm": "OP_DUP OP_HASH160 d255d43fa897a105a8a50453956a752f60ccaea1 OP_EQUALVERIFY OP_CHECKSIG",
        "hex": "76a914d255d43fa897a105a8a50453956a752f60ccaea188ac",
        "reqSigs": 1,
        "type": "pubkeyhash",
        "addresses": [
          "DQKFG42WYxrQv6rMsWe6r9js3cD3Ms3RoC"
        ]
      }
    },
    {
      "value": 1.00000000,
      "n": 1,
      "scriptPubKey": {
        "asm": "OP_HASH160 0b29065937ebaea4424f004cdc852093f9bf76eb OP_EQUAL",
        "hex": "a9140b29065937ebaea4424f004cdc852093f9bf76eb87",
        "reqSigs": 1,
        "type": "scripthash",
        "addresses": [
          "9sTHExDiMECASHxSERViCEzzzzzzBoUCiD"
        ]
      }
    },
    {
      "value": 1.00000000,
      "n": 2,
      "scriptPubKey": {
        "asm": "OP_HASH160 08e6880d12423563d352133d4e4531f90e4d225b OP_EQUAL",
        "hex": "a91408e6880d12423563d352133d4e4531f90e4d225b87",
        "reqSigs": 1,
        "type": "scripthash",
        "addresses": [
          "9sFLEXiBLExANDxRELiABLEzzzzz9MEn6C"
        ]
      }
    }
  ],
  "blockhash": "a3d79ba7ef958ae11f0c54801fd2ab115e7e97a88b9fd75cc323127e8a0b1ad9",
  "confirmations": 1561381,
  "time": 1572199537,
  "blocktime": 1572199537
}
