{
  "hex": "0100000001bd387af65e588fcc0e487b09cc47c59d5875947cfb6ca6861ba223c29d17bfde010000006b48304502210094f0dcf5efa0cd67ff29c35dd0ccbfc8c643d467168a24b7036d85263f21d4eb0220433f81783a093cb24a07ba2c0d6346dd2231fb9c7b6c6599ba528b324572e096012102cb331bbecb05b1e7f998b7fc6dd66318562fc816310c256642768cd8475a8587feffffff0210270000000000001976a91455b15854d3fdcbed5491c0130981fcf7e1a8997288ace0a1638c0b0000001976a914a3ec0ab83c4206a535696b807c7e7cc96e5b81d288acd4fe2b00",
  "txid": "673538cb9f3e83618623fd0b603b06bdf63c74eddaefdf942b40345db34158b9",
  "hash": "673538cb9f3e83618623fd0b603b06bdf63c74eddaefdf942b40345db34158b9",
  "size": 226,
  "vsize": 226,
  "version": 1,
  "locktime": 2883284,
  "vin": [
    {
      "txid": "debf179dc223a21b86a66cfb7c9475589dc547cc097b480ecc8f585ef67a38bd",
      "vout": 1,
      "scriptSig": {
        "asm": "304502210094f0dcf5efa0cd67ff29c35dd0ccbfc8c643d467168a24b7036d85263f21d4eb0220433f81783a093cb24a07ba2c0d6346dd2231fb9c7b6c6599ba528b324572e096[ALL] 02cb331bbecb05b1e7f998b7fc6dd66318562fc816310c256642768cd8475a8587",
        "hex": "48304502210094f0dcf5efa0cd67ff29c35dd0ccbfc8c643d467168a24b7036d85263f21d4eb0220433f81783a093cb24a07ba2c0d6346dd2231fb9c7b6c6599ba528b324572e096012102cb331bbecb05b1e7f998b7fc6dd66318562fc816310c256642768cd8475a8587"
      },
      "sequence": 4294967294
    }
  ],
  "vout": [
    {
      "value": 0.00010000,
      "n": 0,
      "scriptPubKey": {
        "asm": "OP_DUP OP_HASH160 55b15854d3fdcbed5491c0130981fcf7e1a89972 OP_EQUALVERIFY OP_CHECKSIG",
        "hex": "76a91455b15854d3fdcbed5491c0130981fcf7e1a8997288ac",
        "reqSigs": 1,
        "type": "pubkeyhash",
        "addresses": [
          "DCxCRiMExHiPCRiMExHiPCRiMEHiKKeafh"
        ]
      }
    },
    {
      "value": 495.99980000,
      "n": 1,
      "scriptPubKey": {
        "asm": "OP_DUP OP_HASH160 a3ec0ab83c4206a535696b807c7e7cc96e5b81d2 OP_EQUALVERIFY OP_CHECKSIG",
        "hex": "76a914a3ec0ab83c4206a535696b807c7e7cc96e5b81d288ac",
        "reqSigs": 1,
        "type": "pubkeyhash",
        "addresses": [
          "DL5qT1Ai8JGavkKgv9GNZJQrexfXNfB1p8"
        ]
      }
    }
  ],
  "blockhash": "a09e5b20585255aeeda01be1a08f2f06ec7ad7ac3a8c817510b8419da1649c94",
  "confirmations": 1631888,
  "time": 1567794576,
  "blocktime": 1567794576
}
