{
  "hex": "0100000001f15b1073c2345812b026bc5013433b403f37482160d1adb3a02d41cc4ab0d76b030000006a4730440220334a23370716b5c5f27f6567db1603f95002f2ab1195300a1b0c4bd03ef4f4d60220367f7274e4694a45cd693a040b1187ee8e4af0eb9c39f9d10762b6569fae9b8b0121021b0dd895922dcea242dd8831c81af66bed16080e12a57027bb634fa07133f751feffffff0d10270000000000001976a914506c67fb53964e538a93c5fec859cabe29e7f09c88ac102700000000000017a9140b2937f9a731f71cc4cce933819a28d298bada4b87102700000000000017a914095e12cc983e100c0e640d01d09880d41c977f2a871ccfadc70a0000001976a9148cb59a9b1f00d38ad10a31fc221a96459dd62a8488ac102700000000000017a914088c7d3be9f5e3e3e732b6b6cdbaf67135349de387102700000000000017a914084d0bd9a2f5bb5436814f79aece6f934f5998a987102700000000000017a9140a619f43187d2f9d49a228b952cb688e4327dd0b87102700000000000017a91409d39dbd71361128eb07141f6ff3e7f14ca2504d87102700000000000017a9140e04090a5bfc18b8e8987a4c0232d187fa6e52be87102700000000000017a914084d107bc6c5bfaa874dd41b49d51eef54d103cb87102700000000000017a9140a4ff7b7681109e62c2d979398d764306ce5ebd487102700000000000017a9140880a0f389be1aa2707f0fb239b8fd710e860c5887102700000000000017a91408e6eeafca2e656d41ecae9ce0ab83d9275601eb87a8043000",
  "txid": "6892068c11394d84ab0b73d7d0dcd0774f8b369ef09ff48b559919e20606b78e",
  "hash": "6892068c11394d84ab0b73d7d0dcd0774f8b369ef09ff48b559919e20606b78e",
  "size": 577,
  "vsize": 577,
  "version": 1,
  "locktime": 3146920,
  "vin": [
    {
      "txid": "6bd7b04acc412da0b3add1602148373f403b431350bc26b0125834c273105bf1",
      "vout": 3,
      "scriptSig": {
        "asm": "30440220334a23370716b5c5f27f6567db1603f95002f2ab1195300a1b0c4bd03ef4f4d60220367f7274e4694a45cd693a040b1187ee8e4af0eb9c39f9d10762b6569fae9b8b[ALL] 021b0dd895922dcea242dd8831c81af66bed16080e12a57027bb634fa07133f751",
        "hex": "4730440220334a23370716b5c5f27f6567db1603f95002f2ab1195300a1b0c4bd03ef4f4d60220367f7274e4694a45cd693a040b1187ee8e4af0eb9c39f9d10762b6569fae9b8b0121021b0dd895922dcea242dd8831c81af66bed16080e12a57027bb634fa07133f751"
      },
      "sequence": 4294967294
    }
  ],
  "vout": [
    {
      "value": 0.00010000,
      "n": 0,
      "scriptPubKey": {
        "asm": "OP_DUP OP_HASH160 506c67fb53964e538a93c5fec859cabe29e7f09c OP_EQUALVERIFY OP_CHECKSIG",
        "hex": "76a914506c67fb53964e538a93c5fec859cabe29e7f09c88ac",
        "reqSigs": 1,
        "type": "pubkeyhash",
        "addresses": [
          "DCULToFTHEDoLPHiNzzzzzzzzzzzbDos71"
        ]
      }
    },
    {
      "value": 0.00010000,
      "n": 1,
      "scriptPubKey": {
        "asm": "OP_HASH160 0b2937f9a731f71cc4cce933819a28d298bada4b OP_EQUAL",
        "hex": "a9140b2937f9a731f71cc4cce933819a28d298bada4b87",
        "reqSigs": 1,
        "type": "scripthash",
        "addresses": [
          "9sTHURSDAYxEVENiNGxTAixCHizzagwXDg"
        ]
      }
    },
    {
      "value": 0.00010000,
      "n": 2,
      "scriptPubKey": {
        "asm": "OP_HASH160 095e12cc983e100c0e640d01d09880d41c977f2a OP_EQUAL",
        "hex": "a914095e12cc983e100c0e640d01d09880d41c977f2a87",
        "reqSigs": 1,
        "type": "scripthash",
        "addresses": [
          "9sHoSTEDxBYxSKiPPYzzzzzzzzzzbADdyS"
        ]
      }
    },
    {
      "value": 462.99729692,
      "n": 3,
      "scriptPubKey": {
        "asm": "OP_DUP OP_HASH160 8cb59a9b1f00d38ad10a31fc221a96459dd62a84 OP_EQUALVERIFY OP_CHECKSIG",
        "hex": "76a9148cb59a9b1f00d38ad10a31fc221a96459dd62a8488ac",
        "reqSigs": 1,
        "type": "pubkeyhash",
        "addresses": [
          "DHy6hBDSARXnrGTrgU1fjemBi9AiAuxr5g"
        ]
      }
    },
    {
      "value": 0.00010000,
      "n": 4,
      "scriptPubKey": {
        "asm": "OP_HASH160 088c7d3be9f5e3e3e732b6b6cdbaf67135349de3 OP_EQUAL",
        "hex": "a914088c7d3be9f5e3e3e732b6b6cdbaf67135349de387",
        "reqSigs": 1,
        "type": "scripthash",
        "addresses": [
          "9sDUNHUMyGooDExHASxBEENzzzzzW9SHkA"
        ]
      }
    },
    {
      "value": 0.00010000,
      "n": 5,
      "scriptPubKey": {
        "asm": "OP_HASH160 084d0bd9a2f5bb5436814f79aece6f934f5998a9 OP_EQUAL",
        "hex": "a914084d0bd9a2f5bb5436814f79aece6f934f5998a987",
        "reqSigs": 1,
        "type": "scripthash",
        "addresses": [
          "9sCANCELLEDxDUExToxGLoBALzzzTU9Gt6"
        ]
      }
    },
    {
      "value": 0.00010000,
      "n": 6,
      "scriptPubKey": {
        "asm": "OP_HASH160 0a619f43187d2f9d49a228b952cb688e4327dd0b OP_EQUAL",
        "hex": "a9140a619f43187d2f9d49a228b952cb688e4327dd0b87",
        "reqSigs": 1,
        "type": "scripthash",
        "addresses": [
          "9sPANDEMiChxSTACEYvxYoUxALSoWoP1JJ"
        ]
      }
    },
    {
      "value": 0.00010000,
      "n": 7,
      "scriptPubKey": {
        "asm": "OP_HASH160 09d39dbd71361128eb07141f6ff3e7f14ca2504d OP_EQUAL",
        "hex": "a91409d39dbd71361128eb07141f6ff3e7f14ca2504d87",
        "reqSigs": 1,
        "type": "scripthash",
        "addresses": [
          "9sLEFTxYoURxWALKiNGxSTiCKzzzXukQ8d"
        ]
      }
    },
    {
      "value": 0.00010000,
      "n": 8,
      "scriptPubKey": {
        "asm": "OP_HASH160 0e04090a5bfc18b8e8987a4c0232d187fa6e52be OP_EQUAL",
        "hex": "a9140e04090a5bfc18b8e8987a4c0232d187fa6e52be87",
        "reqSigs": 1,
        "type": "scripthash",
        "addresses": [
          "9siNxTHExNARTHEXzzzzzzzzzzzzbQNei2"
        ]
      }
    },
    {
      "value": 0.00010000,
      "n": 9,
      "scriptPubKey": {
        "asm": "OP_HASH160 084d107bc6c5bfaa874dd41b49d51eef54d103cb OP_EQUAL",
        "hex": "a914084d107bc6c5bfaa874dd41b49d51eef54d103cb87",
        "reqSigs": 1,
        "type": "scripthash",
        "addresses": [
          "9sCAPTAiNxEMERALDxPhzzzzzzzzXYj3ee"
        ]
      }
    },
    {
      "value": 0.00010000,
      "n": 10,
      "scriptPubKey": {
        "asm": "OP_HASH160 0a4ff7b7681109e62c2d979398d764306ce5ebd4 OP_EQUAL",
        "hex": "a9140a4ff7b7681109e62c2d979398d764306ce5ebd487",
        "reqSigs": 1,
        "type": "scripthash",
        "addresses": [
          "9sNoDZGooDvxCULTzzzzzzzzzzzzYP34WM"
        ]
      }
    },
    {
      "value": 0.00010000,
      "n": 11,
      "scriptPubKey": {
        "asm": "OP_HASH160 0880a0f389be1aa2707f0fb239b8fd710e860c58 OP_EQUAL",
        "hex": "a9140880a0f389be1aa2707f0fb239b8fd710e860c5887",
        "reqSigs": 1,
        "type": "scripthash",
        "addresses": [
          "9sDEACoNzzzzzzzzzzzzzzzzzzzzTYy7Cw"
        ]
      }
    },
    {
      "value": 0.00010000,
      "n": 12,
      "scriptPubKey": {
        "asm": "OP_HASH160 08e6eeafca2e656d41ecae9ce0ab83d9275601eb OP_EQUAL",
        "hex": "a91408e6eeafca2e656d41ecae9ce0ab83d9275601eb87",
        "reqSigs": 1,
        "type": "scripthash",
        "addresses": [
          "9sFLiPPERxHoxEEKxEEKzzzzzzzzc47EFn"
        ]
      }
    }
  ],
  "blockhash": "ff74fbfb56fc27b8b8cd32948c6d8ec714aa5d34f8f47d028b6a32f9f485b9cd",
  "confirmations": 646813,
  "time": 1584314758,
  "blocktime": 1584314758
}
