{
  "hex": "0100000001ef4d5ae875d63e2642cdd2672f372c7f595b8e016d4fca521c1828d3275facb8000000006b483045022100870e5124671e2701925e70818d7a9e157c6c4a65c7096b5c22bc83b49aed5c71022028de65b0c054540338407e4c7091f99c31c5347bd66c5636d9ffaf3d16c3522e012102f5a11f7f857cf6717dca422f9c8311b264b0596e6e0f85f359e5e3ca0d37a8e1ffffffff027b61ec3c000000001976a914e4bda036bf12d03adee4f3d7c70eeb76b996686688ac5efcf505000000001976a91455b225aebdbc98e3c4bc57fbc4290f925da2c35088ac00000000",
  "txid": "69a78531438f30d70f9d71cefc0205b3d30564d6b96c0cf20fb5d8ce6c50cfb8",
  "hash": "69a78531438f30d70f9d71cefc0205b3d30564d6b96c0cf20fb5d8ce6c50cfb8",
  "size": 226,
  "vsize": 226,
  "version": 1,
  "locktime": 0,
  "vin": [
    {
      "txid": "b8ac5f27d328181c52ca4f6d018e5b597f2c372f67d2cd42263ed675e85a4def",
      "vout": 0,
      "scriptSig": {
        "asm": "3045022100870e5124671e2701925e70818d7a9e157c6c4a65c7096b5c22bc83b49aed5c71022028de65b0c054540338407e4c7091f99c31c5347bd66c5636d9ffaf3d16c3522e[ALL] 02f5a11f7f857cf6717dca422f9c8311b264b0596e6e0f85f359e5e3ca0d37a8e1",
        "hex": "483045022100870e5124671e2701925e70818d7a9e157c6c4a65c7096b5c22bc83b49aed5c71022028de65b0c054540338407e4c7091f99c31c5347bd66c5636d9ffaf3d16c3522e012102f5a11f7f857cf6717dca422f9c8311b264b0596e6e0f85f359e5e3ca0d37a8e1"
      },
      "sequence": 4294967295
    }
  ],
  "vout": [
    {
      "value": 10.22124411,
      "n": 0,
      "scriptPubKey": {
        "asm": "OP_DUP OP_HASH160 e4bda036bf12d03adee4f3d7c70eeb76b9966866 OP_EQUALVERIFY OP_CHECKSIG",
        "hex": "76a914e4bda036bf12d03adee4f3d7c70eeb76b996686688ac",
        "reqSigs": 1,
        "type": "pubkeyhash",
        "addresses": [
          "DRzZmRt6E55k7gYgoxrxxTMWC1u5npU25k"
        ]
      }
    },
    {
      "value": 1.00007006,
      "n": 1,
      "scriptPubKey": {
        "asm": "OP_DUP OP_HASH160 55b225aebdbc98e3c4bc57fbc4290f925da2c350 OP_EQUALVERIFY OP_CHECKSIG",
        "hex": "76a91455b225aebdbc98e3c4bc57fbc4290f925da2c35088ac",
        "reqSigs": 1,
        "type": "pubkeyhash",
        "addresses": [
          "DCxDPSxNoWxSERViNGxCzzzzzzzzYtfdq3"
        ]
      }
    }
  ],
  "blockhash": "83ae5c9a13357b97c3256f621fd0052d7ccb2b3b0bcc42585b375a32882529fc",
  "confirmations": 1584954,
  "time": 1570719349,
  "blocktime": 1570719349
}
