{
  "hex": "01000000017c48da5e43dc74e5105257e5887f7b4d534f4f57ef92a7cb09bfcfcab8f4b528010000006a4730440220117ef0a8cfe8a4bbe004cdd271fa630551002e3e67a26f5a1d064b8ea42f0c810220745253dbe509b738c00d0ac0c147a8d34b23471f61c1ce290996f2d590326e6f012103dda77ebd3f9e82a80dcfb12dd3e806e84c7d856bcba731a59272cfc17d228028feffffff0410270000000000001976a91455bdb443956b106dba39e6e55c7f32bfb940454788ac102700000000000017a9140b26afacd732059d1894f837af2901d121672d4b87102700000000000017a9141c20e788ace8305eed507f8422ba49d6eca24bff87208d6983010000001976a914e32810d550c46ea840d24e70662eff1fec4c95b188acfac63000",
  "txid": "6a570113c9d0be86df2d4c48b5f6bf534c47eb76ff4e3b6a8c9ba7efb006b339",
  "hash": "6a570113c9d0be86df2d4c48b5f6bf534c47eb76ff4e3b6a8c9ba7efb006b339",
  "size": 289,
  "vsize": 289,
  "version": 1,
  "locktime": 3196666,
  "vin": [
    {
      "txid": "28b5f4b8cacfbf09cba792ef574f4f534d7b7f88e5575210e574dc435eda487c",
      "vout": 1,
      "scriptSig": {
        "asm": "30440220117ef0a8cfe8a4bbe004cdd271fa630551002e3e67a26f5a1d064b8ea42f0c810220745253dbe509b738c00d0ac0c147a8d34b23471f61c1ce290996f2d590326e6f[ALL] 03dda77ebd3f9e82a80dcfb12dd3e806e84c7d856bcba731a59272cfc17d228028",
        "hex": "4730440220117ef0a8cfe8a4bbe004cdd271fa630551002e3e67a26f5a1d064b8ea42f0c810220745253dbe509b738c00d0ac0c147a8d34b23471f61c1ce290996f2d590326e6f012103dda77ebd3f9e82a80dcfb12dd3e806e84c7d856bcba731a59272cfc17d228028"
      },
      "sequence": 4294967294
    }
  ],
  "vout": [
    {
      "value": 0.00010000,
      "n": 0,
      "scriptPubKey": {
        "asm": "OP_DUP OP_HASH160 55bdb443956b106dba39e6e55c7f32bfb9404547 OP_EQUALVERIFY OP_CHECKSIG",
        "hex": "76a91455bdb443956b106dba39e6e55c7f32bfb940454788ac",
        "reqSigs": 1,
        "type": "pubkeyhash",
        "addresses": [
          "DCxTESTzzzzzzzzzzzzzzzzzzzzzT7Ki8Y"
        ]
      }
    },
    {
      "value": 0.00010000,
      "n": 1,
      "scriptPubKey": {
        "asm": "OP_HASH160 0b26afacd732059d1894f837af2901d121672d4b OP_EQUAL",
        "hex": "a9140b26afacd732059d1894f837af2901d121672d4b87",
        "reqSigs": 1,
        "type": "scripthash",
        "addresses": [
          "9sTESTzzzzzzzzzzzzzzzzzzzzzzbDzixa"
        ]
      }
    },
    {
      "value": 0.00010000,
      "n": 2,
      "scriptPubKey": {
        "asm": "OP_HASH160 1c20e788ace8305eed507f8422ba49d6eca24bff OP_EQUAL",
        "hex": "a9141c20e788ace8305eed507f8422ba49d6eca24bff87",
        "reqSigs": 1,
        "type": "scripthash",
        "addresses": [
          "9tzzzzzzzzzzzzzzzzzzzzzzzzzzTg7t3J"
        ]
      }
    },
    {
      "value": 64.99700000,
      "n": 3,
      "scriptPubKey": {
        "asm": "OP_DUP OP_HASH160 e32810d550c46ea840d24e70662eff1fec4c95b1 OP_EQUALVERIFY OP_CHECKSIG",
        "hex": "76a914e32810d550c46ea840d24e70662eff1fec4c95b188ac",
        "reqSigs": 1,
        "type": "pubkeyhash",
        "addresses": [
          "DRrBvczeWQodfcx3Dhp13RrYoXygzdTmz1"
        ]
      }
    }
  ],
  "blockhash": "aad661e0cc2c4facc559af9803cbd31d40c936492a62135a6107e074f9f7555d",
  "confirmations": 1318377,
  "time": 1587447147,
  "blocktime": 1587447147
}
