{
  "hex": "010000000142cdb1f85023642cf701338b4a466f81a8db3c3d5d86d9fe3860ce785083a1e1000000006a47304402202235fbdabbb8a275254aad0627555c80ab7ec6368450c6aec24dc33d42f2cbca02202458e8084cba72d15a1acf7b87edd10325e429d022c3f208462f0a9c1f8fdb2e0121025449cc231dfa3390217a9997e4fd5005cdd571ad45f5dd5d89a19fffa0b355e1feffffff0c10270000000000001976a91455b1a85682383fdf9d98edc45bfa750ede831cf488ac102700000000000017a9140b29065bf0869658f2f882207184075e16cc2c5787102700000000000017a9140880a8c9b62ca7d33a5245ae52171477a3f29af687dc102c150b0000001976a914d5b2977c7c33d124d03d76952561209fb83feaf388ac102700000000000017a91408b7f27b7a093e9dc2cbec7621d50b25211a36c687102700000000000017a91408fd3bffb3d7b61c733ae822c79725046e77adb887102700000000000017a91409aa56e4ece70de24c1e19afb6814aa3e263ae9087102700000000000017a9140b9ee51c8d9d387c4f281bffa3ebc116ffba2f1487102700000000000017a91408fd3bfe2a841db727211ff9964856135cc36a2787102700000000000017a914082f7bedcdc4a6135b2356add5ed1ae5502ad94987102700000000000017a9140bb85ca94152537545b1e42ca2f9a66849c1398287102700000000000017a9140b4216015f95950f6a6ba3f7ecc27b612e09c7108795043000",
  "txid": "6bd7b04acc412da0b3add1602148373f403b431350bc26b0125834c273105bf1",
  "hash": "6bd7b04acc412da0b3add1602148373f403b431350bc26b0125834c273105bf1",
  "size": 545,
  "vsize": 545,
  "version": 1,
  "locktime": 3146901,
  "vin": [
    {
      "txid": "e1a1835078ce6038fed9865d3d3cdba8816f464a8b3301f72c642350f8b1cd42",
      "vout": 0,
      "scriptSig": {
        "asm": "304402202235fbdabbb8a275254aad0627555c80ab7ec6368450c6aec24dc33d42f2cbca02202458e8084cba72d15a1acf7b87edd10325e429d022c3f208462f0a9c1f8fdb2e[ALL] 025449cc231dfa3390217a9997e4fd5005cdd571ad45f5dd5d89a19fffa0b355e1",
        "hex": "47304402202235fbdabbb8a275254aad0627555c80ab7ec6368450c6aec24dc33d42f2cbca02202458e8084cba72d15a1acf7b87edd10325e429d022c3f208462f0a9c1f8fdb2e0121025449cc231dfa3390217a9997e4fd5005cdd571ad45f5dd5d89a19fffa0b355e1"
      },
      "sequence": 4294967294
    }
  ],
  "vout": [
    {
      "value": 0.00010000,
      "n": 0,
      "scriptPubKey": {
        "asm": "OP_DUP OP_HASH160 55b1a85682383fdf9d98edc45bfa750ede831cf4 OP_EQUALVERIFY OP_CHECKSIG",
        "hex": "76a91455b1a85682383fdf9d98edc45bfa750ede831cf488ac",
        "reqSigs": 1,
        "type": "pubkeyhash",
        "addresses": [
          "DCxCoRoNAViRUSxTiPSzzzzzzzzzZS7AUa"
        ]
      }
    },
    {
      "value": 0.00010000,
      "n": 1,
      "scriptPubKey": {
        "asm": "OP_HASH160 0b29065bf0869658f2f882207184075e16cc2c57 OP_EQUAL",
        "hex": "a9140b29065bf0869658f2f882207184075e16cc2c5787",
        "reqSigs": 1,
        "type": "scripthash",
        "addresses": [
          "9sTHExPRESiDENTxWiLLxSURELYzY5kXkS"
        ]
      }
    },
    {
      "value": 0.00010000,
      "n": 2,
      "scriptPubKey": {
        "asm": "OP_HASH160 0880a8c9b62ca7d33a5245ae52171477a3f29af6 OP_EQUAL",
        "hex": "a9140880a8c9b62ca7d33a5245ae52171477a3f29af687",
        "reqSigs": 1,
        "type": "scripthash",
        "addresses": [
          "9sDECLARExAxSPECiALzzzzzzzzzVaRyGt"
        ]
      }
    },
    {
      "value": 475.99849692,
      "n": 3,
      "scriptPubKey": {
        "asm": "OP_DUP OP_HASH160 d5b2977c7c33d124d03d76952561209fb83feaf3 OP_EQUALVERIFY OP_CHECKSIG",
        "hex": "76a914d5b2977c7c33d124d03d76952561209fb83feaf388ac",
        "reqSigs": 1,
        "type": "pubkeyhash",
        "addresses": [
          "DQd2QtapQnT32KDQa8BPSsZc3wyz1WraXY"
        ]
      }
    },
    {
      "value": 0.00010000,
      "n": 4,
      "scriptPubKey": {
        "asm": "OP_HASH160 08b7f27b7a093e9dc2cbec7621d50b25211a36c6 OP_EQUAL",
        "hex": "a91408b7f27b7a093e9dc2cbec7621d50b25211a36c687",
        "reqSigs": 1,
        "type": "scripthash",
        "addresses": [
          "9sENRoLLMENTxPERioDzzzzzzzzzUhiu8X"
        ]
      }
    },
    {
      "value": 0.00010000,
      "n": 5,
      "scriptPubKey": {
        "asm": "OP_HASH160 08fd3bffb3d7b61c733ae822c79725046e77adb8 OP_EQUAL",
        "hex": "a91408fd3bffb3d7b61c733ae822c79725046e77adb887",
        "reqSigs": 1,
        "type": "scripthash",
        "addresses": [
          "9sFoRxTHExACAxALSozzzzzzzzzza67Qih"
        ]
      }
    },
    {
      "value": 0.00010000,
      "n": 6,
      "scriptPubKey": {
        "asm": "OP_HASH160 09aa56e4ece70de24c1e19afb6814aa3e263ae90 OP_EQUAL",
        "hex": "a91409aa56e4ece70de24c1e19afb6814aa3e263ae9087",
        "reqSigs": 1,
        "type": "scripthash",
        "addresses": [
          "9sKNoWNxASxoBAMACAREzzzzzzzzXe14VV"
        ]
      }
    },
    {
      "value": 0.00010000,
      "n": 7,
      "scriptPubKey": {
        "asm": "OP_HASH160 0b9ee51c8d9d387c4f281bffa3ebc116ffba2f14 OP_EQUAL",
        "hex": "a9140b9ee51c8d9d387c4f281bffa3ebc116ffba2f1487",
        "reqSigs": 1,
        "type": "scripthash",
        "addresses": [
          "9sViSiTxHEALTHCAREhGoVzzzzzzY1G4R2"
        ]
      }
    },
    {
      "value": 0.00010000,
      "n": 8,
      "scriptPubKey": {
        "asm": "OP_HASH160 08fd3bfe2a841db727211ff9964856135cc36a27 OP_EQUAL",
        "hex": "a91408fd3bfe2a841db727211ff9964856135cc36a2787",
        "reqSigs": 1,
        "type": "scripthash",
        "addresses": [
          "9sFoRxMoRExiNFoRMATioNzzzzzzYyuzd5"
        ]
      }
    },
    {
      "value": 0.00010000,
      "n": 9,
      "scriptPubKey": {
        "asm": "OP_HASH160 082f7bedcdc4a6135b2356add5ed1ae5502ad949 OP_EQUAL",
        "hex": "a914082f7bedcdc4a6135b2356add5ed1ae5502ad94987",
        "reqSigs": 1,
        "type": "scripthash",
        "addresses": [
          "9sBYxBEiNGxPRoACTiVEzzzzzzzzYMVYjH"
        ]
      }
    },
    {
      "value": 0.00010000,
      "n": 10,
      "scriptPubKey": {
        "asm": "OP_HASH160 0bb85ca94152537545b1e42ca2f9a66849c13982 OP_EQUAL",
        "hex": "a9140bb85ca94152537545b1e42ca2f9a66849c1398287",
        "reqSigs": 1,
        "type": "scripthash",
        "addresses": [
          "9sWExCANxBEATxTHiSxTHiNGzzzzUYtydo"
        ]
      }
    },
    {
      "value": 0.00010000,
      "n": 11,
      "scriptPubKey": {
        "asm": "OP_HASH160 0b4216015f95950f6a6ba3f7ecc27b612e09c710 OP_EQUAL",
        "hex": "a9140b4216015f95950f6a6ba3f7ecc27b612e09c71087",
        "reqSigs": 1,
        "type": "scripthash",
        "addresses": [
          "9sToGETHERzzzzzzzzzzzzzzzzzzYuSn5s"
        ]
      }
    }
  ],
  "blockhash": "0eed0ca7f54c74dd0ff1ae9dc107708689c52e33965022b4a3092523dd36d149",
  "confirmations": 1368173,
  "time": 1584313474,
  "blocktime": 1584313474
}
