{
  "hex": "01000000012ddf814ab776259cc047815c764375ab4b3a3539742f0b15fb212ba0f22fb29d050000006b483045022100d34f67e31cf33decb9bb39177f31b6d70e0e056b30b43136ecf002ab83332e480220009a3a51984a53a718bba8c785e2ba48718b7c601a8801a83cded35810545760012103af9d185ec432fb4582cbb89ef7479d4a148ae9f73174664c009cf8816547d6a4feffffff1010270000000000001976a91455b203790af4657441aef624f395adfe4ec928f888ac10270000000000001976a91455b55ae503e2930561515924023303d171641d1c88ac10270000000000001976a91455cad37559f4adb27446d3440bce7348f23780a388ac10270000000000001976a91455bdbe4b72f0b04bb7d6efb35c329009ef5a4fad88ac10270000000000001976a91455cad4c1c127a44ad68b820fe2233e92d49fb82388ac10270000000000001976a91455ba9017e0f7de52553640fce1cfb3bec9caed3688ac10270000000000001976a91455b58b3d700cfd3bb16cee77d5417b2ec111a98788ac10270000000000001976a91455bdbe9610e4d2cc7f2207ac9ea1921644f6bd9288ac10270000000000001976a91455bbf951e16ec8a77e09c9c8c9d626306235452488ac10270000000000001976a91455ba5eccfe6f886502d02891a136d314c16c359788ac10270000000000001976a91455bd57d218e4e8e824926382579a7fd7a653f30f88ac10270000000000001976a91455bdc05525609b475340f939dd6f44f675607d2f88ac182bdcd1050000001976a914b143a3391128670dd3d3c7e603eefae1399e8f7388ac10270000000000001976a91455afb184d86f8d90d19b04c446e58fd58655a09588ac10270000000000001976a91455b76dd7a2b32c882e7a3a7c05720e08df04c8b288ac10270000000000001976a91455c25a773fc95ac8c5c0ab0586b71703b370fb6288acbb5b2e00",
  "txid": "6d5ba90f87440f3d369518bb2b52045ac3fbd7639da2ae94ab5e31af806b2d68",
  "hash": "6d5ba90f87440f3d369518bb2b52045ac3fbd7639da2ae94ab5e31af806b2d68",
  "size": 702,
  "vsize": 702,
  "version": 1,
  "locktime": 3038139,
  "vin": [
    {
      "txid": "9db22ff2a02b21fb150b2f7439353a4bab7543765c8147c09c2576b74a81df2d",
      "vout": 5,
      "scriptSig": {
        "asm": "3045022100d34f67e31cf33decb9bb39177f31b6d70e0e056b30b43136ecf002ab83332e480220009a3a51984a53a718bba8c785e2ba48718b7c601a8801a83cded35810545760[ALL] 03af9d185ec432fb4582cbb89ef7479d4a148ae9f73174664c009cf8816547d6a4",
        "hex": "483045022100d34f67e31cf33decb9bb39177f31b6d70e0e056b30b43136ecf002ab83332e480220009a3a51984a53a718bba8c785e2ba48718b7c601a8801a83cded35810545760012103af9d185ec432fb4582cbb89ef7479d4a148ae9f73174664c009cf8816547d6a4"
      },
      "sequence": 4294967294
    }
  ],
  "vout": [
    {
      "value": 0.00010000,
      "n": 0,
      "scriptPubKey": {
        "asm": "OP_DUP OP_HASH160 55b203790af4657441aef624f395adfe4ec928f8 OP_EQUALVERIFY OP_CHECKSIG",
        "hex": "76a91455b203790af4657441aef624f395adfe4ec928f888ac",
        "reqSigs": 1,
        "type": "pubkeyhash",
        "addresses": [
          "DCxDEARxNSULAzzzzzzzzzzzzzzzUoDUpA"
        ]
      }
    },
    {
      "value": 0.00010000,
      "n": 1,
      "scriptPubKey": {
        "asm": "OP_DUP OP_HASH160 55b55ae503e2930561515924023303d171641d1c OP_EQUALVERIFY OP_CHECKSIG",
        "hex": "76a91455b55ae503e2930561515924023303d171641d1c88ac",
        "reqSigs": 1,
        "type": "pubkeyhash",
        "addresses": [
          "DCxHELLovxHoWxARExYoUkzzzzzzRc7Dgf"
        ]
      }
    },
    {
      "value": 0.00010000,
      "n": 2,
      "scriptPubKey": {
        "asm": "OP_DUP OP_HASH160 55cad37559f4adb27446d3440bce7348f23780a3 OP_EQUALVERIFY OP_CHECKSIG",
        "hex": "76a91455cad37559f4adb27446d3440bce7348f23780a388ac",
        "reqSigs": 1,
        "type": "pubkeyhash",
        "addresses": [
          "DCxixAMxDoiNGxWELLhzzzzzzzzzU7w1d6"
        ]
      }
    },
    {
      "value": 0.00010000,
      "n": 3,
      "scriptPubKey": {
        "asm": "OP_DUP OP_HASH160 55bdbe4b72f0b04bb7d6efb35c329009ef5a4fad OP_EQUALVERIFY OP_CHECKSIG",
        "hex": "76a91455bdbe4b72f0b04bb7d6efb35c329009ef5a4fad88ac",
        "reqSigs": 1,
        "type": "pubkeyhash",
        "addresses": [
          "DCxTHANKSxFoRxASKiNGhzzzzzzzWu5KQh"
        ]
      }
    },
    {
      "value": 0.00010000,
      "n": 4,
      "scriptPubKey": {
        "asm": "OP_DUP OP_HASH160 55cad4c1c127a44ad68b820fe2233e92d49fb823 OP_EQUALVERIFY OP_CHECKSIG",
        "hex": "76a91455cad4c1c127a44ad68b820fe2233e92d49fb82388ac",
        "reqSigs": 1,
        "type": "pubkeyhash",
        "addresses": [
          "DCxixWoULDxLiKExFoRxYoUxTozzWq5WCs"
        ]
      }
    },
    {
      "value": 0.00010000,
      "n": 5,
      "scriptPubKey": {
        "asm": "OP_DUP OP_HASH160 55ba9017e0f7de52553640fce1cfb3bec9caed36 OP_EQUALVERIFY OP_CHECKSIG",
        "hex": "76a91455ba9017e0f7de52553640fce1cfb3bec9caed3688ac",
        "reqSigs": 1,
        "type": "pubkeyhash",
        "addresses": [
          "DCxPUBLiSHxANxARTiCLExABoUTzVzGB1i"
        ]
      }
    },
    {
      "value": 0.00010000,
      "n": 6,
      "scriptPubKey": {
        "asm": "OP_DUP OP_HASH160 55b58b3d700cfd3bb16cee77d5417b2ec111a987 OP_EQUALVERIFY OP_CHECKSIG",
        "hex": "76a91455b58b3d700cfd3bb16cee77d5417b2ec111a98788ac",
        "reqSigs": 1,
        "type": "pubkeyhash",
        "addresses": [
          "DCxHTTPSwffDiMEhCASHzzzzzzzzYqAXa2"
        ]
      }
    },
    {
      "value": 0.00010000,
      "n": 7,
      "scriptPubKey": {
        "asm": "OP_DUP OP_HASH160 55bdbe9610e4d2cc7f2207ac9ea1921644f6bd92 OP_EQUALVERIFY OP_CHECKSIG",
        "hex": "76a91455bdbe9610e4d2cc7f2207ac9ea1921644f6bd9288ac",
        "reqSigs": 1,
        "type": "pubkeyhash",
        "addresses": [
          "DCxTHExSYSTEMxPRESENTSxAzzzzWvbSP9"
        ]
      }
    },
    {
      "value": 0.00010000,
      "n": 8,
      "scriptPubKey": {
        "asm": "OP_DUP OP_HASH160 55bbf951e16ec8a77e09c9c8c9d6263062354524 OP_EQUALVERIFY OP_CHECKSIG",
        "hex": "76a91455bbf951e16ec8a77e09c9c8c9d626306235452488ac",
        "reqSigs": 1,
        "type": "pubkeyhash",
        "addresses": [
          "DCxRADiCALLYxNEWxWAYxFoRzzzzYrtt3y"
        ]
      }
    },
    {
      "value": 0.00010000,
      "n": 9,
      "scriptPubKey": {
        "asm": "OP_DUP OP_HASH160 55ba5eccfe6f886502d02891a136d314c16c3597 OP_EQUALVERIFY OP_CHECKSIG",
        "hex": "76a91455ba5eccfe6f886502d02891a136d314c16c359788ac",
        "reqSigs": 1,
        "type": "pubkeyhash",
        "addresses": [
          "DCxPEoPLExToxUSExCRYPTohzzzzUBScy7"
        ]
      }
    },
    {
      "value": 0.00010000,
      "n": 10,
      "scriptPubKey": {
        "asm": "OP_DUP OP_HASH160 55bd57d218e4e8e824926382579a7fd7a653f30f OP_EQUALVERIFY OP_CHECKSIG",
        "hex": "76a91455bd57d218e4e8e824926382579a7fd7a653f30f88ac",
        "reqSigs": 1,
        "type": "pubkeyhash",
        "addresses": [
          "DCxSoMEoNExNEEDSxToxBREAKzzzXue5ur"
        ]
      }
    },
    {
      "value": 0.00010000,
      "n": 11,
      "scriptPubKey": {
        "asm": "OP_DUP OP_HASH160 55bdc05525609b475340f939dd6f44f675607d2f OP_EQUALVERIFY OP_CHECKSIG",
        "hex": "76a91455bdc05525609b475340f939dd6f44f675607d2f88ac",
        "reqSigs": 1,
        "type": "pubkeyhash",
        "addresses": [
          "DCxTHiSxSToRYvxANDxiTxMiGHTzaKLnAj"
        ]
      }
    },
    {
      "value": 249.95703576,
      "n": 12,
      "scriptPubKey": {
        "asm": "OP_DUP OP_HASH160 b143a3391128670dd3d3c7e603eefae1399e8f73 OP_EQUALVERIFY OP_CHECKSIG",
        "hex": "76a914b143a3391128670dd3d3c7e603eefae1399e8f7388ac",
        "reqSigs": 1,
        "type": "pubkeyhash",
        "addresses": [
          "DMJPAkiVyausbhomCGcYnqr7JAsTW3S69j"
        ]
      }
    },
    {
      "value": 0.00010000,
      "n": 13,
      "scriptPubKey": {
        "asm": "OP_DUP OP_HASH160 55afb184d86f8d90d19b04c446e58fd58655a095 OP_EQUALVERIFY OP_CHECKSIG",
        "hex": "76a91455afb184d86f8d90d19b04c446e58fd58655a09588ac",
        "reqSigs": 1,
        "type": "pubkeyhash",
        "addresses": [
          "DCxASxWELLxBExYoUhxHUGSxANDzRLuY2d"
        ]
      }
    },
    {
      "value": 0.00010000,
      "n": 14,
      "scriptPubKey": {
        "asm": "OP_DUP OP_HASH160 55b76dd7a2b32c882e7a3a7c05720e08df04c8b2 OP_EQUALVERIFY OP_CHECKSIG",
        "hex": "76a91455b76dd7a2b32c882e7a3a7c05720e08df04c8b288ac",
        "reqSigs": 1,
        "type": "pubkeyhash",
        "addresses": [
          "DCxKiSSESvxFoREVERxYoURxFANzWqVcQb"
        ]
      }
    },
    {
      "value": 0.00010000,
      "n": 15,
      "scriptPubKey": {
        "asm": "OP_DUP OP_HASH160 55c25a773fc95ac8c5c0ab0586b71703b370fb62 OP_EQUALVERIFY OP_CHECKSIG",
        "hex": "76a91455c25a773fc95ac8c5c0ab0586b71703b370fb6288ac",
        "reqSigs": 1,
        "type": "pubkeyhash",
        "addresses": [
          "DCxYoURxWAYWARDxSoNzzzzzzzzzbWw6ew"
        ]
      }
    }
  ],
  "blockhash": "e2d052f05e4fce5deba2f5b82cac3be3f2037326f8e8b38960d15dcaa5db059d",
  "confirmations": 1477000,
  "time": 1577482670,
  "blocktime": 1577482670
}
