{
  "hex": "0100000001a044f722bf6a0704863064a35a719171487b80a201e292ab847ebc1d6629a1f8040000006b483045022100cfb67b906da7824837efbc3461f54c4c54c805a6978df3a55e09991a4415a96b02200a017f466813fab203a7e4767a08fdcd103d3f35abdaeddc64106bd1d7151ef00121032fdc0afa56bc582677a8e55c08cfd17af02856efe21e1ea49a0366b936da0531feffffff0610270000000000001976a91455c0373e9e7f39d4f7b665090b17f35c38f81e0088ac102700000000000017a91407f61ce81a0450975c7ca084d1efd9c522fb912587f06f4ffa000000001976a914fa21c9163d6e76d2a106aa50a7b733ae88e22a8588ac102700000000000017a91416b07cc0435d0f34691f7ffaa1d779826fec36cb87102700000000000017a91419f2cd936841c96e60085f0b60df655390b0197587102700000000000017a914082bcf9ac06ea962ba2fc8fa97d50178baec9937877ede3000",
  "txid": "71f353b45b0aa1ddf22f1b643c0c4c71bd512e49fdb3891282804e60bfd9d9c9",
  "hash": "71f353b45b0aa1ddf22f1b643c0c4c71bd512e49fdb3891282804e60bfd9d9c9",
  "size": 354,
  "vsize": 354,
  "version": 1,
  "locktime": 3202686,
  "vin": [
    {
      "txid": "f8a129661dbc7e84ab92e201a2807b487191715aa364308604076abf22f744a0",
      "vout": 4,
      "scriptSig": {
        "asm": "3045022100cfb67b906da7824837efbc3461f54c4c54c805a6978df3a55e09991a4415a96b02200a017f466813fab203a7e4767a08fdcd103d3f35abdaeddc64106bd1d7151ef0[ALL] 032fdc0afa56bc582677a8e55c08cfd17af02856efe21e1ea49a0366b936da0531",
        "hex": "483045022100cfb67b906da7824837efbc3461f54c4c54c805a6978df3a55e09991a4415a96b02200a017f466813fab203a7e4767a08fdcd103d3f35abdaeddc64106bd1d7151ef00121032fdc0afa56bc582677a8e55c08cfd17af02856efe21e1ea49a0366b936da0531"
      },
      "sequence": 4294967294
    }
  ],
  "vout": [
    {
      "value": 0.00010000,
      "n": 0,
      "scriptPubKey": {
        "asm": "OP_DUP OP_HASH160 55c0373e9e7f39d4f7b665090b17f35c38f81e00 OP_EQUALVERIFY OP_CHECKSIG",
        "hex": "76a91455c0373e9e7f39d4f7b665090b17f35c38f81e0088ac",
        "reqSigs": 1,
        "type": "pubkeyhash",
        "addresses": [
          "DCxWExARExTHExRoCKSTARSzzzzzWd8h7p"
        ]
      }
    },
    {
      "value": 0.00010000,
      "n": 1,
      "scriptPubKey": {
        "asm": "OP_HASH160 07f61ce81a0450975c7ca084d1efd9c522fb9125 OP_EQUAL",
        "hex": "a91407f61ce81a0450975c7ca084d1efd9c522fb912587",
        "reqSigs": 1,
        "type": "scripthash",
        "addresses": [
          "9sANDxWExLoVExLoVExLoVExYoUzTtH8b8"
        ]
      }
    },
    {
      "value": 41.99510000,
      "n": 2,
      "scriptPubKey": {
        "asm": "OP_DUP OP_HASH160 fa21c9163d6e76d2a106aa50a7b733ae88e22a85 OP_EQUALVERIFY OP_CHECKSIG",
        "hex": "76a914fa21c9163d6e76d2a106aa50a7b733ae88e22a8588ac",
        "reqSigs": 1,
        "type": "pubkeyhash",
        "addresses": [
          "DTwfwg1gTgpi4YBSHEBhtPSK1eUB2FSauZ"
        ]
      }
    },
    {
      "value": 0.00010000,
      "n": 3,
      "scriptPubKey": {
        "asm": "OP_HASH160 16b07cc0435d0f34691f7ffaa1d779826fec36cb OP_EQUAL",
        "hex": "a91416b07cc0435d0f34691f7ffaa1d779826fec36cb87",
        "reqSigs": 1,
        "type": "scripthash",
        "addresses": [
          "9tWExARExATxHoMExALLxBYzzzzzXfuFg2"
        ]
      }
    },
    {
      "value": 0.00010000,
      "n": 4,
      "scriptPubKey": {
        "asm": "OP_HASH160 19f2cd936841c96e60085f0b60df655390b01975 OP_EQUAL",
        "hex": "a91419f2cd936841c96e60085f0b60df655390b0197587",
        "reqSigs": 1,
        "type": "scripthash",
        "addresses": [
          "9toURSELVESzzzzzzzzzzzzzzzzzUHGHKj"
        ]
      }
    },
    {
      "value": 0.00010000,
      "n": 5,
      "scriptPubKey": {
        "asm": "OP_HASH160 082bcf9ac06ea962ba2fc8fa97d50178baec9937 OP_EQUAL",
        "hex": "a914082bcf9ac06ea962ba2fc8fa97d50178baec993787",
        "reqSigs": 1,
        "type": "scripthash",
        "addresses": [
          "9sBUYxoUTxSTUFFxBECAUSEzzzzzYDJhMv"
        ]
      }
    }
  ],
  "blockhash": "8453587b886edcf8bb7ecc241da1be324dac35167a412fb5d697d6dc15160860",
  "confirmations": 1312455,
  "time": 1587825344,
  "blocktime": 1587825344
}
