{
  "hex": "010000000250b97c52fbd335f47c021fe9ade3231a5d0075c144b7d7dd9b24e647c0321621000000006a4730440220409b09e9c0f13e2187399f55091b7881178f7ff4781139a7b78222058575dfa60220393aa06a467dd3f1da6b4a75a2d13349c670fe36122e7ca524107885caf6a03c012102b31deeed2d6d7b2d22ef1d808d96cf06942f99fb83dff8d40dc3a32dc79b831bffffffffd73cf6d8e020ddca6532328dc6b8e7802b06f96104a0696952673f975d407b0d010000006b483045022100c0ac9faea63b73c3c505471609b83e21196151666749627d0cb2b6f8836d134e02201600746ae2ee1f69684acb124bd116282efc6dd628ec134c279fe2121537cd6a01210269199b74da21fbda0c313f792ee4111366c7865b7aff700e95b3f3a51281bc21ffffffff026a4b1a3d000000001976a91460de9bd359246fd6c82124584462d2d63bb1be2688aca7f0f505000000001976a91455b225aebdbc98e3c4bc57fbc4495278c5cf976e88ac00000000",
  "txid": "74208c788602e895c4029ddb7740e785efab67ce529836d7455362dc9b843a9b",
  "hash": "74208c788602e895c4029ddb7740e785efab67ce529836d7455362dc9b843a9b",
  "size": 373,
  "vsize": 373,
  "version": 1,
  "locktime": 0,
  "vin": [
    {
      "txid": "211632c047e6249bddd7b744c175005d1a23e3ade91f027cf435d3fb527cb950",
      "vout": 0,
      "scriptSig": {
        "asm": "30440220409b09e9c0f13e2187399f55091b7881178f7ff4781139a7b78222058575dfa60220393aa06a467dd3f1da6b4a75a2d13349c670fe36122e7ca524107885caf6a03c[ALL] 02b31deeed2d6d7b2d22ef1d808d96cf06942f99fb83dff8d40dc3a32dc79b831b",
        "hex": "4730440220409b09e9c0f13e2187399f55091b7881178f7ff4781139a7b78222058575dfa60220393aa06a467dd3f1da6b4a75a2d13349c670fe36122e7ca524107885caf6a03c012102b31deeed2d6d7b2d22ef1d808d96cf06942f99fb83dff8d40dc3a32dc79b831b"
      },
      "sequence": 4294967295
    },
    {
      "txid": "0d7b405d973f67526969a00461f9062b80e7b8c68d323265cadd20e0d8f63cd7",
      "vout": 1,
      "scriptSig": {
        "asm": "3045022100c0ac9faea63b73c3c505471609b83e21196151666749627d0cb2b6f8836d134e02201600746ae2ee1f69684acb124bd116282efc6dd628ec134c279fe2121537cd6a[ALL] 0269199b74da21fbda0c313f792ee4111366c7865b7aff700e95b3f3a51281bc21",
        "hex": "483045022100c0ac9faea63b73c3c505471609b83e21196151666749627d0cb2b6f8836d134e02201600746ae2ee1f69684acb124bd116282efc6dd628ec134c279fe2121537cd6a01210269199b74da21fbda0c313f792ee4111366c7865b7aff700e95b3f3a51281bc21"
      },
      "sequence": 4294967295
    }
  ],
  "vout": [
    {
      "value": 10.25133418,
      "n": 0,
      "scriptPubKey": {
        "asm": "OP_DUP OP_HASH160 60de9bd359246fd6c82124584462d2d63bb1be26 OP_EQUALVERIFY OP_CHECKSIG",
        "hex": "76a91460de9bd359246fd6c82124584462d2d63bb1be2688ac",
        "reqSigs": 1,
        "type": "pubkeyhash",
        "addresses": [
          "DDyJ5oCYjZqnqfarmVocyoxbLSTTS7cXaQ"
        ]
      }
    },
    {
      "value": 1.00004007,
      "n": 1,
      "scriptPubKey": {
        "asm": "OP_DUP OP_HASH160 55b225aebdbc98e3c4bc57fbc4495278c5cf976e OP_EQUALVERIFY OP_CHECKSIG",
        "hex": "76a91455b225aebdbc98e3c4bc57fbc4495278c5cf976e88ac",
        "reqSigs": 1,
        "type": "pubkeyhash",
        "addresses": [
          "DCxDPSxNoWxSERViNGxLzzzzzzzzVKzXrV"
        ]
      }
    }
  ],
  "blockhash": "2a9cacdf4d07486b865fcf65d1a80d6ec672b7863f9c92e64d3b7d0a7ef39b07",
  "confirmations": 1584992,
  "time": 1570718734,
  "blocktime": 1570718734
}
