{
  "hex": "0100000001d374ea8309f1226b6bd1a515d7c0c58c24f504970e3d3d3beb4a56f88c38e080000000006a4730440220503d6ba8247ac0eec29008ca5918d56a0bd6af79d36fe749232a51d1bb71957b02204e6217ac07d5ae133609c0081ec764de8a9e1c04e89d2a804dbeca7b6323bc6a012102025e2f05d5159f66d40ff457fec3464cbe7416fb29b45aa77b582ccc949aa30affffffff020775e285010000001976a9141f7649c4584f945f45397ab7e6006c231ffdef9e88ac21df18a8040000001976a914bb11e82b6ad954c08d82b5b2171fd29567d6940088ac00000000",
  "txid": "75d9c34bff4eb2d4131a955961ad9269f6fd893d90fa077ccec733b85d9f1ba5",
  "hash": "75d9c34bff4eb2d4131a955961ad9269f6fd893d90fa077ccec733b85d9f1ba5",
  "size": 225,
  "vsize": 225,
  "version": 1,
  "locktime": 0,
  "vin": [
    {
      "txid": "80e0388cf8564aeb3b3d3d0e9704f5248cc5c0d715a5d16b6b22f10983ea74d3",
      "vout": 0,
      "scriptSig": {
        "asm": "30440220503d6ba8247ac0eec29008ca5918d56a0bd6af79d36fe749232a51d1bb71957b02204e6217ac07d5ae133609c0081ec764de8a9e1c04e89d2a804dbeca7b6323bc6a[ALL] 02025e2f05d5159f66d40ff457fec3464cbe7416fb29b45aa77b582ccc949aa30a",
        "hex": "4730440220503d6ba8247ac0eec29008ca5918d56a0bd6af79d36fe749232a51d1bb71957b02204e6217ac07d5ae133609c0081ec764de8a9e1c04e89d2a804dbeca7b6323bc6a012102025e2f05d5159f66d40ff457fec3464cbe7416fb29b45aa77b582ccc949aa30a"
      },
      "sequence": 4294967295
    }
  ],
  "vout": [
    {
      "value": 65.41178119,
      "n": 0,
      "scriptPubKey": {
        "asm": "OP_DUP OP_HASH160 1f7649c4584f945f45397ab7e6006c231ffdef9e OP_EQUALVERIFY OP_CHECKSIG",
        "hex": "76a9141f7649c4584f945f45397ab7e6006c231ffdef9e88ac",
        "reqSigs": 1,
        "type": "pubkeyhash",
        "addresses": [
          "D81TC1YBQDhhoke3ssxNqhAKCXABSbrEFJ"
        ]
      }
    },
    {
      "value": 200.00071457,
      "n": 1,
      "scriptPubKey": {
        "asm": "OP_DUP OP_HASH160 bb11e82b6ad954c08d82b5b2171fd29567d69400 OP_EQUALVERIFY OP_CHECKSIG",
        "hex": "76a914bb11e82b6ad954c08d82b5b2171fd29567d6940088ac",
        "reqSigs": 1,
        "type": "pubkeyhash",
        "addresses": [
          "DNCEMKnx1tEs3xJ2Gfo9ikZXKHtyhBxRhp"
        ]
      }
    }
  ],
  "blockhash": "ab8c0084209c6d78a5ef2125c097b5b0250ddd2f770cba1969a8139221314a2e",
  "confirmations": 1581921,
  "time": 1570909543,
  "blocktime": 1570909543
}
