{
  "hex": "0100000001d27fea19833aa78f2e8ee2c37605214413c5e380100f3830189b8d957e8046b9020000006b483045022100d13927a1ad3d2187005b4bc870fe7f5cf2ae033335476fe213dc40f0bb97e1ca02203c58397875b8554e7e33f18febf42ffbc3feb81a84596b7f5efa50d6d1560d280121038fc1aa9bc740ad9d9c11a898c32b84ed0adb61c55952021d756cfdc3cf577fabfeffffff23102700000000000017a9140aa0f3ad88cdea6bc154ce932f41f02c5799932687102700000000000017a9141128c7554f4cf2c1f7c4ee669bb6f35ef122f97e87102700000000000017a9140bbaaa2e68312e1b3edd22f37d1776cc27c8e58e87102700000000000017a91408fd3bfdfcab320a2fdbfcfa281a2d6da35ccea787102700000000000017a9140b42a92de39e040517239ab5cbf0e321ec5c3b3a87102700000000000017a9140b42a94107b30839371e1fd4d012d5842f1da9688788b4c217010000001976a91426afc534adf2e8e237bf76157234ef871b257f8b88ac58a900000000000017a91415bdccf98d0201d39988ddc0046eae7aca5c45598758a900000000000017a91414133e208f4b3e4b4fec18d31f7de00774a03f588758a900000000000017a914131d30d3dedd9089b8de60d90fce48fda8af3d4d8758a900000000000017a91419f014f683bf662866069ee1b47d3c6577fc08658758a900000000000017a9141568d1b8f3bfa69df708105b6ae9f9fa576d2dfb8758a900000000000017a9141710cdbe3207817b573f70d3ed5884a42d5fd23f87102700000000000017a91457f24d0f17da9feb23ff657e8944ab86befb47db87102700000000000017a91457bf23d02749bce46a424080313520c415f18d6a87102700000000000017a9145515f00bdfd61caf16fd785fe0d396210cf518c287102700000000000017a9145565249644dc7f33d72a6f5a4d33adb59cd0a34887102700000000000017a91457ec23b528043174ed4201ac3ce10dd449a0433187102700000000000017a9145534e6d6c5872ea866a10f2e6640b763082014d587102700000000000017a91454b6d80ae146585964587d7a96e6274c55729d2387102700000000000017a91457f1e7c023a6ce01f8205411fe05d995e40bc47787102700000000000017a9145580daf189b958158d4b9b20831e406ea25d28fa87102700000000000017a9145515f020d280ff4a9bb1a017bde5545641c11a8887102700000000000017a9145565b882d7de2bba1b8d1cfdba85ba29ed9a9d1387102700000000000017a9145acc47e586730cfa84d472efa642ed750dd55a5487102700000000000017a9145560f9e46003b128b43bb1d8cdf244699f6b316087102700000000000017a91455c61d63953e25c705ac4a39f12d2ad311f4e70b87102700000000000017a91454bf2c8a4082358848eb9853a1dd178d05e42f5487102700000000000017a9145ae14d7ff22b4f5e2006c12e323e7ee48f59c86687102700000000000017a9145ab83a0f5ddcff71b7118ce5a7be8e8ca0e43c3787102700000000000017a91454db8d047a4fb6a6457ff2a9d0045d692bce828687102700000000000017a91457db221182088f79082f4594535c5a0bb86fcbe187102700000000000017a91454befe4b0ddc99d5b3f8a6145d6af9ceeb4bb30a87102700000000000017a91454bf2c8a40802b37857a84682b9e98a457feaa5487102700000000000017a91457f884740d81445eb204b4e373582b19e901b23a8788ae2e00",
  "txid": "7d0b2992b07f077c43dce6ed18eff792f651ab1a5ca4f42135ec5585ade92240",
  "hash": "7d0b2992b07f077c43dce6ed18eff792f651ab1a5ca4f42135ec5585ade92240",
  "size": 1280,
  "vsize": 1280,
  "version": 1,
  "locktime": 3059336,
  "vin": [
    {
      "txid": "b946807e958d9b1830380f1080e3c51344210576c3e28e2e8fa73a8319ea7fd2",
      "vout": 2,
      "scriptSig": {
        "asm": "3045022100d13927a1ad3d2187005b4bc870fe7f5cf2ae033335476fe213dc40f0bb97e1ca02203c58397875b8554e7e33f18febf42ffbc3feb81a84596b7f5efa50d6d1560d28[ALL] 038fc1aa9bc740ad9d9c11a898c32b84ed0adb61c55952021d756cfdc3cf577fab",
        "hex": "483045022100d13927a1ad3d2187005b4bc870fe7f5cf2ae033335476fe213dc40f0bb97e1ca02203c58397875b8554e7e33f18febf42ffbc3feb81a84596b7f5efa50d6d1560d280121038fc1aa9bc740ad9d9c11a898c32b84ed0adb61c55952021d756cfdc3cf577fab"
      },
      "sequence": 4294967294
    }
  ],
  "vout": [
    {
      "value": 0.00010000,
      "n": 0,
      "scriptPubKey": {
        "asm": "OP_HASH160 0aa0f3ad88cdea6bc154ce932f41f02c57999326 OP_EQUAL",
        "hex": "a9140aa0f3ad88cdea6bc154ce932f41f02c5799932687",
        "reqSigs": 1,
        "type": "scripthash",
        "addresses": [
          "9sQUESTioNwzzzzzzzzzzzzzzzzzWwRrya"
        ]
      }
    },
    {
      "value": 0.00010000,
      "n": 1,
      "scriptPubKey": {
        "asm": "OP_HASH160 1128c7554f4cf2c1f7c4ee669bb6f35ef122f97e OP_EQUAL",
        "hex": "a9141128c7554f4cf2c1f7c4ee669bb6f35ef122f97e87",
        "reqSigs": 1,
        "type": "scripthash",
        "addresses": [
          "9szzzzzzzzzzzzzzzzzzzzzzzzzzSnNTNc"
        ]
      }
    },
    {
      "value": 0.00010000,
      "n": 2,
      "scriptPubKey": {
        "asm": "OP_HASH160 0bbaaa2e68312e1b3edd22f37d1776cc27c8e58e OP_EQUAL",
        "hex": "a9140bbaaa2e68312e1b3edd22f37d1776cc27c8e58e87",
        "reqSigs": 1,
        "type": "scripthash",
        "addresses": [
          "9sWHiCHxCoLoRxLEDxWASzzzzzzzbqjfa5"
        ]
      }
    },
    {
      "value": 0.00010000,
      "n": 3,
      "scriptPubKey": {
        "asm": "OP_HASH160 08fd3bfdfcab320a2fdbfcfa281a2d6da35ccea7 OP_EQUAL",
        "hex": "a91408fd3bfdfcab320a2fdbfcfa281a2d6da35ccea787",
        "reqSigs": 1,
        "type": "scripthash",
        "addresses": [
          "9sFoRxMANYxYEARSxTHoUGHTzzzzYmSAtE"
        ]
      }
    },
    {
      "value": 0.00010000,
      "n": 4,
      "scriptPubKey": {
        "asm": "OP_HASH160 0b42a92de39e040517239ab5cbf0e321ec5c3b3a OP_EQUAL",
        "hex": "a9140b42a92de39e040517239ab5cbf0e321ec5c3b3a87",
        "reqSigs": 1,
        "type": "scripthash",
        "addresses": [
          "9sToxBExiMPoSSiBLEzzzzzzzzzzauNbMc"
        ]
      }
    },
    {
      "value": 0.00010000,
      "n": 5,
      "scriptPubKey": {
        "asm": "OP_HASH160 0b42a94107b30839371e1fd4d012d5842f1da968 OP_EQUAL",
        "hex": "a9140b42a94107b30839371e1fd4d012d5842f1da96887",
        "reqSigs": 1,
        "type": "scripthash",
        "addresses": [
          "9sToxCREATEkzzzzzzzzzzzzzzzzWZKKkQ"
        ]
      }
    },
    {
      "value": 46.93603464,
      "n": 6,
      "scriptPubKey": {
        "asm": "OP_DUP OP_HASH160 26afc534adf2e8e237bf76157234ef871b257f8b OP_EQUALVERIFY OP_CHECKSIG",
        "hex": "76a91426afc534adf2e8e237bf76157234ef871b257f8b88ac",
        "reqSigs": 1,
        "type": "pubkeyhash",
        "addresses": [
          "D8fenHUvhNL1gK35q1gkEzyT9QZPpeymYj"
        ]
      }
    },
    {
      "value": 0.00043352,
      "n": 7,
      "scriptPubKey": {
        "asm": "OP_HASH160 15bdccf98d0201d39988ddc0046eae7aca5c4559 OP_EQUAL",
        "hex": "a91415bdccf98d0201d39988ddc0046eae7aca5c455987",
        "reqSigs": 1,
        "type": "scripthash",
        "addresses": [
          "9tREDzzzzzzzzzzzzzzzzzzzzzzzaprs4V"
        ]
      }
    },
    {
      "value": 0.00043352,
      "n": 8,
      "scriptPubKey": {
        "asm": "OP_HASH160 14133e208f4b3e4b4fec18d31f7de00774a03f58 OP_EQUAL",
        "hex": "a91414133e208f4b3e4b4fec18d31f7de00774a03f5887",
        "reqSigs": 1,
        "type": "scripthash",
        "addresses": [
          "9tGREENzzzzzzzzzzzzzzzzzzzzzVhxjyk"
        ]
      }
    },
    {
      "value": 0.00043352,
      "n": 9,
      "scriptPubKey": {
        "asm": "OP_HASH160 131d30d3dedd9089b8de60d90fce48fda8af3d4d OP_EQUAL",
        "hex": "a914131d30d3dedd9089b8de60d90fce48fda8af3d4d87",
        "reqSigs": 1,
        "type": "scripthash",
        "addresses": [
          "9tBLUEzzzzzzzzzzzzzzzzzzzzzzWtqHZF"
        ]
      }
    },
    {
      "value": 0.00043352,
      "n": 10,
      "scriptPubKey": {
        "asm": "OP_HASH160 19f014f683bf662866069ee1b47d3c6577fc0865 OP_EQUAL",
        "hex": "a91419f014f683bf662866069ee1b47d3c6577fc086587",
        "reqSigs": 1,
        "type": "scripthash",
        "addresses": [
          "9toRANGEzzzzzzzzzzzzzzzzzzzzZ2ySag"
        ]
      }
    },
    {
      "value": 0.00043352,
      "n": 11,
      "scriptPubKey": {
        "asm": "OP_HASH160 1568d1b8f3bfa69df708105b6ae9f9fa576d2dfb OP_EQUAL",
        "hex": "a9141568d1b8f3bfa69df708105b6ae9f9fa576d2dfb87",
        "reqSigs": 1,
        "type": "scripthash",
        "addresses": [
          "9tPURPLEzzzzzzzzzzzzzzzzzzzzUEs82J"
        ]
      }
    },
    {
      "value": 0.00043352,
      "n": 12,
      "scriptPubKey": {
        "asm": "OP_HASH160 1710cdbe3207817b573f70d3ed5884a42d5fd23f OP_EQUAL",
        "hex": "a9141710cdbe3207817b573f70d3ed5884a42d5fd23f87",
        "reqSigs": 1,
        "type": "scripthash",
        "addresses": [
          "9tYELLoWzzzzzzzzzzzzzzzzzzzzZyCJ15"
        ]
      }
    },
    {
      "value": 0.00010000,
      "n": 13,
      "scriptPubKey": {
        "asm": "OP_HASH160 57f24d0f17da9feb23ff657e8944ab86befb47db OP_EQUAL",
        "hex": "a91457f24d0f17da9feb23ff657e8944ab86befb47db87",
        "reqSigs": 1,
        "type": "scripthash",
        "addresses": [
          "9zTHiSxiSxTHExSECoNDxiNxAzzzYuncNa"
        ]
      }
    },
    {
      "value": 0.00010000,
      "n": 14,
      "scriptPubKey": {
        "asm": "OP_HASH160 57bf23d02749bce46a424080313520c415f18d6a OP_EQUAL",
        "hex": "a91457bf23d02749bce46a424080313520c415f18d6a87",
        "reqSigs": 1,
        "type": "scripthash",
        "addresses": [
          "9zSERiESxoFxQUiZESxWHiCHzzzzXppr18"
        ]
      }
    },
    {
      "value": 0.00010000,
      "n": 15,
      "scriptPubKey": {
        "asm": "OP_HASH160 5515f00bdfd61caf16fd785fe0d396210cf518c2 OP_EQUAL",
        "hex": "a9145515f00bdfd61caf16fd785fe0d396210cf518c287",
        "reqSigs": 1,
        "type": "scripthash",
        "addresses": [
          "9zCANxBExTAKENxWiTHxAzzzzzzzXJebYg"
        ]
      }
    },
    {
      "value": 0.00010000,
      "n": 16,
      "scriptPubKey": {
        "asm": "OP_HASH160 5565249644dc7f33d72a6f5a4d33adb59cd0a348 OP_EQUAL",
        "hex": "a9145565249644dc7f33d72a6f5a4d33adb59cd0a34887",
        "reqSigs": 1,
        "type": "scripthash",
        "addresses": [
          "9zDoGECoiNxCLiENThxTozzzzzzzae1zaM"
        ]
      }
    },
    {
      "value": 0.00010000,
      "n": 17,
      "scriptPubKey": {
        "asm": "OP_HASH160 57ec23b528043174ed4201ac3ce10dd449a04331 OP_EQUAL",
        "hex": "a91457ec23b528043174ed4201ac3ce10dd449a0433187",
        "reqSigs": 1,
        "type": "scripthash",
        "addresses": [
          "9zTALLYxTHExRESULTSvxJUSTzzzXMdP3n"
        ]
      }
    },
    {
      "value": 0.00010000,
      "n": 18,
      "scriptPubKey": {
        "asm": "OP_HASH160 5534e6d6c5872ea866a10f2e6640b763082014d5 OP_EQUAL",
        "hex": "a9145534e6d6c5872ea866a10f2e6640b763082014d587",
        "reqSigs": 1,
        "type": "scripthash",
        "addresses": [
          "9zCoUNTxUPxEACHxTRANSyzzzzzzTqGxBn"
        ]
      }
    },
    {
      "value": 0.00010000,
      "n": 19,
      "scriptPubKey": {
        "asm": "OP_HASH160 54b6d80ae146585964587d7a96e6274c55729d23 OP_EQUAL",
        "hex": "a91454b6d80ae146585964587d7a96e6274c55729d2387",
        "reqSigs": 1,
        "type": "scripthash",
        "addresses": [
          "9zACTioNxWHiCHxENDSxiNzzzzzzUusjrB"
        ]
      }
    },
    {
      "value": 0.00010000,
      "n": 20,
      "scriptPubKey": {
        "asm": "OP_HASH160 57f1e7c023a6ce01f8205411fe05d995e40bc477 OP_EQUAL",
        "hex": "a91457f1e7c023a6ce01f8205411fe05d995e40bc47787",
        "reqSigs": 1,
        "type": "scripthash",
        "addresses": [
          "9zTHExBSDxSUMxoFxTHiSzzzzzzzWQ9fss"
        ]
      }
    },
    {
      "value": 0.00010000,
      "n": 21,
      "scriptPubKey": {
        "asm": "OP_HASH160 5580daf189b958158d4b9b20831e406ea25d28fa OP_EQUAL",
        "hex": "a9145580daf189b958158d4b9b20831e406ea25d28fa87",
        "reqSigs": 1,
        "type": "scripthash",
        "addresses": [
          "9zENTiRExMESSAGEhxxiFxYoUzzzTLrgRr"
        ]
      }
    },
    {
      "value": 0.00010000,
      "n": 22,
      "scriptPubKey": {
        "asm": "OP_HASH160 5515f020d280ff4a9bb1a017bde5545641c11a88 OP_EQUAL",
        "hex": "a9145515f020d280ff4a9bb1a017bde5545641c11a8887",
        "reqSigs": 1,
        "type": "scripthash",
        "addresses": [
          "9zCANyTxCALCULATExTHATvzzzzza8XGqj"
        ]
      }
    },
    {
      "value": 0.00010000,
      "n": 23,
      "scriptPubKey": {
        "asm": "OP_HASH160 5565b882d7de2bba1b8d1cfdba85ba29ed9a9d13 OP_EQUAL",
        "hex": "a9145565b882d7de2bba1b8d1cfdba85ba29ed9a9d1387",
        "reqSigs": 1,
        "type": "scripthash",
        "addresses": [
          "9zDoxNoTxFEARvxiTxiSzzzzzzzzb3MFhA"
        ]
      }
    },
    {
      "value": 0.00010000,
      "n": 24,
      "scriptPubKey": {
        "asm": "OP_HASH160 5acc47e586730cfa84d472efa642ed750dd55a54 OP_EQUAL",
        "hex": "a9145acc47e586730cfa84d472efa642ed750dd55a5487",
        "reqSigs": 1,
        "type": "scripthash",
        "addresses": [
          "9ziNCLUDEDxASxAxFiVEzzzzzzzzW9rViV"
        ]
      }
    },
    {
      "value": 0.00010000,
      "n": 25,
      "scriptPubKey": {
        "asm": "OP_HASH160 5560f9e46003b128b43bb1d8cdf244699f6b3160 OP_EQUAL",
        "hex": "a9145560f9e46003b128b43bb1d8cdf244699f6b316087",
        "reqSigs": 1,
        "type": "scripthash",
        "addresses": [
          "9zDiGiTxSAToSHixCoDEzzzzzzzzYcjLxh"
        ]
      }
    },
    {
      "value": 0.00010000,
      "n": 26,
      "scriptPubKey": {
        "asm": "OP_HASH160 55c61d63953e25c705ac4a39f12d2ad311f4e70b OP_EQUAL",
        "hex": "a91455c61d63953e25c705ac4a39f12d2ad311f4e70b87",
        "reqSigs": 1,
        "type": "scripthash",
        "addresses": [
          "9zFoRxEACHxLiSTEDzzzzzzzzzzzUB2hrt"
        ]
      }
    },
    {
      "value": 0.00010000,
      "n": 27,
      "scriptPubKey": {
        "asm": "OP_HASH160 54bf2c8a4082358848eb9853a1dd178d05e42f54 OP_EQUAL",
        "hex": "a91454bf2c8a4082358848eb9853a1dd178d05e42f5487",
        "reqSigs": 1,
        "type": "scripthash",
        "addresses": [
          "9zANSWERxiNxTHEx9TxSECTyzzzzcNXtst"
        ]
      }
    },
    {
      "value": 0.00010000,
      "n": 28,
      "scriptPubKey": {
        "asm": "OP_HASH160 5ae14d7ff22b4f5e2006c12e323e7ee48f59c866 OP_EQUAL",
        "hex": "a9145ae14d7ff22b4f5e2006c12e323e7ee48f59c86687",
        "reqSigs": 1,
        "type": "scripthash",
        "addresses": [
          "9zioNxoFxTHiSxTRANSACTioNzzzW1fPhp"
        ]
      }
    },
    {
      "value": 0.00010000,
      "n": 29,
      "scriptPubKey": {
        "asm": "OP_HASH160 5ab83a0f5ddcff71b7118ce5a7be8e8ca0e43c37 OP_EQUAL",
        "hex": "a9145ab83a0f5ddcff71b7118ce5a7be8e8ca0e43c3787",
        "reqSigs": 1,
        "type": "scripthash",
        "addresses": [
          "9zhxAxSiMiLARxQUiZxHASzzzzzzbEoa4p"
        ]
      }
    },
    {
      "value": 0.00010000,
      "n": 30,
      "scriptPubKey": {
        "asm": "OP_HASH160 54db8d047a4fb6a6457ff2a9d0045d692bce8286 OP_EQUAL",
        "hex": "a91454db8d047a4fb6a6457ff2a9d0045d692bce828687",
        "reqSigs": 1,
        "type": "scripthash",
        "addresses": [
          "9zAxSAToSHixCoDExoFx55334zzzXT73az"
        ]
      }
    },
    {
      "value": 0.00010000,
      "n": 31,
      "scriptPubKey": {
        "asm": "OP_HASH160 57db221182088f79082f4594535c5a0bb86fcbe1 OP_EQUAL",
        "hex": "a91457db221182088f79082f4594535c5a0bb86fcbe187",
        "reqSigs": 1,
        "type": "scripthash",
        "addresses": [
          "9zSoxiGNoRExTHoSExANSWERzzzzVJEcYE"
        ]
      }
    },
    {
      "value": 0.00010000,
      "n": 32,
      "scriptPubKey": {
        "asm": "OP_HASH160 54befe4b0ddc99d5b3f8a6145d6af9ceeb4bb30a OP_EQUAL",
        "hex": "a91454befe4b0ddc99d5b3f8a6145d6af9ceeb4bb30a87",
        "reqSigs": 1,
        "type": "scripthash",
        "addresses": [
          "9zANDxDoxNoTxiNCLUDExTHEzzzzWyxtGJ"
        ]
      }
    },
    {
      "value": 0.00010000,
      "n": 33,
      "scriptPubKey": {
        "asm": "OP_HASH160 54bf2c8a40802b37857a84682b9e98a457feaa54 OP_EQUAL",
        "hex": "a91454bf2c8a40802b37857a84682b9e98a457feaa5487",
        "reqSigs": 1,
        "type": "scripthash",
        "addresses": [
          "9zANSWERxLiSTEDxiNxTHiSzzzzzTQ7wsH"
        ]
      }
    },
    {
      "value": 0.00010000,
      "n": 34,
      "scriptPubKey": {
        "asm": "OP_HASH160 57f884740d81445eb204b4e373582b19e901b23a OP_EQUAL",
        "hex": "a91457f884740d81445eb204b4e373582b19e901b23a87",
        "reqSigs": 1,
        "type": "scripthash",
        "addresses": [
          "9zTRANSACTioNhzzzzzzzzzzzzzzWchzxF"
        ]
      }
    }
  ],
  "blockhash": "35fdb0fd10ce724120a39096363cd8209c6a325133536f7fbb0b814bb4638b05",
  "confirmations": 1455721,
  "time": 1578812857,
  "blocktime": 1578812857
}
