{
  "hex": "010000000187be0ba40c20305dba01a871bef692c2403126e5c15e41b572218f9dbd16bb8d000000006b483045022100f7e38ec761d177b6c1546a1e59cc0a78433a3d528887fda3c3a4778875c2a63c022041ac31c73cef5ee2e07e076956131b85677ee1b3a7854dc2f29556fdc1ea5c7f012102a6bec47a33f2a1387930dbba54b6eef103ee218963891b4a3ac863a14cee106dffffffff02104b9c6c000000001976a9146a6d15008122a20300f13acf54829b68f746eac188ac72e2f505000000001976a91455b26c012a9da86d0615637e1ab79129de1a4e4988ac00000000",
  "txid": "7d4753fe2b6e9e7a2149b4e5600a37cabdccb2942488308a466985cc6cfd10f6",
  "hash": "7d4753fe2b6e9e7a2149b4e5600a37cabdccb2942488308a466985cc6cfd10f6",
  "size": 226,
  "vsize": 226,
  "version": 1,
  "locktime": 0,
  "vin": [
    {
      "txid": "8dbb16bd9d8f2172b5415ec1e5263140c292f6be71a801ba5d30200ca40bbe87",
      "vout": 0,
      "scriptSig": {
        "asm": "3045022100f7e38ec761d177b6c1546a1e59cc0a78433a3d528887fda3c3a4778875c2a63c022041ac31c73cef5ee2e07e076956131b85677ee1b3a7854dc2f29556fdc1ea5c7f[ALL] 02a6bec47a33f2a1387930dbba54b6eef103ee218963891b4a3ac863a14cee106d",
        "hex": "483045022100f7e38ec761d177b6c1546a1e59cc0a78433a3d528887fda3c3a4778875c2a63c022041ac31c73cef5ee2e07e076956131b85677ee1b3a7854dc2f29556fdc1ea5c7f012102a6bec47a33f2a1387930dbba54b6eef103ee218963891b4a3ac863a14cee106d"
      },
      "sequence": 4294967295
    }
  ],
  "vout": [
    {
      "value": 18.22182160,
      "n": 0,
      "scriptPubKey": {
        "asm": "OP_DUP OP_HASH160 6a6d15008122a20300f13acf54829b68f746eac1 OP_EQUALVERIFY OP_CHECKSIG",
        "hex": "76a9146a6d15008122a20300f13acf54829b68f746eac188ac",
        "reqSigs": 1,
        "type": "pubkeyhash",
        "addresses": [
          "DEqpqkBnRwDub7bMjZEnQ1HzE9ad6ZSMs4"
        ]
      }
    },
    {
      "value": 1.00000370,
      "n": 1,
      "scriptPubKey": {
        "asm": "OP_DUP OP_HASH160 55b26c012a9da86d0615637e1ab79129de1a4e49 OP_EQUALVERIFY OP_CHECKSIG",
        "hex": "76a91455b26c012a9da86d0615637e1ab79129de1a4e4988ac",
        "reqSigs": 1,
        "type": "pubkeyhash",
        "addresses": [
          "DCxDiXxDEARTHYxDUNGBYzzzzzzzboDvd1"
        ]
      }
    }
  ],
  "blockhash": "8c4a3e19768e5daf5d0d75e0786ef362b92f981ff788efef457466b683412575",
  "confirmations": 1586312,
  "time": 1570633261,
  "blocktime": 1570633261
}
