{
  "hex": "010000000121c9b9ea1d955c8303cce37a781a042cef08bce250baa0f7cad059e26a6cffac000000006b483045022100a7fc2174ccea878b5c1011c8b9d11a63b2ece25200481dae8669a6da87e9b6fc02207f2d511fd9f730c2fa2a2f05c863ee775b81b9b854acb1db95245f355f856d6b012103a1145fb87de90cfc4ddd465552d2dc48e477b562679602ac013a14c621a14a4cfeffffff05d0e1f59d0a0000001976a914faa9287e73b7ff72c7e3962100a9c7172a95699888ac102700000000000017a9140942703fe0733547da3904666b39e6f2d3a5798687102700000000000017a9140b2fe59fb958aa13c5ad5a1f6280871a8752109187102700000000000017a9140e1fc0f35e5fa72f3f8285a31f7216736809e21787102700000000000017a9140b28f57507783de88e28f6e39d2ad6215a6d63c787ce4f2c00",
  "txid": "7dcd9b0a29cb01692197ba70c25ab1ad14c3c1440b15bee1a53ab99dac15dffe",
  "hash": "7dcd9b0a29cb01692197ba70c25ab1ad14c3c1440b15bee1a53ab99dac15dffe",
  "size": 320,
  "vsize": 320,
  "version": 1,
  "locktime": 2904014,
  "vin": [
    {
      "txid": "acff6c6ae259d0caf7a0ba50e2bc08ef2c041a787ae3cc03835c951deab9c921",
      "vout": 0,
      "scriptSig": {
        "asm": "3045022100a7fc2174ccea878b5c1011c8b9d11a63b2ece25200481dae8669a6da87e9b6fc02207f2d511fd9f730c2fa2a2f05c863ee775b81b9b854acb1db95245f355f856d6b[ALL] 03a1145fb87de90cfc4ddd465552d2dc48e477b562679602ac013a14c621a14a4c",
        "hex": "483045022100a7fc2174ccea878b5c1011c8b9d11a63b2ece25200481dae8669a6da87e9b6fc02207f2d511fd9f730c2fa2a2f05c863ee775b81b9b854acb1db95245f355f856d6b012103a1145fb87de90cfc4ddd465552d2dc48e477b562679602ac013a14c621a14a4c"
      },
      "sequence": 4294967294
    }
  ],
  "vout": [
    {
      "value": 455.99810000,
      "n": 0,
      "scriptPubKey": {
        "asm": "OP_DUP OP_HASH160 faa9287e73b7ff72c7e3962100a9c7172a956998 OP_EQUALVERIFY OP_CHECKSIG",
        "hex": "76a914faa9287e73b7ff72c7e3962100a9c7172a95699888ac",
        "reqSigs": 1,
        "type": "pubkeyhash",
        "addresses": [
          "DTzU7XqGRr3ux3cfDw9SXN4B17mpH2djd4"
        ]
      }
    },
    {
      "value": 0.00010000,
      "n": 1,
      "scriptPubKey": {
        "asm": "OP_HASH160 0942703fe0733547da3904666b39e6f2d3a57986 OP_EQUAL",
        "hex": "a9140942703fe0733547da3904666b39e6f2d3a5798687",
        "reqSigs": 1,
        "type": "scripthash",
        "addresses": [
          "9sHELLoxiNTERNETxBRAiNyzzzzzTBcjYG"
        ]
      }
    },
    {
      "value": 0.00010000,
      "n": 2,
      "scriptPubKey": {
        "asm": "OP_HASH160 0b2fe59fb958aa13c5ad5a1f6280871a87521091 OP_EQUAL",
        "hex": "a9140b2fe59fb958aa13c5ad5a1f6280871a8752109187",
        "reqSigs": 1,
        "type": "scripthash",
        "addresses": [
          "9sTRUST1xHoWxARExYoUkzzzzzzzX4ghEW"
        ]
      }
    },
    {
      "value": 0.00010000,
      "n": 3,
      "scriptPubKey": {
        "asm": "OP_HASH160 0e1fc0f35e5fa72f3f8285a31f7216736809e217 OP_EQUAL",
        "hex": "a9140e1fc0f35e5fa72f3f8285a31f7216736809e21787",
        "reqSigs": 1,
        "type": "scripthash",
        "addresses": [
          "9sixAMxDoiNGxWELL1zzzzzzzzzzaiyjY5"
        ]
      }
    },
    {
      "value": 0.00010000,
      "n": 4,
      "scriptPubKey": {
        "asm": "OP_HASH160 0b28f57507783de88e28f6e39d2ad6215a6d63c7 OP_EQUAL",
        "hex": "a9140b28f57507783de88e28f6e39d2ad6215a6d63c787",
        "reqSigs": 1,
        "type": "scripthash",
        "addresses": [
          "9sTHANKSxFoRxASKiNG1zzzzzzzzV3rF1E"
        ]
      }
    }
  ],
  "blockhash": "5e2c19f780c36e1cab435c951dffae68c426831b8fccd3d15fe88b66733370da",
  "confirmations": 1611110,
  "time": 1569089503,
  "blocktime": 1569089503
}
