{
  "hex": "0100000001231768287f28cda19392ecacbaa6b0be8e793a2ef7032179065d61373d4d41bd050000006a473044022004f0f0c2d6f28bdac1ef4ae6bd28f8cbe6a907948991129d0e3b1ca44959e00502206637af9ba7aab0b51814d3e48b56f8840654f0e54f2e4d9a23a3c8c5ce4583b7012103c23539c8705c03c5b6ffc3498204464a06aac6f286620c24898736813e3c0bd8feffffff04cf273d05140100001976a9149c712c31fb825e77cfdcfa510d7e8899a8dc50ec88ac10270000000000001976a914e91e3a5ad9379ecb2f98139d2804782f364d6c8888ac102700000000000017a9140bcf51b9a556b6d6593a78df1bd103fcf0648aab87102700000000000017a91408de5b0c6338fc7215e3138d77f96f5e0fc5879487f9043000",
  "txid": "83856ec11bfcd88fed39e1296dd98129a88607bc90bcafd209bb2995bd9994d8",
  "hash": "83856ec11bfcd88fed39e1296dd98129a88607bc90bcafd209bb2995bd9994d8",
  "size": 289,
  "vsize": 289,
  "version": 1,
  "locktime": 3147001,
  "vin": [
    {
      "txid": "bd414d3d37615d06792103f72e3a798ebeb0a6baacec9293a1cd287f28681723",
      "vout": 5,
      "scriptSig": {
        "asm": "3044022004f0f0c2d6f28bdac1ef4ae6bd28f8cbe6a907948991129d0e3b1ca44959e00502206637af9ba7aab0b51814d3e48b56f8840654f0e54f2e4d9a23a3c8c5ce4583b7[ALL] 03c23539c8705c03c5b6ffc3498204464a06aac6f286620c24898736813e3c0bd8",
        "hex": "473044022004f0f0c2d6f28bdac1ef4ae6bd28f8cbe6a907948991129d0e3b1ca44959e00502206637af9ba7aab0b51814d3e48b56f8840654f0e54f2e4d9a23a3c8c5ce4583b7012103c23539c8705c03c5b6ffc3498204464a06aac6f286620c24898736813e3c0bd8"
      },
      "sequence": 4294967294
    }
  ],
  "vout": [
    {
      "value": 11854.98867663,
      "n": 0,
      "scriptPubKey": {
        "asm": "OP_DUP OP_HASH160 9c712c31fb825e77cfdcfa510d7e8899a8dc50ec OP_EQUALVERIFY OP_CHECKSIG",
        "hex": "76a9149c712c31fb825e77cfdcfa510d7e8899a8dc50ec88ac",
        "reqSigs": 1,
        "type": "pubkeyhash",
        "addresses": [
          "DKQHXZF1Q2aW5HtC8s3943UxZ6GzbSNDX4"
        ]
      }
    },
    {
      "value": 0.00010000,
      "n": 1,
      "scriptPubKey": {
        "asm": "OP_DUP OP_HASH160 e91e3a5ad9379ecb2f98139d2804782f364d6c88 OP_EQUALVERIFY OP_CHECKSIG",
        "hex": "76a914e91e3a5ad9379ecb2f98139d2804782f364d6c8888ac",
        "reqSigs": 1,
        "type": "pubkeyhash",
        "addresses": [
          "DSPiCEGiRLSxiFxYoUxWANNAxGETUWUUsK"
        ]
      }
    },
    {
      "value": 0.00010000,
      "n": 2,
      "scriptPubKey": {
        "asm": "OP_HASH160 0bcf51b9a556b6d6593a78df1bd103fcf0648aab OP_EQUAL",
        "hex": "a9140bcf51b9a556b6d6593a78df1bd103fcf0648aab87",
        "reqSigs": 1,
        "type": "scripthash",
        "addresses": [
          "9sWiTHxMEvxBETTERxMAKExiTzzzYq8FuZ"
        ]
      }
    },
    {
      "value": 0.00010000,
      "n": 3,
      "scriptPubKey": {
        "asm": "OP_HASH160 08de5b0c6338fc7215e3138d77f96f5e0fc58794 OP_EQUAL",
        "hex": "a91408de5b0c6338fc7215e3138d77f96f5e0fc5879487",
        "reqSigs": 1,
        "type": "scripthash",
        "addresses": [
          "9sFASTzzzzzzzzzzzzzzzzzzzzzzZyo3wt"
        ]
      }
    }
  ],
  "blockhash": "4f41932d0a22322666d2cf8dd3baf8b98e216e9060bf71daf87948a476ff821f",
  "confirmations": 1368189,
  "time": 1584319768,
  "blocktime": 1584319768
}
