{
  "hex": "0100000001fedf15ac9db93aa5e1be150b44c1c314adb15ac270ba97216901cb290a9bcd7d000000006b483045022100e82a44cc51eab5a41bc8684374698a63e1128d6435cadf21edcc7e6506d6603002205de8d0a1b0c07cf9ea5b81eb54ff2409960d2db3a1d1c4996141660a5ab286d2012102e121ea1351ceadae5c448a1ca01f70bb144c6563d2a43b636f4d4aaae99b9a1efeffffff0e102700000000000017a9140942703fe0733547da3904666b39e6f2d3a5798687102700000000000017a9140b2fe59fb958aa13c5ad5a1f6280871a8752109187102700000000000017a9140e1fc0f35e5fa72f3f8285a31f7216736809e217870098814a0a0000001976a91437bad43889a4ec74f93edf0ec255cd2d0e8c652688ac102700000000000017a9140b28f57507783de88e28f6e39d2ad6215a6d63c787102700000000000017a91407f66073df231bb978fcdb13e5eee08223dca29187102700000000000017a9140c345951614023efcd486bea9c4ec6522f5baa7e87102700000000000017a9140b42a9d837b39c6f23918729323d6d00be9b5c5c87102700000000000017a9140b296b5b5618616563322b10ae45afab371bb1de87102700000000000017a91408b904928f534e35b897767c47215387d7be727a87102700000000000017a9140a1fb8447809a0bcbd4c5de4607ec090ed8f73b487102700000000000017a9140b29065d06561ed289de83b9230fab516a83bd0587102700000000000017a9140b42aa31e961285166096ea77f9cf9acf72e199b87102700000000000017a914084d04fd445c101d543fbf59b4a2ede3aab9d78787d14f2c00",
  "txid": "8a289edf20df57f6739de376197b66eb6b8a3b1feca82f3bafdc88fa1d9f8c3b",
  "hash": "8a289edf20df57f6739de376197b66eb6b8a3b1feca82f3bafdc88fa1d9f8c3b",
  "size": 608,
  "vsize": 608,
  "version": 1,
  "locktime": 2904017,
  "vin": [
    {
      "txid": "7dcd9b0a29cb01692197ba70c25ab1ad14c3c1440b15bee1a53ab99dac15dffe",
      "vout": 0,
      "scriptSig": {
        "asm": "3045022100e82a44cc51eab5a41bc8684374698a63e1128d6435cadf21edcc7e6506d6603002205de8d0a1b0c07cf9ea5b81eb54ff2409960d2db3a1d1c4996141660a5ab286d2[ALL] 02e121ea1351ceadae5c448a1ca01f70bb144c6563d2a43b636f4d4aaae99b9a1e",
        "hex": "483045022100e82a44cc51eab5a41bc8684374698a63e1128d6435cadf21edcc7e6506d6603002205de8d0a1b0c07cf9ea5b81eb54ff2409960d2db3a1d1c4996141660a5ab286d2012102e121ea1351ceadae5c448a1ca01f70bb144c6563d2a43b636f4d4aaae99b9a1e"
      },
      "sequence": 4294967294
    }
  ],
  "vout": [
    {
      "value": 0.00010000,
      "n": 0,
      "scriptPubKey": {
        "asm": "OP_HASH160 0942703fe0733547da3904666b39e6f2d3a57986 OP_EQUAL",
        "hex": "a9140942703fe0733547da3904666b39e6f2d3a5798687",
        "reqSigs": 1,
        "type": "scripthash",
        "addresses": [
          "9sHELLoxiNTERNETxBRAiNyzzzzzTBcjYG"
        ]
      }
    },
    {
      "value": 0.00010000,
      "n": 1,
      "scriptPubKey": {
        "asm": "OP_HASH160 0b2fe59fb958aa13c5ad5a1f6280871a87521091 OP_EQUAL",
        "hex": "a9140b2fe59fb958aa13c5ad5a1f6280871a8752109187",
        "reqSigs": 1,
        "type": "scripthash",
        "addresses": [
          "9sTRUST1xHoWxARExYoUkzzzzzzzX4ghEW"
        ]
      }
    },
    {
      "value": 0.00010000,
      "n": 2,
      "scriptPubKey": {
        "asm": "OP_HASH160 0e1fc0f35e5fa72f3f8285a31f7216736809e217 OP_EQUAL",
        "hex": "a9140e1fc0f35e5fa72f3f8285a31f7216736809e21787",
        "reqSigs": 1,
        "type": "scripthash",
        "addresses": [
          "9sixAMxDoiNGxWELL1zzzzzzzzzzaiyjY5"
        ]
      }
    },
    {
      "value": 441.99680000,
      "n": 3,
      "scriptPubKey": {
        "asm": "OP_DUP OP_HASH160 37bad43889a4ec74f93edf0ec255cd2d0e8c6526 OP_EQUALVERIFY OP_CHECKSIG",
        "hex": "76a91437bad43889a4ec74f93edf0ec255cd2d0e8c652688ac",
        "reqSigs": 1,
        "type": "pubkeyhash",
        "addresses": [
          "DADmWv1UhtWsdiGKsz7AETZT55NGU633eF"
        ]
      }
    },
    {
      "value": 0.00010000,
      "n": 4,
      "scriptPubKey": {
        "asm": "OP_HASH160 0b28f57507783de88e28f6e39d2ad6215a6d63c7 OP_EQUAL",
        "hex": "a9140b28f57507783de88e28f6e39d2ad6215a6d63c787",
        "reqSigs": 1,
        "type": "scripthash",
        "addresses": [
          "9sTHANKSxFoRxASKiNG1zzzzzzzzV3rF1E"
        ]
      }
    },
    {
      "value": 0.00010000,
      "n": 5,
      "scriptPubKey": {
        "asm": "OP_HASH160 07f66073df231bb978fcdb13e5eee08223dca291 OP_EQUAL",
        "hex": "a91407f66073df231bb978fcdb13e5eee08223dca29187",
        "reqSigs": 1,
        "type": "scripthash",
        "addresses": [
          "9sANYHoWvxixWANTxToxTELLzzzzXgxNLY"
        ]
      }
    },
    {
      "value": 0.00010000,
      "n": 6,
      "scriptPubKey": {
        "asm": "OP_HASH160 0c345951614023efcd486bea9c4ec6522f5baa7e OP_EQUAL",
        "hex": "a9140c345951614023efcd486bea9c4ec6522f5baa7e87",
        "reqSigs": 1,
        "type": "scripthash",
        "addresses": [
          "9sYoUxTHATxYoUxARExGoiNGzzzzXpK7Fq"
        ]
      }
    },
    {
      "value": 0.00010000,
      "n": 7,
      "scriptPubKey": {
        "asm": "OP_HASH160 0b42a9d837b39c6f23918729323d6d00be9b5c5c OP_EQUAL",
        "hex": "a9140b42a9d837b39c6f23918729323d6d00be9b5c5c87",
        "reqSigs": 1,
        "type": "scripthash",
        "addresses": [
          "9sToxMiSSxoUTxoNxSoMEyzzzzzzXHZ8Q4"
        ]
      }
    },
    {
      "value": 0.00010000,
      "n": 8,
      "scriptPubKey": {
        "asm": "OP_HASH160 0b296b5b5618616563322b10ae45afab371bb1de OP_EQUAL",
        "hex": "a9140b296b5b5618616563322b10ae45afab371bb1de87",
        "reqSigs": 1,
        "type": "scripthash",
        "addresses": [
          "9sTHiNGxTHATxiSxPRETTYzzzzzzXxfcw2"
        ]
      }
    },
    {
      "value": 0.00010000,
      "n": 9,
      "scriptPubKey": {
        "asm": "OP_HASH160 08b904928f534e35b897767c47215387d7be727a OP_EQUAL",
        "hex": "a91408b904928f534e35b897767c47215387d7be727a87",
        "reqSigs": 1,
        "type": "scripthash",
        "addresses": [
          "9sEPiC1xWANTxToxHEARzzzzzzzzYddBWz"
        ]
      }
    },
    {
      "value": 0.00010000,
      "n": 10,
      "scriptPubKey": {
        "asm": "OP_HASH160 0a1fb8447809a0bcbd4c5de4607ec090ed8f73b4 OP_EQUAL",
        "hex": "a9140a1fb8447809a0bcbd4c5de4607ec090ed8f73b487",
        "reqSigs": 1,
        "type": "scripthash",
        "addresses": [
          "9sMoREkxSURExYoUxDo1zzzzzzzzaEbFSk"
        ]
      }
    },
    {
      "value": 0.00010000,
      "n": 11,
      "scriptPubKey": {
        "asm": "OP_HASH160 0b29065d06561ed289de83b9230fab516a83bd05 OP_EQUAL",
        "hex": "a9140b29065d06561ed289de83b9230fab516a83bd0587",
        "reqSigs": 1,
        "type": "scripthash",
        "addresses": [
          "9sTHExTHiNGxTHATxixWANTzzzzzWhbihc"
        ]
      }
    },
    {
      "value": 0.00010000,
      "n": 12,
      "scriptPubKey": {
        "asm": "OP_HASH160 0b42aa31e961285166096ea77f9cf9acf72e199b OP_EQUAL",
        "hex": "a9140b42aa31e961285166096ea77f9cf9acf72e199b87",
        "reqSigs": 1,
        "type": "scripthash",
        "addresses": [
          "9sToxTELLxYoUxABoUTxiSzzzzzzSf8n5x"
        ]
      }
    },
    {
      "value": 0.00010000,
      "n": 13,
      "scriptPubKey": {
        "asm": "OP_HASH160 084d04fd445c101d543fbf59b4a2ede3aab9d787 OP_EQUAL",
        "hex": "a914084d04fd445c101d543fbf59b4a2ede3aab9d78787",
        "reqSigs": 1,
        "type": "scripthash",
        "addresses": [
          "9sCALLEDxDiMECASH1zzzzzzzzzzVz9rH5"
        ]
      }
    }
  ],
  "blockhash": "90455451c02f0b70ac44ce92339073aaad6e88aa0e5f05d3e37a7980e62871a1",
  "confirmations": 1611168,
  "time": 1569089765,
  "blocktime": 1569089765
}
