{
  "hex": "01000000010052c2c68e86a61ed08d50b397b52e9e49b62d688f3b55c1d89dc05eb84944f53a0000006a473044022035aee0b0e0fb72df0b681b9309313ae44c04c1e68a252d8cd31b6b9da47c761002202ddccab3c2dde7d44349f1de06ac8f4edd9922dd87daef4c2d3042d9b9ee730f0121031ee0749e50515be3b14b8372d2bcf28d36394a1123a6c5778d9128be3e5d3fc9ffffffff02820e8878000000001976a914d5eddcf82a0cc401d4bc8a451f1644df3409a2a788ac0c7cf6050000000017a914087fa0eb841a64a42a1a860517f89fb4826979e08700000000",
  "txid": "8dbb16bd9d8f2172b5415ec1e5263140c292f6be71a801ba5d30200ca40bbe87",
  "hash": "8dbb16bd9d8f2172b5415ec1e5263140c292f6be71a801ba5d30200ca40bbe87",
  "size": 223,
  "vsize": 223,
  "version": 1,
  "locktime": 0,
  "vin": [
    {
      "txid": "f54449b85ec09dd8c1553b8f682db6499e2eb597b3508dd01ea6868ec6c25200",
      "vout": 58,
      "scriptSig": {
        "asm": "3044022035aee0b0e0fb72df0b681b9309313ae44c04c1e68a252d8cd31b6b9da47c761002202ddccab3c2dde7d44349f1de06ac8f4edd9922dd87daef4c2d3042d9b9ee730f[ALL] 031ee0749e50515be3b14b8372d2bcf28d36394a1123a6c5778d9128be3e5d3fc9",
        "hex": "473044022035aee0b0e0fb72df0b681b9309313ae44c04c1e68a252d8cd31b6b9da47c761002202ddccab3c2dde7d44349f1de06ac8f4edd9922dd87daef4c2d3042d9b9ee730f0121031ee0749e50515be3b14b8372d2bcf28d36394a1123a6c5778d9128be3e5d3fc9"
      },
      "sequence": 4294967295
    }
  ],
  "vout": [
    {
      "value": 20.22182530,
      "n": 0,
      "scriptPubKey": {
        "asm": "OP_DUP OP_HASH160 d5eddcf82a0cc401d4bc8a451f1644df3409a2a7 OP_EQUALVERIFY OP_CHECKSIG",
        "hex": "76a914d5eddcf82a0cc401d4bc8a451f1644df3409a2a788ac",
        "reqSigs": 1,
        "type": "pubkeyhash",
        "addresses": [
          "DQeFR96zwFUZaUbDdqnPAg7YfSSv9xZPrb"
        ]
      }
    },
    {
      "value": 1.00039692,
      "n": 1,
      "scriptPubKey": {
        "asm": "OP_HASH160 087fa0eb841a64a42a1a860517f89fb4826979e0 OP_EQUAL",
        "hex": "a914087fa0eb841a64a42a1a860517f89fb4826979e087",
        "reqSigs": 1,
        "type": "scripthash",
        "addresses": [
          "9sDCxiPxADDRx1o4x248x156x22yzKvo4C"
        ]
      }
    }
  ],
  "blockhash": "812bfe786e2059a71bd66675f3f96c6b017ff94ff4e2b639d61ccdcb9a1bfc44",
  "confirmations": 1593137,
  "time": 1570210306,
  "blocktime": 1570210306
}
