{
  "hex": "010000000396ef06e1ab4bc53e790e9c713c6dd5e21b29a1972c43ef5f74209b88a5f2464f000000006a4730440220466ab4bda16e218fd35d8bb3a51efd981c6622db5d4348c50e4b7230e990852302204c7bf59a04bfcaa2e58a89484d161730ff705cd887ed0473f503cdd4c8760e100121033647cb6fb68f933905c4f59c4d16e08d6e0563c0ee8a30af2b70a1489d5a8f44ffffffff0438dfb8eb8e9ca427468a1cd3ff7107c1f40bc4f0617a35cf96550f5f38d746000000006b483045022100cfb7b600b2d794cce07e006d9480c827f08e327993510648c148f3bedff28ea8022025fe302d2b2b6e5ddda2e239bd90efa22097b8091a32bac78cd3f9a4337dddf90121031ee0749e50515be3b14b8372d2bcf28d36394a1123a6c5778d9128be3e5d3fc9ffffffff8c997b4c783f3ab719bffaa0180184853b431d73bc39314611d8b403735dfeea000000006a473044022100f9412fdabc9f17636d9a492980b7fe4908a4d688364f04bedfab82607d4ba2a5021f4b3f25a226505523b1d7e166d77df02d1cce96f1ec58e83f1488f3ba8b65050121031ee0749e50515be3b14b8372d2bcf28d36394a1123a6c5778d9128be3e5d3fc9ffffffff0274e2f505000000001976a91455b6f8f32ce61c75cd3de136d776fdd2ba554e6b88ac1efddb1b000000001976a9148d838def32b273c25c47cd7c0ca606a95198139e88ac00000000",
  "txid": "976a168827a7e214f37913191fe936ebfdba5233eb7fc55e2168c93cd37244da",
  "hash": "976a168827a7e214f37913191fe936ebfdba5233eb7fc55e2168c93cd37244da",
  "size": 520,
  "vsize": 520,
  "version": 1,
  "locktime": 0,
  "vin": [
    {
      "txid": "4f46f2a5889b20745fef432c97a1291be2d56d3c719c0e793ec54babe106ef96",
      "vout": 0,
      "scriptSig": {
        "asm": "30440220466ab4bda16e218fd35d8bb3a51efd981c6622db5d4348c50e4b7230e990852302204c7bf59a04bfcaa2e58a89484d161730ff705cd887ed0473f503cdd4c8760e10[ALL] 033647cb6fb68f933905c4f59c4d16e08d6e0563c0ee8a30af2b70a1489d5a8f44",
        "hex": "4730440220466ab4bda16e218fd35d8bb3a51efd981c6622db5d4348c50e4b7230e990852302204c7bf59a04bfcaa2e58a89484d161730ff705cd887ed0473f503cdd4c8760e100121033647cb6fb68f933905c4f59c4d16e08d6e0563c0ee8a30af2b70a1489d5a8f44"
      },
      "sequence": 4294967295
    },
    {
      "txid": "46d7385f0f5596cf357a61f0c40bf4c10771ffd31c8a4627a49c8eebb8df3804",
      "vout": 0,
      "scriptSig": {
        "asm": "3045022100cfb7b600b2d794cce07e006d9480c827f08e327993510648c148f3bedff28ea8022025fe302d2b2b6e5ddda2e239bd90efa22097b8091a32bac78cd3f9a4337dddf9[ALL] 031ee0749e50515be3b14b8372d2bcf28d36394a1123a6c5778d9128be3e5d3fc9",
        "hex": "483045022100cfb7b600b2d794cce07e006d9480c827f08e327993510648c148f3bedff28ea8022025fe302d2b2b6e5ddda2e239bd90efa22097b8091a32bac78cd3f9a4337dddf90121031ee0749e50515be3b14b8372d2bcf28d36394a1123a6c5778d9128be3e5d3fc9"
      },
      "sequence": 4294967295
    },
    {
      "txid": "eafe5d7303b4d811463139bc731d433b85840118a0fabf19b73a3f784c7b998c",
      "vout": 0,
      "scriptSig": {
        "asm": "3044022100f9412fdabc9f17636d9a492980b7fe4908a4d688364f04bedfab82607d4ba2a5021f4b3f25a226505523b1d7e166d77df02d1cce96f1ec58e83f1488f3ba8b6505[ALL] 031ee0749e50515be3b14b8372d2bcf28d36394a1123a6c5778d9128be3e5d3fc9",
        "hex": "473044022100f9412fdabc9f17636d9a492980b7fe4908a4d688364f04bedfab82607d4ba2a5021f4b3f25a226505523b1d7e166d77df02d1cce96f1ec58e83f1488f3ba8b65050121031ee0749e50515be3b14b8372d2bcf28d36394a1123a6c5778d9128be3e5d3fc9"
      },
      "sequence": 4294967295
    }
  ],
  "vout": [
    {
      "value": 1.00000372,
      "n": 0,
      "scriptPubKey": {
        "asm": "OP_DUP OP_HASH160 55b6f8f32ce61c75cd3de136d776fdd2ba554e6b OP_EQUALVERIFY OP_CHECKSIG",
        "hex": "76a91455b6f8f32ce61c75cd3de136d776fdd2ba554e6b88ac",
        "reqSigs": 1,
        "type": "pubkeyhash",
        "addresses": [
          "DCxKAiLLYyKAiLLYxKELLYKEKKLEV4T74R"
        ]
      }
    },
    {
      "value": 4.67402014,
      "n": 1,
      "scriptPubKey": {
        "asm": "OP_DUP OP_HASH160 8d838def32b273c25c47cd7c0ca606a95198139e OP_EQUALVERIFY OP_CHECKSIG",
        "hex": "76a9148d838def32b273c25c47cd7c0ca606a95198139e88ac",
        "reqSigs": 1,
        "type": "pubkeyhash",
        "addresses": [
          "DJ3MQsLPGyjmiKRA1xQvHC4RqGXs9X9CFF"
        ]
      }
    }
  ],
  "blockhash": "880e47d07c2029f449d39cf4f582f3ef7864b87c71d86e42f1cf9b1893e38901",
  "confirmations": 1586433,
  "time": 1570633480,
  "blocktime": 1570633480
}
