{
  "hex": "010000000136655c277554715b90eeeab5a0b532640c066b51f95778fc717400a3fd3d033c010000006a473044022041681d57fcf39e377c291e5aa3a76c661489368df5ce98584a5f8ccc2110ef66022020828333535f2e00d123a8ade350f30d2ebbf5da4f7a404874547acbbed82a250121021252299b3014a43c99992dd8ea39c590c2a0ab1d9375f5c976be0b7c6b9e1ae5ffffffff027b53086e010000001976a914d0f5eb182d6564c660bba6492a4cc792633f160388ac9f67f705000000001976a91455bc6fdf7237f339957a75f087535455a0ba416a88ac00000000",
  "txid": "9bbbf9e2bb182ba56160a5e5d064b429be43557af120755e0a2cf2d465c4100f",
  "hash": "9bbbf9e2bb182ba56160a5e5d064b429be43557af120755e0a2cf2d465c4100f",
  "size": 225,
  "vsize": 225,
  "version": 1,
  "locktime": 0,
  "vin": [
    {
      "txid": "3c033dfda3007471fc7857f9516b060c6432b5a0b5eaee905b715475275c6536",
      "vout": 1,
      "scriptSig": {
        "asm": "3044022041681d57fcf39e377c291e5aa3a76c661489368df5ce98584a5f8ccc2110ef66022020828333535f2e00d123a8ade350f30d2ebbf5da4f7a404874547acbbed82a25[ALL] 021252299b3014a43c99992dd8ea39c590c2a0ab1d9375f5c976be0b7c6b9e1ae5",
        "hex": "473044022041681d57fcf39e377c291e5aa3a76c661489368df5ce98584a5f8ccc2110ef66022020828333535f2e00d123a8ade350f30d2ebbf5da4f7a404874547acbbed82a250121021252299b3014a43c99992dd8ea39c590c2a0ab1d9375f5c976be0b7c6b9e1ae5"
      },
      "sequence": 4294967295
    }
  ],
  "vout": [
    {
      "value": 61.41006715,
      "n": 0,
      "scriptPubKey": {
        "asm": "OP_DUP OP_HASH160 d0f5eb182d6564c660bba6492a4cc792633f1603 OP_EQUALVERIFY OP_CHECKSIG",
        "hex": "76a914d0f5eb182d6564c660bba6492a4cc792633f160388ac",
        "reqSigs": 1,
        "type": "pubkeyhash",
        "addresses": [
          "DQBygs7W1dUQmnxAy966dzzZAjhgNWkZMx"
        ]
      }
    },
    {
      "value": 1.00099999,
      "n": 1,
      "scriptPubKey": {
        "asm": "OP_DUP OP_HASH160 55bc6fdf7237f339957a75f087535455a0ba416a OP_EQUALVERIFY OP_CHECKSIG",
        "hex": "76a91455bc6fdf7237f339957a75f087535455a0ba416a88ac",
        "reqSigs": 1,
        "type": "pubkeyhash",
        "addresses": [
          "DCxRiPxELiJAHxCUMMiNGSzzzzzzRd8svD"
        ]
      }
    }
  ],
  "blockhash": "6e3baf9a35e29ed417c0c40434c8da311b61c412cf193270fd107e4d9f233f86",
  "confirmations": 1574866,
  "time": 1571357260,
  "blocktime": 1571357260
}
