{
  "hex": "01000000011a15f1aa61ab29ff75d90009ef627308e606c5c6e97bae3df8d5400576a3dc3b030000006a47304402204e350534a02e87ea9c7084875c6c07d81104852f9eda5f2e78bb0ac2c405b7cf02205ed1b278c459383941fb67e7cac1821793d73699346b195b5c7e1c8fab68941b012103d534607fe4daf49d62132945262d82dd6c45ba7aa57adbf69d0608551126490efeffffff0510270000000000001976a91455bb65fcf99579e98dab9cb7ad94580dbe9fcf3788ac102700000000000017a9140dfe304c380fad31ca5ffe3833cd0713156ea72587102700000000000017a914086befa46d0d0d79fa3cad1c0562f12d2335705687807ae13b010000001976a914ecb7e982eb3b3ba680793e8c092fab81918a23d288ac102700000000000017a914086c390c5d50bd4bb1d6026b8652078c7f18dd5d8735dc3000",
  "txid": "9bf6c6d699232667a5e18ae39ddef82695639ea880a6e9a38f91304d43829ca6",
  "hash": "9bf6c6d699232667a5e18ae39ddef82695639ea880a6e9a38f91304d43829ca6",
  "size": 321,
  "vsize": 321,
  "version": 1,
  "locktime": 3202101,
  "vin": [
    {
      "txid": "3bdca3760540d5f83dae7be9c6c506e6087362ef0900d975ff29ab61aaf1151a",
      "vout": 3,
      "scriptSig": {
        "asm": "304402204e350534a02e87ea9c7084875c6c07d81104852f9eda5f2e78bb0ac2c405b7cf02205ed1b278c459383941fb67e7cac1821793d73699346b195b5c7e1c8fab68941b[ALL] 03d534607fe4daf49d62132945262d82dd6c45ba7aa57adbf69d0608551126490e",
        "hex": "47304402204e350534a02e87ea9c7084875c6c07d81104852f9eda5f2e78bb0ac2c405b7cf02205ed1b278c459383941fb67e7cac1821793d73699346b195b5c7e1c8fab68941b012103d534607fe4daf49d62132945262d82dd6c45ba7aa57adbf69d0608551126490e"
      },
      "sequence": 4294967294
    }
  ],
  "vout": [
    {
      "value": 0.00010000,
      "n": 0,
      "scriptPubKey": {
        "asm": "OP_DUP OP_HASH160 55bb65fcf99579e98dab9cb7ad94580dbe9fcf37 OP_EQUALVERIFY OP_CHECKSIG",
        "hex": "76a91455bb65fcf99579e98dab9cb7ad94580dbe9fcf3788ac",
        "reqSigs": 1,
        "type": "pubkeyhash",
        "addresses": [
          "DCxQUESTioNzzzzzzzzzzzzzzzzzauRD3r"
        ]
      }
    },
    {
      "value": 0.00010000,
      "n": 1,
      "scriptPubKey": {
        "asm": "OP_HASH160 0dfe304c380fad31ca5ffe3833cd0713156ea725 OP_EQUAL",
        "hex": "a9140dfe304c380fad31ca5ffe3833cd0713156ea72587",
        "reqSigs": 1,
        "type": "scripthash",
        "addresses": [
          "9siFxDoGECoiNxiSxUSEDxASxAzzYAddH2"
        ]
      }
    },
    {
      "value": 0.00010000,
      "n": 2,
      "scriptPubKey": {
        "asm": "OP_HASH160 086befa46d0d0d79fa3cad1c0562f12d23357056 OP_EQUAL",
        "hex": "a914086befa46d0d0d79fa3cad1c0562f12d2335705687",
        "reqSigs": 1,
        "type": "scripthash",
        "addresses": [
          "9sCoNTRACTvxiSxiTxAxUNiTYzzzWknFvs"
        ]
      }
    },
    {
      "value": 52.99600000,
      "n": 3,
      "scriptPubKey": {
        "asm": "OP_DUP OP_HASH160 ecb7e982eb3b3ba680793e8c092fab81918a23d2 OP_EQUALVERIFY OP_CHECKSIG",
        "hex": "76a914ecb7e982eb3b3ba680793e8c092fab81918a23d288ac",
        "reqSigs": 1,
        "type": "pubkeyhash",
        "addresses": [
          "DSikKyGLdqHPuLL6VT7aaYoDfyN1GSJWTk"
        ]
      }
    },
    {
      "value": 0.00010000,
      "n": 4,
      "scriptPubKey": {
        "asm": "OP_HASH160 086c390c5d50bd4bb1d6026b8652078c7f18dd5d OP_EQUAL",
        "hex": "a914086c390c5d50bd4bb1d6026b8652078c7f18dd5d87",
        "reqSigs": 1,
        "type": "scripthash",
        "addresses": [
          "9sCoiNxoRxAxCURRENCYkzzzzzzzYskcNt"
        ]
      }
    }
  ],
  "blockhash": "bd539ebefc93d423b332c2b46d9aaea9e5b3538e55f0f6a0b2c18555aea3ac94",
  "confirmations": 1313012,
  "time": 1587792521,
  "blocktime": 1587792521
}
