{
  "hex": "0100000001eebc4778fb55bc468ea135abcbc7ed3febda3872faa513b6ef5184b6f869dae2000000006b483045022100868da0beb896e150a67d0eba891724ade968e0162be58e1f9e05e03bf1b46418022029c709ca7e899fe522f46b21dae8caf41920b2c58053fdc8efcd1f0127c4df800121033862d68761b4afc77e585aadc6c85cd502ca21694a83dbbea91c13de27c953eaffffffff02e7cc070c000000001976a9149204d6d6045624136bfa20e70d3988cced86061288ac00e1f5050000000017a9140ac59f4dcb59623a2e1666e0e4de5392136fd2b18700000000",
  "txid": "a374df99ed563dd53654f6a35c185ac32c4ddbc9bcdcd317634d1d90a08195cf",
  "hash": "a374df99ed563dd53654f6a35c185ac32c4ddbc9bcdcd317634d1d90a08195cf",
  "size": 224,
  "vsize": 224,
  "version": 1,
  "locktime": 0,
  "vin": [
    {
      "txid": "e2da69f8b68451efb613a5fa7238daeb3fedc7cbab35a18e46bc55fb7847bcee",
      "vout": 0,
      "scriptSig": {
        "asm": "3045022100868da0beb896e150a67d0eba891724ade968e0162be58e1f9e05e03bf1b46418022029c709ca7e899fe522f46b21dae8caf41920b2c58053fdc8efcd1f0127c4df80[ALL] 033862d68761b4afc77e585aadc6c85cd502ca21694a83dbbea91c13de27c953ea",
        "hex": "483045022100868da0beb896e150a67d0eba891724ade968e0162be58e1f9e05e03bf1b46418022029c709ca7e899fe522f46b21dae8caf41920b2c58053fdc8efcd1f0127c4df800121033862d68761b4afc77e585aadc6c85cd502ca21694a83dbbea91c13de27c953ea"
      },
      "sequence": 4294967295
    }
  ],
  "vout": [
    {
      "value": 2.01837799,
      "n": 0,
      "scriptPubKey": {
        "asm": "OP_DUP OP_HASH160 9204d6d6045624136bfa20e70d3988cced860612 OP_EQUALVERIFY OP_CHECKSIG",
        "hex": "76a9149204d6d6045624136bfa20e70d3988cced86061288ac",
        "reqSigs": 1,
        "type": "pubkeyhash",
        "addresses": [
          "DJTAzVvGS1gCDfAhssjs3fUYJDoe3QFcCa"
        ]
      }
    },
    {
      "value": 1.00000000,
      "n": 1,
      "scriptPubKey": {
        "asm": "OP_HASH160 0ac59f4dcb59623a2e1666e0e4de5392136fd2b1 OP_EQUAL",
        "hex": "a9140ac59f4dcb59623a2e1666e0e4de5392136fd2b187",
        "reqSigs": 1,
        "type": "scripthash",
        "addresses": [
          "9sREALxHARD1xRAiNxFoRxAzzzzzYSuwFJ"
        ]
      }
    }
  ],
  "blockhash": "e419694df20e03c9d2083f4c37959752311437c246d370eeff0566b909f6a8ea",
  "confirmations": 1571049,
  "time": 1571586108,
  "blocktime": 1571586108
}
