{
  "hex": "0100000001da4472d33cc968215ec57feb3352bafdeb36e91f191379f314e2a72788166a97010000006b483045022100c83ede2f0843757349fac3c4326105eebe083555452034f98db2d0dae52042f202202989525ab48c15cf8e3dc95144e82c2003e398e0c27f2f1bc2400cdbefdbf8eb012103e5d13032e0fb393b89519099f2faaabbe1cf41da926e2cdebda057181bb65676ffffffff02beecf505000000001976a91455b225aebdbc98e3c4bc57fbc46184a593f1368488ac602ff00f000000001976a914acf3de5e0249fd4c2199402dbca0a2292477991988ac00000000",
  "txid": "a478b1fec6d678be92bc412bb101e3450bec529575615db8c091e9a776031ada",
  "hash": "a478b1fec6d678be92bc412bb101e3450bec529575615db8c091e9a776031ada",
  "size": 226,
  "vsize": 226,
  "version": 1,
  "locktime": 0,
  "vin": [
    {
      "txid": "976a168827a7e214f37913191fe936ebfdba5233eb7fc55e2168c93cd37244da",
      "vout": 1,
      "scriptSig": {
        "asm": "3045022100c83ede2f0843757349fac3c4326105eebe083555452034f98db2d0dae52042f202202989525ab48c15cf8e3dc95144e82c2003e398e0c27f2f1bc2400cdbefdbf8eb[ALL] 03e5d13032e0fb393b89519099f2faaabbe1cf41da926e2cdebda057181bb65676",
        "hex": "483045022100c83ede2f0843757349fac3c4326105eebe083555452034f98db2d0dae52042f202202989525ab48c15cf8e3dc95144e82c2003e398e0c27f2f1bc2400cdbefdbf8eb012103e5d13032e0fb393b89519099f2faaabbe1cf41da926e2cdebda057181bb65676"
      },
      "sequence": 4294967295
    }
  ],
  "vout": [
    {
      "value": 1.00003006,
      "n": 0,
      "scriptPubKey": {
        "asm": "OP_DUP OP_HASH160 55b225aebdbc98e3c4bc57fbc46184a593f13684 OP_EQUALVERIFY OP_CHECKSIG",
        "hex": "76a91455b225aebdbc98e3c4bc57fbc46184a593f1368488ac",
        "reqSigs": 1,
        "type": "pubkeyhash",
        "addresses": [
          "DCxDPSxNoWxSERViNGxSzzzzzzzzSKAyrK"
        ]
      }
    },
    {
      "value": 2.67399008,
      "n": 1,
      "scriptPubKey": {
        "asm": "OP_DUP OP_HASH160 acf3de5e0249fd4c2199402dbca0a22924779919 OP_EQUALVERIFY OP_CHECKSIG",
        "hex": "76a914acf3de5e0249fd4c2199402dbca0a2292477991988ac",
        "reqSigs": 1,
        "type": "pubkeyhash",
        "addresses": [
          "DLuauYQ9H5iRnxSdaW7UbBCNkQopsR94j7"
        ]
      }
    }
  ],
  "blockhash": "ab95a1add8affd4b3dc45e9b639d6c8fc16ff183295667b397845137442f74bc",
  "confirmations": 1585040,
  "time": 1570716462,
  "blocktime": 1570716462
}
