{
  "hex": "0100000001c9d9d9bf604e80821289b3fd492e51bd714c0c3c641b2ff2dda10a5bb453f371020000006b483045022100ebddacb04a5f26909a7588714bdf9af243683be572a3dc9f1830d23061b90f400220581fab647d4465cae5ef27728eb3665ff706c570fb91a2c77fcdeb10ca86c99901210382a535cbeb89b77a0804765cc278edd09bd6fc4f4c77431c0770e8bd22dcffbdfeffffff0610270000000000001976a91455b55bb21b12e82f66ddf8c8150ae779c1ef3fe288ac102700000000000017a914095e2360034d77532ea7ea3cb49c0fa71bf5762987102700000000000017a9141917e126bbfae4cc350e16cc72fd1237fcb3104087a0668bd6000000001976a914b90075f0113802f3a60a31809ac8240ec109dcb788ac102700000000000017a9140b28f57507783de88e28f6e39e10b2cb00accb1c87102700000000000017a9141c20e788ace8305eed507f8422ba49d6eca24bff87c3de3000",
  "txid": "a8d162934a1bffcb25d6d54289b4013b13f2e9611d7a8cdabdee6abe0c0157b1",
  "hash": "a8d162934a1bffcb25d6d54289b4013b13f2e9611d7a8cdabdee6abe0c0157b1",
  "size": 354,
  "vsize": 354,
  "version": 1,
  "locktime": 3202755,
  "vin": [
    {
      "txid": "71f353b45b0aa1ddf22f1b643c0c4c71bd512e49fdb3891282804e60bfd9d9c9",
      "vout": 2,
      "scriptSig": {
        "asm": "3045022100ebddacb04a5f26909a7588714bdf9af243683be572a3dc9f1830d23061b90f400220581fab647d4465cae5ef27728eb3665ff706c570fb91a2c77fcdeb10ca86c999[ALL] 0382a535cbeb89b77a0804765cc278edd09bd6fc4f4c77431c0770e8bd22dcffbd",
        "hex": "483045022100ebddacb04a5f26909a7588714bdf9af243683be572a3dc9f1830d23061b90f400220581fab647d4465cae5ef27728eb3665ff706c570fb91a2c77fcdeb10ca86c99901210382a535cbeb89b77a0804765cc278edd09bd6fc4f4c77431c0770e8bd22dcffbd"
      },
      "sequence": 4294967294
    }
  ],
  "vout": [
    {
      "value": 0.00010000,
      "n": 0,
      "scriptPubKey": {
        "asm": "OP_DUP OP_HASH160 55b55bb21b12e82f66ddf8c8150ae779c1ef3fe2 OP_EQUALVERIFY OP_CHECKSIG",
        "hex": "76a91455b55bb21b12e82f66ddf8c8150ae779c1ef3fe288ac",
        "reqSigs": 1,
        "type": "pubkeyhash",
        "addresses": [
          "DCxHEYxGUYSzzzzzzzzzzzzzzzzzVELaN6"
        ]
      }
    },
    {
      "value": 0.00010000,
      "n": 1,
      "scriptPubKey": {
        "asm": "OP_HASH160 095e2360034d77532ea7ea3cb49c0fa71bf57629 OP_EQUAL",
        "hex": "a914095e2360034d77532ea7ea3cb49c0fa71bf5762987",
        "reqSigs": 1,
        "type": "scripthash",
        "addresses": [
          "9sHoWxARExYoUzzzzzzzzzzzzzzzYdWnno"
        ]
      }
    },
    {
      "value": 0.00010000,
      "n": 2,
      "scriptPubKey": {
        "asm": "OP_HASH160 1917e126bbfae4cc350e16cc72fd1237fcb31040 OP_EQUAL",
        "hex": "a9141917e126bbfae4cc350e16cc72fd1237fcb3104087",
        "reqSigs": 1,
        "type": "scripthash",
        "addresses": [
          "9tixAMxDoiNGxWELLzzzzzzzzzzzWz9fsV"
        ]
      }
    },
    {
      "value": 35.99460000,
      "n": 3,
      "scriptPubKey": {
        "asm": "OP_DUP OP_HASH160 b90075f0113802f3a60a31809ac8240ec109dcb7 OP_EQUALVERIFY OP_CHECKSIG",
        "hex": "76a914b90075f0113802f3a60a31809ac8240ec109dcb788ac",
        "reqSigs": 1,
        "type": "pubkeyhash",
        "addresses": [
          "DN1J6kqhsbLVwJcQcNBg9rETePGmBiUv1Q"
        ]
      }
    },
    {
      "value": 0.00010000,
      "n": 4,
      "scriptPubKey": {
        "asm": "OP_HASH160 0b28f57507783de88e28f6e39e10b2cb00accb1c OP_EQUAL",
        "hex": "a9140b28f57507783de88e28f6e39e10b2cb00accb1c87",
        "reqSigs": 1,
        "type": "scripthash",
        "addresses": [
          "9sTHANKSxFoRxASKiNGzzzzzzzzzU1qb6H"
        ]
      }
    },
    {
      "value": 0.00010000,
      "n": 5,
      "scriptPubKey": {
        "asm": "OP_HASH160 1c20e788ace8305eed507f8422ba49d6eca24bff OP_EQUAL",
        "hex": "a9141c20e788ace8305eed507f8422ba49d6eca24bff87",
        "reqSigs": 1,
        "type": "scripthash",
        "addresses": [
          "9tzzzzzzzzzzzzzzzzzzzzzzzzzzTg7t3J"
        ]
      }
    }
  ],
  "blockhash": "cfb2af933f92160f8d8de102f2aebc499b5886203b1ec51fff494236616fae48",
  "confirmations": 553927,
  "time": 1587829446,
  "blocktime": 1587829446
}
