{
  "hex": "01000000014fe4573e5b41c1d75b386a50e0479dfd0505c58de9906529edda4d1aac438ae0000000006b483045022100f663d423d5a79f21920b74f285eb7836e3d612db9c677ccdab9e23432200fedd02204762432b73eb7dbfe768f9ba4627b8bc7e1320a0c307c81309ccdd2ff3f31056012103776c20f9e7e6207f47b559c5dd41e698be0f3fbf20118a09671c0000b92624e5feffffff0e10e3c3bb0a0000001976a9144e5501214e12348639200a3a6646f14d1f4df58588ac102700000000000017a9140b29065937ebaea4424f004cdc852093f9bf76eb87102700000000000017a91407f48abaef5cdba2c50fa9fc6745d07db563146587102700000000000017a9140ac59ecf08180deae5cdb2551742bc44b9c190d687102700000000000017a9140bcf51b9af242d0894853cba37218713527896a187102700000000000017a91407ee97a341afb127148cc91dd7df55756314b13287102700000000000017a914086befa46d0d01d5ddf0bcea9dc04eef7a3d01c787102700000000000017a91408fd3bfaf62bbe4937dd2a9c61fd2cc7c038960987102700000000000017a9141128c7554f4cf2c1f7c4ee669bb6f35ef122f98287102700000000000017a9140b42ab280d4c1c26277b378ada7b1bbdfe1b987c87102700000000000017a914097ea111910f740d5cbf67d8b30c69d955625f8e8700943577000000001976a9143a3b35c145ef03674a761c0d12aa6b96cb5c949788ac102700000000000017a9140b296ba774ecd1215008be5a0d8acc43a23ce4bd87102700000000000017a91408e6880d12423563d352133d4e4531f90e4d225b878e302c00",
  "txid": "acff6c6ae259d0caf7a0ba50e2bc08ef2c041a787ae3cc03835c951deab9c921",
  "hash": "acff6c6ae259d0caf7a0ba50e2bc08ef2c041a787ae3cc03835c951deab9c921",
  "size": 610,
  "vsize": 610,
  "version": 1,
  "locktime": 2896014,
  "vin": [
    {
      "txid": "e08a43ac1a4ddaed296590e98dc50505fd9d47e0506a385bd7c1415b3e57e44f",
      "vout": 0,
      "scriptSig": {
        "asm": "3045022100f663d423d5a79f21920b74f285eb7836e3d612db9c677ccdab9e23432200fedd02204762432b73eb7dbfe768f9ba4627b8bc7e1320a0c307c81309ccdd2ff3f31056[ALL] 03776c20f9e7e6207f47b559c5dd41e698be0f3fbf20118a09671c0000b92624e5",
        "hex": "483045022100f663d423d5a79f21920b74f285eb7836e3d612db9c677ccdab9e23432200fedd02204762432b73eb7dbfe768f9ba4627b8bc7e1320a0c307c81309ccdd2ff3f31056012103776c20f9e7e6207f47b559c5dd41e698be0f3fbf20118a09671c0000b92624e5"
      },
      "sequence": 4294967294
    }
  ],
  "vout": [
    {
      "value": 460.99850000,
      "n": 0,
      "scriptPubKey": {
        "asm": "OP_DUP OP_HASH160 4e5501214e12348639200a3a6646f14d1f4df585 OP_EQUALVERIFY OP_CHECKSIG",
        "hex": "76a9144e5501214e12348639200a3a6646f14d1f4df58588ac",
        "reqSigs": 1,
        "type": "pubkeyhash",
        "addresses": [
          "DCHH5RyijyJcPxUnCx6eSB3sLVqVJbgswi"
        ]
      }
    },
    {
      "value": 0.00010000,
      "n": 1,
      "scriptPubKey": {
        "asm": "OP_HASH160 0b29065937ebaea4424f004cdc852093f9bf76eb OP_EQUAL",
        "hex": "a9140b29065937ebaea4424f004cdc852093f9bf76eb87",
        "reqSigs": 1,
        "type": "scripthash",
        "addresses": [
          "9sTHExDiMECASHxSERViCEzzzzzzBoUCiD"
        ]
      }
    },
    {
      "value": 0.00010000,
      "n": 2,
      "scriptPubKey": {
        "asm": "OP_HASH160 07f48abaef5cdba2c50fa9fc6745d07db5631465 OP_EQUAL",
        "hex": "a91407f48abaef5cdba2c50fa9fc6745d07db563146587",
        "reqSigs": 1,
        "type": "scripthash",
        "addresses": [
          "9sALLoWSxYoUxToxREGiSTERzzzz7hB6ey"
        ]
      }
    },
    {
      "value": 0.00010000,
      "n": 3,
      "scriptPubKey": {
        "asm": "OP_HASH160 0ac59ecf08180deae5cdb2551742bc44b9c190d6 OP_EQUAL",
        "hex": "a9140ac59ecf08180deae5cdb2551742bc44b9c190d687",
        "reqSigs": 1,
        "type": "scripthash",
        "addresses": [
          "9sREADABLExMESSAGESxALoNGzzzBiNY8Q"
        ]
      }
    },
    {
      "value": 0.00010000,
      "n": 4,
      "scriptPubKey": {
        "asm": "OP_HASH160 0bcf51b9af242d0894853cba37218713527896a1 OP_EQUAL",
        "hex": "a9140bcf51b9af242d0894853cba37218713527896a187",
        "reqSigs": 1,
        "type": "scripthash",
        "addresses": [
          "9sWiTHxVALiDxCRYPToCURRENCYzzYotvF"
        ]
      }
    },
    {
      "value": 0.00010000,
      "n": 5,
      "scriptPubKey": {
        "asm": "OP_HASH160 07ee97a341afb127148cc91dd7df55756314b132 OP_EQUAL",
        "hex": "a91407ee97a341afb127148cc91dd7df55756314b13287",
        "reqSigs": 1,
        "type": "scripthash",
        "addresses": [
          "9sADDRESSESxToxCREATExSMARTzzVBLq8"
        ]
      }
    },
    {
      "value": 0.00010000,
      "n": 6,
      "scriptPubKey": {
        "asm": "OP_HASH160 086befa46d0d01d5ddf0bcea9dc04eef7a3d01c7 OP_EQUAL",
        "hex": "a914086befa46d0d01d5ddf0bcea9dc04eef7a3d01c787",
        "reqSigs": 1,
        "type": "scripthash",
        "addresses": [
          "9sCoNTRACTSxTHATxARExEASYzzz4Dzj6t"
        ]
      }
    },
    {
      "value": 0.00010000,
      "n": 7,
      "scriptPubKey": {
        "asm": "OP_HASH160 08fd3bfaf62bbe4937dd2a9c61fd2cc7c0389609 OP_EQUAL",
        "hex": "a91408fd3bfaf62bbe4937dd2a9c61fd2cc7c038960987",
        "reqSigs": 1,
        "type": "scripthash",
        "addresses": [
          "9sFoRxANYoNExToxUNDERSTANDzz8WTUhM"
        ]
      }
    },
    {
      "value": 0.00010000,
      "n": 8,
      "scriptPubKey": {
        "asm": "OP_HASH160 1128c7554f4cf2c1f7c4ee669bb6f35ef122f982 OP_EQUAL",
        "hex": "a9141128c7554f4cf2c1f7c4ee669bb6f35ef122f98287",
        "reqSigs": 1,
        "type": "scripthash",
        "addresses": [
          "9szzzzzzzzzzzzzzzzzzzzzzzzzzvq1Mt1"
        ]
      }
    },
    {
      "value": 0.00010000,
      "n": 9,
      "scriptPubKey": {
        "asm": "OP_HASH160 0b42ab280d4c1c26277b378ada7b1bbdfe1b987c OP_EQUAL",
        "hex": "a9140b42ab280d4c1c26277b378ada7b1bbdfe1b987c87",
        "reqSigs": 1,
        "type": "scripthash",
        "addresses": [
          "9sToxiNCLUDExAxRECiPiENTzzzz9jwkxA"
        ]
      }
    },
    {
      "value": 0.00010000,
      "n": 10,
      "scriptPubKey": {
        "asm": "OP_HASH160 097ea111910f740d5cbf67d8b30c69d955625f8e OP_EQUAL",
        "hex": "a914097ea111910f740d5cbf67d8b30c69d955625f8e87",
        "reqSigs": 1,
        "type": "scripthash",
        "addresses": [
          "9sJUSTxADDxTHEiRxADDRESSzzzz8fVP48"
        ]
      }
    },
    {
      "value": 20.00000000,
      "n": 11,
      "scriptPubKey": {
        "asm": "OP_DUP OP_HASH160 3a3b35c145ef03674a761c0d12aa6b96cb5c9497 OP_EQUALVERIFY OP_CHECKSIG",
        "hex": "76a9143a3b35c145ef03674a761c0d12aa6b96cb5c949788ac",
        "reqSigs": 1,
        "type": "pubkeyhash",
        "addresses": [
          "DASzfNC2MW7BVxR313hQaYirK29MobqSSB"
        ]
      }
    },
    {
      "value": 0.00010000,
      "n": 12,
      "scriptPubKey": {
        "asm": "OP_HASH160 0b296ba774ecd1215008be5a0d8acc43a23ce4bd OP_EQUAL",
        "hex": "a9140b296ba774ecd1215008be5a0d8acc43a23ce4bd87",
        "reqSigs": 1,
        "type": "scripthash",
        "addresses": [
          "9sTHiSxSYSTEMxiSxCHEAPzzzzzzEr3Za4"
        ]
      }
    },
    {
      "value": 0.00010000,
      "n": 13,
      "scriptPubKey": {
        "asm": "OP_HASH160 08e6880d12423563d352133d4e4531f90e4d225b OP_EQUAL",
        "hex": "a91408e6880d12423563d352133d4e4531f90e4d225b87",
        "reqSigs": 1,
        "type": "scripthash",
        "addresses": [
          "9sFLEXiBLExANDxRELiABLEzzzzz9MEn6C"
        ]
      }
    }
  ],
  "blockhash": "47e8e65d831e9ccc4c9c8f8d9fd02e14f93f83187f2c0ef3c0eb663f05c7f5f2",
  "confirmations": 1619040,
  "time": 1568591511,
  "blocktime": 1568591511
}
