{
  "hex": "01000000010f5365931e7b82d5ad33f5f8dc3718196d23dba7f9e296eac115c34a71e5f7c1010000006b483045022100ece4dccf70c2942a0b70e658856b9b4c1967d79baf6e90f2b76ce9d24e006c4702205ac23687ec9440c7e3404742356415ec552111bd7e6ca2f606f963fe6d03f5bc012102106d05caa9f0759a9dcf7c83aed483f7cfda64177eb9d62d9d785318e5a3eea9ffffffff0200e1f5050000000017a91408e1859fef200e88f792d16710bf57985d826c058788290b22010000001976a914564ce43f037a8e9f2c604ebf699f38f6b69f345088ac00000000",
  "txid": "aeb3bc305a79c93e1e8a1c01ca4ed7800c014dffc924ffaa392e20dc7d31d1f1",
  "hash": "aeb3bc305a79c93e1e8a1c01ca4ed7800c014dffc924ffaa392e20dc7d31d1f1",
  "size": 224,
  "vsize": 224,
  "version": 1,
  "locktime": 0,
  "vin": [
    {
      "txid": "c1f7e5714ac315c1ea96e2f9a7db236d191837dcf8f533add5827b1e9365530f",
      "vout": 1,
      "scriptSig": {
        "asm": "3045022100ece4dccf70c2942a0b70e658856b9b4c1967d79baf6e90f2b76ce9d24e006c4702205ac23687ec9440c7e3404742356415ec552111bd7e6ca2f606f963fe6d03f5bc[ALL] 02106d05caa9f0759a9dcf7c83aed483f7cfda64177eb9d62d9d785318e5a3eea9",
        "hex": "483045022100ece4dccf70c2942a0b70e658856b9b4c1967d79baf6e90f2b76ce9d24e006c4702205ac23687ec9440c7e3404742356415ec552111bd7e6ca2f606f963fe6d03f5bc012102106d05caa9f0759a9dcf7c83aed483f7cfda64177eb9d62d9d785318e5a3eea9"
      },
      "sequence": 4294967295
    }
  ],
  "vout": [
    {
      "value": 1.00000000,
      "n": 0,
      "scriptPubKey": {
        "asm": "OP_HASH160 08e1859fef200e88f792d16710bf57985d826c05 OP_EQUAL",
        "hex": "a91408e1859fef200e88f792d16710bf57985d826c0587",
        "reqSigs": 1,
        "type": "scripthash",
        "addresses": [
          "9sFEETxoFxWATERxiNxTHEzzzzzzWu4KbD"
        ]
      }
    },
    {
      "value": 48.66124168,
      "n": 1,
      "scriptPubKey": {
        "asm": "OP_DUP OP_HASH160 564ce43f037a8e9f2c604ebf699f38f6b69f3450 OP_EQUALVERIFY OP_CHECKSIG",
        "hex": "76a914564ce43f037a8e9f2c604ebf699f38f6b69f345088ac",
        "reqSigs": 1,
        "type": "pubkeyhash",
        "addresses": [
          "DD1QmH1uMBQ1BSGEJfPbxiLKWP3PBKRp7X"
        ]
      }
    }
  ],
  "blockhash": "36704af8cb90d1dcd5bd1107088757356b586f78b489ee2de3530c8ff669044e",
  "confirmations": 1571084,
  "time": 1571586240,
  "blocktime": 1571586240
}
