{
  "hex": "0100000001c4b219c44e23b3a70bc484fa85e39aa22ecef5ad4b656a3ba2ee123f3c1c678d030000006a47304402205df18b25fdae61f97e87e4085aca5dc57d7cbe23c6c1247304552fd62af416dc022053318b832032b5aa8f836356b34505ae76ef4666611c155ca54b9af3eb891a2c012102f7f2091032f1ca630a45e07a06908db1620cae061f73b5924bf5bf6acca6838cfeffffff1010270000000000001976a91455b203790ad792b14fa4f8cb47fbe22200b8a24588ac10270000000000001976a91455b55ae503e2930561515924023303d171641d1c88ac10270000000000001976a91455cad37559f4adb27446d3440bce7348f23780a388ac10270000000000001976a91455bdbe4b72f0b04bb7d6efb35c329009ef5a4fad88ac10270000000000001976a91455cad4c1c127a44ad68b820fe2233e92d49fb82388ac10270000000000001976a91455ba9017e0f7de52553640fce1cfb3bec9caed3688ac10270000000000001976a91455b58b3d700cfd3bb16cee77d5417b2ec111a98788ac10270000000000001976a91455bdbe9610e4d2cc7f2207ac9ea1921644f6bd9288ac10270000000000001976a91455bbf951e16ec8a77e09c9c8c9d626306235452488ac10270000000000001976a91455ba5eccfe6f886502d02891a136d314c16c359788ac10270000000000001976a91455bd57d218e4e8e824926382579a7fd7a653f30f88acffebba1d160100001976a914a0edc1e15c20d35b9a6b70bc2b6f4e65be7c9a6e88ac10270000000000001976a91455bdc05525609b475340f939dd6f44f675607d2f88ac10270000000000001976a91455afb184d86f8d90d19b04c446e58fd58655a09588ac10270000000000001976a91455b76dd7a2b32c882e7a3a7c05720e08df04c8b288ac10270000000000001976a91455bccf82c3401fc92384f0e4ae8f2510edd0648a88aca35b2e00",
  "txid": "b002a43d4ca626a3ee6ea6967c1304114aa3d39cae7ad74e18e8adcc140563ea",
  "hash": "b002a43d4ca626a3ee6ea6967c1304114aa3d39cae7ad74e18e8adcc140563ea",
  "size": 701,
  "vsize": 701,
  "version": 1,
  "locktime": 3038115,
  "vin": [
    {
      "txid": "8d671c3c3f12eea23b6a654badf5ce2ea29ae385fa84c40ba7b3234ec419b2c4",
      "vout": 3,
      "scriptSig": {
        "asm": "304402205df18b25fdae61f97e87e4085aca5dc57d7cbe23c6c1247304552fd62af416dc022053318b832032b5aa8f836356b34505ae76ef4666611c155ca54b9af3eb891a2c[ALL] 02f7f2091032f1ca630a45e07a06908db1620cae061f73b5924bf5bf6acca6838c",
        "hex": "47304402205df18b25fdae61f97e87e4085aca5dc57d7cbe23c6c1247304552fd62af416dc022053318b832032b5aa8f836356b34505ae76ef4666611c155ca54b9af3eb891a2c012102f7f2091032f1ca630a45e07a06908db1620cae061f73b5924bf5bf6acca6838c"
      },
      "sequence": 4294967294
    }
  ],
  "vout": [
    {
      "value": 0.00010000,
      "n": 0,
      "scriptPubKey": {
        "asm": "OP_DUP OP_HASH160 55b203790ad792b14fa4f8cb47fbe22200b8a245 OP_EQUALVERIFY OP_CHECKSIG",
        "hex": "76a91455b203790ad792b14fa4f8cb47fbe22200b8a24588ac",
        "reqSigs": 1,
        "type": "pubkeyhash",
        "addresses": [
          "DCxDEARxHARVARDxdRxFAiRxCTYbVQoLf3"
        ]
      }
    },
    {
      "value": 0.00010000,
      "n": 1,
      "scriptPubKey": {
        "asm": "OP_DUP OP_HASH160 55b55ae503e2930561515924023303d171641d1c OP_EQUALVERIFY OP_CHECKSIG",
        "hex": "76a91455b55ae503e2930561515924023303d171641d1c88ac",
        "reqSigs": 1,
        "type": "pubkeyhash",
        "addresses": [
          "DCxHELLovxHoWxARExYoUkzzzzzzRc7Dgf"
        ]
      }
    },
    {
      "value": 0.00010000,
      "n": 2,
      "scriptPubKey": {
        "asm": "OP_DUP OP_HASH160 55cad37559f4adb27446d3440bce7348f23780a3 OP_EQUALVERIFY OP_CHECKSIG",
        "hex": "76a91455cad37559f4adb27446d3440bce7348f23780a388ac",
        "reqSigs": 1,
        "type": "pubkeyhash",
        "addresses": [
          "DCxixAMxDoiNGxWELLhzzzzzzzzzU7w1d6"
        ]
      }
    },
    {
      "value": 0.00010000,
      "n": 3,
      "scriptPubKey": {
        "asm": "OP_DUP OP_HASH160 55bdbe4b72f0b04bb7d6efb35c329009ef5a4fad OP_EQUALVERIFY OP_CHECKSIG",
        "hex": "76a91455bdbe4b72f0b04bb7d6efb35c329009ef5a4fad88ac",
        "reqSigs": 1,
        "type": "pubkeyhash",
        "addresses": [
          "DCxTHANKSxFoRxASKiNGhzzzzzzzWu5KQh"
        ]
      }
    },
    {
      "value": 0.00010000,
      "n": 4,
      "scriptPubKey": {
        "asm": "OP_DUP OP_HASH160 55cad4c1c127a44ad68b820fe2233e92d49fb823 OP_EQUALVERIFY OP_CHECKSIG",
        "hex": "76a91455cad4c1c127a44ad68b820fe2233e92d49fb82388ac",
        "reqSigs": 1,
        "type": "pubkeyhash",
        "addresses": [
          "DCxixWoULDxLiKExFoRxYoUxTozzWq5WCs"
        ]
      }
    },
    {
      "value": 0.00010000,
      "n": 5,
      "scriptPubKey": {
        "asm": "OP_DUP OP_HASH160 55ba9017e0f7de52553640fce1cfb3bec9caed36 OP_EQUALVERIFY OP_CHECKSIG",
        "hex": "76a91455ba9017e0f7de52553640fce1cfb3bec9caed3688ac",
        "reqSigs": 1,
        "type": "pubkeyhash",
        "addresses": [
          "DCxPUBLiSHxANxARTiCLExABoUTzVzGB1i"
        ]
      }
    },
    {
      "value": 0.00010000,
      "n": 6,
      "scriptPubKey": {
        "asm": "OP_DUP OP_HASH160 55b58b3d700cfd3bb16cee77d5417b2ec111a987 OP_EQUALVERIFY OP_CHECKSIG",
        "hex": "76a91455b58b3d700cfd3bb16cee77d5417b2ec111a98788ac",
        "reqSigs": 1,
        "type": "pubkeyhash",
        "addresses": [
          "DCxHTTPSwffDiMEhCASHzzzzzzzzYqAXa2"
        ]
      }
    },
    {
      "value": 0.00010000,
      "n": 7,
      "scriptPubKey": {
        "asm": "OP_DUP OP_HASH160 55bdbe9610e4d2cc7f2207ac9ea1921644f6bd92 OP_EQUALVERIFY OP_CHECKSIG",
        "hex": "76a91455bdbe9610e4d2cc7f2207ac9ea1921644f6bd9288ac",
        "reqSigs": 1,
        "type": "pubkeyhash",
        "addresses": [
          "DCxTHExSYSTEMxPRESENTSxAzzzzWvbSP9"
        ]
      }
    },
    {
      "value": 0.00010000,
      "n": 8,
      "scriptPubKey": {
        "asm": "OP_DUP OP_HASH160 55bbf951e16ec8a77e09c9c8c9d6263062354524 OP_EQUALVERIFY OP_CHECKSIG",
        "hex": "76a91455bbf951e16ec8a77e09c9c8c9d626306235452488ac",
        "reqSigs": 1,
        "type": "pubkeyhash",
        "addresses": [
          "DCxRADiCALLYxNEWxWAYxFoRzzzzYrtt3y"
        ]
      }
    },
    {
      "value": 0.00010000,
      "n": 9,
      "scriptPubKey": {
        "asm": "OP_DUP OP_HASH160 55ba5eccfe6f886502d02891a136d314c16c3597 OP_EQUALVERIFY OP_CHECKSIG",
        "hex": "76a91455ba5eccfe6f886502d02891a136d314c16c359788ac",
        "reqSigs": 1,
        "type": "pubkeyhash",
        "addresses": [
          "DCxPEoPLExToxUSExCRYPTohzzzzUBScy7"
        ]
      }
    },
    {
      "value": 0.00010000,
      "n": 10,
      "scriptPubKey": {
        "asm": "OP_DUP OP_HASH160 55bd57d218e4e8e824926382579a7fd7a653f30f OP_EQUALVERIFY OP_CHECKSIG",
        "hex": "76a91455bd57d218e4e8e824926382579a7fd7a653f30f88ac",
        "reqSigs": 1,
        "type": "pubkeyhash",
        "addresses": [
          "DCxSoMEoNExNEEDSxToxBREAKzzzXue5ur"
        ]
      }
    },
    {
      "value": 11944.99697663,
      "n": 11,
      "scriptPubKey": {
        "asm": "OP_DUP OP_HASH160 a0edc1e15c20d35b9a6b70bc2b6f4e65be7c9a6e OP_EQUALVERIFY OP_CHECKSIG",
        "hex": "76a914a0edc1e15c20d35b9a6b70bc2b6f4e65be7c9a6e88ac",
        "reqSigs": 1,
        "type": "pubkeyhash",
        "addresses": [
          "DKp1Ucz7sxuZbUXrABCqzigZf5wRcXM4EU"
        ]
      }
    },
    {
      "value": 0.00010000,
      "n": 12,
      "scriptPubKey": {
        "asm": "OP_DUP OP_HASH160 55bdc05525609b475340f939dd6f44f675607d2f OP_EQUALVERIFY OP_CHECKSIG",
        "hex": "76a91455bdc05525609b475340f939dd6f44f675607d2f88ac",
        "reqSigs": 1,
        "type": "pubkeyhash",
        "addresses": [
          "DCxTHiSxSToRYvxANDxiTxMiGHTzaKLnAj"
        ]
      }
    },
    {
      "value": 0.00010000,
      "n": 13,
      "scriptPubKey": {
        "asm": "OP_DUP OP_HASH160 55afb184d86f8d90d19b04c446e58fd58655a095 OP_EQUALVERIFY OP_CHECKSIG",
        "hex": "76a91455afb184d86f8d90d19b04c446e58fd58655a09588ac",
        "reqSigs": 1,
        "type": "pubkeyhash",
        "addresses": [
          "DCxASxWELLxBExYoUhxHUGSxANDzRLuY2d"
        ]
      }
    },
    {
      "value": 0.00010000,
      "n": 14,
      "scriptPubKey": {
        "asm": "OP_DUP OP_HASH160 55b76dd7a2b32c882e7a3a7c05720e08df04c8b2 OP_EQUALVERIFY OP_CHECKSIG",
        "hex": "76a91455b76dd7a2b32c882e7a3a7c05720e08df04c8b288ac",
        "reqSigs": 1,
        "type": "pubkeyhash",
        "addresses": [
          "DCxKiSSESvxFoREVERxYoURxFANzWqVcQb"
        ]
      }
    },
    {
      "value": 0.00010000,
      "n": 15,
      "scriptPubKey": {
        "asm": "OP_DUP OP_HASH160 55bccf82c3401fc92384f0e4ae8f2510edd0648a OP_EQUALVERIFY OP_CHECKSIG",
        "hex": "76a91455bccf82c3401fc92384f0e4ae8f2510edd0648a88ac",
        "reqSigs": 1,
        "type": "pubkeyhash",
        "addresses": [
          "DCxSAMUELxShxPUGSWoRTHzzzzzzXFs7rT"
        ]
      }
    }
  ],
  "blockhash": "83223ce87a39f3d91712a1cf0f281622ff1338a1e1d0d5b604609f00d7a01648",
  "confirmations": 1477067,
  "time": 1577481429,
  "blocktime": 1577481429
}
