{
  "hex": "0100000001b31ffcf1dcb13b10616d4a194f2badf9825559360d2f58b8c5f7646050a7f032010000006b483045022100f9a67a7b942801d58b736b0b85c874a0f521b6e323c08a8bcfec65d8004ef26f02205316e86aaf5ed15fe30d5fc9a0496d4817efb01455bd87fbc0f56ed996933180012103ae673094be18ff5b23117e74599c2e73a0b6cb560451a8f465e6bac798b7bd13ffffffff020c7cf605000000001976a91455b2043cb576cad0aaf5fd7525c3d851d0ddeab788ac1a20c454000000001976a914156781a4e009448977df65e242dfb27f5b72ffd888ac00000000",
  "txid": "b1e2b2fa7aa5af397ca4b852f70826da20a87073435b856a7ca5cdcd07684633",
  "hash": "b1e2b2fa7aa5af397ca4b852f70826da20a87073435b856a7ca5cdcd07684633",
  "size": 226,
  "vsize": 226,
  "version": 1,
  "locktime": 0,
  "vin": [
    {
      "txid": "32f0a7506064f7c5b8582f0d36595582f9ad2b4f194a6d61103bb1dcf1fc1fb3",
      "vout": 1,
      "scriptSig": {
        "asm": "3045022100f9a67a7b942801d58b736b0b85c874a0f521b6e323c08a8bcfec65d8004ef26f02205316e86aaf5ed15fe30d5fc9a0496d4817efb01455bd87fbc0f56ed996933180[ALL] 03ae673094be18ff5b23117e74599c2e73a0b6cb560451a8f465e6bac798b7bd13",
        "hex": "483045022100f9a67a7b942801d58b736b0b85c874a0f521b6e323c08a8bcfec65d8004ef26f02205316e86aaf5ed15fe30d5fc9a0496d4817efb01455bd87fbc0f56ed996933180012103ae673094be18ff5b23117e74599c2e73a0b6cb560451a8f465e6bac798b7bd13"
      },
      "sequence": 4294967295
    }
  ],
  "vout": [
    {
      "value": 1.00039692,
      "n": 0,
      "scriptPubKey": {
        "asm": "OP_DUP OP_HASH160 55b2043cb576cad0aaf5fd7525c3d851d0ddeab7 OP_EQUALVERIFY OP_CHECKSIG",
        "hex": "76a91455b2043cb576cad0aaf5fd7525c3d851d0ddeab788ac",
        "reqSigs": 1,
        "type": "pubkeyhash",
        "addresses": [
          "DCxDENToNyTEXASyDPSzzzzzzzzzEJcfTp"
        ]
      }
    },
    {
      "value": 14.22139418,
      "n": 1,
      "scriptPubKey": {
        "asm": "OP_DUP OP_HASH160 156781a4e009448977df65e242dfb27f5b72ffd8 OP_EQUALVERIFY OP_CHECKSIG",
        "hex": "76a914156781a4e009448977df65e242dfb27f5b72ffd888ac",
        "reqSigs": 1,
        "type": "pubkeyhash",
        "addresses": [
          "D76Gj3DzcAvaAXoCRuBo8WcJHNMk2mHowe"
        ]
      }
    }
  ],
  "blockhash": "0ba8431e326e39852bac1aa1c409489fdbfa13e4352df24b99039a0eb02a65f6",
  "confirmations": 1585172,
  "time": 1570713635,
  "blocktime": 1570713635
}
