{
  "hex": "0100000001de6f5d52eda6021bc498affb84a97f7af9e8d5480688aca0582b35bb0b2c8131000000006b48304502210083db4d9c410f81cbb70dcbb80812117497dd89ecb30a4b709d90b394fb91501b0220783534f908025823993e3f05308a823b917e6bc42cfe41ec89a5707a9c1ec65d01210392925ac376685846e0bbf8d3d8b4309e3e9e417aa77a674c2489308fc47710e7ffffffff020b931325000000001976a91473d6b292e71e108652af40981bcae01b560800e888ac1010f7050000000017a9140a65088d5ae57cfdb0671409df4b825f550c4ceb8700000000",
  "txid": "b6595bf1fe25867f17d191d5f794511b45b33028d9e5fbc16385ef72c45cef39",
  "hash": "b6595bf1fe25867f17d191d5f794511b45b33028d9e5fbc16385ef72c45cef39",
  "size": 224,
  "vsize": 224,
  "version": 1,
  "locktime": 0,
  "vin": [
    {
      "txid": "31812c0bbb352b58a0ac880648d5e8f97a7fa984fbaf98c41b02a6ed525d6fde",
      "vout": 0,
      "scriptSig": {
        "asm": "304502210083db4d9c410f81cbb70dcbb80812117497dd89ecb30a4b709d90b394fb91501b0220783534f908025823993e3f05308a823b917e6bc42cfe41ec89a5707a9c1ec65d[ALL] 0392925ac376685846e0bbf8d3d8b4309e3e9e417aa77a674c2489308fc47710e7",
        "hex": "48304502210083db4d9c410f81cbb70dcbb80812117497dd89ecb30a4b709d90b394fb91501b0220783534f908025823993e3f05308a823b917e6bc42cfe41ec89a5707a9c1ec65d01210392925ac376685846e0bbf8d3d8b4309e3e9e417aa77a674c2489308fc47710e7"
      },
      "sequence": 4294967295
    }
  ],
  "vout": [
    {
      "value": 6.22039819,
      "n": 0,
      "scriptPubKey": {
        "asm": "OP_DUP OP_HASH160 73d6b292e71e108652af40981bcae01b560800e8 OP_EQUALVERIFY OP_CHECKSIG",
        "hex": "76a91473d6b292e71e108652af40981bcae01b560800e888ac",
        "reqSigs": 1,
        "type": "pubkeyhash",
        "addresses": [
          "DFhbSmQomdkYdqiz3KbLNXxEij8tmbD7Kq"
        ]
      }
    },
    {
      "value": 1.00077584,
      "n": 1,
      "scriptPubKey": {
        "asm": "OP_HASH160 0a65088d5ae57cfdb0671409df4b825f550c4ceb OP_EQUAL",
        "hex": "a9140a65088d5ae57cfdb0671409df4b825f550c4ceb87",
        "reqSigs": 1,
        "type": "scripthash",
        "addresses": [
          "9sPETERTHiELiSHARiSELDoNzzzzSSfKpP"
        ]
      }
    }
  ],
  "blockhash": "2d46e9996a1e0a5e3d624b032e83705c1ead55e12d241205c1255a0c4cf81420",
  "confirmations": 1574114,
  "time": 1571404514,
  "blocktime": 1571404514
}
