{
  "hex": "0100000001adb57e70adb357d607b59fef4a653d661d7a3a0df8a359e7902496a3e688de4b010000006b483045022100fd03f5d58f8d2f95f3d12fae06af109d3dcd839a5ab89d6cb795caed2ce0d86b022023171378d6673cba8ecb43c16e18c976f2ca706623bc72ffe752c99cfa74f108012102711e4157d881cd836bdb872d37db66bc10ea16cc8077fc4b12b5612cbd1bbfbffeffffff0e102700000000000017a9141903dff941d6cbb3871a9e06320e6515b34d197187102700000000000017a9140e1ffb697712d0fd15920a637aa1cab1dff8ae8187102700000000000017a914086befa03b2c846fb87da24bb82411bbbde47ff187102700000000000017a9140b9eab08e8bbbe02fae048a90ac4b0780f62ceaa87102700000000000017a914094d64485fe1ac471a24af670b22df5efa58955087102700000000000017a91409a373abba06e19273de4b987e07af6c99d756b687102700000000000017a9140afbe1a33f42ecea4b384976989661c706c49bab87102700000000000017a9140afbe1a33ef673cf7a46b004a69110abdefc81eb87102700000000000017a9140afbe1a33f2226ba38c8102c20c2c96e326345a387102700000000000017a9140afbe1a33f3d768cf14990670f9557d83251050d87102700000000000017a9140afbe1a33eeb8714caa30706e21d4ceb9b41123687887176ac000000001976a9147e70c65554408c2ed0e329827c8bcd5e05a0865e88ac102700000000000017a9140afbe1a33f4dd9a4f9acb19854a4037e768b9e2b87102700000000000017a91409ef602e8ce29907b1465037731c233b3a008f378719422f00",
  "txid": "b8507eace3cf9479bcd04c305dc2520b47497d48f8fc2fcf4fe3ee14e1afb9f6",
  "hash": "b8507eace3cf9479bcd04c305dc2520b47497d48f8fc2fcf4fe3ee14e1afb9f6",
  "size": 608,
  "vsize": 608,
  "version": 1,
  "locktime": 3097113,
  "vin": [
    {
      "txid": "4bde88e6a3962490e759a3f80d3a7a1d663d654aef9fb507d657b3ad707eb5ad",
      "vout": 1,
      "scriptSig": {
        "asm": "3045022100fd03f5d58f8d2f95f3d12fae06af109d3dcd839a5ab89d6cb795caed2ce0d86b022023171378d6673cba8ecb43c16e18c976f2ca706623bc72ffe752c99cfa74f108[ALL] 02711e4157d881cd836bdb872d37db66bc10ea16cc8077fc4b12b5612cbd1bbfbf",
        "hex": "483045022100fd03f5d58f8d2f95f3d12fae06af109d3dcd839a5ab89d6cb795caed2ce0d86b022023171378d6673cba8ecb43c16e18c976f2ca706623bc72ffe752c99cfa74f108012102711e4157d881cd836bdb872d37db66bc10ea16cc8077fc4b12b5612cbd1bbfbf"
      },
      "sequence": 4294967294
    }
  ],
  "vout": [
    {
      "value": 0.00010000,
      "n": 0,
      "scriptPubKey": {
        "asm": "OP_HASH160 1903dff941d6cbb3871a9e06320e6515b34d1971 OP_EQUAL",
        "hex": "a9141903dff941d6cbb3871a9e06320e6515b34d197187",
        "reqSigs": 1,
        "type": "scripthash",
        "addresses": [
          "9tiYCRCeWFhoYaKSsoW2fNMrGpPeiq28BZ"
        ]
      }
    },
    {
      "value": 0.00010000,
      "n": 1,
      "scriptPubKey": {
        "asm": "OP_HASH160 0e1ffb697712d0fd15920a637aa1cab1dff8ae81 OP_EQUAL",
        "hex": "a9140e1ffb697712d0fd15920a637aa1cab1dff8ae8187",
        "reqSigs": 1,
        "type": "scripthash",
        "addresses": [
          "9sixSEExYoURxSAToSHixCoDESzzUqJLeo"
        ]
      }
    },
    {
      "value": 0.00010000,
      "n": 2,
      "scriptPubKey": {
        "asm": "OP_HASH160 086befa03b2c846fb87da24bb82411bbbde47ff1 OP_EQUAL",
        "hex": "a914086befa03b2c846fb87da24bb82411bbbde47ff187",
        "reqSigs": 1,
        "type": "scripthash",
        "addresses": [
          "9sCoNTACTxJoHNrRiGLERhoRGzzzWmLRD2"
        ]
      }
    },
    {
      "value": 0.00010000,
      "n": 3,
      "scriptPubKey": {
        "asm": "OP_HASH160 0b9eab08e8bbbe02fae048a90ac4b0780f62ceaa OP_EQUAL",
        "hex": "a9140b9eab08e8bbbe02fae048a90ac4b0780f62ceaa87",
        "reqSigs": 1,
        "type": "scripthash",
        "addresses": [
          "9sViAxEMAiLxoRxViSiTzzzzzzzzV8DyRC"
        ]
      }
    },
    {
      "value": 0.00010000,
      "n": 4,
      "scriptPubKey": {
        "asm": "OP_HASH160 094d64485fe1ac471a24af670b22df5efa589550 OP_EQUAL",
        "hex": "a914094d64485fe1ac471a24af670b22df5efa58955087",
        "reqSigs": 1,
        "type": "scripthash",
        "addresses": [
          "9sHTTPSwffDiMEhCASHxPLEASEzzVp4Bu9"
        ]
      }
    },
    {
      "value": 0.00010000,
      "n": 5,
      "scriptPubKey": {
        "asm": "OP_HASH160 09a373abba06e19273de4b987e07af6c99d756b6 OP_EQUAL",
        "hex": "a91409a373abba06e19273de4b987e07af6c99d756b687",
        "reqSigs": 1,
        "type": "scripthash",
        "addresses": [
          "9sKEYwzzzzzzzzzzzzzzzzzzzzzzRyT4DP"
        ]
      }
    },
    {
      "value": 0.00010000,
      "n": 6,
      "scriptPubKey": {
        "asm": "OP_HASH160 0afbe1a33f42ecea4b384976989661c706c49bab OP_EQUAL",
        "hex": "a9140afbe1a33f42ecea4b384976989661c706c49bab87",
        "reqSigs": 1,
        "type": "scripthash",
        "addresses": [
          "9sSMALLxXxiSxSPACEzzzzzzzzzzXfhCgg"
        ]
      }
    },
    {
      "value": 0.00010000,
      "n": 7,
      "scriptPubKey": {
        "asm": "OP_HASH160 0afbe1a33ef673cf7a46b004a69110abdefc81eb OP_EQUAL",
        "hex": "a9140afbe1a33ef673cf7a46b004a69110abdefc81eb87",
        "reqSigs": 1,
        "type": "scripthash",
        "addresses": [
          "9sSMALLxHxiSxPERioDzzzzzzzzzZQXVGN"
        ]
      }
    },
    {
      "value": 0.00010000,
      "n": 8,
      "scriptPubKey": {
        "asm": "OP_HASH160 0afbe1a33f2226ba38c8102c20c2c96e326345a3 OP_EQUAL",
        "hex": "a9140afbe1a33f2226ba38c8102c20c2c96e326345a387",
        "reqSigs": 1,
        "type": "scripthash",
        "addresses": [
          "9sSMALLxRxiSxATxSiGNzzzzzzzzYUHBVA"
        ]
      }
    },
    {
      "value": 0.00010000,
      "n": 9,
      "scriptPubKey": {
        "asm": "OP_HASH160 0afbe1a33f3d768cf14990670f9557d83251050d OP_EQUAL",
        "hex": "a9140afbe1a33f3d768cf14990670f9557d83251050d87",
        "reqSigs": 1,
        "type": "scripthash",
        "addresses": [
          "9sSMALLxWxiSxCoLoNzzzzzzzzzzazrXwY"
        ]
      }
    },
    {
      "value": 0.00010000,
      "n": 10,
      "scriptPubKey": {
        "asm": "OP_HASH160 0afbe1a33eeb8714caa30706e21d4ceb9b411236 OP_EQUAL",
        "hex": "a9140afbe1a33eeb8714caa30706e21d4ceb9b41123687",
        "reqSigs": 1,
        "type": "scripthash",
        "addresses": [
          "9sSMALLxFxiSxSLASHzzzzzzzzzzYFda9N"
        ]
      }
    },
    {
      "value": 28.93443464,
      "n": 11,
      "scriptPubKey": {
        "asm": "OP_DUP OP_HASH160 7e70c65554408c2ed0e329827c8bcd5e05a0865e OP_EQUALVERIFY OP_CHECKSIG",
        "hex": "76a9147e70c65554408c2ed0e329827c8bcd5e05a0865e88ac",
        "reqSigs": 1,
        "type": "pubkeyhash",
        "addresses": [
          "DGfen9xq4hjjX7D5JwpmwKkSc6G1eqmfPo"
        ]
      }
    },
    {
      "value": 0.00010000,
      "n": 12,
      "scriptPubKey": {
        "asm": "OP_HASH160 0afbe1a33f4dd9a4f9acb19854a4037e768b9e2b OP_EQUAL",
        "hex": "a9140afbe1a33f4dd9a4f9acb19854a4037e768b9e2b87",
        "reqSigs": 1,
        "type": "scripthash",
        "addresses": [
          "9sSMALLxZxiSxEoLzzzzzzzzzzzzcPEB84"
        ]
      }
    },
    {
      "value": 0.00010000,
      "n": 13,
      "scriptPubKey": {
        "asm": "OP_HASH160 09ef602e8ce29907b1465037731c233b3a008f37 OP_EQUAL",
        "hex": "a91409ef602e8ce29907b1465037731c233b3a008f3787",
        "reqSigs": 1,
        "type": "scripthash",
        "addresses": [
          "9sLoWERCASExALLxCAPiTALSzzzzbwTL78"
        ]
      }
    }
  ],
  "blockhash": "9870ae3f8cb1a5f0c955bda3022547d26a0dfd52ded23004cb1c643d5128b603",
  "confirmations": 1417921,
  "time": 1581183832,
  "blocktime": 1581183832
}
