{
  "hex": "010000000133466807cdcda57c6a855b437370a820da2608f752b8a47c39afa57afab2e2b1010000006b483045022100c9ea0c723bb266a71730c3ac49f89eaa5c89b3f5f328545a3824c536f9dc0f4f02202a5a7063327f3228a4e6337dd7e8a3dea2526d83fb3dda9e7da62658d266c7e80121032c527c5cd89e293141cacdec197820e9427a91911adb2bb5fdf03db3aa463231ffffffff02d93ed848000000001976a914341a07cec94b2f028f4e6329f135c167961dfb4488ac4100f605000000001976a91455b225aebdbc98e3c4bc57fbc42d17ef2aa85dd488ac00000000",
  "txid": "b8ac5f27d328181c52ca4f6d018e5b597f2c372f67d2cd42263ed675e85a4def",
  "hash": "b8ac5f27d328181c52ca4f6d018e5b597f2c372f67d2cd42263ed675e85a4def",
  "size": 226,
  "vsize": 226,
  "version": 1,
  "locktime": 0,
  "vin": [
    {
      "txid": "b1e2b2fa7aa5af397ca4b852f70826da20a87073435b856a7ca5cdcd07684633",
      "vout": 1,
      "scriptSig": {
        "asm": "3045022100c9ea0c723bb266a71730c3ac49f89eaa5c89b3f5f328545a3824c536f9dc0f4f02202a5a7063327f3228a4e6337dd7e8a3dea2526d83fb3dda9e7da62658d266c7e8[ALL] 032c527c5cd89e293141cacdec197820e9427a91911adb2bb5fdf03db3aa463231",
        "hex": "483045022100c9ea0c723bb266a71730c3ac49f89eaa5c89b3f5f328545a3824c536f9dc0f4f02202a5a7063327f3228a4e6337dd7e8a3dea2526d83fb3dda9e7da62658d266c7e80121032c527c5cd89e293141cacdec197820e9427a91911adb2bb5fdf03db3aa463231"
      },
      "sequence": 4294967295
    }
  ],
  "vout": [
    {
      "value": 12.22131417,
      "n": 0,
      "scriptPubKey": {
        "asm": "OP_DUP OP_HASH160 341a07cec94b2f028f4e6329f135c167961dfb44 OP_EQUALVERIFY OP_CHECKSIG",
        "hex": "76a914341a07cec94b2f028f4e6329f135c167961dfb4488ac",
        "reqSigs": 1,
        "type": "pubkeyhash",
        "addresses": [
          "D9tars677mriFGssBX3iPsEVHfngsdc28D"
        ]
      }
    },
    {
      "value": 1.00008001,
      "n": 1,
      "scriptPubKey": {
        "asm": "OP_DUP OP_HASH160 55b225aebdbc98e3c4bc57fbc42d17ef2aa85dd4 OP_EQUALVERIFY OP_CHECKSIG",
        "hex": "76a91455b225aebdbc98e3c4bc57fbc42d17ef2aa85dd488ac",
        "reqSigs": 1,
        "type": "pubkeyhash",
        "addresses": [
          "DCxDPSxNoWxSERViNGxDzzzzzzzzXcpxUp"
        ]
      }
    }
  ],
  "blockhash": "9b7748e11f927aff1b9f4c33930e855d2efca865c590e0e8105b93461caf5e06",
  "confirmations": 1585019,
  "time": 1570718051,
  "blocktime": 1570718051
}
