{
  "hex": "0100000001a403cce4f4e012974dcb853e2538107280e0640d0f46b17e4e6af625e5e7f24a040000006a47304402203fd6884f64b042a577cc6ecaaa5024c1bac24aa91540e4bb25058e29d5ff137e02202008ed8555204da1a1775110aa9e9d73686ee7f19efe3dc3309f7b73c782bfec012102c555f4603794fa512d41a53edc41cf4ea5bf866bc932939286545be3e57caf6ffeffffff0a10270000000000001976a91455bccfe851ebaee88bd6ba7f8559aa36ea86299e88ac102700000000000017a9140e1fc795991c193f3d8fb9b3c6944cb7742d03ab87807f19b3010000001976a914f5893654d6cd5b8d0c626e73c7947416c5f5427188ac102700000000000017a91415eb1332e9f12b0d8ba87a4277ab694a46bc3b6e87102700000000000017a9140e1fc795991c193f3d8ec20ce6aec8da202a6fcd87102700000000000017a914142197f0c64c9b8adb4b7b8e6f0fb3ad0abee9bf87102700000000000017a91407f61cebaab949ef1cab8479250001779c8dd7d987102700000000000017a91412ee3d1f0854878c12371596ac0357ef980d2a5a87102700000000000017a91408bbeebc6301e3f330f6aa682f6d7b13df6a9a0087102700000000000017a9141c20e788ace8305eed507f8422ba49d6eca24bff87f6c63000",
  "txid": "b8d955187510dafca5d728a775b11100e39536b376242e5d2be3501388a5e657",
  "hash": "b8d955187510dafca5d728a775b11100e39536b376242e5d2be3501388a5e657",
  "size": 481,
  "vsize": 481,
  "version": 1,
  "locktime": 3196662,
  "vin": [
    {
      "txid": "4af2e7e525f66a4e7eb1460f0d64e080721038253e85cb4d9712e0f4e4cc03a4",
      "vout": 4,
      "scriptSig": {
        "asm": "304402203fd6884f64b042a577cc6ecaaa5024c1bac24aa91540e4bb25058e29d5ff137e02202008ed8555204da1a1775110aa9e9d73686ee7f19efe3dc3309f7b73c782bfec[ALL] 02c555f4603794fa512d41a53edc41cf4ea5bf866bc932939286545be3e57caf6f",
        "hex": "47304402203fd6884f64b042a577cc6ecaaa5024c1bac24aa91540e4bb25058e29d5ff137e02202008ed8555204da1a1775110aa9e9d73686ee7f19efe3dc3309f7b73c782bfec012102c555f4603794fa512d41a53edc41cf4ea5bf866bc932939286545be3e57caf6f"
      },
      "sequence": 4294967294
    }
  ],
  "vout": [
    {
      "value": 0.00010000,
      "n": 0,
      "scriptPubKey": {
        "asm": "OP_DUP OP_HASH160 55bccfe851ebaee88bd6ba7f8559aa36ea86299e OP_EQUALVERIFY OP_CHECKSIG",
        "hex": "76a91455bccfe851ebaee88bd6ba7f8559aa36ea86299e88ac",
        "reqSigs": 1,
        "type": "pubkeyhash",
        "addresses": [
          "DCxSATiSFACTioNzzzzzzzzzzzzzWDj8Sk"
        ]
      }
    },
    {
      "value": 0.00010000,
      "n": 1,
      "scriptPubKey": {
        "asm": "OP_HASH160 0e1fc795991c193f3d8fb9b3c6944cb7742d03ab OP_EQUAL",
        "hex": "a9140e1fc795991c193f3d8fb9b3c6944cb7742d03ab87",
        "reqSigs": 1,
        "type": "scripthash",
        "addresses": [
          "9sixCANyTxGETxNozzzzzzzzzzzzWQrphp"
        ]
      }
    },
    {
      "value": 72.99760000,
      "n": 2,
      "scriptPubKey": {
        "asm": "OP_DUP OP_HASH160 f5893654d6cd5b8d0c626e73c7947416c5f54271 OP_EQUALVERIFY OP_CHECKSIG",
        "hex": "76a914f5893654d6cd5b8d0c626e73c7947416c5f5427188ac",
        "reqSigs": 1,
        "type": "pubkeyhash",
        "addresses": [
          "DTXNTvtUTjUrcjy8f91nuWFGJAbYmneEZL"
        ]
      }
    },
    {
      "value": 0.00010000,
      "n": 3,
      "scriptPubKey": {
        "asm": "OP_HASH160 15eb1332e9f12b0d8ba87a4277ab694a46bc3b6e OP_EQUAL",
        "hex": "a91415eb1332e9f12b0d8ba87a4277ab694a46bc3b6e87",
        "reqSigs": 1,
        "type": "scripthash",
        "addresses": [
          "9tSATiSFACTioNzzzzzzzzzzzzzzV75DFz"
        ]
      }
    },
    {
      "value": 0.00010000,
      "n": 4,
      "scriptPubKey": {
        "asm": "OP_HASH160 0e1fc795991c193f3d8ec20ce6aec8da202a6fcd OP_EQUAL",
        "hex": "a9140e1fc795991c193f3d8ec20ce6aec8da202a6fcd87",
        "reqSigs": 1,
        "type": "scripthash",
        "addresses": [
          "9sixCANyTxGETxMExNozzzzzzzzzWw5bF4"
        ]
      }
    },
    {
      "value": 0.00010000,
      "n": 5,
      "scriptPubKey": {
        "asm": "OP_HASH160 142197f0c64c9b8adb4b7b8e6f0fb3ad0abee9bf OP_EQUAL",
        "hex": "a914142197f0c64c9b8adb4b7b8e6f0fb3ad0abee9bf87",
        "reqSigs": 1,
        "type": "scripthash",
        "addresses": [
          "9tGiRLxREACTioNzzzzzzzzzzzzzS7aQAA"
        ]
      }
    },
    {
      "value": 0.00010000,
      "n": 6,
      "scriptPubKey": {
        "asm": "OP_HASH160 07f61cebaab949ef1cab8479250001779c8dd7d9 OP_EQUAL",
        "hex": "a91407f61cebaab949ef1cab8479250001779c8dd7d987",
        "reqSigs": 1,
        "type": "scripthash",
        "addresses": [
          "9sANDxixTRYzzzzzzzzzzzzzzzzzSRDYqF"
        ]
      }
    },
    {
      "value": 0.00010000,
      "n": 7,
      "scriptPubKey": {
        "asm": "OP_HASH160 12ee3d1f0854878c12371596ac0357ef980d2a5a OP_EQUAL",
        "hex": "a91412ee3d1f0854878c12371596ac0357ef980d2a5a87",
        "reqSigs": 1,
        "type": "scripthash",
        "addresses": [
          "9tANDxixTRYzzzzzzzzzzzzzzzzzSSuUpe"
        ]
      }
    },
    {
      "value": 0.00010000,
      "n": 8,
      "scriptPubKey": {
        "asm": "OP_HASH160 08bbeebc6301e3f330f6aa682f6d7b13df6a9a00 OP_EQUAL",
        "hex": "a91408bbeebc6301e3f330f6aa682f6d7b13df6a9a0087",
        "reqSigs": 1,
        "type": "scripthash",
        "addresses": [
          "9sETChzzzzzzzzzzzzzzzzzzzzzzYmCmRR"
        ]
      }
    },
    {
      "value": 0.00010000,
      "n": 9,
      "scriptPubKey": {
        "asm": "OP_HASH160 1c20e788ace8305eed507f8422ba49d6eca24bff OP_EQUAL",
        "hex": "a9141c20e788ace8305eed507f8422ba49d6eca24bff87",
        "reqSigs": 1,
        "type": "scripthash",
        "addresses": [
          "9tzzzzzzzzzzzzzzzzzzzzzzzzzzTg7t3J"
        ]
      }
    }
  ],
  "blockhash": "615dac992e0de1698f523f2efa2813b2c110948b06c77a128986910131c4cd6f",
  "confirmations": 1318361,
  "time": 1587446561,
  "blocktime": 1587446561
}
