{
  "hex": "01000000019a5cca3a13c31cad3ba9804599c8b5f5e4f4960dcc4f0bc5b87bb46f9c79a566000000006b48304502210099a7d84efd15bb94c55c70cdef176f6f801896de17e0e47daf82657b383cf5c002203385a50ef7bd95fb62e9ee2b7d5aa6d8ff301ec0c59e5fbc9e11763098a2f5ae012102d1715574dd6b63b3320b463c4ee01b4cfe6771120417f80d6e08a1a046a1eff7feffffff0710270000000000001976a91455bdc05525b7ecc1a59db16b3954ba4ef0bf458588ac10270000000000001976a91455afa0140a16c40cb6fd3897b041020b68a595c388ac58965eee010000001976a91464db106dd6d5ba3b11ce087b77030d746ed48c9688ac10270000000000001976a91455b22e07d4976c35194ec1276af444fd2977123488ac10270000000000001976a91455bdbe9606134f69bc73d00a952a8b0b08b7b39b88ac10270000000000001976a91455ce6bd06daa160b9aea75fdf79905b62fe9993288ac10270000000000001976a91455b1f5ae6bdfdb7c7a5361054a1b7db132fde0ea88acff672e00",
  "txid": "b946807e958d9b1830380f1080e3c51344210576c3e28e2e8fa73a8319ea7fd2",
  "hash": "b946807e958d9b1830380f1080e3c51344210576c3e28e2e8fa73a8319ea7fd2",
  "size": 396,
  "vsize": 396,
  "version": 1,
  "locktime": 3041279,
  "vin": [
    {
      "txid": "66a5799c6fb47bb8c50b4fcc0d96f4e4f5b5c8994580a93bad1cc3133aca5c9a",
      "vout": 0,
      "scriptSig": {
        "asm": "304502210099a7d84efd15bb94c55c70cdef176f6f801896de17e0e47daf82657b383cf5c002203385a50ef7bd95fb62e9ee2b7d5aa6d8ff301ec0c59e5fbc9e11763098a2f5ae[ALL] 02d1715574dd6b63b3320b463c4ee01b4cfe6771120417f80d6e08a1a046a1eff7",
        "hex": "48304502210099a7d84efd15bb94c55c70cdef176f6f801896de17e0e47daf82657b383cf5c002203385a50ef7bd95fb62e9ee2b7d5aa6d8ff301ec0c59e5fbc9e11763098a2f5ae012102d1715574dd6b63b3320b463c4ee01b4cfe6771120417f80d6e08a1a046a1eff7"
      },
      "sequence": 4294967294
    }
  ],
  "vout": [
    {
      "value": 0.00010000,
      "n": 0,
      "scriptPubKey": {
        "asm": "OP_DUP OP_HASH160 55bdc05525b7ecc1a59db16b3954ba4ef0bf4585 OP_EQUALVERIFY OP_CHECKSIG",
        "hex": "76a91455bdc05525b7ecc1a59db16b3954ba4ef0bf458588ac",
        "reqSigs": 1,
        "type": "pubkeyhash",
        "addresses": [
          "DCxTHiSxiSxTHExWATERvzzzzzzzcV2fsi"
        ]
      }
    },
    {
      "value": 0.00010000,
      "n": 1,
      "scriptPubKey": {
        "asm": "OP_DUP OP_HASH160 55afa0140a16c40cb6fd3897b041020b68a595c3 OP_EQUALVERIFY OP_CHECKSIG",
        "hex": "76a91455afa0140a16c40cb6fd3897b041020b68a595c388ac",
        "reqSigs": 1,
        "type": "pubkeyhash",
        "addresses": [
          "DCxANDxTHiSxiSxTHExWELLhzzzzaACoEz"
        ]
      }
    },
    {
      "value": 82.94143576,
      "n": 2,
      "scriptPubKey": {
        "asm": "OP_DUP OP_HASH160 64db106dd6d5ba3b11ce087b77030d746ed48c96 OP_EQUALVERIFY OP_CHECKSIG",
        "hex": "76a91464db106dd6d5ba3b11ce087b77030d746ed48c9688ac",
        "reqSigs": 1,
        "type": "pubkeyhash",
        "addresses": [
          "DELNYHcdX2DfJj2ZG9PZSuDtTnSKURTKr5"
        ]
      }
    },
    {
      "value": 0.00010000,
      "n": 3,
      "scriptPubKey": {
        "asm": "OP_DUP OP_HASH160 55b22e07d4976c35194ec1276af444fd29771234 OP_EQUALVERIFY OP_CHECKSIG",
        "hex": "76a91455b22e07d4976c35194ec1276af444fd2977123488ac",
        "reqSigs": 1,
        "type": "pubkeyhash",
        "addresses": [
          "DCxDRiNKxFULLvxANDxDESCENDhzWQvXMY"
        ]
      }
    },
    {
      "value": 0.00010000,
      "n": 4,
      "scriptPubKey": {
        "asm": "OP_DUP OP_HASH160 55bdbe9606134f69bc73d00a952a8b0b08b7b39b OP_EQUALVERIFY OP_CHECKSIG",
        "hex": "76a91455bdbe9606134f69bc73d00a952a8b0b08b7b39b88ac",
        "reqSigs": 1,
        "type": "pubkeyhash",
        "addresses": [
          "DCxTHExHoRSExiSxTHExWHiTEzzzXxgnMN"
        ]
      }
    },
    {
      "value": 0.00010000,
      "n": 5,
      "scriptPubKey": {
        "asm": "OP_DUP OP_HASH160 55ce6bd06daa160b9aea75fdf79905b62fe99932 OP_EQUALVERIFY OP_CHECKSIG",
        "hex": "76a91455ce6bd06daa160b9aea75fdf79905b62fe9993288ac",
        "reqSigs": 1,
        "type": "pubkeyhash",
        "addresses": [
          "DCxoFxTHExEYESvxANDxzzzzzzzzWaQhjJ"
        ]
      }
    },
    {
      "value": 0.00010000,
      "n": 6,
      "scriptPubKey": {
        "asm": "OP_DUP OP_HASH160 55b1f5ae6bdfdb7c7a5361054a1b7db132fde0ea OP_EQUALVERIFY OP_CHECKSIG",
        "hex": "76a91455b1f5ae6bdfdb7c7a5361054a1b7db132fde0ea88ac",
        "reqSigs": 1,
        "type": "pubkeyhash",
        "addresses": [
          "DCxDARKxWiTHiNzzzzzzzzzzzzzzVRf92w"
        ]
      }
    }
  ],
  "blockhash": "9527d60682689a3cac3e4879cae799b10f7c8f528a13e04b03e7c96d0c54b7d4",
  "confirmations": 1473810,
  "time": 1577679196,
  "blocktime": 1577679196
}
