{
  "hex": "010000000184d26175c25a6960fca09024d49da87e958f91876fca023971460d41389a503c170000006b483045022100f3768d02aaad533b3ed00d0cd9af7c6f24247097b425bea5ac204c8017d3e57902202943909738a947884de679c0444021381788d6960acbadb7a96a2b20db254d8c012102b4f9cfb5d359a250fb474645f5b4a9f924e6e75fa381f4a69adc5ecd8e4d49e2feffffff05c2860000000000001976a91455bcddac6fafa483d6f001d5a654067bd75779e888ac102700000000000017a91409eb289fee72f441248cbc9b9f14c783a7b8100087ad83f888c90000001976a914819299ece472da63a6e9f1f11add8db2b77d131d88ac102700000000000017a91414cd7416b02d3995e8d33d748e109e2f74d4767187102700000000000017a91413aaea848e4c47be2293459e70fb24b9dccf82d787d8013100",
  "txid": "bd1e661c9d38a7c7a6ebe6e1dab25e898fefd9bdd300712c8152b2c1dd0ed507",
  "hash": "bd1e661c9d38a7c7a6ebe6e1dab25e898fefd9bdd300712c8152b2c1dd0ed507",
  "size": 322,
  "vsize": 322,
  "version": 1,
  "locktime": 3211736,
  "vin": [
    {
      "txid": "3c509a38410d46713902ca6f87918f957ea89dd42490a0fc60695ac27561d284",
      "vout": 23,
      "scriptSig": {
        "asm": "3045022100f3768d02aaad533b3ed00d0cd9af7c6f24247097b425bea5ac204c8017d3e57902202943909738a947884de679c0444021381788d6960acbadb7a96a2b20db254d8c[ALL] 02b4f9cfb5d359a250fb474645f5b4a9f924e6e75fa381f4a69adc5ecd8e4d49e2",
        "hex": "483045022100f3768d02aaad533b3ed00d0cd9af7c6f24247097b425bea5ac204c8017d3e57902202943909738a947884de679c0444021381788d6960acbadb7a96a2b20db254d8c012102b4f9cfb5d359a250fb474645f5b4a9f924e6e75fa381f4a69adc5ecd8e4d49e2"
      },
      "sequence": 4294967294
    }
  ],
  "vout": [
    {
      "value": 0.00034498,
      "n": 0,
      "scriptPubKey": {
        "asm": "OP_DUP OP_HASH160 55bcddac6fafa483d6f001d5a654067bd75779e8 OP_EQUALVERIFY OP_CHECKSIG",
        "hex": "76a91455bcddac6fafa483d6f001d5a654067bd75779e888ac",
        "reqSigs": 1,
        "type": "pubkeyhash",
        "addresses": [
          "DCxSECRETxBEACHzzzzzzzzzzzzzZyV12E"
        ]
      }
    },
    {
      "value": 0.00010000,
      "n": 1,
      "scriptPubKey": {
        "asm": "OP_HASH160 09eb289fee72f441248cbc9b9f14c783a7b81000 OP_EQUAL",
        "hex": "a91409eb289fee72f441248cbc9b9f14c783a7b8100087",
        "reqSigs": 1,
        "type": "scripthash",
        "addresses": [
          "9sLiTECoiNxADDRESSzzzzzzzzzzRvswAZ"
        ]
      }
    },
    {
      "value": 8655.86414509,
      "n": 2,
      "scriptPubKey": {
        "asm": "OP_DUP OP_HASH160 819299ece472da63a6e9f1f11add8db2b77d131d OP_EQUALVERIFY OP_CHECKSIG",
        "hex": "76a914819299ece472da63a6e9f1f11add8db2b77d131d88ac",
        "reqSigs": 1,
        "type": "pubkeyhash",
        "addresses": [
          "DGxDL3EwDgSXBWRRGNzxSx3ec89cMVMKXV"
        ]
      }
    },
    {
      "value": 0.00010000,
      "n": 3,
      "scriptPubKey": {
        "asm": "OP_HASH160 14cd7416b02d3995e8d33d748e109e2f74d47671 OP_EQUAL",
        "hex": "a91414cd7416b02d3995e8d33d748e109e2f74d4767187",
        "reqSigs": 1,
        "type": "scripthash",
        "addresses": [
          "9tLGJPDKBCKN2CRWSMVzzzzzzzzzT9FLsf"
        ]
      }
    },
    {
      "value": 0.00010000,
      "n": 4,
      "scriptPubKey": {
        "asm": "OP_HASH160 13aaea848e4c47be2293459e70fb24b9dccf82d7 OP_EQUAL",
        "hex": "a91413aaea848e4c47be2293459e70fb24b9dccf82d787",
        "reqSigs": 1,
        "type": "scripthash",
        "addresses": [
          "9tEGFVWNAQZiKDF7ZDFzzzzzzzzzVrC1GY"
        ]
      }
    }
  ],
  "blockhash": "d6d27ef02e357278f437181b2670ab0e2dcdc837daff166d3bdb8e9ba0527948",
  "confirmations": 1291186,
  "time": 1588394273,
  "blocktime": 1588394273
}
