{
  "hex": "0100000001d5b1d163c1193b2a172ac8914d2b8cbc90a79382fe787a2a82be5dad8a8f4618040000006a473044022048e8dd7e93290fa20efde10d3ceb5ade59471e45310045586862710738e1254b022073626e56d59531b6b984dddeb7781039bdb7268ab35f357eb55103f4858cdb64012102c90dc9aeb50eaca241b6b7d4844e3960ee3e97dd2af8468941b9fb67ecb14480feffffff0610270000000000001976a91455b2d2452208fdd60c67bd8bf8020b7d457dbbca88ac102700000000000017a9140a0430a414fdbcee097c210917f2f2b154950a3b87102700000000000017a9140ef57a9299d46e07f9bee064c10f6f4ec107660887102700000000000017a9140b123fb63bb412c98b037e5f38257ab4be28a27687102700000000000017a91408adf1791233b2b28b3eee9fdaab10f32e11e04187ff20151d140100001976a9149e1c4f9826320e98a7c90e2c24882f03559de6d688ac01023000",
  "txid": "bd414d3d37615d06792103f72e3a798ebeb0a6baacec9293a1cd287f28681723",
  "hash": "bd414d3d37615d06792103f72e3a798ebeb0a6baacec9293a1cd287f28681723",
  "size": 353,
  "vsize": 353,
  "version": 1,
  "locktime": 3146241,
  "vin": [
    {
      "txid": "18468f8aad5dbe822a7a78fe8293a790bc8c2b4d91c82a172a3b19c163d1b1d5",
      "vout": 4,
      "scriptSig": {
        "asm": "3044022048e8dd7e93290fa20efde10d3ceb5ade59471e45310045586862710738e1254b022073626e56d59531b6b984dddeb7781039bdb7268ab35f357eb55103f4858cdb64[ALL] 02c90dc9aeb50eaca241b6b7d4844e3960ee3e97dd2af8468941b9fb67ecb14480",
        "hex": "473044022048e8dd7e93290fa20efde10d3ceb5ade59471e45310045586862710738e1254b022073626e56d59531b6b984dddeb7781039bdb7268ab35f357eb55103f4858cdb64012102c90dc9aeb50eaca241b6b7d4844e3960ee3e97dd2af8468941b9fb67ecb14480"
      },
      "sequence": 4294967294
    }
  ],
  "vout": [
    {
      "value": 0.00010000,
      "n": 0,
      "scriptPubKey": {
        "asm": "OP_DUP OP_HASH160 55b2d2452208fdd60c67bd8bf8020b7d457dbbca OP_EQUALVERIFY OP_CHECKSIG",
        "hex": "76a91455b2d2452208fdd60c67bd8bf8020b7d457dbbca88ac",
        "reqSigs": 1,
        "type": "pubkeyhash",
        "addresses": [
          "DCxECHoLANDxBRoADCASTzzzzzzzXuvzuU"
        ]
      }
    },
    {
      "value": 0.00010000,
      "n": 1,
      "scriptPubKey": {
        "asm": "OP_HASH160 0a0430a414fdbcee097c210917f2f2b154950a3b OP_EQUAL",
        "hex": "a9140a0430a414fdbcee097c210917f2f2b154950a3b87",
        "reqSigs": 1,
        "type": "scripthash",
        "addresses": [
          "9sMESSAGESxWiLLxBExBUNDLEDzzaxFfDq"
        ]
      }
    },
    {
      "value": 0.00010000,
      "n": 2,
      "scriptPubKey": {
        "asm": "OP_HASH160 0ef57a9299d46e07f9bee064c10f6f4ec1076608 OP_EQUAL",
        "hex": "a9140ef57a9299d46e07f9bee064c10f6f4ec107660887",
        "reqSigs": 1,
        "type": "scripthash",
        "addresses": [
          "9soNCExDAiLYxATx11w32xUTCzzzd4R3Zi"
        ]
      }
    },
    {
      "value": 0.00010000,
      "n": 3,
      "scriptPubKey": {
        "asm": "OP_HASH160 0b123fb63bb412c98b037e5f38257ab4be28a276 OP_EQUAL",
        "hex": "a9140b123fb63bb412c98b037e5f38257ab4be28a27687",
        "reqSigs": 1,
        "type": "scripthash",
        "addresses": [
          "9sSoxTHATxTHEYxMAYxBExMoREzzaUPwj8"
        ]
      }
    },
    {
      "value": 0.00010000,
      "n": 4,
      "scriptPubKey": {
        "asm": "OP_HASH160 08adf1791233b2b28b3eee9fdaab10f32e11e041 OP_EQUAL",
        "hex": "a91408adf1791233b2b28b3eee9fdaab10f32e11e04187",
        "reqSigs": 1,
        "type": "scripthash",
        "addresses": [
          "9sEASiLYxDiSCoVEREDhzzzzzzzzWrPfAJ"
        ]
      }
    },
    {
      "value": 11858.98897663,
      "n": 5,
      "scriptPubKey": {
        "asm": "OP_DUP OP_HASH160 9e1c4f9826320e98a7c90e2c24882f03559de6d6 OP_EQUALVERIFY OP_CHECKSIG",
        "hex": "76a9149e1c4f9826320e98a7c90e2c24882f03559de6d688ac",
        "reqSigs": 1,
        "type": "pubkeyhash",
        "addresses": [
          "DKZ7DeLTGBBiKcinj3cLqdAjo4vpgN3Sen"
        ]
      }
    }
  ],
  "blockhash": "d6e09bbb02123b5feac5c877b6819448c80ee9d243e74ab00a0062ef5e905a39",
  "confirmations": 1368880,
  "time": 1584271972,
  "blocktime": 1584271972
}
