{
  "hex": "010000000350b97c52fbd335f47c021fe9ade3231a5d0075c144b7d7dd9b24e647c0321621010000006b483045022100a80e15231cea726f3b3043b10e454ec983e480f08d70f91a7abb6ad31b990caa0220798c1b8c451ee28696d6036ad6c50f2c9149c8435708bd852fe811ee6ddf0b4e0121037bb218bb6e1ac8927a8bca66f85544b7e76b49f3163c5403e783aeccf7c5c9d3feffffffe61b044650b30500b6abe45e4179af0d81dbc1b7bbed1e6039bdfcb43df14dd0030000006b483045022100dd49f6407f295d4c21a3d12e3b7d948610971704fd1da3fa580490944109618c02201586ed4ecf350039cd435bc77bd86c0b379296dccb99cc133f12d50320803299012102d4ead5bb67ec3d2eebbe92428ec9310730221d8ee0ea9c530fdc934a1139d097feffffffbfd190327afb7d318f5fb90f0b3dcfee2cb7bc6742d0b70e9320e450ab01b29c000000006b483045022100f4d884da93b6094f5cf4f01a211dadbf16f40be43dab43beb5e991cc7fe83fca02201f1883227ce715a5d14ceb3ed6747e6ca53743ee4d2956299a4e83a7d4bb259e01210279af9dc4a44bdc2f689d6940429efb40b9200855081842a54f1904249cf34613feffffff03ed667400000000001976a91455b26b52c2daecfa6fcf9e4cf05ae4f8b6a479b188ac6377d700000000001976a9148eb3a72ec72f07ac716b640767758b1bcb8a3c2b88ac0c9b00000000000017a9140b296ba7889bf8fa15b91e7b401847120530d7748783bc3000",
  "txid": "be99c38a0393a98378211e75bfbeb4ba5ad6441920873fc2fc6586d347fdbec8",
  "hash": "be99c38a0393a98378211e75bfbeb4ba5ad6441920873fc2fc6586d347fdbec8",
  "size": 554,
  "vsize": 554,
  "version": 1,
  "locktime": 3193987,
  "vin": [
    {
      "txid": "211632c047e6249bddd7b744c175005d1a23e3ade91f027cf435d3fb527cb950",
      "vout": 1,
      "scriptSig": {
        "asm": "3045022100a80e15231cea726f3b3043b10e454ec983e480f08d70f91a7abb6ad31b990caa0220798c1b8c451ee28696d6036ad6c50f2c9149c8435708bd852fe811ee6ddf0b4e[ALL] 037bb218bb6e1ac8927a8bca66f85544b7e76b49f3163c5403e783aeccf7c5c9d3",
        "hex": "483045022100a80e15231cea726f3b3043b10e454ec983e480f08d70f91a7abb6ad31b990caa0220798c1b8c451ee28696d6036ad6c50f2c9149c8435708bd852fe811ee6ddf0b4e0121037bb218bb6e1ac8927a8bca66f85544b7e76b49f3163c5403e783aeccf7c5c9d3"
      },
      "sequence": 4294967294
    },
    {
      "txid": "d04df13db4fcbd39601eedbbb7c1db810daf79415ee4abb60005b35046041be6",
      "vout": 3,
      "scriptSig": {
        "asm": "3045022100dd49f6407f295d4c21a3d12e3b7d948610971704fd1da3fa580490944109618c02201586ed4ecf350039cd435bc77bd86c0b379296dccb99cc133f12d50320803299[ALL] 02d4ead5bb67ec3d2eebbe92428ec9310730221d8ee0ea9c530fdc934a1139d097",
        "hex": "483045022100dd49f6407f295d4c21a3d12e3b7d948610971704fd1da3fa580490944109618c02201586ed4ecf350039cd435bc77bd86c0b379296dccb99cc133f12d50320803299012102d4ead5bb67ec3d2eebbe92428ec9310730221d8ee0ea9c530fdc934a1139d097"
      },
      "sequence": 4294967294
    },
    {
      "txid": "9cb201ab50e420930eb7d04267bcb72ceecf3d0b0fb95f8f317dfb7a3290d1bf",
      "vout": 0,
      "scriptSig": {
        "asm": "3045022100f4d884da93b6094f5cf4f01a211dadbf16f40be43dab43beb5e991cc7fe83fca02201f1883227ce715a5d14ceb3ed6747e6ca53743ee4d2956299a4e83a7d4bb259e[ALL] 0279af9dc4a44bdc2f689d6940429efb40b9200855081842a54f1904249cf34613",
        "hex": "483045022100f4d884da93b6094f5cf4f01a211dadbf16f40be43dab43beb5e991cc7fe83fca02201f1883227ce715a5d14ceb3ed6747e6ca53743ee4d2956299a4e83a7d4bb259e01210279af9dc4a44bdc2f689d6940429efb40b9200855081842a54f1904249cf34613"
      },
      "sequence": 4294967294
    }
  ],
  "vout": [
    {
      "value": 0.07628525,
      "n": 0,
      "scriptPubKey": {
        "asm": "OP_DUP OP_HASH160 55b26b52c2daecfa6fcf9e4cf05ae4f8b6a479b1 OP_EQUALVERIFY OP_CHECKSIG",
        "hex": "76a91455b26b52c2daecfa6fcf9e4cf05ae4f8b6a479b188ac",
        "reqSigs": 1,
        "type": "pubkeyhash",
        "addresses": [
          "DCxDiMECASHhTESTxdbzzzzzzzzzXEY4Ap"
        ]
      }
    },
    {
      "value": 0.14120803,
      "n": 1,
      "scriptPubKey": {
        "asm": "OP_DUP OP_HASH160 8eb3a72ec72f07ac716b640767758b1bcb8a3c2b OP_EQUALVERIFY OP_CHECKSIG",
        "hex": "76a9148eb3a72ec72f07ac716b640767758b1bcb8a3c2b88ac",
        "reqSigs": 1,
        "type": "pubkeyhash",
        "addresses": [
          "DJ9di1dNeYnee5RkBMyryGrVpttfA3rCph"
        ]
      }
    },
    {
      "value": 0.00039692,
      "n": 2,
      "scriptPubKey": {
        "asm": "OP_HASH160 0b296ba7889bf8fa15b91e7b401847120530d774 OP_EQUAL",
        "hex": "a9140b296ba7889bf8fa15b91e7b401847120530d77487",
        "reqSigs": 1,
        "type": "scripthash",
        "addresses": [
          "9sTHiSxiSxoNLYxAxTESTzzzzzzzXMo8MT"
        ]
      }
    }
  ],
  "blockhash": "dd2feb1ff4bea51ad0445af0d0519e7feca5d385d354a613b5aaa5639540e10b",
  "confirmations": 1254674,
  "time": 1587278002,
  "blocktime": 1587278002
}
