{
  "hex": "01000000010f10c465d4f22c0a5e7520f17a5543be29b464d0e5a56061a52b18bbe2f9bb9b000000006a47304402206015a41ee3860937078169e316cbd587db3102e8e57413f0f83706f098c30dba02206cf7c277d0853039781f544feb5be906d67fcf09c7b6b74f8df0497b5713070001210378bb13892374bec632ccdfa5b72d7937f613ad211c5b1ba5a46012711d8b60d4ffffffff02a98b5d070000000017a914cb1c5a7dae6087847e6c1f466e7ff6073e17986f87d2e6b460010000001976a914488ac1e8b57933e36437f4e673373ea1942fb89488ac00000000",
  "txid": "bf1bdb8247b9f1ad78684be24fbd301d3bcdc1ff232d16bcaed370e6e1b5c72c",
  "hash": "bf1bdb8247b9f1ad78684be24fbd301d3bcdc1ff232d16bcaed370e6e1b5c72c",
  "size": 223,
  "vsize": 223,
  "version": 1,
  "locktime": 0,
  "vin": [
    {
      "txid": "9bbbf9e2bb182ba56160a5e5d064b429be43557af120755e0a2cf2d465c4100f",
      "vout": 0,
      "scriptSig": {
        "asm": "304402206015a41ee3860937078169e316cbd587db3102e8e57413f0f83706f098c30dba02206cf7c277d0853039781f544feb5be906d67fcf09c7b6b74f8df0497b57130700[ALL] 0378bb13892374bec632ccdfa5b72d7937f613ad211c5b1ba5a46012711d8b60d4",
        "hex": "47304402206015a41ee3860937078169e316cbd587db3102e8e57413f0f83706f098c30dba02206cf7c277d0853039781f544feb5be906d67fcf09c7b6b74f8df0497b5713070001210378bb13892374bec632ccdfa5b72d7937f613ad211c5b1ba5a46012711d8b60d4"
      },
      "sequence": 4294967295
    }
  ],
  "vout": [
    {
      "value": 1.23571113,
      "n": 0,
      "scriptPubKey": {
        "asm": "OP_HASH160 cb1c5a7dae6087847e6c1f466e7ff6073e17986f OP_EQUAL",
        "hex": "a914cb1c5a7dae6087847e6c1f466e7ff6073e17986f87",
        "reqSigs": 1,
        "type": "scripthash",
        "addresses": [
          "AAxDoNALDTRUMPiSREXNEMoRENSiRVuwBi"
        ]
      }
    },
    {
      "value": 59.17435602,
      "n": 1,
      "scriptPubKey": {
        "asm": "OP_DUP OP_HASH160 488ac1e8b57933e36437f4e673373ea1942fb894 OP_EQUALVERIFY OP_CHECKSIG",
        "hex": "76a914488ac1e8b57933e36437f4e673373ea1942fb89488ac",
        "reqSigs": 1,
        "type": "pubkeyhash",
        "addresses": [
          "DBkfR7BSU8Z3Fc1QVqh4Lh81EPuwgPSBtG"
        ]
      }
    }
  ],
  "blockhash": "c1fa56c5b795d3bc718e718ff732e562d057eab824cd6ec9e90cee970fc6e786",
  "confirmations": 1574102,
  "time": 1571405134,
  "blocktime": 1571405134
}
