{
  "hex": "01000000013f55886c1f99197a15e2745ce5b7301e880fcee195a072c02e2a924ae1e0913f000000006a47304402201489d13fdc0846783280d37b56307e30c9a4bc85e5dfb3423a96912c05ff60f302201dc73c8146f7e47d0034944d3c2a3e139519757d1b2be90a82e20efcb24f823d0121031a5007b1198bc301309ac159e821f5406d9d692c9b7b5dcdecf4ba1677d3094bffffffff0288a5330a010000001976a914aec19a32651028e55ab6dcf2d47411f0bb65da7e88ac00e1f5050000000017a91407fcbdf13a43cdf51db0939e7cba8c93fe5205028700000000",
  "txid": "c83d318fecaa06fa9142b9d2e9081993c822bb4a18f445c30f2a84a7b8f41bdf",
  "hash": "c83d318fecaa06fa9142b9d2e9081993c822bb4a18f445c30f2a84a7b8f41bdf",
  "size": 223,
  "vsize": 223,
  "version": 1,
  "locktime": 0,
  "vin": [
    {
      "txid": "3f91e0e14a922a2ec072a095e1ce0f881e30b7e55c74e2157a19991f6c88553f",
      "vout": 0,
      "scriptSig": {
        "asm": "304402201489d13fdc0846783280d37b56307e30c9a4bc85e5dfb3423a96912c05ff60f302201dc73c8146f7e47d0034944d3c2a3e139519757d1b2be90a82e20efcb24f823d[ALL] 031a5007b1198bc301309ac159e821f5406d9d692c9b7b5dcdecf4ba1677d3094b",
        "hex": "47304402201489d13fdc0846783280d37b56307e30c9a4bc85e5dfb3423a96912c05ff60f302201dc73c8146f7e47d0034944d3c2a3e139519757d1b2be90a82e20efcb24f823d0121031a5007b1198bc301309ac159e821f5406d9d692c9b7b5dcdecf4ba1677d3094b"
      },
      "sequence": 4294967295
    }
  ],
  "vout": [
    {
      "value": 44.66124168,
      "n": 0,
      "scriptPubKey": {
        "asm": "OP_DUP OP_HASH160 aec19a32651028e55ab6dcf2d47411f0bb65da7e OP_EQUALVERIFY OP_CHECKSIG",
        "hex": "76a914aec19a32651028e55ab6dcf2d47411f0bb65da7e88ac",
        "reqSigs": 1,
        "type": "pubkeyhash",
        "addresses": [
          "DM583MzXyrtxpPbwA1uA2Fj89AQcKEVFnX"
        ]
      }
    },
    {
      "value": 1.00000000,
      "n": 1,
      "scriptPubKey": {
        "asm": "OP_HASH160 07fcbdf13a43cdf51db0939e7cba8c93fe520502 OP_EQUAL",
        "hex": "a91407fcbdf13a43cdf51db0939e7cba8c93fe52050287",
        "reqSigs": 1,
        "type": "scripthash",
        "addresses": [
          "9sAWAYxyxRANDYxNEWMANzzzzzzzU7koBV"
        ]
      }
    }
  ],
  "blockhash": "868fdd834fab7e218842ef23fc27a103b627b8476e32badf780c4e0b371cff5b",
  "confirmations": 1571210,
  "time": 1571586580,
  "blocktime": 1571586580
}
