{
  "hex": "0100000001c136eb1712a6fecccee4f252f58909a05719e8560439abf93fd78463ffca5266000000006b483045022100ed2e1f0515e0a29407b1949a6f1717b1c24821e9a727793a295a304a7ddac4550220708ea87427fc34ab160e6213c3408468d7cf96113932185a0ec30755df8b0bca01210368559858ffcdc3631342eac15e9b47745daa530f5190d688435a510538b95561feffffff0300e1f5050000000017a9140b29065937ebaea4424f004cdc852093f9bf76eb872f8a3506170100001976a914cd9848babffa710fc2eb5b05a63280aa25f4f1cd88ac00e1f5050000000017a9141128c7554f4cf2c1f7c4ee669bb6f35ef122f982877e122d00",
  "txid": "ca2effff07cfe826ee1f51d38ee684d08f3239465333e43b3388244c3de6e5a0",
  "hash": "ca2effff07cfe826ee1f51d38ee684d08f3239465333e43b3388244c3de6e5a0",
  "size": 256,
  "vsize": 256,
  "version": 1,
  "locktime": 2953854,
  "vin": [
    {
      "txid": "6652caff6384d73ff9ab390456e81957a00989f552f2e4ceccfea61217eb36c1",
      "vout": 0,
      "scriptSig": {
        "asm": "3045022100ed2e1f0515e0a29407b1949a6f1717b1c24821e9a727793a295a304a7ddac4550220708ea87427fc34ab160e6213c3408468d7cf96113932185a0ec30755df8b0bca[ALL] 0368559858ffcdc3631342eac15e9b47745daa530f5190d688435a510538b95561",
        "hex": "483045022100ed2e1f0515e0a29407b1949a6f1717b1c24821e9a727793a295a304a7ddac4550220708ea87427fc34ab160e6213c3408468d7cf96113932185a0ec30755df8b0bca01210368559858ffcdc3631342eac15e9b47745daa530f5190d688435a510538b95561"
      },
      "sequence": 4294967294
    }
  ],
  "vout": [
    {
      "value": 1.00000000,
      "n": 0,
      "scriptPubKey": {
        "asm": "OP_HASH160 0b29065937ebaea4424f004cdc852093f9bf76eb OP_EQUAL",
        "hex": "a9140b29065937ebaea4424f004cdc852093f9bf76eb87",
        "reqSigs": 1,
        "type": "scripthash",
        "addresses": [
          "9sTHExDiMECASHxSERViCEzzzzzzBoUCiD"
        ]
      }
    },
    {
      "value": 11984.00047663,
      "n": 1,
      "scriptPubKey": {
        "asm": "OP_DUP OP_HASH160 cd9848babffa710fc2eb5b05a63280aa25f4f1cd OP_EQUALVERIFY OP_CHECKSIG",
        "hex": "76a914cd9848babffa710fc2eb5b05a63280aa25f4f1cd88ac",
        "reqSigs": 1,
        "type": "pubkeyhash",
        "addresses": [
          "DPtBVU7yyaX2YWnKyAEszBpugWp42y6F1P"
        ]
      }
    },
    {
      "value": 1.00000000,
      "n": 2,
      "scriptPubKey": {
        "asm": "OP_HASH160 1128c7554f4cf2c1f7c4ee669bb6f35ef122f982 OP_EQUAL",
        "hex": "a9141128c7554f4cf2c1f7c4ee669bb6f35ef122f98287",
        "reqSigs": 1,
        "type": "scripthash",
        "addresses": [
          "9szzzzzzzzzzzzzzzzzzzzzzzzzzvq1Mt1"
        ]
      }
    }
  ],
  "blockhash": "df68e4e6148c6371bcff6c98bfb251c1db442003861c0501d2bbfd3687898348",
  "confirmations": 1561174,
  "time": 1572204002,
  "blocktime": 1572204002
}
