{
  "hex": "01000000010b87533f9beb8f0740dd2a6c4cb9a6975a11292d91b8b6fc97e80be442b23c47050000006b483045022100d8d9febaf2f23116d6bf5d108aa9dddc3ab92a21df6432c404b85b609e28d26302203b9177872e178636c7cce79ea1165f8625f4934a71504b18dd49b57b7aaded320121027d02b016e3f4b66a98b590cd1e00b6fe6fd84c07142eb0b7afc8fc33f8d367e3feffffff0e102700000000000017a9140b9ee51c8e81667e1ff8d994f3e00742fa7184b487102700000000000017a914094d64506da97f8d951a737f39ae0011208480ab87102700000000000017a9140dfe3181441af6b3bf7d3b1eeeeb3d6eb9d8f4cf87082c8e05000000001976a9146aeebbdd56544149e0f12ca358646ffbd6a1f11c88ac102700000000000017a9140ac59ecf08180df63ed0476f2aa495724bc2ef5c87102700000000000017a9140b296ba78eb23e66ab7bb38b384c06d7b3e651c287102700000000000017a9140af6358f1afd47022d82e6a612fa24c4aea504d187102700000000000017a9140af611a23bc5b799a3efbe3c0fba485e878a256187102700000000000017a914082bf2201875a5de0ecd47cf07a4542e4931dd9387102700000000000017a9140b123fb63bb415151e2f958d7ae2bb0a8d654d6087102700000000000017a9140a0430a414fdbcf1de7e9ec7465cc6e032857d0b87102700000000000017a91408b6e5335aeaf96998d357069d23b78e3779dd0387102700000000000017a9140de384336d26a715874a6c9bac7558c0a5c53b3a87102700000000000017a9140df1b51149eee51cca4829625e12a979915a587c8757b72f00",
  "txid": "d04df13db4fcbd39601eedbbb7c1db810daf79415ee4abb60005b35046041be6",
  "hash": "d04df13db4fcbd39601eedbbb7c1db810daf79415ee4abb60005b35046041be6",
  "size": 608,
  "vsize": 608,
  "version": 1,
  "locktime": 3127127,
  "vin": [
    {
      "txid": "473cb242e40be897fcb6b8912d29115a97a6b94c6c2add40078feb9b3f53870b",
      "vout": 5,
      "scriptSig": {
        "asm": "3045022100d8d9febaf2f23116d6bf5d108aa9dddc3ab92a21df6432c404b85b609e28d26302203b9177872e178636c7cce79ea1165f8625f4934a71504b18dd49b57b7aaded32[ALL] 027d02b016e3f4b66a98b590cd1e00b6fe6fd84c07142eb0b7afc8fc33f8d367e3",
        "hex": "483045022100d8d9febaf2f23116d6bf5d108aa9dddc3ab92a21df6432c404b85b609e28d26302203b9177872e178636c7cce79ea1165f8625f4934a71504b18dd49b57b7aaded320121027d02b016e3f4b66a98b590cd1e00b6fe6fd84c07142eb0b7afc8fc33f8d367e3"
      },
      "sequence": 4294967294
    }
  ],
  "vout": [
    {
      "value": 0.00010000,
      "n": 0,
      "scriptPubKey": {
        "asm": "OP_HASH160 0b9ee51c8e81667e1ff8d994f3e00742fa7184b4 OP_EQUAL",
        "hex": "a9140b9ee51c8e81667e1ff8d994f3e00742fa7184b487",
        "reqSigs": 1,
        "type": "scripthash",
        "addresses": [
          "9sViSiTxzzzzzzzzzzzzzzzzzzzzXE9N39"
        ]
      }
    },
    {
      "value": 0.00010000,
      "n": 1,
      "scriptPubKey": {
        "asm": "OP_HASH160 094d64506da97f8d951a737f39ae0011208480ab OP_EQUAL",
        "hex": "a914094d64506da97f8d951a737f39ae0011208480ab87",
        "reqSigs": 1,
        "type": "scripthash",
        "addresses": [
          "9sHTTPwffRiGLERhoRGfDiMECASHadcn34"
        ]
      }
    },
    {
      "value": 0.00010000,
      "n": 2,
      "scriptPubKey": {
        "asm": "OP_HASH160 0dfe3181441af6b3bf7d3b1eeeeb3d6eb9d8f4cf OP_EQUAL",
        "hex": "a9140dfe3181441af6b3bf7d3b1eeeeb3d6eb9d8f4cf87",
        "reqSigs": 1,
        "type": "scripthash",
        "addresses": [
          "9siFxYoUxWANTxToxCREATExAzzzapeXkZ"
        ]
      }
    },
    {
      "value": 0.93203464,
      "n": 3,
      "scriptPubKey": {
        "asm": "OP_DUP OP_HASH160 6aeebbdd56544149e0f12ca358646ffbd6a1f11c OP_EQUALVERIFY OP_CHECKSIG",
        "hex": "76a9146aeebbdd56544149e0f12ca358646ffbd6a1f11c88ac",
        "reqSigs": 1,
        "type": "pubkeyhash",
        "addresses": [
          "DEtWA7PHQizCPZUb1vvZQNtpP6VGPmw1tb"
        ]
      }
    },
    {
      "value": 0.00010000,
      "n": 4,
      "scriptPubKey": {
        "asm": "OP_HASH160 0ac59ecf08180df63ed0476f2aa495724bc2ef5c OP_EQUAL",
        "hex": "a9140ac59ecf08180df63ed0476f2aa495724bc2ef5c87",
        "reqSigs": 1,
        "type": "scripthash",
        "addresses": [
          "9sREADABLExTRANSACTioNxLiKEzW8pVFa"
        ]
      }
    },
    {
      "value": 0.00010000,
      "n": 5,
      "scriptPubKey": {
        "asm": "OP_HASH160 0b296ba78eb23e66ab7bb38b384c06d7b3e651c2 OP_EQUAL",
        "hex": "a9140b296ba78eb23e66ab7bb38b384c06d7b3e651c287",
        "reqSigs": 1,
        "type": "scripthash",
        "addresses": [
          "9sTHiSxoNEhxTHExSiTExCANxNoTdHpYxV"
        ]
      }
    },
    {
      "value": 0.00010000,
      "n": 6,
      "scriptPubKey": {
        "asm": "OP_HASH160 0af6358f1afd47022d82e6a612fa24c4aea504d1 OP_EQUAL",
        "hex": "a9140af6358f1afd47022d82e6a612fa24c4aea504d187",
        "reqSigs": 1,
        "type": "scripthash",
        "addresses": [
          "9sSENDxTHExTRANSACTioNxFoRxzXAmjUy"
        ]
      }
    },
    {
      "value": 0.00010000,
      "n": 7,
      "scriptPubKey": {
        "asm": "OP_HASH160 0af611a23bc5b799a3efbe3c0fba485e878a2561 OP_EQUAL",
        "hex": "a9140af611a23bc5b799a3efbe3c0fba485e878a256187",
        "reqSigs": 1,
        "type": "scripthash",
        "addresses": [
          "9sSECURiTYxREASoNShxxWExCANzSKYptR"
        ]
      }
    },
    {
      "value": 0.00010000,
      "n": 8,
      "scriptPubKey": {
        "asm": "OP_HASH160 082bf2201875a5de0ecd47cf07a4542e4931dd93 OP_EQUAL",
        "hex": "a914082bf2201875a5de0ecd47cf07a4542e4931dd9387",
        "reqSigs": 1,
        "type": "scripthash",
        "addresses": [
          "9sBUiLDxAxCoRExNoDExFoRxYoUvv4hyUa"
        ]
      }
    },
    {
      "value": 0.00010000,
      "n": 9,
      "scriptPubKey": {
        "asm": "OP_HASH160 0b123fb63bb415151e2f958d7ae2bb0a8d654d60 OP_EQUAL",
        "hex": "a9140b123fb63bb415151e2f958d7ae2bb0a8d654d6087",
        "reqSigs": 1,
        "type": "scripthash",
        "addresses": [
          "9sSoxTHATxYoUxCANxSENDxTHExzT5CatX"
        ]
      }
    },
    {
      "value": 0.00010000,
      "n": 10,
      "scriptPubKey": {
        "asm": "OP_HASH160 0a0430a414fdbcf1de7e9ec7465cc6e032857d0b OP_EQUAL",
        "hex": "a9140a0430a414fdbcf1de7e9ec7465cc6e032857d0b87",
        "reqSigs": 1,
        "type": "scripthash",
        "addresses": [
          "9sMESSAGESxYoURSELFhzzzzzzzzXMrqB8"
        ]
      }
    },
    {
      "value": 0.00010000,
      "n": 11,
      "scriptPubKey": {
        "asm": "OP_HASH160 08b6e5335aeaf96998d357069d23b78e3779dd03 OP_EQUAL",
        "hex": "a91408b6e5335aeaf96998d357069d23b78e3779dd0387",
        "reqSigs": 1,
        "type": "scripthash",
        "addresses": [
          "9sEMAiLwxJoHNrRiGLERhoRGzzzzaJPh3m"
        ]
      }
    },
    {
      "value": 0.00010000,
      "n": 12,
      "scriptPubKey": {
        "asm": "OP_HASH160 0de384336d26a715874a6c9bac7558c0a5c53b3a OP_EQUAL",
        "hex": "a9140de384336d26a715874a6c9bac7558c0a5c53b3a87",
        "reqSigs": 1,
        "type": "scripthash",
        "addresses": [
          "9shhzzzzzzzzzzzzzzzzzzzzzzzzZx2T2b"
        ]
      }
    },
    {
      "value": 0.00010000,
      "n": 13,
      "scriptPubKey": {
        "asm": "OP_HASH160 0df1b51149eee51cca4829625e12a979915a587c OP_EQUAL",
        "hex": "a9140df1b51149eee51cca4829625e12a979915a587c87",
        "reqSigs": 1,
        "type": "scripthash",
        "addresses": [
          "9shzzzzzzzzzzzzzzzzzzzzzzzzzXRa7EY"
        ]
      }
    }
  ],
  "blockhash": "8be66380d0b6b5d46997ff998a8b350eba6400609c1687cf9d44893e026dda11",
  "confirmations": 1387996,
  "time": 1583071378,
  "blocktime": 1583071378
}
