{
  "hex": "010000000188aa72f1ba935a4a847911decb4bbd3b3947510d029e01561a5a43c9eaffeafa010000006b483045022100e2e21902f655db4db3c3555ab16528d99baa1d6cd696d742cb732376e4d55bd002203483c8c1275d6b40ff7d16025e2e8398f295e7489cdf92780fdd357d8346faad012103755e0abca5fa466adfe62559ab54779f75dcd90d8566ca0651a36c57abb2ea57ffffffff02f7f65bf2000000001976a91490fadb06fa6308d97ba50821e1b2e3eae3120ce188ac8be7f505000000001976a91455b157b2d3ba5fda258052de841b2a0a9f46be1688ac00000000",
  "txid": "d08baefd401ae6f3b57b39c5442a838745fa840f9b4b2e999e7ae432d9e40385",
  "hash": "d08baefd401ae6f3b57b39c5442a838745fa840f9b4b2e999e7ae432d9e40385",
  "size": 226,
  "vsize": 226,
  "version": 1,
  "locktime": 0,
  "vin": [
    {
      "txid": "faeaffeac9435a1a56019e020d5147393bbd4bcbde1179844a5a93baf172aa88",
      "vout": 1,
      "scriptSig": {
        "asm": "3045022100e2e21902f655db4db3c3555ab16528d99baa1d6cd696d742cb732376e4d55bd002203483c8c1275d6b40ff7d16025e2e8398f295e7489cdf92780fdd357d8346faad[ALL] 03755e0abca5fa466adfe62559ab54779f75dcd90d8566ca0651a36c57abb2ea57",
        "hex": "483045022100e2e21902f655db4db3c3555ab16528d99baa1d6cd696d742cb732376e4d55bd002203483c8c1275d6b40ff7d16025e2e8398f295e7489cdf92780fdd357d8346faad012103755e0abca5fa466adfe62559ab54779f75dcd90d8566ca0651a36c57abb2ea57"
      },
      "sequence": 4294967295
    }
  ],
  "vout": [
    {
      "value": 40.66113271,
      "n": 0,
      "scriptPubKey": {
        "asm": "OP_DUP OP_HASH160 90fadb06fa6308d97ba50821e1b2e3eae3120ce1 OP_EQUALVERIFY OP_CHECKSIG",
        "hex": "76a91490fadb06fa6308d97ba50821e1b2e3eae3120ce188ac",
        "reqSigs": 1,
        "type": "pubkeyhash",
        "addresses": [
          "DJMgMdfVwYVGh9Ce1wDENkDfHsz9bqHik2"
        ]
      }
    },
    {
      "value": 1.00001675,
      "n": 1,
      "scriptPubKey": {
        "asm": "OP_DUP OP_HASH160 55b157b2d3ba5fda258052de841b2a0a9f46be16 OP_EQUALVERIFY OP_CHECKSIG",
        "hex": "76a91455b157b2d3ba5fda258052de841b2a0a9f46be1688ac",
        "reqSigs": 1,
        "type": "pubkeyhash",
        "addresses": [
          "DCxCRYPToyLiNGUiSTiCSzzzzzzzXqkxKP"
        ]
      }
    }
  ],
  "blockhash": "b1495a5d99db150c1ba4e15fc5396d7c256221c9b0cae2045f406945e85b0577",
  "confirmations": 1559911,
  "time": 1572285395,
  "blocktime": 1572285395
}
