{
  "hex": "01000000013c65b3bfb50592925c66992964ecd675fdad07196b82a060c8c8223bde5ffc43000000006a4730440220469c6422a3ff2a5f446b86df43b1616c15dade2cece267006df5f800967997590220265e61b682ec1de9fe339796b88b5fb4e839f8a2b94b8bcfc37e44946fa955c10121030310a7832aa328177d99e7f8b658355e09506f4406f0f6e5b2cdce1c66d6621afeffffff03ec1d5a920b0000001976a91447655c16176fd38df426a516b7e5818ecb75b55988ac10270000000000001976a91455bdb44391f196916cdca04cd31a130226b38f6188ac102700000000000017a9140b296ba7889bf8fa15b91e7b401847120530d77487b6f52f00",
  "txid": "d16a3fee78c7464961b9d01daaa82fca54a710eb5419240cf3d7410b89bf6391",
  "hash": "d16a3fee78c7464961b9d01daaa82fca54a710eb5419240cf3d7410b89bf6391",
  "size": 257,
  "vsize": 257,
  "version": 1,
  "locktime": 3143094,
  "vin": [
    {
      "txid": "43fc5fde3b22c8c860a0826b1907adfd75d6ec642999665c929205b5bfb3653c",
      "vout": 0,
      "scriptSig": {
        "asm": "30440220469c6422a3ff2a5f446b86df43b1616c15dade2cece267006df5f800967997590220265e61b682ec1de9fe339796b88b5fb4e839f8a2b94b8bcfc37e44946fa955c1[ALL] 030310a7832aa328177d99e7f8b658355e09506f4406f0f6e5b2cdce1c66d6621a",
        "hex": "4730440220469c6422a3ff2a5f446b86df43b1616c15dade2cece267006df5f800967997590220265e61b682ec1de9fe339796b88b5fb4e839f8a2b94b8bcfc37e44946fa955c10121030310a7832aa328177d99e7f8b658355e09506f4406f0f6e5b2cdce1c66d6621a"
      },
      "sequence": 4294967294
    }
  ],
  "vout": [
    {
      "value": 497.00019692,
      "n": 0,
      "scriptPubKey": {
        "asm": "OP_DUP OP_HASH160 47655c16176fd38df426a516b7e5818ecb75b559 OP_EQUALVERIFY OP_CHECKSIG",
        "hex": "76a91447655c16176fd38df426a516b7e5818ecb75b55988ac",
        "reqSigs": 1,
        "type": "pubkeyhash",
        "addresses": [
          "DBebwUV1acyc7BZ9MKEFTrCKC3okosurTC"
        ]
      }
    },
    {
      "value": 0.00010000,
      "n": 1,
      "scriptPubKey": {
        "asm": "OP_DUP OP_HASH160 55bdb44391f196916cdca04cd31a130226b38f61 OP_EQUALVERIFY OP_CHECKSIG",
        "hex": "76a91455bdb44391f196916cdca04cd31a130226b38f6188ac",
        "reqSigs": 1,
        "type": "pubkeyhash",
        "addresses": [
          "DCxTESTxCASTzzzzzzzzzzzzzzzzZHTvyu"
        ]
      }
    },
    {
      "value": 0.00010000,
      "n": 2,
      "scriptPubKey": {
        "asm": "OP_HASH160 0b296ba7889bf8fa15b91e7b401847120530d774 OP_EQUAL",
        "hex": "a9140b296ba7889bf8fa15b91e7b401847120530d77487",
        "reqSigs": 1,
        "type": "scripthash",
        "addresses": [
          "9sTHiSxiSxoNLYxAxTESTzzzzzzzXMo8MT"
        ]
      }
    }
  ],
  "blockhash": "bf21cdedf41aabb31dd632d345731cd03ef8e443152fb9e81e218113771ecfca",
  "confirmations": 1372081,
  "time": 1584074683,
  "blocktime": 1584074683
}
