{
  "hex": "01000000012cc7b5e1e670d3aebc162d23ffc1cd3b1d30bd4fe24b6878adf1b94782db1bbf010000006a4730440220623bd852030634599dffda628377bb2a950f622cf9b06c3a4f4b028054bc78de02207c0765e0e28042b899d2248846a4ca1f2f7e4064e7273f3b3bc1779adf4511fc012103c303f75137d900e47ae613d18ad07ad672203535c0cb409eb8aa7feb3da50688ffffffff028fa56653010000001976a914c647908221e716b4c2e3f48d2d2d8bf80f4f24a688ac43605807000000001976a91455ba853cc25febff9971234609a2147e76599f8c88ac00000000",
  "txid": "d8d3992727c27e0237e75d73772397a16e850dea96d3f715cfe372714d75faba",
  "hash": "d8d3992727c27e0237e75d73772397a16e850dea96d3f715cfe372714d75faba",
  "size": 225,
  "vsize": 225,
  "version": 1,
  "locktime": 0,
  "vin": [
    {
      "txid": "bf1bdb8247b9f1ad78684be24fbd301d3bcdc1ff232d16bcaed370e6e1b5c72c",
      "vout": 1,
      "scriptSig": {
        "asm": "30440220623bd852030634599dffda628377bb2a950f622cf9b06c3a4f4b028054bc78de02207c0765e0e28042b899d2248846a4ca1f2f7e4064e7273f3b3bc1779adf4511fc[ALL] 03c303f75137d900e47ae613d18ad07ad672203535c0cb409eb8aa7feb3da50688",
        "hex": "4730440220623bd852030634599dffda628377bb2a950f622cf9b06c3a4f4b028054bc78de02207c0765e0e28042b899d2248846a4ca1f2f7e4064e7273f3b3bc1779adf4511fc012103c303f75137d900e47ae613d18ad07ad672203535c0cb409eb8aa7feb3da50688"
      },
      "sequence": 4294967295
    }
  ],
  "vout": [
    {
      "value": 56.94203279,
      "n": 0,
      "scriptPubKey": {
        "asm": "OP_DUP OP_HASH160 c647908221e716b4c2e3f48d2d2d8bf80f4f24a6 OP_EQUALVERIFY OP_CHECKSIG",
        "hex": "76a914c647908221e716b4c2e3f48d2d2d8bf80f4f24a688ac",
        "reqSigs": 1,
        "type": "pubkeyhash",
        "addresses": [
          "DPDW4dQXDCYz76qFVTie88doVb9KyGunrZ"
        ]
      }
    },
    {
      "value": 1.23232323,
      "n": 1,
      "scriptPubKey": {
        "asm": "OP_DUP OP_HASH160 55ba853cc25febff9971234609a2147e76599f8c OP_EQUALVERIFY OP_CHECKSIG",
        "hex": "76a91455ba853cc25febff9971234609a2147e76599f8c88ac",
        "reqSigs": 1,
        "type": "pubkeyhash",
        "addresses": [
          "DCxPRESxTRUMPxNEMoRENSiSzzzzTpiQFZ"
        ]
      }
    }
  ],
  "blockhash": "c393167b5c0fb01d019584213d1755e3896e34a9e2a95a80bf7ed24f84368999",
  "confirmations": 1573961,
  "time": 1571405529,
  "blocktime": 1571405529
}
