{
  "hex": "01000000016fc1fd67eb2b6148f01eb0152bc347ee0861fbc80629139da6660bad923bf533000000006a4730440220102e8385b1e1ba260b14250aae18492a6ec8b61814eca49e0af19bcee1ecd18a022022833edbdb1f6e7a076e2a720be0d067b87bb636ff6a51ff54d56055057231e3012103917f4e00f6fe1846e1c8332b05cd6848a14a130f5ee3f2e590b7ec877c81f07ffeffffff0210270000000000001976a91455b5c23d94f33df49ec4d5e6c8516c4db420491288acf08a4f980b0000001976a9142b68e6139e6e54c4f1156b2ef636875e45dda1d388aca3fe2b00",
  "txid": "debf179dc223a21b86a66cfb7c9475589dc547cc097b480ecc8f585ef67a38bd",
  "hash": "debf179dc223a21b86a66cfb7c9475589dc547cc097b480ecc8f585ef67a38bd",
  "size": 225,
  "vsize": 225,
  "version": 1,
  "locktime": 2883235,
  "vin": [
    {
      "txid": "33f53b92ad0b66a69d132906c8fb6108ee47c32b15b01ef048612beb67fdc16f",
      "vout": 0,
      "scriptSig": {
        "asm": "30440220102e8385b1e1ba260b14250aae18492a6ec8b61814eca49e0af19bcee1ecd18a022022833edbdb1f6e7a076e2a720be0d067b87bb636ff6a51ff54d56055057231e3[ALL] 03917f4e00f6fe1846e1c8332b05cd6848a14a130f5ee3f2e590b7ec877c81f07f",
        "hex": "4730440220102e8385b1e1ba260b14250aae18492a6ec8b61814eca49e0af19bcee1ecd18a022022833edbdb1f6e7a076e2a720be0d067b87bb636ff6a51ff54d56055057231e3012103917f4e00f6fe1846e1c8332b05cd6848a14a130f5ee3f2e590b7ec877c81f07f"
      },
      "sequence": 4294967294
    }
  ],
  "vout": [
    {
      "value": 0.00010000,
      "n": 0,
      "scriptPubKey": {
        "asm": "OP_DUP OP_HASH160 55b5c23d94f33df49ec4d5e6c8516c4db4204912 OP_EQUALVERIFY OP_CHECKSIG",
        "hex": "76a91455b5c23d94f33df49ec4d5e6c8516c4db420491288ac",
        "reqSigs": 1,
        "type": "pubkeyhash",
        "addresses": [
          "DCxHiPCRiMExHiPCRiMExHiPCRiM9cFr7d"
        ]
      }
    },
    {
      "value": 497.99990000,
      "n": 1,
      "scriptPubKey": {
        "asm": "OP_DUP OP_HASH160 2b68e6139e6e54c4f1156b2ef636875e45dda1d3 OP_EQUALVERIFY OP_CHECKSIG",
        "hex": "76a9142b68e6139e6e54c4f1156b2ef636875e45dda1d388ac",
        "reqSigs": 1,
        "type": "pubkeyhash",
        "addresses": [
          "D96dFzuRqyDXSvfquLx3GNejfn3GutGasL"
        ]
      }
    }
  ],
  "blockhash": "606df5ac175571a59b905779289642749c0b0d531ab120c90502ad3facc6aae7",
  "confirmations": 1631792,
  "time": 1567794499,
  "blocktime": 1567794499
}
