{
  "hex": "0100000001cd6b319b0f0927791598f0cb11e23b7020bc0cb449f48714156fd9d2ac09223e010000006b483045022100a0c3be28a8eedf3d882b604e00a979a47334d5d0d4a7e392bb327d85bba170f6022017f70ecb2ad0f215bbe71cacbfd38628a7075ef3007c77b62319ae1cd8888a86012102d1791d19c30b71b25ec58b9c68e7d9f8393c0586aa2d554dfbf5f4c8d09031d7ffffffff027be2f505000000001976a91455ba4e89c5e6d187da2cf88906e9a3f75a075b8488ac074b9c6c000000001976a914cf38db2afb8c8a52c8a8d2cfa98f14aa80c246c988ac00000000",
  "txid": "e037f552989dfd3db1d158e15ccbb7436164b9cce6419b77635cb47e33aa1546",
  "hash": "e037f552989dfd3db1d158e15ccbb7436164b9cce6419b77635cb47e33aa1546",
  "size": 226,
  "vsize": 226,
  "version": 1,
  "locktime": 0,
  "vin": [
    {
      "txid": "3e2209acd2d96f151487f449b40cbc20703be211cbf098157927090f9b316bcd",
      "vout": 1,
      "scriptSig": {
        "asm": "3045022100a0c3be28a8eedf3d882b604e00a979a47334d5d0d4a7e392bb327d85bba170f6022017f70ecb2ad0f215bbe71cacbfd38628a7075ef3007c77b62319ae1cd8888a86[ALL] 02d1791d19c30b71b25ec58b9c68e7d9f8393c0586aa2d554dfbf5f4c8d09031d7",
        "hex": "483045022100a0c3be28a8eedf3d882b604e00a979a47334d5d0d4a7e392bb327d85bba170f6022017f70ecb2ad0f215bbe71cacbfd38628a7075ef3007c77b62319ae1cd8888a86012102d1791d19c30b71b25ec58b9c68e7d9f8393c0586aa2d554dfbf5f4c8d09031d7"
      },
      "sequence": 4294967295
    }
  ],
  "vout": [
    {
      "value": 1.00000379,
      "n": 0,
      "scriptPubKey": {
        "asm": "OP_DUP OP_HASH160 55ba4e89c5e6d187da2cf88906e9a3f75a075b84 OP_EQUALVERIFY OP_CHECKSIG",
        "hex": "76a91455ba4e89c5e6d187da2cf88906e9a3f75a075b8488ac",
        "reqSigs": 1,
        "type": "pubkeyhash",
        "addresses": [
          "DCxPAPPAPPoPPoPCUDDLEzzzzzzzaNbF63"
        ]
      }
    },
    {
      "value": 18.22182151,
      "n": 1,
      "scriptPubKey": {
        "asm": "OP_DUP OP_HASH160 cf38db2afb8c8a52c8a8d2cfa98f14aa80c246c9 OP_EQUALVERIFY OP_CHECKSIG",
        "hex": "76a914cf38db2afb8c8a52c8a8d2cfa98f14aa80c246c988ac",
        "reqSigs": 1,
        "type": "pubkeyhash",
        "addresses": [
          "DQ2nXQAHrXe5i2tZPA4h9utHaxvSvP55kf"
        ]
      }
    }
  ],
  "blockhash": "ba18072fb15263feea565af713a725803c78600cb3c8438255de6269c020f935",
  "confirmations": 1586317,
  "time": 1570633966,
  "blocktime": 1570633966
}
