{
  "hex": "0100000001b95841b35d34402b94dfefdaed743cf6bd063b600bfd238661833e9fcb383567010000006a47304402204bfb1a6df5d383adacdf106bcc30c610d5ecafd2f3800d743b0bfed465fac21502203b59bd2773d191d67d812bf8acccdbb8cd63a441f0776dc20987fd40f4f3ffe9012103e89cabae40f8d2248d08fd5c4515b526d9b4d1253a94b63d1a67178143485334feffffff02d0b877800b0000001976a914359e000a6fb79a3e2b6fbcedd97ddc6f9ac4739788ac10270000000000001976a91455ca52cb5da9cdb8d63cc7b1622678a9bf7a0ad188acd6fe2b00",
  "txid": "e08a43ac1a4ddaed296590e98dc50505fd9d47e0506a385bd7c1415b3e57e44f",
  "hash": "e08a43ac1a4ddaed296590e98dc50505fd9d47e0506a385bd7c1415b3e57e44f",
  "size": 225,
  "vsize": 225,
  "version": 1,
  "locktime": 2883286,
  "vin": [
    {
      "txid": "673538cb9f3e83618623fd0b603b06bdf63c74eddaefdf942b40345db34158b9",
      "vout": 1,
      "scriptSig": {
        "asm": "304402204bfb1a6df5d383adacdf106bcc30c610d5ecafd2f3800d743b0bfed465fac21502203b59bd2773d191d67d812bf8acccdbb8cd63a441f0776dc20987fd40f4f3ffe9[ALL] 03e89cabae40f8d2248d08fd5c4515b526d9b4d1253a94b63d1a67178143485334",
        "hex": "47304402204bfb1a6df5d383adacdf106bcc30c610d5ecafd2f3800d743b0bfed465fac21502203b59bd2773d191d67d812bf8acccdbb8cd63a441f0776dc20987fd40f4f3ffe9012103e89cabae40f8d2248d08fd5c4515b526d9b4d1253a94b63d1a67178143485334"
      },
      "sequence": 4294967294
    }
  ],
  "vout": [
    {
      "value": 493.99970000,
      "n": 0,
      "scriptPubKey": {
        "asm": "OP_DUP OP_HASH160 359e000a6fb79a3e2b6fbcedd97ddc6f9ac47397 OP_EQUALVERIFY OP_CHECKSIG",
        "hex": "76a914359e000a6fb79a3e2b6fbcedd97ddc6f9ac4739788ac",
        "reqSigs": 1,
        "type": "pubkeyhash",
        "addresses": [
          "DA2bdU9t9uxxBi5bHD9686VEUn1LhoZirM"
        ]
      }
    },
    {
      "value": 0.00010000,
      "n": 1,
      "scriptPubKey": {
        "asm": "OP_DUP OP_HASH160 55ca52cb5da9cdb8d63cc7b1622678a9bf7a0ad1 OP_EQUALVERIFY OP_CHECKSIG",
        "hex": "76a91455ca52cb5da9cdb8d63cc7b1622678a9bf7a0ad188ac",
        "reqSigs": 1,
        "type": "pubkeyhash",
        "addresses": [
          "DCxiMExHiPCRiMExHiPCRiMEHiPCRggauH"
        ]
      }
    }
  ],
  "blockhash": "0515ec3ae79edf932622d0c5074b4a92a710d53f607776a7f7bbc12341bcca10",
  "confirmations": 1631856,
  "time": 1567794995,
  "blocktime": 1567794995
}
