{
  "hex": "0100000001d6e4c213bb7cfc352a7c5d5b41eecee970589425960279b1faca77dcf7334c46000000006a473044022044d69239b05aa52d79867992122dae67c0968076f3437582c54e44a5c9aad42a022059681e346b626cc40f652de0b2327b8d0a08a68b435fcc1b081cbf450cdbe48d012102ac6d9ea21a88825b1901bd75b5ece742368a6fcabc808e35a1bb6cccb7890ef7feffffff038c4ab45c0b0000001976a9148501877cbbde3ee15ee8b0ab8e04eaa3e7018c7088ac102700000000000017a9140ac59ed038adb0102c62501fa97366d910001a8c87102700000000000017a914095e06ebf8859f2d66f915c8753f86df3f308c3f8701023000",
  "txid": "e1a1835078ce6038fed9865d3d3cdba8816f464a8b3301f72c642350f8b1cd42",
  "hash": "e1a1835078ce6038fed9865d3d3cdba8816f464a8b3301f72c642350f8b1cd42",
  "size": 255,
  "vsize": 255,
  "version": 1,
  "locktime": 3146241,
  "vin": [
    {
      "txid": "464c33f7dc77cafab179029625945870e9ceee415b5d7c2a35fc7cbb13c2e4d6",
      "vout": 0,
      "scriptSig": {
        "asm": "3044022044d69239b05aa52d79867992122dae67c0968076f3437582c54e44a5c9aad42a022059681e346b626cc40f652de0b2327b8d0a08a68b435fcc1b081cbf450cdbe48d[ALL] 02ac6d9ea21a88825b1901bd75b5ece742368a6fcabc808e35a1bb6cccb7890ef7",
        "hex": "473044022044d69239b05aa52d79867992122dae67c0968076f3437582c54e44a5c9aad42a022059681e346b626cc40f652de0b2327b8d0a08a68b435fcc1b081cbf450cdbe48d012102ac6d9ea21a88825b1901bd75b5ece742368a6fcabc808e35a1bb6cccb7890ef7"
      },
      "sequence": 4294967294
    }
  ],
  "vout": [
    {
      "value": 487.99959692,
      "n": 0,
      "scriptPubKey": {
        "asm": "OP_DUP OP_HASH160 8501877cbbde3ee15ee8b0ab8e04eaa3e7018c70 OP_EQUALVERIFY OP_CHECKSIG",
        "hex": "76a9148501877cbbde3ee15ee8b0ab8e04eaa3e7018c7088ac",
        "reqSigs": 1,
        "type": "pubkeyhash",
        "addresses": [
          "DHGNF2T9qLh8nkz1JWyWMg81dUJpR6vUBV"
        ]
      }
    },
    {
      "value": 0.00010000,
      "n": 1,
      "scriptPubKey": {
        "asm": "OP_HASH160 0ac59ed038adb0102c62501fa97366d910001a8c OP_EQUAL",
        "hex": "a9140ac59ed038adb0102c62501fa97366d910001a8c87",
        "reqSigs": 1,
        "type": "scripthash",
        "addresses": [
          "9sREADERSxANDxCULTzzzzzzzzzzYCFDSE"
        ]
      }
    },
    {
      "value": 0.00010000,
      "n": 2,
      "scriptPubKey": {
        "asm": "OP_HASH160 095e06ebf8859f2d66f915c8753f86df3f308c3f OP_EQUAL",
        "hex": "a914095e06ebf8859f2d66f915c8753f86df3f308c3f87",
        "reqSigs": 1,
        "type": "scripthash",
        "addresses": [
          "9sHoPEFooLSzzzzzzzzzzzzzzzzzVihn79"
        ]
      }
    }
  ],
  "blockhash": "d6e09bbb02123b5feac5c877b6819448c80ee9d243e74ab00a0062ef5e905a39",
  "confirmations": 1368841,
  "time": 1584271972,
  "blocktime": 1584271972
}
