{
  "hex": "010000000139ef5cc472ef8563c1fbe5d92830b3451b5194f7d591d1177f8625fef15b59b6000000006b483045022100a59133d0369c9a580c3e6234aff6ac521b9a7dda9a37506a43666eec291df9f9022049cab92f9681fa4eb30e4ff06b50037cb58e3e1573038c253f4ca804fa063fe90121035312bc8058cb431def0a61c27fde3be1e24c0c2aba08839043aa083995deca3affffffff02e78ef317000000001976a9144642893443eaf16b84301fbc726f22e631afcf6588ac24232a07000000001976a91455b855b2c6ecd61f4fd0e43568cf60abc588027088ac00000000",
  "txid": "e2da69f8b68451efb613a5fa7238daeb3fedc7cbab35a18e46bc55fb7847bcee",
  "hash": "e2da69f8b68451efb613a5fa7238daeb3fedc7cbab35a18e46bc55fb7847bcee",
  "size": 226,
  "vsize": 226,
  "version": 1,
  "locktime": 0,
  "vin": [
    {
      "txid": "b6595bf1fe25867f17d191d5f794511b45b33028d9e5fbc16385ef72c45cef39",
      "vout": 0,
      "scriptSig": {
        "asm": "3045022100a59133d0369c9a580c3e6234aff6ac521b9a7dda9a37506a43666eec291df9f9022049cab92f9681fa4eb30e4ff06b50037cb58e3e1573038c253f4ca804fa063fe9[ALL] 035312bc8058cb431def0a61c27fde3be1e24c0c2aba08839043aa083995deca3a",
        "hex": "483045022100a59133d0369c9a580c3e6234aff6ac521b9a7dda9a37506a43666eec291df9f9022049cab92f9681fa4eb30e4ff06b50037cb58e3e1573038c253f4ca804fa063fe90121035312bc8058cb431def0a61c27fde3be1e24c0c2aba08839043aa083995deca3a"
      },
      "sequence": 4294967295
    }
  ],
  "vout": [
    {
      "value": 4.01837799,
      "n": 0,
      "scriptPubKey": {
        "asm": "OP_DUP OP_HASH160 4642893443eaf16b84301fbc726f22e631afcf65 OP_EQUALVERIFY OP_CHECKSIG",
        "hex": "76a9144642893443eaf16b84301fbc726f22e631afcf6588ac",
        "reqSigs": 1,
        "type": "pubkeyhash",
        "addresses": [
          "DBYbYgitX4rZb9coxQc2mgF9WuuazuvQPg"
        ]
      }
    },
    {
      "value": 1.20202020,
      "n": 1,
      "scriptPubKey": {
        "asm": "OP_DUP OP_HASH160 55b855b2c6ecd61f4fd0e43568cf60abc5880270 OP_EQUALVERIFY OP_CHECKSIG",
        "hex": "76a91455b855b2c6ecd61f4fd0e43568cf60abc588027088ac",
        "reqSigs": 1,
        "type": "pubkeyhash",
        "addresses": [
          "DCxLoNGxLiVExoRANGExREXzzzzzb65Grz"
        ]
      }
    }
  ],
  "blockhash": "9a0282219c6d02941f1839ba9da0e6bb44c126f9f10eda81f323600cd9454653",
  "confirmations": 1573924,
  "time": 1571414232,
  "blocktime": 1571414232
}
