{
  "hex": "01000000019163bf890b41d7f30c241954eb10a754ca2fa8aa1dd0b9614946c778ee3f6ad1000000006a473044022055c6e5a7b67f4700b1feb137d51a431ba224aca9216fd41b57868156e1faec3b0220640c298c82415be5075bff28aa14063e152676d8c84fdc1fb3da79c9d03ce7be012102e8d4d7a233f70d80399aee8812a326248b860d2f03437b6d6f1deef850a21e65feffffff0310270000000000001976a91455bdb44391f196916cdca04cd31a130226b38f6188accc2c78800b0000001976a914dfb020b4079408473384e980aa2b300ea85f81fe88ac102700000000000017a9140b296ba7889bf8fa15b91e7b401847120530d77487b0f52f00",
  "txid": "e5bfca8c2411ed7cb3f6f1223f09ddcbbdf96a8930a090d0ded47739bd726535",
  "hash": "e5bfca8c2411ed7cb3f6f1223f09ddcbbdf96a8930a090d0ded47739bd726535",
  "size": 257,
  "vsize": 257,
  "version": 1,
  "locktime": 3143088,
  "vin": [
    {
      "txid": "d16a3fee78c7464961b9d01daaa82fca54a710eb5419240cf3d7410b89bf6391",
      "vout": 0,
      "scriptSig": {
        "asm": "3044022055c6e5a7b67f4700b1feb137d51a431ba224aca9216fd41b57868156e1faec3b0220640c298c82415be5075bff28aa14063e152676d8c84fdc1fb3da79c9d03ce7be[ALL] 02e8d4d7a233f70d80399aee8812a326248b860d2f03437b6d6f1deef850a21e65",
        "hex": "473044022055c6e5a7b67f4700b1feb137d51a431ba224aca9216fd41b57868156e1faec3b0220640c298c82415be5075bff28aa14063e152676d8c84fdc1fb3da79c9d03ce7be012102e8d4d7a233f70d80399aee8812a326248b860d2f03437b6d6f1deef850a21e65"
      },
      "sequence": 4294967294
    }
  ],
  "vout": [
    {
      "value": 0.00010000,
      "n": 0,
      "scriptPubKey": {
        "asm": "OP_DUP OP_HASH160 55bdb44391f196916cdca04cd31a130226b38f61 OP_EQUALVERIFY OP_CHECKSIG",
        "hex": "76a91455bdb44391f196916cdca04cd31a130226b38f6188ac",
        "reqSigs": 1,
        "type": "pubkeyhash",
        "addresses": [
          "DCxTESTxCASTzzzzzzzzzzzzzzzzZHTvyu"
        ]
      }
    },
    {
      "value": 493.99999692,
      "n": 1,
      "scriptPubKey": {
        "asm": "OP_DUP OP_HASH160 dfb020b4079408473384e980aa2b300ea85f81fe OP_EQUALVERIFY OP_CHECKSIG",
        "hex": "76a914dfb020b4079408473384e980aa2b300ea85f81fe88ac",
        "reqSigs": 1,
        "type": "pubkeyhash",
        "addresses": [
          "DRXrDcAHiBKngecmyuaztDyAwJnrzP7eVo"
        ]
      }
    },
    {
      "value": 0.00010000,
      "n": 2,
      "scriptPubKey": {
        "asm": "OP_HASH160 0b296ba7889bf8fa15b91e7b401847120530d774 OP_EQUAL",
        "hex": "a9140b296ba7889bf8fa15b91e7b401847120530d77487",
        "reqSigs": 1,
        "type": "scripthash",
        "addresses": [
          "9sTHiSxiSxoNLYxAxTESTzzzzzzzXMo8MT"
        ]
      }
    }
  ],
  "blockhash": "8c7ed4108ccfa8a7bed5fae3c3ee2488078b086f8c1044a2cd43d4c394bf8e63",
  "confirmations": 1371958,
  "time": 1584074845,
  "blocktime": 1584074845
}
