{
  "hex": "01000000018c47c405c847bf65824352cc4e4e30bb880fa9cd2118e5992fa3006d39aaf41a000000006a47304402205f8a1fc6945b486cfb22648617890d29fa22325a4a1fa59c5e2096a103a19d3d02202f3f80838d3f1df7ba4009f1ab0d30081a13952136a458f13c336911368c5a43012102625f4ab1a2bd2c7bd9524ecb358fb8856033cfd32589224b016c57bdbde16b1ffeffffff0200e1f505000000001976a91455c27e513ce54d1dc800bab506c4ecab5524d48088ac2fd0f829170100001976a9148252f212d3e5865f59c9253b13bdf1c91401c3bc88ac0a562c00",
  "txid": "f0f7de0c6cefe0a1e558dea8f16d4dd4ea2c12319753ad74707c8942deaba756",
  "hash": "f0f7de0c6cefe0a1e558dea8f16d4dd4ea2c12319753ad74707c8942deaba756",
  "size": 225,
  "vsize": 225,
  "version": 1,
  "locktime": 2905610,
  "vin": [
    {
      "txid": "1af4aa396d00a32f99e51821cda90f88bb304e4ecc52438265bf47c805c4478c",
      "vout": 0,
      "scriptSig": {
        "asm": "304402205f8a1fc6945b486cfb22648617890d29fa22325a4a1fa59c5e2096a103a19d3d02202f3f80838d3f1df7ba4009f1ab0d30081a13952136a458f13c336911368c5a43[ALL] 02625f4ab1a2bd2c7bd9524ecb358fb8856033cfd32589224b016c57bdbde16b1f",
        "hex": "47304402205f8a1fc6945b486cfb22648617890d29fa22325a4a1fa59c5e2096a103a19d3d02202f3f80838d3f1df7ba4009f1ab0d30081a13952136a458f13c336911368c5a43012102625f4ab1a2bd2c7bd9524ecb358fb8856033cfd32589224b016c57bdbde16b1f"
      },
      "sequence": 4294967294
    }
  ],
  "vout": [
    {
      "value": 1.00000000,
      "n": 0,
      "scriptPubKey": {
        "asm": "OP_DUP OP_HASH160 55c27e513ce54d1dc800bab506c4ecab5524d480 OP_EQUALVERIFY OP_CHECKSIG",
        "hex": "76a91455c27e513ce54d1dc800bab506c4ecab5524d48088ac",
        "reqSigs": 1,
        "type": "pubkeyhash",
        "addresses": [
          "DCxYyCoMBiNAToRzzzzzzzzzzzzzZUHixB"
        ]
      }
    },
    {
      "value": 11990.00047663,
      "n": 1,
      "scriptPubKey": {
        "asm": "OP_DUP OP_HASH160 8252f212d3e5865f59c9253b13bdf1c91401c3bc OP_EQUALVERIFY OP_CHECKSIG",
        "hex": "76a9148252f212d3e5865f59c9253b13bdf1c91401c3bc88ac",
        "reqSigs": 1,
        "type": "pubkeyhash",
        "addresses": [
          "DH2BkMhZfykv6N9R5g3tiVEWdbXbATxooM"
        ]
      }
    }
  ],
  "blockhash": "6f4ec84d33504a9cd91fb1220f64894b2ec26b55d51d87b8c4186b473d0de911",
  "confirmations": 1609460,
  "time": 1569189016,
  "blocktime": 1569189016
}
