{
  "hex": "0100000001ea630514ccade8184ed77aae9cd3a34a1104137c96a66eeea326a64c3da402b00b0000006b483045022100e5513f16ba98b90efa3c33d2891a663e4d7c25340d22256efdd09b569f82f9f70220621d2c02a1a6afd4a69bb7a334a020adab9dbc32dc031be9e79679f46ab79ead012102b049aca961cba5421319c45b4a885eaa5746504bf91515bdef47956f2d387832feffffff100f925abe150100001976a91497917bbbbbcb0ff33495ae79b143fa697269a4ff88ac10270000000000001976a91455b203790b154f523f361f56aad7bb44ab4b308188ac10270000000000001976a91455b55ae503e2930561515924023303d171641d1c88ac10270000000000001976a91455cad37559f4adb27446d3440bce7348f23780a388ac10270000000000001976a91455bdbe4b72f0b04bb7d6efb35c329009ef5a4fad88ac10270000000000001976a91455cad4c1c127a44ad68b820fe2233e92d49fb82388ac10270000000000001976a91455ba9017e0f7de52553640fce1cfb3bec9caed3688ac10270000000000001976a91455b58b3d700cfd3bb16cee77d5417b2ec111a98788ac10270000000000001976a91455bdbe9610e4d2cc7f2207ac9ea1921644f6bd9288ac10270000000000001976a91455bbf951e16ec8a77e09c9c8c9d626306235452488ac10270000000000001976a91455ba5eccfe6f886502d02891a136d314c16c359788ac10270000000000001976a91455bd57d218e4e8e824926382579a7fd7a653f30f88ac10270000000000001976a91455bdc05525609b475340f939dd6f44f675607d2f88ac10270000000000001976a91455afb184d86f8d90d19b04c446e58fd58655a09588ac10270000000000001976a91455b76dd7a2b32c882e7a3a7c05720e08df04c8b288ac10270000000000001976a91455b7cd92dfd56303f4fa44fcf86671146df1f1cb88acb55b2e00",
  "txid": "f2a06e4c2c207553d92f790b674c4f0bfbceaa8461a61007f98fc35ea7ab469e",
  "hash": "f2a06e4c2c207553d92f790b674c4f0bfbceaa8461a61007f98fc35ea7ab469e",
  "size": 702,
  "vsize": 702,
  "version": 1,
  "locktime": 3038133,
  "vin": [
    {
      "txid": "b002a43d4ca626a3ee6ea6967c1304114aa3d39cae7ad74e18e8adcc140563ea",
      "vout": 11,
      "scriptSig": {
        "asm": "3045022100e5513f16ba98b90efa3c33d2891a663e4d7c25340d22256efdd09b569f82f9f70220621d2c02a1a6afd4a69bb7a334a020adab9dbc32dc031be9e79679f46ab79ead[ALL] 02b049aca961cba5421319c45b4a885eaa5746504bf91515bdef47956f2d387832",
        "hex": "483045022100e5513f16ba98b90efa3c33d2891a663e4d7c25340d22256efdd09b569f82f9f70220621d2c02a1a6afd4a69bb7a334a020adab9dbc32dc031be9e79679f46ab79ead012102b049aca961cba5421319c45b4a885eaa5746504bf91515bdef47956f2d387832"
      },
      "sequence": 4294967294
    }
  ],
  "vout": [
    {
      "value": 11928.99547663,
      "n": 0,
      "scriptPubKey": {
        "asm": "OP_DUP OP_HASH160 97917bbbbbcb0ff33495ae79b143fa697269a4ff OP_EQUALVERIFY OP_CHECKSIG",
        "hex": "76a91497917bbbbbcb0ff33495ae79b143fa697269a4ff88ac",
        "reqSigs": 1,
        "type": "pubkeyhash",
        "addresses": [
          "DJxWrapykhjzEXaLGgSUJ6vHUpCWgjd5Y5"
        ]
      }
    },
    {
      "value": 0.00010000,
      "n": 1,
      "scriptPubKey": {
        "asm": "OP_DUP OP_HASH160 55b203790b154f523f361f56aad7bb44ab4b3081 OP_EQUALVERIFY OP_CHECKSIG",
        "hex": "76a91455b203790b154f523f361f56aad7bb44ab4b308188ac",
        "reqSigs": 1,
        "type": "pubkeyhash",
        "addresses": [
          "DCxDEARxUTxAUSTiNzzzzzzzzzzzZKCwrp"
        ]
      }
    },
    {
      "value": 0.00010000,
      "n": 2,
      "scriptPubKey": {
        "asm": "OP_DUP OP_HASH160 55b55ae503e2930561515924023303d171641d1c OP_EQUALVERIFY OP_CHECKSIG",
        "hex": "76a91455b55ae503e2930561515924023303d171641d1c88ac",
        "reqSigs": 1,
        "type": "pubkeyhash",
        "addresses": [
          "DCxHELLovxHoWxARExYoUkzzzzzzRc7Dgf"
        ]
      }
    },
    {
      "value": 0.00010000,
      "n": 3,
      "scriptPubKey": {
        "asm": "OP_DUP OP_HASH160 55cad37559f4adb27446d3440bce7348f23780a3 OP_EQUALVERIFY OP_CHECKSIG",
        "hex": "76a91455cad37559f4adb27446d3440bce7348f23780a388ac",
        "reqSigs": 1,
        "type": "pubkeyhash",
        "addresses": [
          "DCxixAMxDoiNGxWELLhzzzzzzzzzU7w1d6"
        ]
      }
    },
    {
      "value": 0.00010000,
      "n": 4,
      "scriptPubKey": {
        "asm": "OP_DUP OP_HASH160 55bdbe4b72f0b04bb7d6efb35c329009ef5a4fad OP_EQUALVERIFY OP_CHECKSIG",
        "hex": "76a91455bdbe4b72f0b04bb7d6efb35c329009ef5a4fad88ac",
        "reqSigs": 1,
        "type": "pubkeyhash",
        "addresses": [
          "DCxTHANKSxFoRxASKiNGhzzzzzzzWu5KQh"
        ]
      }
    },
    {
      "value": 0.00010000,
      "n": 5,
      "scriptPubKey": {
        "asm": "OP_DUP OP_HASH160 55cad4c1c127a44ad68b820fe2233e92d49fb823 OP_EQUALVERIFY OP_CHECKSIG",
        "hex": "76a91455cad4c1c127a44ad68b820fe2233e92d49fb82388ac",
        "reqSigs": 1,
        "type": "pubkeyhash",
        "addresses": [
          "DCxixWoULDxLiKExFoRxYoUxTozzWq5WCs"
        ]
      }
    },
    {
      "value": 0.00010000,
      "n": 6,
      "scriptPubKey": {
        "asm": "OP_DUP OP_HASH160 55ba9017e0f7de52553640fce1cfb3bec9caed36 OP_EQUALVERIFY OP_CHECKSIG",
        "hex": "76a91455ba9017e0f7de52553640fce1cfb3bec9caed3688ac",
        "reqSigs": 1,
        "type": "pubkeyhash",
        "addresses": [
          "DCxPUBLiSHxANxARTiCLExABoUTzVzGB1i"
        ]
      }
    },
    {
      "value": 0.00010000,
      "n": 7,
      "scriptPubKey": {
        "asm": "OP_DUP OP_HASH160 55b58b3d700cfd3bb16cee77d5417b2ec111a987 OP_EQUALVERIFY OP_CHECKSIG",
        "hex": "76a91455b58b3d700cfd3bb16cee77d5417b2ec111a98788ac",
        "reqSigs": 1,
        "type": "pubkeyhash",
        "addresses": [
          "DCxHTTPSwffDiMEhCASHzzzzzzzzYqAXa2"
        ]
      }
    },
    {
      "value": 0.00010000,
      "n": 8,
      "scriptPubKey": {
        "asm": "OP_DUP OP_HASH160 55bdbe9610e4d2cc7f2207ac9ea1921644f6bd92 OP_EQUALVERIFY OP_CHECKSIG",
        "hex": "76a91455bdbe9610e4d2cc7f2207ac9ea1921644f6bd9288ac",
        "reqSigs": 1,
        "type": "pubkeyhash",
        "addresses": [
          "DCxTHExSYSTEMxPRESENTSxAzzzzWvbSP9"
        ]
      }
    },
    {
      "value": 0.00010000,
      "n": 9,
      "scriptPubKey": {
        "asm": "OP_DUP OP_HASH160 55bbf951e16ec8a77e09c9c8c9d6263062354524 OP_EQUALVERIFY OP_CHECKSIG",
        "hex": "76a91455bbf951e16ec8a77e09c9c8c9d626306235452488ac",
        "reqSigs": 1,
        "type": "pubkeyhash",
        "addresses": [
          "DCxRADiCALLYxNEWxWAYxFoRzzzzYrtt3y"
        ]
      }
    },
    {
      "value": 0.00010000,
      "n": 10,
      "scriptPubKey": {
        "asm": "OP_DUP OP_HASH160 55ba5eccfe6f886502d02891a136d314c16c3597 OP_EQUALVERIFY OP_CHECKSIG",
        "hex": "76a91455ba5eccfe6f886502d02891a136d314c16c359788ac",
        "reqSigs": 1,
        "type": "pubkeyhash",
        "addresses": [
          "DCxPEoPLExToxUSExCRYPTohzzzzUBScy7"
        ]
      }
    },
    {
      "value": 0.00010000,
      "n": 11,
      "scriptPubKey": {
        "asm": "OP_DUP OP_HASH160 55bd57d218e4e8e824926382579a7fd7a653f30f OP_EQUALVERIFY OP_CHECKSIG",
        "hex": "76a91455bd57d218e4e8e824926382579a7fd7a653f30f88ac",
        "reqSigs": 1,
        "type": "pubkeyhash",
        "addresses": [
          "DCxSoMEoNExNEEDSxToxBREAKzzzXue5ur"
        ]
      }
    },
    {
      "value": 0.00010000,
      "n": 12,
      "scriptPubKey": {
        "asm": "OP_DUP OP_HASH160 55bdc05525609b475340f939dd6f44f675607d2f OP_EQUALVERIFY OP_CHECKSIG",
        "hex": "76a91455bdc05525609b475340f939dd6f44f675607d2f88ac",
        "reqSigs": 1,
        "type": "pubkeyhash",
        "addresses": [
          "DCxTHiSxSToRYvxANDxiTxMiGHTzaKLnAj"
        ]
      }
    },
    {
      "value": 0.00010000,
      "n": 13,
      "scriptPubKey": {
        "asm": "OP_DUP OP_HASH160 55afb184d86f8d90d19b04c446e58fd58655a095 OP_EQUALVERIFY OP_CHECKSIG",
        "hex": "76a91455afb184d86f8d90d19b04c446e58fd58655a09588ac",
        "reqSigs": 1,
        "type": "pubkeyhash",
        "addresses": [
          "DCxASxWELLxBExYoUhxHUGSxANDzRLuY2d"
        ]
      }
    },
    {
      "value": 0.00010000,
      "n": 14,
      "scriptPubKey": {
        "asm": "OP_DUP OP_HASH160 55b76dd7a2b32c882e7a3a7c05720e08df04c8b2 OP_EQUALVERIFY OP_CHECKSIG",
        "hex": "76a91455b76dd7a2b32c882e7a3a7c05720e08df04c8b288ac",
        "reqSigs": 1,
        "type": "pubkeyhash",
        "addresses": [
          "DCxKiSSESvxFoREVERxYoURxFANzWqVcQb"
        ]
      }
    },
    {
      "value": 0.00010000,
      "n": 15,
      "scriptPubKey": {
        "asm": "OP_DUP OP_HASH160 55b7cd92dfd56303f4fa44fcf86671146df1f1cb OP_EQUALVERIFY OP_CHECKSIG",
        "hex": "76a91455b7cd92dfd56303f4fa44fcf86671146df1f1cb88ac",
        "reqSigs": 1,
        "type": "pubkeyhash",
        "addresses": [
          "DCxLARRYxPhxTiNSELToNzzzzzzzXS1kSA"
        ]
      }
    }
  ],
  "blockhash": "86b0fe9d11a67fce5c2f5773fa5cea9f9a49ba5b7fafa7d3cc56cdcd6b4a8e1c",
  "confirmations": 1476896,
  "time": 1577482357,
  "blocktime": 1577482357
}
