{
  "hex": "0100000001dec20e71d646b4fde5caf3fe6a7049fa8a92746cb76d81b40040d0b0e66e0c542d0000006a47304402205b198e76760dd858ebc697323047839f2c7087530dfdf27b71f21e7902b6796602206bf05f5778b0ba5f4a667af3b90cfd9eaae216d0dbc0385fbed2f1c35a670f7d012102e50486e06623ec6de0d98d38fb69b693a48c31916e168a143fc8210882377c98feffffff23fb392d00000000001976a91455bda855ff04120f40259c4b567fb854237e79d688acf43b00000000000017a9140ac5d173cd20a94693eb9e048544c12e3f13d97d87473500000000000017a91414cbbc10be49b8b9e6c0075043a0cd7575a07c6787102700000000000017a91409a0007189dc89f9445e41cc04cc5b6ddf12929487102700000000000017a91424eaefb04bf75bc937758f80cc829f1cb9da785d87102700000000000017a9142113868f23c95d32cac99fed379a08b054ae48b387102700000000000017a9142a8b8feab9f0ac327624a72c1ed5ecf438341c5387102700000000000017a9142a4663d9d65c5495d94dd8c59120a93f72809ea487102700000000000017a9140a61e9246de4fba31a73936db2d97dca72eba50687102700000000000017a9142c6fd61e555ff6b4f8b32df650dcefdf2105402087bfb85f7dca0000001976a9147f0c07151ee981ee96ba1b7383b858e3c73c407788ac102700000000000017a91429a6010ec5c464836abf34532035275c0483221787102700000000000017a91428de7d858e0c942226d4249bc150f8a8c62eeecd87102700000000000017a91437b3f7c2c391738678a66190c6b2bb073e6183e887102700000000000017a914350e75cbfbd78336bd13d764260651e366ef1ae787102700000000000017a9142f086cdcd8bd478d2a0c4278a6872ee6920e489987102700000000000017a9142a88610ba3212c701986478561527b57603779c987102700000000000017a9142eec001b5994554e19b4708bc276b814855179df87102700000000000017a9142cb7b253c5a1f545725e73e583ec5c309c96b0c687102700000000000017a9142c1166f2e9ca44bc36323056dbc00e62845297f887102700000000000017a9142c2b09c7fc0850b2e75182b52e2500653476bdac87102700000000000017a9143703ca3b088b01b5fd00f0429f22902ff5a7d27387102700000000000017a91436e26a6a1d0d6436cc07d8db170a508f9f880e5b87102700000000000017a91436b2002ceabedfbb9ffa079ad81a5ce2b206f6c287102700000000000017a9143710666d72f5e8c13bd21ca854cee500ff9d36c587102700000000000017a9142b56d1323631ad451591ccdf34e5abf7a3102c3787102700000000000017a9142ef0962a83673fbd4a97644e5d2c4b2490d1fc9387102700000000000017a9142c180300d2e5a6bbbfaaba39a814de96245a3f4187102700000000000017a9142b38986cf8270b876e74c85852e9b3302fb1e4d787102700000000000017a9143430ef7b4fbecc1c95f2231c9e84aac1b44aae4387102700000000000017a9142f00df1439949383312966a71397bce30503c1c687102700000000000017a9142ad7ffc55d62a9b54cf39175a17ffdf86dd50f5487102700000000000017a91439e48b1f4df9078c70c5940ff9a04faac77e668287102700000000000017a914349e2142235fa2218b4277057732853c40ad42f9870c9b00000000000017a91439e7df9916f38d52d329a856f0a4fe6bb36221aa872df43000",
  "txid": "f3093843d638221298361a409e7107d4e5b2974e30dd0b6ab32730ad4b817687",
  "hash": "f3093843d638221298361a409e7107d4e5b2974e30dd0b6ab32730ad4b817687",
  "size": 1281,
  "vsize": 1281,
  "version": 1,
  "locktime": 3208237,
  "vin": [
    {
      "txid": "540c6ee6b0d04000b4816db76c74928afa49706afef3cae5fdb446d6710ec2de",
      "vout": 45,
      "scriptSig": {
        "asm": "304402205b198e76760dd858ebc697323047839f2c7087530dfdf27b71f21e7902b6796602206bf05f5778b0ba5f4a667af3b90cfd9eaae216d0dbc0385fbed2f1c35a670f7d[ALL] 02e50486e06623ec6de0d98d38fb69b693a48c31916e168a143fc8210882377c98",
        "hex": "47304402205b198e76760dd858ebc697323047839f2c7087530dfdf27b71f21e7902b6796602206bf05f5778b0ba5f4a667af3b90cfd9eaae216d0dbc0385fbed2f1c35a670f7d012102e50486e06623ec6de0d98d38fb69b693a48c31916e168a143fc8210882377c98"
      },
      "sequence": 4294967294
    }
  ],
  "vout": [
    {
      "value": 0.02963963,
      "n": 0,
      "scriptPubKey": {
        "asm": "OP_DUP OP_HASH160 55bda855ff04120f40259c4b567fb854237e79d6 OP_EQUALVERIFY OP_CHECKSIG",
        "hex": "76a91455bda855ff04120f40259c4b567fb854237e79d688ac",
        "reqSigs": 1,
        "type": "pubkeyhash",
        "addresses": [
          "DCxTBChMEETiNGxdbzzzzzzzzzzzW6tAGu"
        ]
      }
    },
    {
      "value": 0.00015348,
      "n": 1,
      "scriptPubKey": {
        "asm": "OP_HASH160 0ac5d173cd20a94693eb9e048544c12e3f13d97d OP_EQUAL",
        "hex": "a9140ac5d173cd20a94693eb9e048544c12e3f13d97d87",
        "reqSigs": 1,
        "type": "scripthash",
        "addresses": [
          "9sREPxPARKERxSPoKEzzzzzzzzzzbzQt13"
        ]
      }
    },
    {
      "value": 0.00013639,
      "n": 2,
      "scriptPubKey": {
        "asm": "OP_HASH160 14cbbc10be49b8b9e6c0075043a0cd7575a07c67 OP_EQUAL",
        "hex": "a91414cbbc10be49b8b9e6c0075043a0cd7575a07c6787",
        "reqSigs": 1,
        "type": "scripthash",
        "addresses": [
          "9tLEExSPoKEzzzzzzzzzzzzzzzzzX493iH"
        ]
      }
    },
    {
      "value": 0.00010000,
      "n": 3,
      "scriptPubKey": {
        "asm": "OP_HASH160 09a0007189dc89f9445e41cc04cc5b6ddf129294 OP_EQUAL",
        "hex": "a91409a0007189dc89f9445e41cc04cc5b6ddf12929487",
        "reqSigs": 1,
        "type": "scripthash",
        "addresses": [
          "9sKARENxSPoKEzzzzzzzzzzzzzzzYPJ7KR"
        ]
      }
    },
    {
      "value": 0.00010000,
      "n": 4,
      "scriptPubKey": {
        "asm": "OP_HASH160 24eaefb04bf75bc937758f80cc829f1cb9da785d OP_EQUAL",
        "hex": "a91424eaefb04bf75bc937758f80cc829f1cb9da785d87",
        "reqSigs": 1,
        "type": "scripthash",
        "addresses": [
          "9uoURxLEDGERxiSzzzzzzzzzzzzzV4GmSj"
        ]
      }
    },
    {
      "value": 0.00010000,
      "n": 5,
      "scriptPubKey": {
        "asm": "OP_HASH160 2113868f23c95d32cac99fed379a08b054ae48b3 OP_EQUAL",
        "hex": "a9142113868f23c95d32cac99fed379a08b054ae48b387",
        "reqSigs": 1,
        "type": "scripthash",
        "addresses": [
          "9uTAMPERxPRooFzzzzzzzzzzzzzzTXdKzj"
        ]
      }
    },
    {
      "value": 0.00010000,
      "n": 6,
      "scriptPubKey": {
        "asm": "OP_HASH160 2a8b8feab9f0ac327624a72c1ed5ecf438341c53 OP_EQUAL",
        "hex": "a9142a8b8feab9f0ac327624a72c1ed5ecf438341c5387",
        "reqSigs": 1,
        "type": "scripthash",
        "addresses": [
          "9vKEEPxHoNESTxPEoPLEzzzzzzzzWotnfs"
        ]
      }
    },
    {
      "value": 0.00010000,
      "n": 7,
      "scriptPubKey": {
        "asm": "OP_HASH160 2a4663d9d65c5495d94dd8c59120a93f72809ea4 OP_EQUAL",
        "hex": "a9142a4663d9d65c5495d94dd8c59120a93f72809ea487",
        "reqSigs": 1,
        "type": "scripthash",
        "addresses": [
          "9vHoNESTzzzzzzzzzzzzzzzzzzzzWZWP9Z"
        ]
      }
    },
    {
      "value": 0.00010000,
      "n": 8,
      "scriptPubKey": {
        "asm": "OP_HASH160 0a61e9246de4fba31a73936db2d97dca72eba506 OP_EQUAL",
        "hex": "a9140a61e9246de4fba31a73936db2d97dca72eba50687",
        "reqSigs": 1,
        "type": "scripthash",
        "addresses": [
          "9sPAiGExSPoKEzzzzzzzzzzzzzzzTvuz72"
        ]
      }
    },
    {
      "value": 0.00010000,
      "n": 9,
      "scriptPubKey": {
        "asm": "OP_HASH160 2c6fd61e555ff6b4f8b32df650dcefdf21054020 OP_EQUAL",
        "hex": "a9142c6fd61e555ff6b4f8b32df650dcefdf2105402087",
        "reqSigs": 1,
        "type": "scripthash",
        "addresses": [
          "9vVENMoxEXAMPLEzzzzzzzzzzzzzXmMh3D"
        ]
      }
    },
    {
      "value": 8696.86819007,
      "n": 10,
      "scriptPubKey": {
        "asm": "OP_DUP OP_HASH160 7f0c07151ee981ee96ba1b7383b858e3c73c4077 OP_EQUALVERIFY OP_CHECKSIG",
        "hex": "76a9147f0c07151ee981ee96ba1b7383b858e3c73c407788ac",
        "reqSigs": 1,
        "type": "pubkeyhash",
        "addresses": [
          "DGirmKPJ7zEryu7Bxt6vgHPgHv7Kowrooz"
        ]
      }
    },
    {
      "value": 0.00010000,
      "n": 11,
      "scriptPubKey": {
        "asm": "OP_HASH160 29a6010ec5c464836abf34532035275c04832217 OP_EQUAL",
        "hex": "a91429a6010ec5c464836abf34532035275c0483221787",
        "reqSigs": 1,
        "type": "scripthash",
        "addresses": [
          "9vEVERYoNExHASzzzzzzzzzzzzzzZeus72"
        ]
      }
    },
    {
      "value": 0.00010000,
      "n": 12,
      "scriptPubKey": {
        "asm": "OP_HASH160 28de7d858e0c942226d4249bc150f8a8c62eeecd OP_EQUAL",
        "hex": "a91428de7d858e0c942226d4249bc150f8a8c62eeecd87",
        "reqSigs": 1,
        "type": "scripthash",
        "addresses": [
          "9vANDxiDENTiTYzzzzzzzzzzzzzzYYaKPF"
        ]
      }
    },
    {
      "value": 0.00010000,
      "n": 13,
      "scriptPubKey": {
        "asm": "OP_HASH160 37b3f7c2c391738678a66190c6b2bb073e6183e8 OP_EQUAL",
        "hex": "a91437b3f7c2c391738678a66190c6b2bb073e6183e887",
        "reqSigs": 1,
        "type": "scripthash",
        "addresses": [
          "9wWoRKiNGxiNxAzzzzzzzzzzzzzzTiNn2j"
        ]
      }
    },
    {
      "value": 0.00010000,
      "n": 14,
      "scriptPubKey": {
        "asm": "OP_HASH160 350e75cbfbd78336bd13d764260651e366ef1ae7 OP_EQUAL",
        "hex": "a914350e75cbfbd78336bd13d764260651e366ef1ae787",
        "reqSigs": 1,
        "type": "scripthash",
        "addresses": [
          "9wGooGLExDoCzzzzzzzzzzzzzzzzRD82CF"
        ]
      }
    },
    {
      "value": 0.00010000,
      "n": 15,
      "scriptPubKey": {
        "asm": "OP_HASH160 2f086cdcd8bd478d2a0c4278a6872ee6920e4899 OP_EQUAL",
        "hex": "a9142f086cdcd8bd478d2a0c4278a6872ee6920e489987",
        "reqSigs": 1,
        "type": "scripthash",
        "addresses": [
          "9vixWoULDxiNViTEzzzzzzzzzzzzXkousM"
        ]
      }
    },
    {
      "value": 0.00010000,
      "n": 16,
      "scriptPubKey": {
        "asm": "OP_HASH160 2a88610ba3212c701986478561527b57603779c9 OP_EQUAL",
        "hex": "a9142a88610ba3212c701986478561527b57603779c987",
        "reqSigs": 1,
        "type": "scripthash",
        "addresses": [
          "9vKARENxoRxLEEzzzzzzzzzzzzzzYe1Nc6"
        ]
      }
    },
    {
      "value": 0.00010000,
      "n": 17,
      "scriptPubKey": {
        "asm": "OP_HASH160 2eec001b5994554e19b4708bc276b814855179df OP_EQUAL",
        "hex": "a9142eec001b5994554e19b4708bc276b814855179df87",
        "reqSigs": 1,
        "type": "scripthash",
        "addresses": [
          "9viNToxTHExDoCUMENTzzzzzzzzzYy88JC"
        ]
      }
    },
    {
      "value": 0.00010000,
      "n": 18,
      "scriptPubKey": {
        "asm": "OP_HASH160 2cb7b253c5a1f545725e73e583ec5c309c96b0c6 OP_EQUAL",
        "hex": "a9142cb7b253c5a1f545725e73e583ec5c309c96b0c687",
        "reqSigs": 1,
        "type": "scripthash",
        "addresses": [
          "9vWiTHxTHExBLoCKCHAiNzzzzzzzaJpPzT"
        ]
      }
    },
    {
      "value": 0.00010000,
      "n": 19,
      "scriptPubKey": {
        "asm": "OP_HASH160 2c1166f2e9ca44bc36323056dbc00e62845297f8 OP_EQUAL",
        "hex": "a9142c1166f2e9ca44bc36323056dbc00e62845297f887",
        "reqSigs": 1,
        "type": "scripthash",
        "addresses": [
          "9vTHExCHANGEDxHAVEzzzzzzzzzzWoRJtG"
        ]
      }
    },
    {
      "value": 0.00010000,
      "n": 20,
      "scriptPubKey": {
        "asm": "OP_HASH160 2c2b09c7fc0850b2e75182b52e2500653476bdac OP_EQUAL",
        "hex": "a9142c2b09c7fc0850b2e75182b52e2500653476bdac87",
        "reqSigs": 1,
        "type": "scripthash",
        "addresses": [
          "9vToxBExPREyAPPRoVEDzzzzzzzzTgTaMd"
        ]
      }
    },
    {
      "value": 0.00010000,
      "n": 21,
      "scriptPubKey": {
        "asm": "OP_HASH160 3703ca3b088b01b5fd00f0429f22902ff5a7d273 OP_EQUAL",
        "hex": "a9143703ca3b088b01b5fd00f0429f22902ff5a7d27387",
        "reqSigs": 1,
        "type": "scripthash",
        "addresses": [
          "9wTANGiBLExEXAMPLEzzzzzzzzzzWyemie"
        ]
      }
    },
    {
      "value": 0.00010000,
      "n": 22,
      "scriptPubKey": {
        "asm": "OP_HASH160 36e26a6a1d0d6436cc07d8db170a508f9f880e5b OP_EQUAL",
        "hex": "a91436e26a6a1d0d6436cc07d8db170a508f9f880e5b87",
        "reqSigs": 1,
        "type": "scripthash",
        "addresses": [
          "9wSUPPLYxCHAiNxiNTERyzzzzzzzURasJ4"
        ]
      }
    },
    {
      "value": 0.00010000,
      "n": 23,
      "scriptPubKey": {
        "asm": "OP_HASH160 36b2002ceabedfbb9ffa079ad81a5ce2b206f6c2 OP_EQUAL",
        "hex": "a91436b2002ceabedfbb9ffa079ad81a5ce2b206f6c287",
        "reqSigs": 1,
        "type": "scripthash",
        "addresses": [
          "9wRUPTEDvxiBMxFooDzzzzzzzzzzaYjnjs"
        ]
      }
    },
    {
      "value": 0.00010000,
      "n": 24,
      "scriptPubKey": {
        "asm": "OP_HASH160 3710666d72f5e8c13bd21ca854cee500ff9d36c5 OP_EQUAL",
        "hex": "a9143710666d72f5e8c13bd21ca854cee500ff9d36c587",
        "reqSigs": 1,
        "type": "scripthash",
        "addresses": [
          "9wTRUSTxFARMxToxFoRKzzzzzzzzYpoBxv"
        ]
      }
    },
    {
      "value": 0.00010000,
      "n": 25,
      "scriptPubKey": {
        "asm": "OP_HASH160 2b56d1323631ad451591ccdf34e5abf7a3102c37 OP_EQUAL",
        "hex": "a9142b56d1323631ad451591ccdf34e5abf7a3102c3787",
        "reqSigs": 1,
        "type": "scripthash",
        "addresses": [
          "9vPRioRxToxBLoCKCHAiNzzzzzzzZptUeG"
        ]
      }
    },
    {
      "value": 0.00010000,
      "n": 26,
      "scriptPubKey": {
        "asm": "OP_HASH160 2ef0962a83673fbd4a97644e5d2c4b2490d1fc93 OP_EQUAL",
        "hex": "a9142ef0962a83673fbd4a97644e5d2c4b2490d1fc9387",
        "reqSigs": 1,
        "type": "scripthash",
        "addresses": [
          "9viTxTooKx16xDAYSxTozzzzzzzzYwiTah"
        ]
      }
    },
    {
      "value": 0.00010000,
      "n": 27,
      "scriptPubKey": {
        "asm": "OP_HASH160 2c180300d2e5a6bbbfaaba39a814de96245a3f41 OP_EQUAL",
        "hex": "a9142c180300d2e5a6bbbfaaba39a814de96245a3f4187",
        "reqSigs": 1,
        "type": "scripthash",
        "addresses": [
          "9vTRACExAxMANGoxBUTzzzzzzzzzVEew97"
        ]
      }
    },
    {
      "value": 0.00010000,
      "n": 28,
      "scriptPubKey": {
        "asm": "OP_HASH160 2b38986cf8270b876e74c85852e9b3302fb1e4d7 OP_EQUAL",
        "hex": "a9142b38986cf8270b876e74c85852e9b3302fb1e4d787",
        "reqSigs": 1,
        "type": "scripthash",
        "addresses": [
          "9vNoWxSUBSECoNDzzzzzzzzzzzzzZMuLMd"
        ]
      }
    },
    {
      "value": 0.00010000,
      "n": 29,
      "scriptPubKey": {
        "asm": "OP_HASH160 3430ef7b4fbecc1c95f2231c9e84aac1b44aae43 OP_EQUAL",
        "hex": "a9143430ef7b4fbecc1c95f2231c9e84aac1b44aae4387",
        "reqSigs": 1,
        "type": "scripthash",
        "addresses": [
          "9wCERTiFiCATioNxASPECTzzzzzzVYAkkH"
        ]
      }
    },
    {
      "value": 0.00010000,
      "n": 30,
      "scriptPubKey": {
        "asm": "OP_HASH160 2f00df1439949383312966a71397bce30503c1c6 OP_EQUAL",
        "hex": "a9142f00df1439949383312966a71397bce30503c1c687",
        "reqSigs": 1,
        "type": "scripthash",
        "addresses": [
          "9vioTxALLoWSxYoUxTozzzzzzzzzX3KUE1"
        ]
      }
    },
    {
      "value": 0.00010000,
      "n": 31,
      "scriptPubKey": {
        "asm": "OP_HASH160 2ad7ffc55d62a9b54cf39175a17ffdf86dd50f54 OP_EQUAL",
        "hex": "a9142ad7ffc55d62a9b54cf39175a17ffdf86dd50f5487",
        "reqSigs": 1,
        "type": "scripthash",
        "addresses": [
          "9vLooKxATxFRESHNESSzzzzzzzzzXKbcEc"
        ]
      }
    },
    {
      "value": 0.00010000,
      "n": 32,
      "scriptPubKey": {
        "asm": "OP_HASH160 39e48b1f4df9078c70c5940ff9a04faac77e6682 OP_EQUAL",
        "hex": "a91439e48b1f4df9078c70c5940ff9a04faac77e668287",
        "reqSigs": 1,
        "type": "scripthash",
        "addresses": [
          "9wiNxoRDERxToxKEEPzzzzzzzzzzYhEXd3"
        ]
      }
    },
    {
      "value": 0.00010000,
      "n": 33,
      "scriptPubKey": {
        "asm": "OP_HASH160 349e2142235fa2218b4277057732853c40ad42f9 OP_EQUAL",
        "hex": "a914349e2142235fa2218b4277057732853c40ad42f987",
        "reqSigs": 1,
        "type": "scripthash",
        "addresses": [
          "9wEVERYoNExHoNESTxTHEREzzzzzYBuypH"
        ]
      }
    },
    {
      "value": 0.00039692,
      "n": 34,
      "scriptPubKey": {
        "asm": "OP_HASH160 39e7df9916f38d52d329a856f0a4fe6bb36221aa OP_EQUAL",
        "hex": "a91439e7df9916f38d52d329a856f0a4fe6bb36221aa87",
        "reqSigs": 1,
        "type": "scripthash",
        "addresses": [
          "9wiSxAxFRESHNESSxASPECTzzzzzRPU1Sj"
        ]
      }
    }
  ],
  "blockhash": "6d48b88b1eef5252d20518349acd80278e552b7256a5532c4212388e4f7d1521",
  "confirmations": 1306810,
  "time": 1588174377,
  "blocktime": 1588174377
}
