{
  "hex": "01000000013b8c9f1dfa88dcaf3b2fa8ec1f3b8a6beb667b1976e39d73f657df20df9e288a030000006a4730440220174214ba0d246b00e210314a4a4c1741cb7feb1f0fc1e42f75017b0a9eaa64b802204ff014e145e5d14a677ca8b32a4ec424f16cc74d0c6b9e8dd20661d1b0a6c778012102b20a28d21e6bdddc843ec63a1a7fcc616a1acd07de59000eb02260433ccf8214feffffff53102700000000000017a9140942703fe0733547da3904666b39e6f2d3a5798687102700000000000017a9140b2fe59fb958aa13c5ad5a1f6280871a8752109187102700000000000017a9140e1fc0f35e5fa72f3f8285a31f7216736809e21787102700000000000017a9140b28f57507783de88e28f6e39d2ad6215a6d63c787102700000000000017a91407f66073df231bb978fcdb13e5eee08223dca29187102700000000000017a9140c345951614023efcd486bea9c4ec6522f5baa7e87102700000000000017a9140b42a9d837b39c6f23918729323d6d00be9b5c5c87102700000000000017a9140b296b5b5618616563322b10ae45afab371bb1de87102700000000000017a91408b904928f534e35b897767c47215387d7be727a87102700000000000017a9140a1fb8447809a0bcbd4c5de4607ec090ed8f73b487102700000000000017a9140b29065d06561ed289de83b9230fab516a83bd0587102700000000000017a9140b42aa31e961285166096ea77f9cf9acf72e199b87102700000000000017a914084d04fd445c101d543fbf59b4a2ede3aab9d78787102700000000000017a9140e08367e821ef5f4fb0894c5319070c65890cfb587102700000000000017a9140b0d9203fb6ac66696a238b684a404de439fb3a787102700000000000017a914081cb0388c3080f60d4c652e34af97eb0c10065687102700000000000017a9140898291d228a03d662545f65f1cc0a0b9e86485687102700000000000017a9140af61872fa9140f3ec93663d371134b5f900c897870c9b00000000000017a914086befa03b2c846fb87da24bb82405753c373ad587102700000000000017a9140dfe318144191ab05e226d20ae5a417984502a4687102700000000000017a91408980e5430dfadae4db8d759a8f318d147569e7387102700000000000017a91408533fe23f074a2c2604375424cd34447f72221b87668852d1070000001976a914a381a2ef1b90a61bd9e339601aa7c156fb68fc0b88ac102700000000000017a9140c3457616771d9909f792b163d00b617f27c570887102700000000000017a9140e075ee20d47acd7d9f77d9675810d2ce9a2e57487102700000000000017a9140ef68a3c2e0b2e2c649d70e7c95c4c20442d456287102700000000000017a9140bb7d893f91f2822fdbbf0b91c294f9bb811c11a87102700000000000017a9140b29043c4eb4fabba0ffa8c3510f2a538ac81aa787102700000000000017a9140a1b903fe5a26e77507fc5cc66162eb890ea1cec87102700000000000017a9140a1b903cab3da15ecd392eccf0380f81d90dc37f87102700000000000017a914083744675bb3cbf5ad767a31e168da7b3edc4c0987102700000000000017a9140b2ff63fcd91abe22f85bc013fe4107f22a3091a87102700000000000017a9140c345938f5730daa8c695a33582066c379da6e6187102700000000000017a914091221d5d7ba32e499f865ad6e74afcd36144e8a87102700000000000017a9140c3459504cd1a931bc6ab41d6dc632baaf8c83da87102700000000000017a9140b296b5b55fa74a47798874f120266c4ca96f37987102700000000000017a914089c0e9f1d9c457de3d2d05bafc88bb00ded873787102700000000000017a9140b28f5d0b6db502ef22e4ae6ecf96aa7712e8fd087102700000000000017a9140a5012658a72c1f009c176a9cf346d1f140b5bab87102700000000000017a9140ef61d812c6dda7efd925a05af6f5ab6ccf0ad5287102700000000000017a9140852b9702d21a9b9c63c8949577ae1c1925ff86287102700000000000017a9140a346e237822d90db5cbbcc3a965f6189de080e187102700000000000017a9140b296b5b561861655faa669ec35736791fa2a01187102700000000000017a914081fd58ae31e780584c13168843ec3376b29da8087102700000000000017a91407f4a0dd1eb1198e9d0913791da3d55cf0c4c5d687102700000000000017a91409eb0b326b13d25d6e9221b5a71d09ac386682ee87102700000000000017a914086befa06031b87579463645965df164da61a53887102700000000000017a9140b23547375036f81b32dc317dd5581e3f134f74e87102700000000000017a9140b296ba767399476725088a107edd5635065d06a87102700000000000017a9140af6358b27e4383ccc092a347aa3cd07923a391f87102700000000000017a9140812b6eafe6a661d1438f338f80756505c867b0c87102700000000000017a9140e04090a5bfc00bbc702fd59bf3b293f83abffd287102700000000000017a9140880cbb6adfdc36d080d368da339741a7a082ab687102700000000000017a914094d64485fe1ac471a0c08c73df0dcefd9b7276587102700000000000017a9140b420ab4424e7b3e2877897601e5ec93b49d8a6587102700000000000017a91407f63d7dd8f576064bdff43a3528d58e32c513b987102700000000000017a9140ef584998ca2600e2fcaa1cb04882261b15543ba87102700000000000017a91407ee97a341afb124518a5c21c672bbe08fa07143878e6b7484000000001976a91466e60baca8dcf97a3f08ce0f94b58f4e992889fc88ac102700000000000017a9140c34594d242be0d09804607322a0ded9770ae6d787102700000000000017a9140af2f350df602b2d4c1f78dbc5287375c1c077d087102700000000000017a9140a049ea4bbd4471a98c9eb77f2d41434fce7c28e87102700000000000017a914086bcda88c0dcc79de9dcc0f8ead7ef7626a833b87102700000000000017a9140dfbeab48254199cd71be7671de80a26b8a7ccbd87102700000000000017a9140ac5e4e07f23ca9929ed8233fdcb058328a4a82087102700000000000017a9140b121e470b03e2fdb2ef83e41d1e0d9e934b32d487102700000000000017a914094270731263019b507e9e007efcf15dad607e8887102700000000000017a91409eb0b326b13d25d6e921e5573961bb3916543e187102700000000000017a9140bcf381fe7c3525053086e56c7fc7cea76e0a88087102700000000000017a9140bbabf6a35eddb85ee34e66d68b8d75cc44aacf487102700000000000017a914089cd7641976137ff081471bfb516cdd96d4f46b87102700000000000017a9140afa452d6865d210073beee0e8b7e28612f7846387102700000000000017a914082bb894afe7db2b8435ce852f30df14ef70a3e787102700000000000017a9140b01f072d202e94ebf6fee4ee754fa7d71da447a87102700000000000017a9140ac5c769c935c9de15041569e21fc5ad0b0e4d8587102700000000000017a91408de2696adddf51f2a11a63db7d96251324c2a4c87102700000000000017a9140a502cc0f2248a39b75ca2f1e9c87baa036c06f987102700000000000017a9140bba3546122338c9b7b0c815b863df562a76b26287102700000000000017a91407f61ce74fb1a6314a324f0ecb7a2b19044024c287102700000000000017a9140e07c8df60450b8687cd7122ba6598190fbe73be87102700000000000017a9140b28f5752c18a36cef706fafa83729e887f267af87102700000000000017a9140824ddc59abe8a70f3e47dd1896f575f04d2260387102700000000000017a91409eb29756d63686bf4f7c2840d6ed117043aea6487d64f2c00",
  "txid": "f54449b85ec09dd8c1553b8f682db6499e2eb597b3508dd01ea6868ec6c25200",
  "hash": "f54449b85ec09dd8c1553b8f682db6499e2eb597b3508dd01ea6868ec6c25200",
  "size": 2817,
  "vsize": 2817,
  "version": 1,
  "locktime": 2904022,
  "vin": [
    {
      "txid": "8a289edf20df57f6739de376197b66eb6b8a3b1feca82f3bafdc88fa1d9f8c3b",
      "vout": 3,
      "scriptSig": {
        "asm": "30440220174214ba0d246b00e210314a4a4c1741cb7feb1f0fc1e42f75017b0a9eaa64b802204ff014e145e5d14a677ca8b32a4ec424f16cc74d0c6b9e8dd20661d1b0a6c778[ALL] 02b20a28d21e6bdddc843ec63a1a7fcc616a1acd07de59000eb02260433ccf8214",
        "hex": "4730440220174214ba0d246b00e210314a4a4c1741cb7feb1f0fc1e42f75017b0a9eaa64b802204ff014e145e5d14a677ca8b32a4ec424f16cc74d0c6b9e8dd20661d1b0a6c778012102b20a28d21e6bdddc843ec63a1a7fcc616a1acd07de59000eb02260433ccf8214"
      },
      "sequence": 4294967294
    }
  ],
  "vout": [
    {
      "value": 0.00010000,
      "n": 0,
      "scriptPubKey": {
        "asm": "OP_HASH160 0942703fe0733547da3904666b39e6f2d3a57986 OP_EQUAL",
        "hex": "a9140942703fe0733547da3904666b39e6f2d3a5798687",
        "reqSigs": 1,
        "type": "scripthash",
        "addresses": [
          "9sHELLoxiNTERNETxBRAiNyzzzzzTBcjYG"
        ]
      }
    },
    {
      "value": 0.00010000,
      "n": 1,
      "scriptPubKey": {
        "asm": "OP_HASH160 0b2fe59fb958aa13c5ad5a1f6280871a87521091 OP_EQUAL",
        "hex": "a9140b2fe59fb958aa13c5ad5a1f6280871a8752109187",
        "reqSigs": 1,
        "type": "scripthash",
        "addresses": [
          "9sTRUST1xHoWxARExYoUkzzzzzzzX4ghEW"
        ]
      }
    },
    {
      "value": 0.00010000,
      "n": 2,
      "scriptPubKey": {
        "asm": "OP_HASH160 0e1fc0f35e5fa72f3f8285a31f7216736809e217 OP_EQUAL",
        "hex": "a9140e1fc0f35e5fa72f3f8285a31f7216736809e21787",
        "reqSigs": 1,
        "type": "scripthash",
        "addresses": [
          "9sixAMxDoiNGxWELL1zzzzzzzzzzaiyjY5"
        ]
      }
    },
    {
      "value": 0.00010000,
      "n": 3,
      "scriptPubKey": {
        "asm": "OP_HASH160 0b28f57507783de88e28f6e39d2ad6215a6d63c7 OP_EQUAL",
        "hex": "a9140b28f57507783de88e28f6e39d2ad6215a6d63c787",
        "reqSigs": 1,
        "type": "scripthash",
        "addresses": [
          "9sTHANKSxFoRxASKiNG1zzzzzzzzV3rF1E"
        ]
      }
    },
    {
      "value": 0.00010000,
      "n": 4,
      "scriptPubKey": {
        "asm": "OP_HASH160 07f66073df231bb978fcdb13e5eee08223dca291 OP_EQUAL",
        "hex": "a91407f66073df231bb978fcdb13e5eee08223dca29187",
        "reqSigs": 1,
        "type": "scripthash",
        "addresses": [
          "9sANYHoWvxixWANTxToxTELLzzzzXgxNLY"
        ]
      }
    },
    {
      "value": 0.00010000,
      "n": 5,
      "scriptPubKey": {
        "asm": "OP_HASH160 0c345951614023efcd486bea9c4ec6522f5baa7e OP_EQUAL",
        "hex": "a9140c345951614023efcd486bea9c4ec6522f5baa7e87",
        "reqSigs": 1,
        "type": "scripthash",
        "addresses": [
          "9sYoUxTHATxYoUxARExGoiNGzzzzXpK7Fq"
        ]
      }
    },
    {
      "value": 0.00010000,
      "n": 6,
      "scriptPubKey": {
        "asm": "OP_HASH160 0b42a9d837b39c6f23918729323d6d00be9b5c5c OP_EQUAL",
        "hex": "a9140b42a9d837b39c6f23918729323d6d00be9b5c5c87",
        "reqSigs": 1,
        "type": "scripthash",
        "addresses": [
          "9sToxMiSSxoUTxoNxSoMEyzzzzzzXHZ8Q4"
        ]
      }
    },
    {
      "value": 0.00010000,
      "n": 7,
      "scriptPubKey": {
        "asm": "OP_HASH160 0b296b5b5618616563322b10ae45afab371bb1de OP_EQUAL",
        "hex": "a9140b296b5b5618616563322b10ae45afab371bb1de87",
        "reqSigs": 1,
        "type": "scripthash",
        "addresses": [
          "9sTHiNGxTHATxiSxPRETTYzzzzzzXxfcw2"
        ]
      }
    },
    {
      "value": 0.00010000,
      "n": 8,
      "scriptPubKey": {
        "asm": "OP_HASH160 08b904928f534e35b897767c47215387d7be727a OP_EQUAL",
        "hex": "a91408b904928f534e35b897767c47215387d7be727a87",
        "reqSigs": 1,
        "type": "scripthash",
        "addresses": [
          "9sEPiC1xWANTxToxHEARzzzzzzzzYddBWz"
        ]
      }
    },
    {
      "value": 0.00010000,
      "n": 9,
      "scriptPubKey": {
        "asm": "OP_HASH160 0a1fb8447809a0bcbd4c5de4607ec090ed8f73b4 OP_EQUAL",
        "hex": "a9140a1fb8447809a0bcbd4c5de4607ec090ed8f73b487",
        "reqSigs": 1,
        "type": "scripthash",
        "addresses": [
          "9sMoREkxSURExYoUxDo1zzzzzzzzaEbFSk"
        ]
      }
    },
    {
      "value": 0.00010000,
      "n": 10,
      "scriptPubKey": {
        "asm": "OP_HASH160 0b29065d06561ed289de83b9230fab516a83bd05 OP_EQUAL",
        "hex": "a9140b29065d06561ed289de83b9230fab516a83bd0587",
        "reqSigs": 1,
        "type": "scripthash",
        "addresses": [
          "9sTHExTHiNGxTHATxixWANTzzzzzWhbihc"
        ]
      }
    },
    {
      "value": 0.00010000,
      "n": 11,
      "scriptPubKey": {
        "asm": "OP_HASH160 0b42aa31e961285166096ea77f9cf9acf72e199b OP_EQUAL",
        "hex": "a9140b42aa31e961285166096ea77f9cf9acf72e199b87",
        "reqSigs": 1,
        "type": "scripthash",
        "addresses": [
          "9sToxTELLxYoUxABoUTxiSzzzzzzSf8n5x"
        ]
      }
    },
    {
      "value": 0.00010000,
      "n": 12,
      "scriptPubKey": {
        "asm": "OP_HASH160 084d04fd445c101d543fbf59b4a2ede3aab9d787 OP_EQUAL",
        "hex": "a914084d04fd445c101d543fbf59b4a2ede3aab9d78787",
        "reqSigs": 1,
        "type": "scripthash",
        "addresses": [
          "9sCALLEDxDiMECASH1zzzzzzzzzzVz9rH5"
        ]
      }
    },
    {
      "value": 0.00010000,
      "n": 13,
      "scriptPubKey": {
        "asm": "OP_HASH160 0e08367e821ef5f4fb0894c5319070c65890cfb5 OP_EQUAL",
        "hex": "a9140e08367e821ef5f4fb0894c5319070c65890cfb587",
        "reqSigs": 1,
        "type": "scripthash",
        "addresses": [
          "9siTxiSxTHiS1xMESSAGESzzzzzzUacWxU"
        ]
      }
    },
    {
      "value": 0.00010000,
      "n": 14,
      "scriptPubKey": {
        "asm": "OP_HASH160 0b0d9203fb6ac66696a238b684a404de439fb3a7 OP_EQUAL",
        "hex": "a9140b0d9203fb6ac66696a238b684a404de439fb3a787",
        "reqSigs": 1,
        "type": "scripthash",
        "addresses": [
          "9sSiMPLYxHACKEDxiNTozzzzzzzzaFVWgL"
        ]
      }
    },
    {
      "value": 0.00010000,
      "n": 15,
      "scriptPubKey": {
        "asm": "OP_HASH160 081cb0388c3080f60d4c652e34af97eb0c100656 OP_EQUAL",
        "hex": "a914081cb0388c3080f60d4c652e34af97eb0c10065687",
        "reqSigs": 1,
        "type": "scripthash",
        "addresses": [
          "9sBASE78yHASHxADDRESSESzzzzzUM37TV"
        ]
      }
    },
    {
      "value": 0.00010000,
      "n": 16,
      "scriptPubKey": {
        "asm": "OP_HASH160 0898291d228a03d662545f65f1cc0a0b9e864856 OP_EQUAL",
        "hex": "a9140898291d228a03d662545f65f1cc0a0b9e86485687",
        "reqSigs": 1,
        "type": "scripthash",
        "addresses": [
          "9sDiMECASHxiSxCURRENTLYzzzzzcMzY6M"
        ]
      }
    },
    {
      "value": 0.00010000,
      "n": 17,
      "scriptPubKey": {
        "asm": "OP_HASH160 0af61872fa9140f3ec93663d371134b5f900c897 OP_EQUAL",
        "hex": "a9140af61872fa9140f3ec93663d371134b5f900c89787",
        "reqSigs": 1,
        "type": "scripthash",
        "addresses": [
          "9sSEEKiNGxPARTNERSzzzzzzzzzzbvoZWe"
        ]
      }
    },
    {
      "value": 0.00039692,
      "n": 18,
      "scriptPubKey": {
        "asm": "OP_HASH160 086befa03b2c846fb87da24bb82405753c373ad5 OP_EQUAL",
        "hex": "a914086befa03b2c846fb87da24bb82405753c373ad587",
        "reqSigs": 1,
        "type": "scripthash",
        "addresses": [
          "9sCoNTACTxJoHNrRiGLER1oRGzzzYuLbqt"
        ]
      }
    },
    {
      "value": 0.00010000,
      "n": 19,
      "scriptPubKey": {
        "asm": "OP_HASH160 0dfe318144191ab05e226d20ae5a417984502a46 OP_EQUAL",
        "hex": "a9140dfe318144191ab05e226d20ae5a417984502a4687",
        "reqSigs": 1,
        "type": "scripthash",
        "addresses": [
          "9siFxYoUxARExiNTERESTED1zzzzWJPykG"
        ]
      }
    },
    {
      "value": 0.00010000,
      "n": 20,
      "scriptPubKey": {
        "asm": "OP_HASH160 08980e5430dfadae4db8d759a8f318d147569e73 OP_EQUAL",
        "hex": "a91408980e5430dfadae4db8d759a8f318d147569e7387",
        "reqSigs": 1,
        "type": "scripthash",
        "addresses": [
          "9sDiDxYoUxJUSTxBLoWzzzzzzzzzXMcjKu"
        ]
      }
    },
    {
      "value": 0.00010000,
      "n": 21,
      "scriptPubKey": {
        "asm": "OP_HASH160 08533fe23f074a2c2604375424cd34447f72221b OP_EQUAL",
        "hex": "a91408533fe23f074a2c2604375424cd34447f72221b87",
        "reqSigs": 1,
        "type": "scripthash",
        "addresses": [
          "9sCHoCoLATExMiLKxTHRoUGHzzzzWhvNNa"
        ]
      }
    },
    {
      "value": 335.76618086,
      "n": 22,
      "scriptPubKey": {
        "asm": "OP_DUP OP_HASH160 a381a2ef1b90a61bd9e339601aa7c156fb68fc0b OP_EQUALVERIFY OP_CHECKSIG",
        "hex": "76a914a381a2ef1b90a61bd9e339601aa7c156fb68fc0b88ac",
        "reqSigs": 1,
        "type": "pubkeyhash",
        "addresses": [
          "DL3dypryLyYxbzn7AYGUs3KHCofpWq9A9K"
        ]
      }
    },
    {
      "value": 0.00010000,
      "n": 23,
      "scriptPubKey": {
        "asm": "OP_HASH160 0c3457616771d9909f792b163d00b617f27c5708 OP_EQUAL",
        "hex": "a9140c3457616771d9909f792b163d00b617f27c570887",
        "reqSigs": 1,
        "type": "scripthash",
        "addresses": [
          "9sYoURxNoSExBECAUSExTHiSzzzzZVMiJt"
        ]
      }
    },
    {
      "value": 0.00010000,
      "n": 24,
      "scriptPubKey": {
        "asm": "OP_HASH160 0e075ee20d47acd7d9f77d9675810d2ce9a2e574 OP_EQUAL",
        "hex": "a9140e075ee20d47acd7d9f77d9675810d2ce9a2e57487",
        "reqSigs": 1,
        "type": "scripthash",
        "addresses": [
          "9siSxCLEARLYxiNFERioRxTozzzzb3mPw9"
        ]
      }
    },
    {
      "value": 0.00010000,
      "n": 25,
      "scriptPubKey": {
        "asm": "OP_HASH160 0ef68a3c2e0b2e2c649d70e7c95c4c20442d4562 OP_EQUAL",
        "hex": "a9140ef68a3c2e0b2e2c649d70e7c95c4c20442d456287",
        "reqSigs": 1,
        "type": "scripthash",
        "addresses": [
          "9soPTyRETURNxCoDESkzzzzzzzzzZvttT2"
        ]
      }
    },
    {
      "value": 0.00010000,
      "n": 26,
      "scriptPubKey": {
        "asm": "OP_HASH160 0bb7d893f91f2822fdbbf0b91c294f9bb811c11a OP_EQUAL",
        "hex": "a9140bb7d893f91f2822fdbbf0b91c294f9bb811c11a87",
        "reqSigs": 1,
        "type": "scripthash",
        "addresses": [
          "9sWELLvxiFxYoUxTHiNKxTHATzzzWetK8Z"
        ]
      }
    },
    {
      "value": 0.00010000,
      "n": 27,
      "scriptPubKey": {
        "asm": "OP_HASH160 0b29043c4eb4fabba0ffa8c3510f2a538ac81aa7 OP_EQUAL",
        "hex": "a9140b29043c4eb4fabba0ffa8c3510f2a538ac81aa787",
        "reqSigs": 1,
        "type": "scripthash",
        "addresses": [
          "9sTHENxYoUxARExSiMPLYzzzzzzzZbVg9j"
        ]
      }
    },
    {
      "value": 0.00010000,
      "n": 28,
      "scriptPubKey": {
        "asm": "OP_HASH160 0a1b903fe5a26e77507fc5cc66162eb890ea1cec OP_EQUAL",
        "hex": "a9140a1b903fe5a26e77507fc5cc66162eb890ea1cec87",
        "reqSigs": 1,
        "type": "scripthash",
        "addresses": [
          "9sMiSTAKENxANDxWiLLzzzzzzzzzdS2RCg"
        ]
      }
    },
    {
      "value": 0.00010000,
      "n": 29,
      "scriptPubKey": {
        "asm": "OP_HASH160 0a1b903cab3da15ecd392eccf0380f81d90dc37f OP_EQUAL",
        "hex": "a9140a1b903cab3da15ecd392eccf0380f81d90dc37f87",
        "reqSigs": 1,
        "type": "scripthash",
        "addresses": [
          "9sMiSSxoUTxoNxTHExNEXTzzzzzzUe98vo"
        ]
      }
    },
    {
      "value": 0.00010000,
      "n": 30,
      "scriptPubKey": {
        "asm": "OP_HASH160 083744675bb3cbf5ad767a31e168da7b3edc4c09 OP_EQUAL",
        "hex": "a914083744675bb3cbf5ad767a31e168da7b3edc4c0987",
        "reqSigs": 1,
        "type": "scripthash",
        "addresses": [
          "9sBiGxTHiNG1xixCoULDzzzzzzzzZyu7L8"
        ]
      }
    },
    {
      "value": 0.00010000,
      "n": 31,
      "scriptPubKey": {
        "asm": "OP_HASH160 0b2ff63fcd91abe22f85bc013fe4107f22a3091a OP_EQUAL",
        "hex": "a9140b2ff63fcd91abe22f85bc013fe4107f22a3091a87",
        "reqSigs": 1,
        "type": "scripthash",
        "addresses": [
          "9sTRYxANDxEXPLAiNxiTxTozzzzzb9sjPj"
        ]
      }
    },
    {
      "value": 0.00010000,
      "n": 32,
      "scriptPubKey": {
        "asm": "OP_HASH160 0c345938f5730daa8c695a33582066c379da6e61 OP_EQUAL",
        "hex": "a9140c345938f5730daa8c695a33582066c379da6e6187",
        "reqSigs": 1,
        "type": "scripthash",
        "addresses": [
          "9sYoUvxBUTxYoUxMAYxNoTzzzzzzZhJnxa"
        ]
      }
    },
    {
      "value": 0.00010000,
      "n": 33,
      "scriptPubKey": {
        "asm": "OP_HASH160 091221d5d7ba32e499f865ad6e74afcd36144e8a OP_EQUAL",
        "hex": "a914091221d5d7ba32e499f865ad6e74afcd36144e8a87",
        "reqSigs": 1,
        "type": "scripthash",
        "addresses": [
          "9sGETxiTxANDxANYWAYzzzzzzzzzWsUGaQ"
        ]
      }
    },
    {
      "value": 0.00010000,
      "n": 34,
      "scriptPubKey": {
        "asm": "OP_HASH160 0c3459504cd1a931bc6ab41d6dc632baaf8c83da OP_EQUAL",
        "hex": "a9140c3459504cd1a931bc6ab41d6dc632baaf8c83da87",
        "reqSigs": 1,
        "type": "scripthash",
        "addresses": [
          "9sYoUxPRoBABLYxHAVExSoMEyzzzYX6CUh"
        ]
      }
    },
    {
      "value": 0.00010000,
      "n": 35,
      "scriptPubKey": {
        "asm": "OP_HASH160 0b296b5b55fa74a47798874f120266c4ca96f379 OP_EQUAL",
        "hex": "a9140b296b5b55fa74a47798874f120266c4ca96f37987",
        "reqSigs": 1,
        "type": "scripthash",
        "addresses": [
          "9sTHiNGxMoRExiMPoRTANTxTozzzYt9Vh7"
        ]
      }
    },
    {
      "value": 0.00010000,
      "n": 36,
      "scriptPubKey": {
        "asm": "OP_HASH160 089c0e9f1d9c457de3d2d05bafc88bb00ded8737 OP_EQUAL",
        "hex": "a914089c0e9f1d9c457de3d2d05bafc88bb00ded873787",
        "reqSigs": 1,
        "type": "scripthash",
        "addresses": [
          "9sDo1xoHvxDiDxixMENTioNzzzzzZNRwKm"
        ]
      }
    },
    {
      "value": 0.00010000,
      "n": 37,
      "scriptPubKey": {
        "asm": "OP_HASH160 0b28f5d0b6db502ef22e4ae6ecf96aa7712e8fd0 OP_EQUAL",
        "hex": "a9140b28f5d0b6db502ef22e4ae6ecf96aa7712e8fd087",
        "reqSigs": 1,
        "type": "scripthash",
        "addresses": [
          "9sTHATxSiNCExTHiSxTECHyzzzzzco5aog"
        ]
      }
    },
    {
      "value": 0.00010000,
      "n": 38,
      "scriptPubKey": {
        "asm": "OP_HASH160 0a5012658a72c1f009c176a9cf346d1f140b5bab OP_EQUAL",
        "hex": "a9140a5012658a72c1f009c176a9cf346d1f140b5bab87",
        "reqSigs": 1,
        "type": "scripthash",
        "addresses": [
          "9sNoLoGYxiSxSiMPLYxBUiLTzzzzWvpG8M"
        ]
      }
    },
    {
      "value": 0.00010000,
      "n": 39,
      "scriptPubKey": {
        "asm": "OP_HASH160 0ef61d812c6dda7efd925a05af6f5ab6ccf0ad52 OP_EQUAL",
        "hex": "a9140ef61d812c6dda7efd925a05af6f5ab6ccf0ad5287",
        "reqSigs": 1,
        "type": "scripthash",
        "addresses": [
          "9soNxToPxoFxTHExBLoCKyzzzzzzbDRpCo"
        ]
      }
    },
    {
      "value": 0.00010000,
      "n": 40,
      "scriptPubKey": {
        "asm": "OP_HASH160 0852b9702d21a9b9c63c8949577ae1c1925ff862 OP_EQUAL",
        "hex": "a9140852b9702d21a9b9c63c8949577ae1c1925ff86287",
        "reqSigs": 1,
        "type": "scripthash",
        "addresses": [
          "9sCHAiNvxTHATxiTxDoESxNoTzzzWENKde"
        ]
      }
    },
    {
      "value": 0.00010000,
      "n": 41,
      "scriptPubKey": {
        "asm": "OP_HASH160 0a346e237822d90db5cbbcc3a965f6189de080e1 OP_EQUAL",
        "hex": "a9140a346e237822d90db5cbbcc3a965f6189de080e187",
        "reqSigs": 1,
        "type": "scripthash",
        "addresses": [
          "9sNEEDxToxREiNVENTxANYyzzzzzXrSN7Q"
        ]
      }
    },
    {
      "value": 0.00010000,
      "n": 42,
      "scriptPubKey": {
        "asm": "OP_HASH160 0b296b5b561861655faa669ec35736791fa2a011 OP_EQUAL",
        "hex": "a9140b296b5b561861655faa669ec35736791fa2a01187",
        "reqSigs": 1,
        "type": "scripthash",
        "addresses": [
          "9sTHiNGxTHATxHASxALREADYzzzzX2URLd"
        ]
      }
    },
    {
      "value": 0.00010000,
      "n": 43,
      "scriptPubKey": {
        "asm": "OP_HASH160 081fd58ae31e780584c13168843ec3376b29da80 OP_EQUAL",
        "hex": "a914081fd58ae31e780584c13168843ec3376b29da8087",
        "reqSigs": 1,
        "type": "scripthash",
        "addresses": [
          "9sBECoMExWiDELYxUSEDkzzzzzzzYcTJVY"
        ]
      }
    },
    {
      "value": 0.00010000,
      "n": 44,
      "scriptPubKey": {
        "asm": "OP_HASH160 07f4a0dd1eb1198e9d0913791da3d55cf0c4c5d6 OP_EQUAL",
        "hex": "a91407f4a0dd1eb1198e9d0913791da3d55cf0c4c5d687",
        "reqSigs": 1,
        "type": "scripthash",
        "addresses": [
          "9sALSovxLoNGxMESSAGESzzzzzzzWNYrUw"
        ]
      }
    },
    {
      "value": 0.00010000,
      "n": 45,
      "scriptPubKey": {
        "asm": "OP_HASH160 09eb0b326b13d25d6e9221b5a71d09ac386682ee OP_EQUAL",
        "hex": "a91409eb0b326b13d25d6e9221b5a71d09ac386682ee87",
        "reqSigs": 1,
        "type": "scripthash",
        "addresses": [
          "9sLiKExTHiSxoNExCANxALSozzzzTTntbW"
        ]
      }
    },
    {
      "value": 0.00010000,
      "n": 46,
      "scriptPubKey": {
        "asm": "OP_HASH160 086befa06031b87579463645965df164da61a538 OP_EQUAL",
        "hex": "a914086befa06031b87579463645965df164da61a53887",
        "reqSigs": 1,
        "type": "scripthash",
        "addresses": [
          "9sCoNTAiNxNATiVEzzzzzzzzzzzzagECqn"
        ]
      }
    },
    {
      "value": 0.00010000,
      "n": 47,
      "scriptPubKey": {
        "asm": "OP_HASH160 0b23547375036f81b32dc317dd5581e3f134f74e OP_EQUAL",
        "hex": "a9140b23547375036f81b32dc317dd5581e3f134f74e87",
        "reqSigs": 1,
        "type": "scripthash",
        "addresses": [
          "9sTARGETxAUDiENCESvxSozzzzzzXSUJNL"
        ]
      }
    },
    {
      "value": 0.00010000,
      "n": 48,
      "scriptPubKey": {
        "asm": "OP_HASH160 0b296ba767399476725088a107edd5635065d06a OP_EQUAL",
        "hex": "a9140b296ba767399476725088a107edd5635065d06a87",
        "reqSigs": 1,
        "type": "scripthash",
        "addresses": [
          "9sTHiSxFUNCTioNSxLiKEzzzzzzzc4TrNJ"
        ]
      }
    },
    {
      "value": 0.00010000,
      "n": 49,
      "scriptPubKey": {
        "asm": "OP_HASH160 0af6358b27e4383ccc092a347aa3cd07923a391f OP_EQUAL",
        "hex": "a9140af6358b27e4383ccc092a347aa3cd07923a391f87",
        "reqSigs": 1,
        "type": "scripthash",
        "addresses": [
          "9sSENDiNGxAxCHECKxWiTHzzzzzzWSw5jV"
        ]
      }
    },
    {
      "value": 0.00010000,
      "n": 50,
      "scriptPubKey": {
        "asm": "OP_HASH160 0812b6eafe6a661d1438f338f80756505c867b0c OP_EQUAL",
        "hex": "a9140812b6eafe6a661d1438f338f80756505c867b0c87",
        "reqSigs": 1,
        "type": "scripthash",
        "addresses": [
          "9sAxVERYxLoNGxMEMoxFiELDzzzzZUAeDv"
        ]
      }
    },
    {
      "value": 0.00010000,
      "n": 51,
      "scriptPubKey": {
        "asm": "OP_HASH160 0e04090a5bfc00bbc702fd59bf3b293f83abffd2 OP_EQUAL",
        "hex": "a9140e04090a5bfc00bbc702fd59bf3b293f83abffd287",
        "reqSigs": 1,
        "type": "scripthash",
        "addresses": [
          "9siNxTHExMAiL1xYoUxCANxSEExAZWSPhv"
        ]
      }
    },
    {
      "value": 0.00010000,
      "n": 52,
      "scriptPubKey": {
        "asm": "OP_HASH160 0880cbb6adfdc36d080d368da339741a7a082ab6 OP_EQUAL",
        "hex": "a9140880cbb6adfdc36d080d368da339741a7a082ab687",
        "reqSigs": 1,
        "type": "scripthash",
        "addresses": [
          "9sDEMoxUPxANDxRUNNiNGxoNzzzzUuHV6B"
        ]
      }
    },
    {
      "value": 0.00010000,
      "n": 53,
      "scriptPubKey": {
        "asm": "OP_HASH160 094d64485fe1ac471a0c08c73df0dcefd9b72765 OP_EQUAL",
        "hex": "a914094d64485fe1ac471a0c08c73df0dcefd9b7276587",
        "reqSigs": 1,
        "type": "scripthash",
        "addresses": [
          "9sHTTPSwffDiME1CASHfDoGEzzzzYaETzz"
        ]
      }
    },
    {
      "value": 0.00010000,
      "n": 54,
      "scriptPubKey": {
        "asm": "OP_HASH160 0b420ab4424e7b3e2877897601e5ec93b49d8a65 OP_EQUAL",
        "hex": "a9140b420ab4424e7b3e2877897601e5ec93b49d8a6587",
        "reqSigs": 1,
        "type": "scripthash",
        "addresses": [
          "9sToDAYxYoUxCANxSENDzzzzzzzzTaBwnu"
        ]
      }
    },
    {
      "value": 0.00010000,
      "n": 55,
      "scriptPubKey": {
        "asm": "OP_HASH160 07f63d7dd8f576064bdff43a3528d58e32c513b9 OP_EQUAL",
        "hex": "a91407f63d7dd8f576064bdff43a3528d58e32c513b987",
        "reqSigs": 1,
        "type": "scripthash",
        "addresses": [
          "9sANNoTATEDxMESSAGESxTozzzzzWNRsQB"
        ]
      }
    },
    {
      "value": 0.00010000,
      "n": 56,
      "scriptPubKey": {
        "asm": "OP_HASH160 0ef584998ca2600e2fcaa1cb04882261b15543ba OP_EQUAL",
        "hex": "a9140ef584998ca2600e2fcaa1cb04882261b15543ba87",
        "reqSigs": 1,
        "type": "scripthash",
        "addresses": [
          "9soNExoFxMYxDoGECoiNzzzzzzzza2sxWK"
        ]
      }
    },
    {
      "value": 0.00010000,
      "n": 57,
      "scriptPubKey": {
        "asm": "OP_HASH160 07ee97a341afb124518a5c21c672bbe08fa07143 OP_EQUAL",
        "hex": "a91407ee97a341afb124518a5c21c672bbe08fa0714387",
        "reqSigs": 1,
        "type": "scripthash",
        "addresses": [
          "9sADDRESSESvxWHiCHxiSwzzzzzzafShL2"
        ]
      }
    },
    {
      "value": 22.22222222,
      "n": 58,
      "scriptPubKey": {
        "asm": "OP_DUP OP_HASH160 66e60baca8dcf97a3f08ce0f94b58f4e992889fc OP_EQUALVERIFY OP_CHECKSIG",
        "hex": "76a91466e60baca8dcf97a3f08ce0f94b58f4e992889fc88ac",
        "reqSigs": 1,
        "type": "pubkeyhash",
        "addresses": [
          "DEXB3g3BAmX28CLYg6jTZiet6vq2i4bUPP"
        ]
      }
    },
    {
      "value": 0.00010000,
      "n": 59,
      "scriptPubKey": {
        "asm": "OP_HASH160 0c34594d242be0d09804607322a0ded9770ae6d7 OP_EQUAL",
        "hex": "a9140c34594d242be0d09804607322a0ded9770ae6d787",
        "reqSigs": 1,
        "type": "scripthash",
        "addresses": [
          "9sYoUxCANxUSExADVANCEDzzzzzzZjKq5Y"
        ]
      }
    },
    {
      "value": 0.00010000,
      "n": 60,
      "scriptPubKey": {
        "asm": "OP_HASH160 0af2f350df602b2d4c1f78dbc5287375c1c077d0 OP_EQUAL",
        "hex": "a9140af2f350df602b2d4c1f78dbc5287375c1c077d087",
        "reqSigs": 1,
        "type": "scripthash",
        "addresses": [
          "9sSAToSHixCoDESxToxTELLzzzzzXQ65G3"
        ]
      }
    },
    {
      "value": 0.00010000,
      "n": 61,
      "scriptPubKey": {
        "asm": "OP_HASH160 0a049ea4bbd4471a98c9eb77f2d41434fce7c28e OP_EQUAL",
        "hex": "a9140a049ea4bbd4471a98c9eb77f2d41434fce7c28e87",
        "reqSigs": 1,
        "type": "scripthash",
        "addresses": [
          "9sMExHoWxCooLxoPTyRETURNzzzzRZTZ4d"
        ]
      }
    },
    {
      "value": 0.00010000,
      "n": 62,
      "scriptPubKey": {
        "asm": "OP_HASH160 086bcda88c0dcc79de9dcc0f8ead7ef7626a833b OP_EQUAL",
        "hex": "a914086bcda88c0dcc79de9dcc0f8ead7ef7626a833b87",
        "reqSigs": 1,
        "type": "scripthash",
        "addresses": [
          "9sCoDESxARExoRxTAGxYoURzzzzzXgpPVU"
        ]
      }
    },
    {
      "value": 0.00010000,
      "n": 63,
      "scriptPubKey": {
        "asm": "OP_HASH160 0dfbeab48254199cd71be7671de80a26b8a7ccbd OP_EQUAL",
        "hex": "a9140dfbeab48254199cd71be7671de80a26b8a7ccbd87",
        "reqSigs": 1,
        "type": "scripthash",
        "addresses": [
          "9siDENTiTYxTHATxCANxBEzzzzzzXVKXPu"
        ]
      }
    },
    {
      "value": 0.00010000,
      "n": 64,
      "scriptPubKey": {
        "asm": "OP_HASH160 0ac5e4e07f23ca9929ed8233fdcb058328a4a820 OP_EQUAL",
        "hex": "a9140ac5e4e07f23ca9929ed8233fdcb058328a4a82087",
        "reqSigs": 1,
        "type": "scripthash",
        "addresses": [
          "9sREVEALEDxoFFLiNE1zzzzzzzzzZCv9NP"
        ]
      }
    },
    {
      "value": 0.00010000,
      "n": 65,
      "scriptPubKey": {
        "asm": "OP_HASH160 0b121e470b03e2fdb2ef83e41d1e0d9e934b32d4 OP_EQUAL",
        "hex": "a9140b121e470b03e2fdb2ef83e41d1e0d9e934b32d487",
        "reqSigs": 1,
        "type": "scripthash",
        "addresses": [
          "9sSooNxixWiLLxBExABLExTozzzzdhRf6x"
        ]
      }
    },
    {
      "value": 0.00010000,
      "n": 66,
      "scriptPubKey": {
        "asm": "OP_HASH160 094270731263019b507e9e007efcf15dad607e88 OP_EQUAL",
        "hex": "a914094270731263019b507e9e007efcf15dad607e8887",
        "reqSigs": 1,
        "type": "scripthash",
        "addresses": [
          "9sHELPxYoUxSENDxMESSAGESzzzzZKeyFn"
        ]
      }
    },
    {
      "value": 0.00010000,
      "n": 67,
      "scriptPubKey": {
        "asm": "OP_HASH160 09eb0b326b13d25d6e921e5573961bb3916543e1 OP_EQUAL",
        "hex": "a91409eb0b326b13d25d6e921e5573961bb3916543e187",
        "reqSigs": 1,
        "type": "scripthash",
        "addresses": [
          "9sLiKExTHiSxoNEvxBUTxizzzzzzbn6qMu"
        ]
      }
    },
    {
      "value": 0.00010000,
      "n": 68,
      "scriptPubKey": {
        "asm": "OP_HASH160 0bcf381fe7c3525053086e56c7fc7cea76e0a880 OP_EQUAL",
        "hex": "a9140bcf381fe7c3525053086e56c7fc7cea76e0a88087",
        "reqSigs": 1,
        "type": "scripthash",
        "addresses": [
          "9sWiLLxNEEDxToxUNDERSTANDzzzbt8ZcH"
        ]
      }
    },
    {
      "value": 0.00010000,
      "n": 69,
      "scriptPubKey": {
        "asm": "OP_HASH160 0bbabf6a35eddb85ee34e66d68b8d75cc44aacf4 OP_EQUAL",
        "hex": "a9140bbabf6a35eddb85ee34e66d68b8d75cc44aacf487",
        "reqSigs": 1,
        "type": "scripthash",
        "addresses": [
          "9sWHoxYoUxARExiNxoRDERxTozzzcUn5wr"
        ]
      }
    },
    {
      "value": 0.00010000,
      "n": 70,
      "scriptPubKey": {
        "asm": "OP_HASH160 089cd7641976137ff081471bfb516cdd96d4f46b OP_EQUAL",
        "hex": "a914089cd7641976137ff081471bfb516cdd96d4f46b87",
        "reqSigs": 1,
        "type": "scripthash",
        "addresses": [
          "9sDoxTHAT1xARExYoUxSTiLLzzzzVUGxb5"
        ]
      }
    },
    {
      "value": 0.00010000,
      "n": 71,
      "scriptPubKey": {
        "asm": "OP_HASH160 0afa452d6865d210073beee0e8b7e28612f78463 OP_EQUAL",
        "hex": "a9140afa452d6865d210073beee0e8b7e28612f7846387",
        "reqSigs": 1,
        "type": "scripthash",
        "addresses": [
          "9sSKEPTiCALxABoUTxTHEzzzzzzzaDYofk"
        ]
      }
    },
    {
      "value": 0.00010000,
      "n": 72,
      "scriptPubKey": {
        "asm": "OP_HASH160 082bb894afe7db2b8435ce852f30df14ef70a3e7 OP_EQUAL",
        "hex": "a914082bb894afe7db2b8435ce852f30df14ef70a3e787",
        "reqSigs": 1,
        "type": "scripthash",
        "addresses": [
          "9sBUSiNESSxCASExFoRxTHiSkzzzaH5puj"
        ]
      }
    },
    {
      "value": 0.00010000,
      "n": 73,
      "scriptPubKey": {
        "asm": "OP_HASH160 0b01f072d202e94ebf6fee4ee754fa7d71da447a OP_EQUAL",
        "hex": "a9140b01f072d202e94ebf6fee4ee754fa7d71da447a87",
        "reqSigs": 1,
        "type": "scripthash",
        "addresses": [
          "9sSURExYoUxAREvxBUTxJUSTzzzzXpLe7q"
        ]
      }
    },
    {
      "value": 0.00010000,
      "n": 74,
      "scriptPubKey": {
        "asm": "OP_HASH160 0ac5c769c935c9de15041569e21fc5ad0b0e4d85 OP_EQUAL",
        "hex": "a9140ac5c769c935c9de15041569e21fc5ad0b0e4d8587",
        "reqSigs": 1,
        "type": "scripthash",
        "addresses": [
          "9sREMEMBERxTHATxTHExNEXTzzzzYMELv6"
        ]
      }
    },
    {
      "value": 0.00010000,
      "n": 75,
      "scriptPubKey": {
        "asm": "OP_HASH160 08de2696adddf51f2a11a63db7d96251324c2a4c OP_EQUAL",
        "hex": "a91408de2696adddf51f2a11a63db7d96251324c2a4c87",
        "reqSigs": 1,
        "type": "scripthash",
        "addresses": [
          "9sFACEBooKxoRxGooGLExWiLLzzzVxQpcm"
        ]
      }
    },
    {
      "value": 0.00010000,
      "n": 76,
      "scriptPubKey": {
        "asm": "OP_HASH160 0a502cc0f2248a39b75ca2f1e9c87baa036c06f9 OP_EQUAL",
        "hex": "a9140a502cc0f2248a39b75ca2f1e9c87baa036c06f987",
        "reqSigs": 1,
        "type": "scripthash",
        "addresses": [
          "9sNoTxBExANYTHiNGxLiKEzzzzzzVkStZ3"
        ]
      }
    },
    {
      "value": 0.00010000,
      "n": 77,
      "scriptPubKey": {
        "asm": "OP_HASH160 0bba3546122338c9b7b0c815b863df562a76b262 OP_EQUAL",
        "hex": "a9140bba3546122338c9b7b0c815b863df562a76b26287",
        "reqSigs": 1,
        "type": "scripthash",
        "addresses": [
          "9sWHATxEXiSTSxToDAYzzzzzzzzzVeTdzn"
        ]
      }
    },
    {
      "value": 0.00010000,
      "n": 78,
      "scriptPubKey": {
        "asm": "OP_HASH160 07f61ce74fb1a6314a324f0ecb7a2b19044024c2 OP_EQUAL",
        "hex": "a91407f61ce74fb1a6314a324f0ecb7a2b19044024c287",
        "reqSigs": 1,
        "type": "scripthash",
        "addresses": [
          "9sANDxTRUExDiSRUPTioNxiSzzzzSSZpws"
        ]
      }
    },
    {
      "value": 0.00010000,
      "n": 79,
      "scriptPubKey": {
        "asm": "OP_HASH160 0e07c8df60450b8687cd7122ba6598190fbe73be OP_EQUAL",
        "hex": "a9140e07c8df60450b8687cd7122ba6598190fbe73be87",
        "reqSigs": 1,
        "type": "scripthash",
        "addresses": [
          "9siTSxoWNxBUSiNESSxMoDELzzzzXbB1r9"
        ]
      }
    },
    {
      "value": 0.00010000,
      "n": 80,
      "scriptPubKey": {
        "asm": "OP_HASH160 0b28f5752c18a36cef706fafa83729e887f267af OP_EQUAL",
        "hex": "a9140b28f5752c18a36cef706fafa83729e887f267af87",
        "reqSigs": 1,
        "type": "scripthash",
        "addresses": [
          "9sTHANKxYoUvxANDxGoDzzzzzzzzZ1Yd7w"
        ]
      }
    },
    {
      "value": 0.00010000,
      "n": 81,
      "scriptPubKey": {
        "asm": "OP_HASH160 0824ddc59abe8a70f3e47dd1896f575f04d22603 OP_EQUAL",
        "hex": "a9140824ddc59abe8a70f3e47dd1896f575f04d2260387",
        "reqSigs": 1,
        "type": "scripthash",
        "addresses": [
          "9sBLESSxYoURxPoiNTYzzzzzzzzzXxmSTr"
        ]
      }
    },
    {
      "value": 0.00010000,
      "n": 82,
      "scriptPubKey": {
        "asm": "OP_HASH160 09eb29756d63686bf4f7c2840d6ed117043aea64 OP_EQUAL",
        "hex": "a91409eb29756d63686bf4f7c2840d6ed117043aea6487",
        "reqSigs": 1,
        "type": "scripthash",
        "addresses": [
          "9sLiTTLExHEAD1zzzzzzzzzzzzzzWw1XCu"
        ]
      }
    }
  ],
  "blockhash": "ef32f980b34f084ffacf334f6c40557b68ef7c97e42f02ba5faca36b784ff000",
  "confirmations": 1611106,
  "time": 1569089955,
  "blocktime": 1569089955
}
