{
  "hex": "0100000001a69c82434d30918fa3e9a680a89e639526f8de9de38ae1a567262399d6c6f69b030000006b483045022100f3174a71c513d62e0c1a13f91492a1ee94d06ab0045670426fe94dd1f54f140a02207067124e0a7bc01a7f81b6db6fff44376049d4a1cd3223a730f81521105c18f40121037d7e23a1a8a3c62878f675b6056d8f6faff53616c498e388be680d86a706cf57feffffff0510270000000000001976a91455c184fb633ce9da47d8fdc33d0447dd0138e04388ac102700000000000017a9140b26afac184158b254f57ecfcc649626b54b399c87102700000000000017a914161ecfdf75dc964ea9bc937e6d0179d33a82a0fc87102700000000000017a9140b26afac184158b1b2524e8556ba5947f587d28d874079131e010000001976a9142331297217d18fa03fc5b9e583d8a3d5332905ae88ac8edc3000",
  "txid": "f8a129661dbc7e84ab92e201a2807b487191715aa364308604076abf22f744a0",
  "hash": "f8a129661dbc7e84ab92e201a2807b487191715aa364308604076abf22f744a0",
  "size": 322,
  "vsize": 322,
  "version": 1,
  "locktime": 3202190,
  "vin": [
    {
      "txid": "9bf6c6d699232667a5e18ae39ddef82695639ea880a6e9a38f91304d43829ca6",
      "vout": 3,
      "scriptSig": {
        "asm": "3045022100f3174a71c513d62e0c1a13f91492a1ee94d06ab0045670426fe94dd1f54f140a02207067124e0a7bc01a7f81b6db6fff44376049d4a1cd3223a730f81521105c18f4[ALL] 037d7e23a1a8a3c62878f675b6056d8f6faff53616c498e388be680d86a706cf57",
        "hex": "483045022100f3174a71c513d62e0c1a13f91492a1ee94d06ab0045670426fe94dd1f54f140a02207067124e0a7bc01a7f81b6db6fff44376049d4a1cd3223a730f81521105c18f40121037d7e23a1a8a3c62878f675b6056d8f6faff53616c498e388be680d86a706cf57"
      },
      "sequence": 4294967294
    }
  ],
  "vout": [
    {
      "value": 0.00010000,
      "n": 0,
      "scriptPubKey": {
        "asm": "OP_DUP OP_HASH160 55c184fb633ce9da47d8fdc33d0447dd0138e043 OP_EQUALVERIFY OP_CHECKSIG",
        "hex": "76a91455c184fb633ce9da47d8fdc33d0447dd0138e04388ac",
        "reqSigs": 1,
        "type": "pubkeyhash",
        "addresses": [
          "DCxXoXoXoXoXzzzzzzzzzzzzzzzzYMnNMT"
        ]
      }
    },
    {
      "value": 0.00010000,
      "n": 1,
      "scriptPubKey": {
        "asm": "OP_HASH160 0b26afac184158b254f57ecfcc649626b54b399c OP_EQUAL",
        "hex": "a9140b26afac184158b254f57ecfcc649626b54b399c87",
        "reqSigs": 1,
        "type": "scripthash",
        "addresses": [
          "9sTESTxLiNExoNEzzzzzzzzzzzzzb7UmpN"
        ]
      }
    },
    {
      "value": 0.00010000,
      "n": 2,
      "scriptPubKey": {
        "asm": "OP_HASH160 161ecfdf75dc964ea9bc937e6d0179d33a82a0fc OP_EQUAL",
        "hex": "a914161ecfdf75dc964ea9bc937e6d0179d33a82a0fc87",
        "reqSigs": 1,
        "type": "scripthash",
        "addresses": [
          "9tTESTxLiNExTWozzzzzzzzzzzzzZ4oXUT"
        ]
      }
    },
    {
      "value": 0.00010000,
      "n": 3,
      "scriptPubKey": {
        "asm": "OP_HASH160 0b26afac184158b1b2524e8556ba5947f587d28d OP_EQUAL",
        "hex": "a9140b26afac184158b1b2524e8556ba5947f587d28d87",
        "reqSigs": 1,
        "type": "scripthash",
        "addresses": [
          "9sTESTxLiNExTHREEzzzzzzzzzzzYdNAij"
        ]
      }
    },
    {
      "value": 47.99560000,
      "n": 4,
      "scriptPubKey": {
        "asm": "OP_DUP OP_HASH160 2331297217d18fa03fc5b9e583d8a3d5332905ae OP_EQUALVERIFY OP_CHECKSIG",
        "hex": "76a9142331297217d18fa03fc5b9e583d8a3d5332905ae88ac",
        "reqSigs": 1,
        "type": "pubkeyhash",
        "addresses": [
          "D8MB5oQpz1fpN6E1S6JWhNcSVq8xHU4EmS"
        ]
      }
    }
  ],
  "blockhash": "09e34a7009114e4869889103501191c654f1535c2a17ac4ce6e75eb2b9cc381e",
  "confirmations": 1312896,
  "time": 1587793727,
  "blocktime": 1587793727
}
