{
  "hex": "0100000001df1bf4b8a7842a0fc345f4184abb22c8931908e9d2b94291fa06aaec8f313dc8000000006b483045022100c8bf627d42b0ecb6d317ba04fc546438b50e433ae0807a96847446235de8a90702207023dacc85128a5a1d1ba8a6c4bac415f069159743695fb5ade0704308c1a338012102d32a3470167c3d55faab2726aa93b3f58d7bc0fc3627d34975525e275207e42dffffffff020605f6050000000017a914089c432b72d033c70842b7b021243d96fa1e0da58782bf47fe000000001976a914271e8e223de8e216e09dc90c1648d98889c0272488ac00000000",
  "txid": "faeaffeac9435a1a56019e020d5147393bbd4bcbde1179844a5a93baf172aa88",
  "hash": "faeaffeac9435a1a56019e020d5147393bbd4bcbde1179844a5a93baf172aa88",
  "size": 224,
  "vsize": 224,
  "version": 1,
  "locktime": 0,
  "vin": [
    {
      "txid": "c83d318fecaa06fa9142b9d2e9081993c822bb4a18f445c30f2a84a7b8f41bdf",
      "vout": 0,
      "scriptSig": {
        "asm": "3045022100c8bf627d42b0ecb6d317ba04fc546438b50e433ae0807a96847446235de8a90702207023dacc85128a5a1d1ba8a6c4bac415f069159743695fb5ade0704308c1a338[ALL] 02d32a3470167c3d55faab2726aa93b3f58d7bc0fc3627d34975525e275207e42d",
        "hex": "483045022100c8bf627d42b0ecb6d317ba04fc546438b50e433ae0807a96847446235de8a90702207023dacc85128a5a1d1ba8a6c4bac415f069159743695fb5ade0704308c1a338012102d32a3470167c3d55faab2726aa93b3f58d7bc0fc3627d34975525e275207e42d"
      },
      "sequence": 4294967295
    }
  ],
  "vout": [
    {
      "value": 1.00009222,
      "n": 0,
      "scriptPubKey": {
        "asm": "OP_HASH160 089c432b72d033c70842b7b021243d96fa1e0da5 OP_EQUAL",
        "hex": "a914089c432b72d033c70842b7b021243d96fa1e0da587",
        "reqSigs": 1,
        "type": "scripthash",
        "addresses": [
          "9sDoGE1BAMBooZLEDzzzzzzzzzzzUU5GWS"
        ]
      }
    },
    {
      "value": 42.66114946,
      "n": 1,
      "scriptPubKey": {
        "asm": "OP_DUP OP_HASH160 271e8e223de8e216e09dc90c1648d98889c02724 OP_EQUALVERIFY OP_CHECKSIG",
        "hex": "76a914271e8e223de8e216e09dc90c1648d98889c0272488ac",
        "reqSigs": 1,
        "type": "pubkeyhash",
        "addresses": [
          "D8hwVkdTnMgvcYYSXS7qU972NeX56j8tUC"
        ]
      }
    }
  ],
  "blockhash": "50c7adda88de7b9cfcdf00bb49c7e60be31e634bd43d419a5e786dd1bd042bba",
  "confirmations": 1567886,
  "time": 1571792433,
  "blocktime": 1571792433
}
