{
  "hex": "0100000001d89499bd9529bb09d2afbc90bc0786a82981d96d29e139ed8fd8fc1bc16e8583000000006b483045022100d4bd45c079e5930980d4baf0084784a3ac6701182be316a0b1796daf9d44fd9a022057e522b17761c1ee962a9d2b387576c09f280b8a1ae46853580b8be39fe7881c012103245108044717cc127c3b7aa76eb8c873a2fd73a0d06935634eda37bda831533bfeffffff1910270000000000001976a914540c07a795685d77795f0e0704ab13877f3c07c588ac102700000000000017a91407fa7a4d741e493511d09b5a3891eda8e480c61a87102700000000000017a9140ac59ed038ffa4ec11a1b7c80cc4f932551735e787102700000000000017a914084d1b96420f7b5704cd19dfd54a957ef99c52f187102700000000000017a91408b61d6847b9b4e1e3280c381c2ec3bdb08ff37d87102700000000000017a9140bcf51b9acd03c731373b03583f16dafa2bad04d87102700000000000017a9140af6358535cdea48fb9e18cb20f3ad03e20c205787102700000000000017a91408e1852df1823019c9c7fb5eb8806921328761e4874f853670130100001976a91447f12d283c109c36d7d58d98e3a8daf77900022588ac102700000000000017a9140ac5da6f961c6f2ee90940d9daccedd61146dc6787102700000000000017a91407ca7b2908a86eaa93efc65045f5213fe548342987102700000000000017a91412ee828805b3469831143d591aa2d0d3a6bb982f87102700000000000017a914130adac9c3e825a43db96f285dfae9a1b93178ce87102700000000000017a91415997a25017e238d35a2cf6050d898db7240c10b87102700000000000017a91413453bc15889577d5cbe1bf63ba860ffd945348b87102700000000000017a91412f0c1e1a7bbb250df97479365b20f6c70800e6087102700000000000017a91416570ab2881b4a0f3716613b31d4ad291c75f91287102700000000000017a91413a611aab87a3c854c1d2318a900b7e8bfe3030687102700000000000017a91413f54783338861428027b1ec188f1957f9fd207787102700000000000017a91413640bedc57eb571c2607051ff7ade16816c09d487102700000000000017a91412ecc1107c19d2713ce793961766b7fb509021e487102700000000000017a914130acc116088c1e7f1c806c8d91e88b05905e94e87102700000000000017a91414fc50d77298fa6fa2df2ddaa1513139a80cc42a87102700000000000017a91416361c2bd61da6ee24da1a4548c1c435333e3c0e87102700000000000017a914134d9bb82630c20665c5f61663c2f632c8d168f28799543000",
  "txid": "fd01b0063437324caa677f26ae49f319a75e21ac3ab198fb209f4d4744b87470",
  "hash": "fd01b0063437324caa677f26ae49f319a75e21ac3ab198fb209f4d4744b87470",
  "size": 962,
  "vsize": 962,
  "version": 1,
  "locktime": 3167385,
  "vin": [
    {
      "txid": "83856ec11bfcd88fed39e1296dd98129a88607bc90bcafd209bb2995bd9994d8",
      "vout": 0,
      "scriptSig": {
        "asm": "3045022100d4bd45c079e5930980d4baf0084784a3ac6701182be316a0b1796daf9d44fd9a022057e522b17761c1ee962a9d2b387576c09f280b8a1ae46853580b8be39fe7881c[ALL] 03245108044717cc127c3b7aa76eb8c873a2fd73a0d06935634eda37bda831533b",
        "hex": "483045022100d4bd45c079e5930980d4baf0084784a3ac6701182be316a0b1796daf9d44fd9a022057e522b17761c1ee962a9d2b387576c09f280b8a1ae46853580b8be39fe7881c012103245108044717cc127c3b7aa76eb8c873a2fd73a0d06935634eda37bda831533b"
      },
      "sequence": 4294967294
    }
  ],
  "vout": [
    {
      "value": 0.00010000,
      "n": 0,
      "scriptPubKey": {
        "asm": "OP_DUP OP_HASH160 540c07a795685d77795f0e0704ab13877f3c07c5 OP_EQUALVERIFY OP_CHECKSIG",
        "hex": "76a914540c07a795685d77795f0e0704ab13877f3c07c588ac",
        "reqSigs": 1,
        "type": "pubkeyhash",
        "addresses": [
          "DCoViDy19xPUBLiCxBRoADCASTzzTkjdio"
        ]
      }
    },
    {
      "value": 0.00010000,
      "n": 1,
      "scriptPubKey": {
        "asm": "OP_HASH160 07fa7a4d741e493511d09b5a3891eda8e480c61a OP_EQUAL",
        "hex": "a91407fa7a4d741e493511d09b5a3891eda8e480c61a87",
        "reqSigs": 1,
        "type": "scripthash",
        "addresses": [
          "9sATTENTioNxBLoCKCHAiNzzzzzzYN2UFN"
        ]
      }
    },
    {
      "value": 0.00010000,
      "n": 2,
      "scriptPubKey": {
        "asm": "OP_HASH160 0ac59ed038ffa4ec11a1b7c80cc4f932551735e7 OP_EQUAL",
        "hex": "a9140ac59ed038ffa4ec11a1b7c80cc4f932551735e787",
        "reqSigs": 1,
        "type": "scripthash",
        "addresses": [
          "9sREADERhxPLEASExREBRoADyzzzYUehzM"
        ]
      }
    },
    {
      "value": 0.00010000,
      "n": 3,
      "scriptPubKey": {
        "asm": "OP_HASH160 084d1b96420f7b5704cd19dfd54a957ef99c52f1 OP_EQUAL",
        "hex": "a914084d1b96420f7b5704cd19dfd54a957ef99c52f187",
        "reqSigs": 1,
        "type": "scripthash",
        "addresses": [
          "9sCASTxTHiSxMESSAGExATzzzzzzTzDDFj"
        ]
      }
    },
    {
      "value": 0.00010000,
      "n": 4,
      "scriptPubKey": {
        "asm": "OP_HASH160 08b61d6847b9b4e1e3280c381c2ec3bdb08ff37d OP_EQUAL",
        "hex": "a91408b61d6847b9b4e1e3280c381c2ec3bdb08ff37d87",
        "reqSigs": 1,
        "type": "scripthash",
        "addresses": [
          "9sELEVENyTHiRTYyTWozzzzzzzzzWa8KXy"
        ]
      }
    },
    {
      "value": 0.00010000,
      "n": 5,
      "scriptPubKey": {
        "asm": "OP_HASH160 0bcf51b9acd03c731373b03583f16dafa2bad04d OP_EQUAL",
        "hex": "a9140bcf51b9acd03c731373b03583f16dafa2bad04d87",
        "reqSigs": 1,
        "type": "scripthash",
        "addresses": [
          "9sWiTHxTHExDoGECoiNyCLizzzzzUe9Vj6"
        ]
      }
    },
    {
      "value": 0.00010000,
      "n": 6,
      "scriptPubKey": {
        "asm": "OP_HASH160 0af6358535cdea48fb9e18cb20f3ad03e20c2057 OP_EQUAL",
        "hex": "a9140af6358535cdea48fb9e18cb20f3ad03e20c205787",
        "reqSigs": 1,
        "type": "scripthash",
        "addresses": [
          "9sSENDMANYxCoMMANDzzzzzzzzzzZ4bFnf"
        ]
      }
    },
    {
      "value": 0.00010000,
      "n": 7,
      "scriptPubKey": {
        "asm": "OP_HASH160 08e1852df1823019c9c7fb5eb8806921328761e4 OP_EQUAL",
        "hex": "a91408e1852df1823019c9c7fb5eb8806921328761e487",
        "reqSigs": 1,
        "type": "scripthash",
        "addresses": [
          "9sFEELxFREExToxATTACHzzzzzzzWq1hPu"
        ]
      }
    },
    {
      "value": 11829.98627663,
      "n": 8,
      "scriptPubKey": {
        "asm": "OP_DUP OP_HASH160 47f12d283c109c36d7d58d98e3a8daf779000225 OP_EQUALVERIFY OP_CHECKSIG",
        "hex": "76a91447f12d283c109c36d7d58d98e3a8daf77900022588ac",
        "reqSigs": 1,
        "type": "pubkeyhash",
        "addresses": [
          "DBhVS7DwJmma5McDR3WLPxHAn39NGJ3cwF"
        ]
      }
    },
    {
      "value": 0.00010000,
      "n": 9,
      "scriptPubKey": {
        "asm": "OP_HASH160 0ac5da6f961c6f2ee90940d9daccedd61146dc67 OP_EQUAL",
        "hex": "a9140ac5da6f961c6f2ee90940d9daccedd61146dc6787",
        "reqSigs": 1,
        "type": "scripthash",
        "addresses": [
          "9sRESPoNSESxiNxTHEzzzzzzzzzzWGYZo9"
        ]
      }
    },
    {
      "value": 0.00010000,
      "n": 10,
      "scriptPubKey": {
        "asm": "OP_HASH160 07ca7b2908a86eaa93efc65045f5213fe5483429 OP_EQUAL",
        "hex": "a91407ca7b2908a86eaa93efc65045f5213fe548342987",
        "reqSigs": 1,
        "type": "scripthash",
        "addresses": [
          "9s9TxNAMESPACEhzzzzzzzzzzzzzbmVUcD"
        ]
      }
    },
    {
      "value": 0.00010000,
      "n": 11,
      "scriptPubKey": {
        "asm": "OP_HASH160 12ee828805b3469831143d591aa2d0d3a6bb982f OP_EQUAL",
        "hex": "a91412ee828805b3469831143d591aa2d0d3a6bb982f87",
        "reqSigs": 1,
        "type": "scripthash",
        "addresses": [
          "9tANYoNExWiTHxACCESSxTozzzzzVd4AJ3"
        ]
      }
    },
    {
      "value": 0.00010000,
      "n": 12,
      "scriptPubKey": {
        "asm": "OP_HASH160 130adac9c3e825a43db96f285dfae9a1b93178ce OP_EQUAL",
        "hex": "a914130adac9c3e825a43db96f285dfae9a1b93178ce87",
        "reqSigs": 1,
        "type": "scripthash",
        "addresses": [
          "9tAxWEBxBRoWSERxCANzzzzzzzzzS88CBc"
        ]
      }
    },
    {
      "value": 0.00010000,
      "n": 13,
      "scriptPubKey": {
        "asm": "OP_HASH160 15997a25017e238d35a2cf6050d898db7240c10b OP_EQUAL",
        "hex": "a91415997a25017e238d35a2cf6050d898db7240c10b87",
        "reqSigs": 1,
        "type": "scripthash",
        "addresses": [
          "9tQUiCKLYxSEExNEWxBRoADyzzzzSWP3ZA"
        ]
      }
    },
    {
      "value": 0.00010000,
      "n": 14,
      "scriptPubKey": {
        "asm": "OP_HASH160 13453bc15889577d5cbe1bf63ba860ffd945348b OP_EQUAL",
        "hex": "a91413453bc15889577d5cbe1bf63ba860ffd945348b87",
        "reqSigs": 1,
        "type": "scripthash",
        "addresses": [
          "9tCASTSvxBUTxMESSAGESxTHATzzXgLhmk"
        ]
      }
    },
    {
      "value": 0.00010000,
      "n": 15,
      "scriptPubKey": {
        "asm": "OP_HASH160 12f0c1e1a7bbb250df97479365b20f6c70800e60 OP_EQUAL",
        "hex": "a91412f0c1e1a7bbb250df97479365b20f6c70800e6087",
        "reqSigs": 1,
        "type": "scripthash",
        "addresses": [
          "9tARExSENTxATxANxAGREEDzzzzzUA7Yy6"
        ]
      }
    },
    {
      "value": 0.00010000,
      "n": 16,
      "scriptPubKey": {
        "asm": "OP_HASH160 16570ab2881b4a0f3716613b31d4ad291c75f912 OP_EQUAL",
        "hex": "a91416570ab2881b4a0f3716613b31d4ad291c75f91287",
        "reqSigs": 1,
        "type": "scripthash",
        "addresses": [
          "9tUPoNxTiMExARExMUCHzzzzzzzza9gksP"
        ]
      }
    },
    {
      "value": 0.00010000,
      "n": 17,
      "scriptPubKey": {
        "asm": "OP_HASH160 13a611aab87a3c854c1d2318a900b7e8bfe30306 OP_EQUAL",
        "hex": "a91413a611aab87a3c854c1d2318a900b7e8bfe3030687",
        "reqSigs": 1,
        "type": "scripthash",
        "addresses": [
          "9tEASiERxToxFiNDxiFxTHEYzzzzU4gxLY"
        ]
      }
    },
    {
      "value": 0.00010000,
      "n": 18,
      "scriptPubKey": {
        "asm": "OP_HASH160 13f54783338861428027b1ec188f1957f9fd2077 OP_EQUAL",
        "hex": "a91413f54783338861428027b1ec188f1957f9fd207787",
        "reqSigs": 1,
        "type": "scripthash",
        "addresses": [
          "9tFoLLoWxDiFFERENTzzzzzzzzzzZ4Gvu4"
        ]
      }
    },
    {
      "value": 0.00010000,
      "n": 19,
      "scriptPubKey": {
        "asm": "OP_HASH160 13640bedc57eb571c2607051ff7ade16816c09d4 OP_EQUAL",
        "hex": "a91413640bedc57eb571c2607051ff7ade16816c09d487",
        "reqSigs": 1,
        "type": "scripthash",
        "addresses": [
          "9tCoMPoSiTioNALxRULEShzzzzzzSieUzj"
        ]
      }
    },
    {
      "value": 0.00010000,
      "n": 20,
      "scriptPubKey": {
        "asm": "OP_HASH160 12ecc1107c19d2713ce793961766b7fb509021e4 OP_EQUAL",
        "hex": "a91412ecc1107c19d2713ce793961766b7fb509021e487",
        "reqSigs": 1,
        "type": "scripthash",
        "addresses": [
          "9tALSovxBYxSENDiNGxATzzzzzzzWMp1fy"
        ]
      }
    },
    {
      "value": 0.00010000,
      "n": 21,
      "scriptPubKey": {
        "asm": "OP_HASH160 130acc116088c1e7f1c806c8d91e88b05905e94e OP_EQUAL",
        "hex": "a914130acc116088c1e7f1c806c8d91e88b05905e94e87",
        "reqSigs": 1,
        "type": "scripthash",
        "addresses": [
          "9tAxSETxTiMEvxALLxoFxTHEzzzzZ8J5p9"
        ]
      }
    },
    {
      "value": 0.00010000,
      "n": 22,
      "scriptPubKey": {
        "asm": "OP_HASH160 14fc50d77298fa6fa2df2ddaa1513139a80cc42a OP_EQUAL",
        "hex": "a91414fc50d77298fa6fa2df2ddaa1513139a80cc42a87",
        "reqSigs": 1,
        "type": "scripthash",
        "addresses": [
          "9tMESSAGESxFoRxAxCERTAiNzzzzYvCP6P"
        ]
      }
    },
    {
      "value": 0.00010000,
      "n": 23,
      "scriptPubKey": {
        "asm": "OP_HASH160 16361c2bd61da6ee24da1a4548c1c435333e3c0e OP_EQUAL",
        "hex": "a91416361c2bd61da6ee24da1a4548c1c435333e3c0e87",
        "reqSigs": 1,
        "type": "scripthash",
        "addresses": [
          "9tTiMEyZoNExWiLLxBEzzzzzzzzzW156xk"
        ]
      }
    },
    {
      "value": 0.00010000,
      "n": 24,
      "scriptPubKey": {
        "asm": "OP_HASH160 134d9bb82630c20665c5f61663c2f632c8d168f2 OP_EQUAL",
        "hex": "a914134d9bb82630c20665c5f61663c2f632c8d168f287",
        "reqSigs": 1,
        "type": "scripthash",
        "addresses": [
          "9tCLUMPEDxToGETHERhzzzzzzzzzW4Ncwe"
        ]
      }
    }
  ],
  "blockhash": "91afd331fbf621567e8dddd428190b24a7bc65488163e87955f6667355525b51",
  "confirmations": 1347617,
  "time": 1585603596,
  "blocktime": 1585603596
}
